:100000000C94E2020C94FB120C94D4120C940A038C
:100010000C940A030C940A030C940A030C940A032C
:100020000C940A030C940A030C940A030C940A031C
:100030000C940A030C940A030C940A030C940A030C
:100040000C948A120C940A030C9448130C942213F7
:100050000C940A030C940A030C940A030C940A03EC
:100060000C940A030C940A0300000000003E5B4F4E
:100070005B3E3E6B4F6B3E1C3E7C3E1C183C7E3C08
:10008000181C577D571C1C5E7F5E1C00183C180016
:10009000FFE7C3E7FF0018241800FFE7DBE7FF30A6
:1000A000483A060E2629792926407F050507407F14
:1000B00005253F5A3CE73C5A7F3E1C1C08081C1C87
:1000C0003E7F14227F22145F5F005F5F06097F017D
:1000D0007F006689956A606060606094A2FFA29468
:1000E00008047E040810207E201008082A1C080836
:1000F0001C2A08081E101010100C1E0C1E0C303884
:100100003E3830060E3E0E06000000000000005F84
:1001100000000007000700147F147F14242A7F2AA0
:100120001223130864623649562050000807030062
:10013000001C2241000041221C002A1C7F1C2A08AE
:10014000083E080800807030000808080808000011
:1001500060600020100804023E5149453E00427F85
:10016000400072494949462141494D331814127FD4
:100170001027454545393C4A494931412111090774
:100180003649494936464949291E000014000000F5
:1001900040340000000814224114141414140041C7
:1001A00022140802015909063E415D594E7C121184
:1001B000127C7F494949363E414141227F414141BC
:1001C0003E7F494949417F090909013E4141517337
:1001D0007F0808087F00417F41002040413F017FA8
:1001E000081422417F404040407F021C027F7F0470
:1001F00008107F3E4141413E7F090909063E4151B9
:10020000215E7F09192946264949493203017F01A8
:10021000033F4040403F1F2040201F3F4038403FA9
:10022000631408146303047804036159494D4300BF
:100230007F4141410204081020004141417F0402F6
:10024000010204404040404000030708002054548D
:1002500078407F284444383844444428384444286B
:100260007F385454541800087E090218A4A49C78BE
:100270007F0804047800447D40002040403D007F1A
:100280001028440000417F40007C047804787C08FA
:100290000404783844444438FC18242418182424CE
:1002A00018FC7C08040408485454542404043F44B3
:1002B000243C4040207C1C2040201C3C4030403CE2
:1002C00044281028444C9090907C4464544C440042
:1002D00008364100000077000000413608000201A6
:1002E0000204023C2623263C1EA1A161123A404092
:1002F000207A38545455592155557941225454780F
:1003000042215554784020545579400C1E527212A7
:100310003955555559395454545939555454580030
:1003200000457C410002457D420001457C407D1234
:1003300011127DF0282528F07C5455450020545496
:100340007C547C0A097F4932494949323A44444441
:100350003A324A4848303A4141217A3A424020787C
:10036000009DA0A07D3D4242423D3D4040403D3C7D
:1003700024FF2424487E4943662B2FFC2F2BFF09A2
:1003800029F620C0887E0903205454794100004496
:100390007D413048484A32384040227A007A0A0A81
:1003A000727D0D19317D2629292F282629292926F4
:1003B00030484D4020380808080808080808382F39
:1003C00010C8ACBA2F102834FA00007B00000814C3
:1003D0002A142222142A14085500550055AA55AA99
:1003E00055AAFF55FF55FF000000FF00101010FF39
:1003F00000141414FF001010FF00FF1010F010F094
:10040000141414FC001414F700FF0000FF00FF1484
:1004100014F404FC141417101F10101F101F1414D0
:10042000141F00101010F0000000001F101010101A
:100430001F10101010F010000000FF10101010100E
:1004400010101010FF10000000FF140000FF00FF4C
:1004500000001F10170000FC04F4141417101714E8
:1004600014F404F40000FF00F7141414141414140A
:10047000F700F7141414171410101F101F1414147D
:10048000F4141010F010F000001F101F0000001FE7
:1004900014000000FC140000F010F01010FF10FF1A
:1004A000141414FF141010101F00000000F010FFAF
:1004B000FFFFFFFFF0F0F0F0F0FFFFFF0000000093
:1004C00000FFFF0F0F0F0F0F3844443844FC4A4A17
:1004D0004A347E02020606027E027E0263554941CC
:1004E000633844443C04407E201E2006027E020203
:1004F00099A5E7A5991C2A492A1C4C7201724C3017
:100500004A4D4D303048784830BC625A463D3E49ED
:100510004949007E0101017E2A2A2A2A2A44445F91
:10052000444440514A444040444A51400000FF0185
:1005300003E080FF000008086B6B08361236243693
:10054000060F090F060000181800000010100030F8
:1005500040FF0101001F01011E00191D1712003C80
:100560003C3C3C000000000000000000240027008C
:100570002A0000000000250028002B0000000000D9
:1005800023002600290004040404040404040202D5
:100590000202020203030303030301020408102002
:1005A000408001020408102001020408102000000D
:1005B0000008000201000003040700000000000022
:1005C00000007A1311241FBECFEFD8E0DEBFCDBFED
:1005D00013E0A0E0B1E0E2EBF0E402C005900D9280
:1005E000AE3FB107D9F724E0AEEFB3E001C01D92F2
:1005F000AB3FB207E1F712E0C2EED2E004C02197B0
:10060000FE010E94CA1CC13ED107C9F70E941814FE
:100610000C9457200C940000FC0120812EBD0DB4D9
:1006200007FEFDCF2EB5FC01208308950895833089
:1006300081F028F4813099F08230A9F00895873054
:10064000A9F08830C9F08430B1F4809180008F7DAA
:1006500003C0809180008F7780938000089584B5D7
:100660008F7784BD089584B58F7DFBCF8091B000D6
:100670008F778093B00008958091B0008F7DF9CF7F
:10068000CF93DF93282F30E0F901E255FA4F8491A0
:10069000F901E656FA4FD491F901EA57FA4FC4919D
:1006A000CC23A1F081110E941703EC2FF0E0EE0F94
:1006B000FF1FE458FA4FA591B491EC91ED2381E02E
:1006C00090E009F480E0DF91CF91089580E090E020
:1006D000FACF1F93CF93DF93282F30E0F901E25533
:1006E000FA4F8491F901E656FA4FD491F901EA578D
:1006F000FA4FC491CC23A9F0162F81110E94170341
:10070000EC2FF0E0EE0FFF1FEE58FA4FA591B491D9
:100710008FB7F894EC91111108C0D095DE23DC93CB
:100720008FBFDF91CF911F910895DE2BF8CFCF932C
:10073000DF9390E0FC01E656FA4F24918A579A4FD6
:10074000FC0184918823C9F090E0880F991FFC0177
:10075000E859FA4FA591B491FC01EE58FA4FC591B2
:10076000D49161110DC09FB7F8948C91209582238C
:100770008C938881282328839FBFDF91CF91089590
:10078000623051F49FB7F8943C91822F8095832377
:100790008C93E8812E2BEFCF8FB7F894EC912E2B12
:1007A0002C938FBFEACF8230910538F0880F991FC4
:1007B000880F991F05970197F1F708959F92AF92BF
:1007C000BF92CF92DF92EF92FF920F931F93CF933E
:1007D000DF93EC016B018885998511E0892B09F085
:1007E00010E8F601A0808A2D812399249394811129
:1007F000912C2C813D814E815F8160E271EA87E01E
:1008000090E00E948C1C022FB12CE22EF12C0023D0
:1008100019F0C7010E94D3038A85877F09F04FC072
:100820008D858F3F89F09A2D912381E009F480E036
:10083000891551F0EF85F8898F899923D1F190813D
:10084000892B808399249394E989FA898081998DF1
:10085000892B8083002319F0C7010E94D3038E8562
:100860008F3F39F0EB89FC898081988D892309F0CD
:10087000B12AE989FA899081898D809589238083BD
:100880008E858F3F11F0F601B08288859985892B7E
:1008900009F044C0110F1111BACFDF91CF911F9110
:1008A0000F91FF90EF90DF90CF90BF90AF909F900F
:1008B00008959081809589238083912CC5CFE98903
:1008C000FA898081998D892B8083002319F0C701D3
:1008D0000E94D3038D858F3F49F0EF85F8898F897A
:1008E0009A2D9123B9F09081892B8083E989FA8927
:1008F0009081898D8095892380838E858F3F09F42F
:10090000BFCFEB89FC898081988D892309F4B8CF0A
:10091000B12AB6CF908180958923E7CF1695BBCFBA
:100920003FB7F8948091260490912704A091280461
:10093000B091290426B5A89B05C02F3F19F0019658
:10094000A11DB11D3FBFBA2FA92F982F8827BC0129
:10095000CD01620F711D811D911D42E0660F771F51
:10096000881F991F4A95D1F708958F929F92AF9251
:10097000BF92CF92DF92EF92FF924B015C010E94F7
:1009800090046B017C010E9490046C197D098E0912
:100990009F09683E734081059105A8F321E0821A02
:1009A0009108A108B10888EEC80E83E0D81EE11CAA
:1009B000F11C81149104A104B10429F7FF90EF9078
:1009C000DF90CF90BF90AF909F908F9008952FB7FA
:1009D000F8946091220470912304809124049091F2
:1009E00025042FBF08950F931F93CF93DF93C091DA
:1009F0000001CC0FCC0FC093000182E00E944003A5
:100A0000892B19F0C260C093000183E00E9440036B
:100A1000892B29F080910001816080930001E09191
:100A20000001EF70F0E0E75FFC4F80819091FE03E2
:100A3000890F8093FE03843094F10E94900400910A
:100A4000F3041091F4042091F5043091F604601B36
:100A5000710B820B930BC1E0D0E0603375478105C9
:100A6000910510F4CAE0D0E00E9490046093F30472
:100A70007093F4048093F5049093F6048091140429
:100A8000909115048C0F9D1F90931504809314046E
:100A90001092FE03DF91CF911F910F9108958D3F2A
:100AA000CCF70E9490040091EF041091F004209183
:100AB000F1043091F204601B710B820B930BCFEFAA
:100AC000DFEF603375478105910510F4C6EFDFEF66
:100AD0000E9490046093EF047093F0048093F104FB
:100AE0009093F204CBCF0895DC01ED91FC9101903D
:100AF000F081E02D0994AF92BF92CF92DF92EF92F6
:100B0000FF920F931F93CF93DF936C017B018B01B7
:100B1000040F151FEB015E01AE18BF08C017D10707
:100B200059F06991D601ED91FC910190F081E02D91
:100B3000C6010995892B79F7C501DF91CF911F91E6
:100B40000F91FF90EF90DF90CF90BF90AF900895FE
:100B5000FC01538D448D252F30E0842F90E0821BC3
:100B6000930B541710F0CF96089501970895FC0148
:100B7000918D828D981761F0A28DAE0FBF2FB11DA0
:100B80005D968C91928D9F5F9F73928F90E00895F8
:100B90008FEF9FEF0895FC01918D828D981731F0B2
:100BA000828DE80FF11D858D90E008958FEF9FEF06
:100BB0000895FC01918D228D892F90E0805C9F4FDC
:100BC000821B91098F73992708958AE294E00E940D
:100BD000D90521E0892B09F420E0822F089580E0D7
:100BE00090E0892B29F00E94E50581110C9400000A
:100BF0000895FC01A48DA80FB92FB11DA35ABF4FB2
:100C00002C91848D90E001968F739927848FA6890B
:100C1000B7892C93A089B1898C91837080648C935F
:100C2000938D848D981306C00288F389E02D80810E
:100C30008F7D80830895EF92FF920F931F93CF9340
:100C4000DF93EC0181E0888F9B8D8C8D98131AC007
:100C5000E889F989808185FF15C09FB7F894EE89EE
:100C6000FF896083E889F98980818370806480834B
:100C70009FBF81E090E0DF91CF911F910F91FF9096
:100C8000EF900895F62E0B8D10E00F5F1F4F0F733E
:100C90001127E02E8C8D8E110CC00FB607FCFACFF9
:100CA000E889F989808185FFF5CFCE010E94F90599
:100CB000F1CFEB8DEC0FFD2FF11DE35AFF4FF082CA
:100CC0009FB7F8940B8FEA89FB8980818062CFCF30
:100CD000CF93DF93EC01888D8823B9F0AA89BB8973
:100CE000E889F9898C9185FD03C0808186FD0DC05E
:100CF0000FB607FCF7CF8C9185FFF2CF808185FF7F
:100D0000EDCFCE010E94F905E9CFDF91CF91089593
:100D1000FC0177FD55C080859185681779070CF037
:100D20004FC057FD4DC082859385481759070CF079
:100D300047C08689823009F444C0833009F44EC02C
:100D4000813031F48FE290E0861B970BBA01AC0141
:100D5000842FA62F93A1691708F4962F93A394A12B
:100D60009A1708F49A2F94A395A1891708F4982F3D
:100D700095A396A1981708F4982F96A3CA0157FD3A
:100D80000796E3E095958795EA95E1F7A4E5A89F96
:100D9000F001A99FF00D1124E60FF71FE55FFE4F4C
:100DA000CA0168E070E00E94781C41E050E001C098
:100DB000440F8A95EAF78081232BB9F0842B808336
:100DC000089583E590E0DC01A61BB70BBD018FE21F
:100DD00090E0DC01A41BB50BAD01BACF83E590E038
:100DE000841B950BAB01BC01B3CF40958423E7CFA7
:100DF0000895FC016370668B84819581268137811B
:100E0000613039F0633029F09187808733872287FA
:100E10000895318720879387828708952F923F9284
:100E20004F925F926F927F928F929F92AF92BF92FA
:100E3000CF92DF92EF92FF920F931F93CF93DF93A6
:100E4000CDB7DEB76A970FB6F894DEBF0FBECDBF41
:100E50009A8F898F7A8369834A01D22E18870F83EC
:100E60003701BC2CDC0159962D913C915A972115E4
:100E7000310509F015C118968D919C911997681745
:100E800079070CF0D7C11A968D919C914817590794
:100E90000CF0D0C14C2C512CB6E0CB9E600D711DD6
:100EA00011247C876B87161617060CF0C3C1EA2D38
:100EB000F0E0FA87E98793E0EE0FFF1F9A95E1F7DC
:100EC000F88BEF87CF01840F951F181619060CF0C9
:100ED000B1C1A98DBA8D58968C91811104C0BFEA19
:100EE000BD1508F4D394A98DBA8DED91FC9111979D
:100EF0000284F385E02DCD010995B5E0DB9EC001AC
:100F00001124E981FA81FC83EB83312C212C9C0193
:100F100028593F4F388F2F8B4A2D50E05E8B4D8BD9
:100F2000EF89F88DE20DF31D44919E828D82D12CC4
:100F3000C12C69817A81620D731D7A8B698B842F34
:100F400090E09C8B8B8BE98DFA8DA081B18140FF65
:100F500082C0F1E0BF126FC0AF126DC01C96ED9160
:100F6000FC912F813885A4014C0D5D1D69897A891A
:100F7000898D9A8D0995EB89FC89F595E7954E2F1A
:100F80005FEFC51AD50A6D817E818D899E89680FB4
:100F9000791F7E836D8398E0C916D10481F6AFEF87
:100FA0002A1A3A0AEB81FC81E40DF51DFC83EB83E0
:100FB000F5E02F16310409F0B3CF2F8138852615BF
:100FC0003705B9F0A98DBA8DED91FC91B1E0BB1256
:100FD00057C0AB1255C069817A816B5F7F4F008823
:100FE000F189E02D830128E030E0A401898D9A8DFC
:100FF0000995A98DBA8DED91FC9111970688F78915
:10100000E02DCD016A960FB6F894DEBF0FBECDBFBE
:10101000DF91CF911F910F91FF90EF90DF90CF90D4
:10102000BF90AF909F908F907F906F905F904F9008
:101030003F902F9009941E96ED91FC91EF80F884DB
:1010400009851A8592014D815E816B817C81898D34
:101050009A8D099590CF2F8138852615370509F48B
:101060008ACF31E0B31207C0A31205C01C96ED91E0
:10107000FC91930178CF1E96ED91FC917301E0CF26
:101080006B857C85641975090684F785E02D7301ED
:101090000F8518899201A401898D9A8D0995A9CF90
:1010A000F90134969491329745915491D91AB7E049
:1010B000DB9E400D511D1124F901259134913C8B8B
:1010C0002B8BFA0125903490FA0132967490319668
:1010D0003491398B329664903196449041E04C15AE
:1010E00018F04A1508F07FC0662D062C000C770B0F
:1010F0007C836B83842D042C000C990B9E838D8341
:10110000A98DBA8DED91FC9111970284F385E02DA4
:10111000CD010995512CD12CC12CEA2DF0E0FA8794
:10112000E9872B2D30E03C872B87A401440D511D0E
:1011300047FC5A95588F4F8B69817A81660D711DD6
:1011400067FC7A957E876D877989C71608F051CF3D
:101150002C2D30E04D815E81420F531FA985BA8549
:101160004A9FC0014B9F900D5A9F900D1124FC0186
:10117000E80DF91DF88BEF87852D612C4F89588D6F
:10118000420F531F5E8B4D8B671408F050C04424F0
:101190004394480E877041F4C1010196EB89FC89A4
:1011A000E20DF31DD4901C01D7FE19C0A98DBA8D94
:1011B000ED91FC91662D70E0B1E0BB1219C0AB124D
:1011C00017C02D853E85620F731F0484F585E02DC1
:1011D0002F8138854D895E89898D9A8D0995DD0C21
:1011E0006394842DD1CF1E821D821C821B8288CFE6
:1011F0004B815C81640F751FAB85BC856A9FC00104
:101200006B9F900D7A9F900D112469817A81680FF0
:10121000791F0684F785E02DEF80F88409851A850B
:101220009D014F855889898D9A8D0995D8CF570C86
:10123000C3948ACF6A960FB6F894DEBF0FBECDBFB7
:10124000DF91CF911F910F91FF90EF90DF90CF90A2
:10125000BF90AF909F908F907F906F905F904F90D6
:101260003F902F9008958F929F92AF92CF92EF92DE
:10127000FF920F931F93CF93DF93EC01262F898D5D
:101280009A8D009709F051C06A30D1F41D861C86F2
:101290008D8948E0849F900111248E859F85820F5F
:1012A000931F9F878E8781E090E0DF91CF911F9100
:1012B0000F91FF90EF90CF90AF909F908F900895F7
:1012C0006D3089F3CC88AD888F898823C1F08C85F7
:1012D0009D8536E0C39E800D911D1124488559855A
:1012E0004817590764F44E855F851D861C8638E0D3
:1012F000A39EC0011124840F951F9F878E87EA88C3
:10130000FB88088919894E855F856C857D85CE01AE
:101310000E940E072C898C859D8546E0249F800DB8
:10132000911D11249D878C87BECF6A3069F41D867C
:101330001C86FC013896E4912D898E859F85E29F5D
:10134000800D911D1124ADCF6D3009F4ACCFFC019F
:1013500034963491631708F4A6CF3296E491E617D9
:1013600008F4A1CFFC01329685909490462F431B40
:10137000342F47E0349F800C911C1124F4013296E5
:1013800034913196E4913323A9F1EE2399F1CC887D
:10139000F4013596E491AD884F89442301F10E2E76
:1013A000000CFF0BE30FF11DCE9EA001CF9E500D50
:1013B00011246C857D85460F571F688579856417D4
:1013C00075076CF44E855F851D861C86FC0138967A
:1013D000E491AE9E400D511D11245F874E87EA882F
:1013E000FB88088919894E855F856C857D85CE01CE
:1013F0000E940E07F4013496E4912C898C859D851A
:10140000E29F800D911D11248DCF6F927F928F925C
:101410009F92AF92BF92CF92DF92EF92FF920F9383
:101420001F93CF93DF93EC016B015A0139014801FF
:10143000E881F9810284F385E02D0995E881F9813D
:101440000288F389E02D87019301A501B601CE0141
:101450000995A501480D591D41505109E881F981AF
:101460000288F389E02D9301B601CE010995E88148
:10147000F9810088F189E02D9401A501B601CE0122
:101480000995C60CD71CB60161507109E881F98134
:101490000088F189E02D9401A501CE010995E8812C
:1014A000F9810688F789E02DCE01DF91CF911F9158
:1014B0000F91FF90EF90DF90CF90BF90AF909F90F3
:1014C0008F907F906F9009946F927F928F929F92EE
:1014D000AF92BF92CF92DF92EF92FF920F931F9342
:1014E000CF93DF935C01EB016A0149013801870169
:1014F000DC01ED91FC916217730719F5641675060E
:101500002CF0962D872D3A01C92ED82E960126193A
:1015100037092F5F3F4F048CF58DE02DA301BE01ED
:10152000C5010995DF91CF911F910F91FF90EF9029
:10153000DF90CF90BF90AF909F908F907F906F90F3
:1015400008954615570591F42617370724F0892D7D
:101550004B01C22FD82F9E01281939092F5F3F4F09
:10156000068CF78DE02DA601B401DACF0284F38555
:10157000E02D0995D501ED91FC910488F589E02DC8
:1015800083019401A601BE01C5010995D501ED9124
:10159000FC910688F789E02DC501DF91CF911F915D
:1015A0000F91FF90EF90DF90CF90BF90AF909F9002
:1015B0008F907F906F900994EF92FF920F931F93FB
:1015C000DC011A960D911C911B9718962D913C9158
:1015D0001997ED91FC9100A0F1A1E02D7B0150E065
:1015E00040E070E060E009951F910F91FF90EF904F
:1015F00008954F925F926F927F928F929F92AF92D7
:10160000BF92CF92DF92EF92FF920F931F93CF93EF
:10161000DF936C012B015A0139014801DC01ED9186
:10162000FC910284F385E02D0995E201640C751CA0
:10163000D601ED91FC91C615D7055CF40088F189BF
:10164000E02D87019401A501BE01C60109952196EF
:10165000EFCF0688F789E02DC601DF91CF911F916A
:101660000F91FF90EF90DF90CF90BF90AF909F9041
:101670008F907F906F905F904F9009948F929F9280
:10168000AF92BF92CF92DF92EF92FF920F931F9390
:10169000CF93DF93EC015B014A016901E881F98195
:1016A0000284F385E02D099595012C0D3D1D2150F7
:1016B0003109E881F9810488F589E02D78018401F8
:1016C000A401B501CE010995E881F9810688F78961
:1016D000E02DCE01DF91CF911F910F91FF90EF9000
:1016E000DF90CF90BF90AF909F908F9009948F9292
:1016F0009F92AF92BF92CF92DF92EF92FF920F93A1
:101700001F93CF93DF93EC015B014A0169017801DC
:10171000E881F9810284F385E02D0995C80CD91C74
:10172000860101501109E881F9810488F589E02DCD
:101730009501A401B501CE010995E881F9810688DA
:10174000F789E02DCE01DF91CF911F910F91FF908E
:10175000EF90DF90CF90BF90AF909F908F900994C3
:10176000EF92FF920F931F93DC01ED91FC9100A08B
:10177000F1A1E02D09951F910F91FF90EF90089531
:101780000F931F93DC01ED91FC91068CF78DE02DFA
:1017900009951F910F9108950F931F93DC01ED910F
:1017A000FC91048CF58DE02D09951F910F91089502
:1017B0002F923F924F925F926F927F928F929F9261
:1017C000AF92BF92CF92DF92EF92FF920F931F934F
:1017D000CF93DF9301E010E029E030E045E250E0F4
:1017E00066E070E088EC94E00E94CC0B54E0652E3B
:1017F000712C44244394512CF12CE12CC4E0D0E012
:1018000078EF272E33243A94EDEFCE2EDD24DA94B0
:101810008FEFE81AF80A82E0480E511CC40CD51C60
:10182000CE15DF050CF44EC04E01880C991C8FEFCD
:10183000881A980A01E010E0940149E2A42EB12C24
:10184000AC1ABD0AA501B7016A5F7F4F88EC94E02E
:101850000E94CC0B9401A50166E070E06E197F092F
:1018600088EC94E00E94CC0BC615D705F9F0B301C3
:101870006A5F7F4F01E010E0420182E0881A910820
:1018800094018AE2A82EB12CAE18BF08A50188ECFD
:1018900094E00E94CC0B66E070E066197709940131
:1018A000A50188EC94E00E94CC0B3E01EC16FD06ED
:1018B00064F4D7FCADCF219782E0280E311CC20C16
:1018C000D31CA6CFC615D70591F6DF91CF911F91F6
:1018D0000F91FF90EF90DF90CF90BF90AF909F90CF
:1018E0008F907F906F905F904F903F902F900895D2
:1018F000DC01ED91FC910084F185E02D09942F929B
:101900003F924F925F926F927F928F929F92AF928F
:10191000BF92CF92DF92EF92FF920F931F93CF93DC
:10192000DF9321E030E04FE250E066E070E088ECC9
:1019300094E00E94780C21E030E043E250E066E061
:1019400070E088EC94E00E94780C21E030E049E2FD
:1019500050E06CE070E088EC94E00E94780C21E0AC
:1019600030E049E250E070E060E088EC94E00E94F2
:10197000780C44244394512C10E000E0C6E0D0E001
:1019800034EF632E77247A944BEFE42EFF24FA94FD
:1019900056E0252E312C0F5F1F4F82E0480E511C60
:1019A000E40CF51C480186E0880E911C21E030E033
:1019B0006E0189E2C80ED11CA601B40188EC94E046
:1019C0000E94780C5101A01AB10A21E030E0A60172
:1019D000B50188EC94E00E94780C21E030E089E2C7
:1019E000C82ED12CCC1ADD0AA601B40188EC94E0F3
:1019F0000E94780C21E030E0A601B50188EC94E06B
:101A00000E94780C680189E2C80ED11C21E030E008
:101A1000A6015E0186E0A80EB11CB50188EC94E039
:101A20000E94780C21E030E0A6016101CC1ADD0AA9
:101A3000B60188EC94E00E94780C99E2892E912CF2
:101A4000801A910A21E030E0A401B50188EC94E00D
:101A50000E94780C21E030E0A401B60188EC94E00B
:101A60000E94780C0C171D079CF0DF91CF911F91FD
:101A70000F91FF90EF90DF90CF90BF90AF909F902D
:101A80008F907F906F905F904F903F902F90089530
:101A9000F7FC81CF219782E0680E711CE60CF71CE1
:101AA0007ACF2F923F924F925F926F927F928F9256
:101AB0009F92AF92BF92CF92DF92EF92FF920F93DD
:101AC0001F93CF93DF9300D000D000D0CDB7DEB707
:101AD0003C016A013E832D83FC82EB825801A41AEB
:101AE000B50AB7FE03C0B194A194B1088D809E8061
:101AF000861A970A97FE03C09194819491088A14DC
:101B00009B045CF0902F812F0D811E819D838E831D
:101B10009C2D8D2D6B01692F782F0C151D055CF008
:101B20009D818E817E836D83692F782F902F812FE9
:101B30008601C92ED82E1601201A310A2B012D81BB
:101B40003E81421A530A57FE03C0519441945108F2
:101B5000710137FE03C03FEFE31AF30AF594E794EF
:101B60008D819E81861797075CF5A1E0B0E0BA836E
:101B7000A983C016D1064CF1D301ED91FC910484E8
:101B8000F585E02D2B813C81A8016D817E818A1431
:101B90009B041CF04D815E81B801C3010995E418D6
:101BA000F508F7FE0AC02D813E8189819A81280FB0
:101BB000391F3E832D83E20CF31C0F5F1F4FD9CFDB
:101BC0002FEF3FEF3A832983D4CF26960FB6F894B0
:101BD000DEBF0FBECDBFDF91CF911F910F91FF9060
:101BE000EF90DF90CF90BF90AF909F908F907F90BD
:101BF0006F905F904F903F902F900895089590E0E0
:101C000080E00895CF93CFB7F8948091FF038111BE
:101C100027C0E0E9F5E08491E4EAF5E09491E82F4B
:101C2000F0E0EE0FFF1FE859FA4FA591B491EC9147
:101C3000E92321F461E08AE00E94690361E08AE01F
:101C40000E9497038CB580618CBD8CB580648CBD7F
:101C500061E08DE00E94970361E08BE00E949703B2
:101C60008091FF038F5F8093FF03CFBFCF910895D3
:101C7000CF93C82F0E944003019731F48C2F0E940C
:101C8000400321E0019709F020E0822FCF910895D1
:101C9000CF93C82F0E944003892B31F48C2F0E94D0
:101CA000400321E0892B09F020E0822FCF91089595
:101CB00080E190E00E94480E882319F081E0809333
:101CC0001A048FE090E00E94480E882319F081E00A
:101CD000809318048EE090E00E94480E882319F04B
:101CE00081E08093190408950CB405FC0DC09EBDDD
:101CF00000000DB407FEFDCF9EB58EBD00000DB4F3
:101D000007FEFDCF8EB508958EBD00000DB407FE11
:101D1000FDCF8EB59EBD00000DB407FEFDCF9EB574
:101D200008958EBD00000DB407FEFDCF8EB5089559
:101D30008CBD9DBD0895AF92BF92CF92DF92EF927E
:101D4000FF920F931F93CF93DF931F92CDB7DEB710
:101D50008C015B016A01DC018D919C911197892BAB
:101D600039F01296ED91FC91808191810E94980E3C
:101D7000F80183858F3F19F060E00E9469037501C7
:101D8000CA0CDB1CEC14FD04A9F0D7018D917D0178
:101D90008983F80180819181892B29F0CE010196F8
:101DA0000E940C03EFCFBE016F5F7F4FC8010E94FE
:101DB000DE03E8CFD8011B968C918F3F19F061E0CC
:101DC0000E94690381E00F90DF91CF911F910F91E5
:101DD000FF90EF90DF90CF90BF90AF9008950F935A
:101DE0001F93CF93DF931F92CDB7DEB78C0169832A
:101DF00060E0FC01868D0E94690341E050E0BE0175
:101E00006F5F7F4FF801838D948D0E949B0E0F9022
:101E1000DF91CF911F910F910895CF93C82F87FD28
:101E2000CFE7C093E70461E288EC94E00E94EF0EF4
:101E30006C2F606888EC94E00E94EF0E60E288EC02
:101E400094E0CF910C94EF0ECF938091E50487FD41
:101E500013C061E00E94970360E08091E5040E9456
:101E6000690361E070E080E090E00E94B50461E009
:101E70008091E5040E946903C091E804C83008F02D
:101E8000C7E0C093E80461E288EC94E00E94EF0EA2
:101E90006C2F606188EC94E00E94EF0E60E288ECA9
:101EA00094E00E94EF0E8091E7040E940D0F60E223
:101EB00088EC94E00E94EF0E6CE088EC94E0CF9107
:101EC0000C94EF0EFF920F931F93CF93DF9390919B
:101ED000E904992339F08091EA048F5F8917E8F5C6
:101EE0008093EA04D091ED04D695D695D69584E5F5
:101EF000D89F800111248091EE0486958695869561
:101F00008D1780F16D2F606488EC94E00E94EF0ED5
:101F1000C091EB04F090EC046C2F606888EC94E0C6
:101F20000E94EF0E61E08091E6040E9469034F2D4C
:101F300050E06C2F70E0461B570B4F5F5F4F600FF8
:101F4000711F655F7E4F8091E3049091E4040E94CD
:101F50009B0EDF5F0C5A1F4FCECF1092EA040E94F7
:101F6000240FC0CF60E488EC94E00E94EF0E83E57C
:101F70008093EB041092EC048FE28093ED041092B6
:101F8000EE04DF91CF911F910F91FF9008951F9361
:101F9000CF93DF93EC01162F60E20E94EF0E6CE00E
:101FA00011116DE0CE01DF91CF911F910C94EF0ED6
:101FB000EBE0F1E088EF91E0DF019C011D92215000
:101FC0003040E1F71092EB048091EC04833508F483
:101FD00083E58093EC041092ED048091EE048F323F
:101FE00008F48FE28093EE041092D5041092D4048A
:101FF0001092D7041092D60408950E945220FB013B
:1020000001900020E9F73197AF01461B570BDC0127
:10201000ED91FC910280F381E02D09948F929F92C3
:10202000AF92BF92EF92FF920F931F93CF93DF93E4
:10203000CDB7DEB7A1970FB6F894DEBF0FBECDBF08
:102040007C01FA01CB0119A2223008F42AE08E01AA
:102050000F5D1F4F822E912CB12CA12CBF01A50129
:1020600094010E948C1CF901CA016A300CF5605D74
:10207000D8016E938D01232B242B252B79F790E02B
:1020800080E0109721F0BD01C7010E94FF0FA196CB
:102090000FB6F894DEBF0FBECDBFDF91CF911F9179
:1020A0000F91FF90EF90BF90AF909F908F90089509
:1020B000695CDECFCF92DF92EF92FF920F931F9376
:1020C000CF93DF936B01770FEE08FF08F7FE1BC07D
:1020D000EC016DE20E9474058C0144275527BA017A
:1020E0004C195D096E097F092AE0CE010E940E108D
:1020F000800F911FDF91CF911F910F91FF90EF9073
:10210000DF90CF9008952AE0B701A601DF91CF912B
:102110001F910F91FF90EF90DF90CF900C940E10D5
:10212000CF93DF93BC018AE294E00E94FF0FEC01A1
:1021300067E573E08AE294E00E94FF0F8C0F9D1F19
:10214000DF91CF91089560E08AE00E94690385E500
:102150000E94910E80E090E20E94740E61E08AE09D
:102160000E94690361E070E080E090E00E94B504A5
:102170008AE593E00E94901084E693E00C9490101E
:102180002F923F924F925F926F927F928F929F9287
:10219000AF92BF92CF92DF92EF92FF921F93CF93B5
:1021A000DF93EC016A017B01722EAB019601CB013A
:1021B000B6010E94281F6FE773E0811126C0460117
:1021C0005701E894B7F82FEF3FEF4FE75FE7C501FE
:1021D000B4010E94281F81110CC02FEF3FEF4FE781
:1021E0005FE7C501B4010E94571D63E873E018164C
:1021F00064F02FEF3FEF4FE75FE4C701B6010E94A5
:10220000B61E1816B4F467E873E0CE01DF91CF91E3
:102210001F91FF90EF90DF90CF90BF90AF909F9075
:102220008F907F906F905F904F903F902F900C9485
:10223000FF0F2FEF3FEF4FE75FECC701B6010E94A2
:10224000571D87FDE0CF20E030E0A901C701B601AE
:102250000E94571D312C212C87FF09C06DE2CE0151
:102260000E9474051C01F7FAF094F7F8F09410E05E
:1022700060E070E080E09FE3711641F020E030E024
:1022800040E251E40E945C1D1F5FF6CFA70196015A
:102290000E94EB1C2B013C010E94D51D4B015C01EF
:1022A0002AE0BC01A401CE010E940E107C01E20CC8
:1022B000F31C1123C1F1C501B4010E94041E9B014E
:1022C000AC01C301B2010E94EA1C4B015C016EE249
:1022D000CE010E947405E80EF91E115020F120E095
:1022E00030E040E251E4C501B4010E94BB1E2B0165
:1022F0003C010E94D51D4B01B12CA12C2AE0B50157
:10230000A401CE010E940E10E80EF91EC501B40111
:102310000E94041E9B01AC01C301B2010E94EA1C91
:102320004B015C01DACFC701DF91CF911F91FF9084
:10233000EF90DF90CF90BF90AF909F908F907F9065
:102340006F905F904F903F902F900895CF93DF93C1
:10235000AB01BC0122E08AE294E00E94C010EC01D3
:1023600067E573E08AE294E00E94FF0F8C0F9D1FE7
:10237000DF91CF9108950C94FF0F0F931F93CF938C
:10238000DF93EC018B0160911B0470911C04809120
:102390001D0490911E0420E03FEF4FE757E40E9498
:1023A000BB1E20E030E040EC51E40E945C1D0E9426
:1023B000D51D6093100470931104809312049093C0
:1023C000130460910C0470910D0480910E0490919F
:1023D0000F0420E030E040E251E40E945C1D20E068
:1023E00030E040E85FE30E94EB1C20E030E040E09A
:1023F0005FE30E94BB1E20E03FEF4FE757E40E94DF
:10240000BB1E0E94D51D609300047093010480934D
:10241000020490930304D06160E08AE00E946903A3
:1024200085E50E94910ECE010E94740E61E08AE063
:102430000E94690361E070E080E090E00E94B504D2
:1024400060E08AE00E94690381E00E94910EF80139
:1024500080819181A281B3810E94740E61E08AE043
:102460000E94690361E070E080E090E00E94B504A2
:102470006BE873E08AE294E00E94BB11AE0170E069
:1024800060E020E18AE294E00E940E1067E573E0CC
:102490008AE294E00E94FF0F6BE973E08AE294E025
:1024A0000E94BB11F801408151816281738120E15A
:1024B0008AE294E00E940E1067E573E08AE294E0FD
:1024C0000E94FF0F6BEA73E08AE294E00E94BB1166
:1024D00060911B0470911C0480911D0490911E0456
:1024E0000E94A6116BEB73E08AE294E00E94BB119C
:1024F00060910C0470910D0480910E0490910F0472
:102500000E94A61184E693E0DF91CF911F910F9175
:102510000C9490101F920F920FB60F9211242F93CC
:102520003F938F939F93AF93BF9380912204909199
:102530002304A0912404B09125043091210423E0C8
:10254000230F2D3758F50196A11DB11D20932104AD
:102550008093220490932304A0932404B093250431
:102560008091260490912704A0912804B091290419
:102570000196A11DB11D8093260490932704A0937A
:102580002804B0932904BF91AF919F918F913F91FF
:102590002F910F900FBE0F901F90189526E8230FD4
:1025A0000296A11DB11DD2CF1F920F920FB60F92AE
:1025B00011242F933F934F935F936F937F938F9348
:1025C0009F93AF93BF93EF93FF93E0910301F0913B
:1025D00004010995FF91EF91BF91AF919F918F9168
:1025E0007F916F915F914F913F912F910F900FBE0F
:1025F0000F901F9018951F920F920FB60F921124F3
:102600002F933F934F935F936F937F938F939F93FA
:10261000AF93BF93EF93FF93E0910101F09102011B
:102620000995FF91EF91BF91AF919F918F917F910C
:102630006F915F914F913F912F910F900FBE0F902F
:102640001F9018951F920F920FB60F9211242F937F
:102650003F934F935F936F937F938F939F93AF932A
:10266000BF93EF93FF938AE294E00E94F905FF91F4
:10267000EF91BF91AF919F918F917F916F915F91FA
:102680004F913F912F910F900FBE0F901F90189573
:102690001F920F920FB60F9211242F938F939F9337
:1026A000EF93FF93E0913A04F0913B048081E09135
:1026B0004004F091410482FD1BC09081809143044D
:1026C0008F5F8F7320914404821741F0E09143049F
:1026D000F0E0E65DFB4F958F80934304FF91EF910F
:1026E0009F918F912F910F900FBE0F901F90189573
:1026F0008081F4CF0F931F93CF93DF93EAE2F4E04E
:102700001382128288EE93E0A0E0B0E08483958388
:10271000A683B7838DE193E09183808385EC90E07D
:102720009587848784EC90E09787868780EC90E09B
:10273000918B808B81EC90E0938B828B82EC90E08C
:10274000958B848B86EC90E0978B868B118E128E06
:10275000138E148E0E9490046093F3047093F4041B
:102760008093F5049093F6040E9490046093EF0424
:102770007093F0048093F1049093F204C8ECD4E0D9
:102780001B821A8224E530E03D832C8380E390E0B5
:102790009F838E83398728879B878A871E8A1D8619
:1027A0001C861F861E8681E08D8B8C8B2FEF3FEF62
:1027B0003B8B2A8B398B288B8F8B188E1A8E198E18
:1027C0008FE293E0998388838CE190E00E942D1F33
:1027D0008C0185E0F80183878FEF86878587848762
:1027E00087EC94E091838083138E82E090E00E94D6
:1027F0002D1F20E5FC0120831182F8019383828341
:1028000080E099E0ADE3B0E084839583A683B7834D
:1028100081E090E09187808712861C8F0B8F86E085
:102820008E8F84E08D8FDF91CF911F910F9108954E
:10283000CF93DF93CDB7DEB763970FB6F894DEBFC3
:102840000FBECDBF789484B5826084BD84B58160AD
:1028500084BD85B5826085BD85B5816085BD80916B
:102860006E00816080936E001092810080918100E3
:1028700082608093810080918100816080938100DB
:10288000809180008160809380008091B10084609D
:102890008093B1008091B00081608093B0008091FE
:1028A0007A00846080937A0080917A0082608093BD
:1028B0007A0080917A00816080937A0080917A001A
:1028C000806880937A001092C100E0913A04F09100
:1028D0003B0482E08083E0913604F091370410825B
:1028E000E0913804F09139048FEC80831092420417
:1028F000E0913E04F0913F0486E08083E0913C0447
:10290000F0913D04808180618083E0913C04F091EE
:102910003D04808188608083E0913C04F0913D0417
:10292000808180688083E0913C04F0913D04808147
:102930008F7D80838BEC93E00E9490108CED93E070
:102940000E9490100E94020E81E590E00E94980E75
:1029500061E08AE00E9497032091E3043091E4044F
:102960003A832983D9011B968C918F3F49F061E00E
:102970000E94970361E0E981FA8183850E946903DF
:10298000A981BA818D919C91892B09F484C00E9400
:10299000020E81E0E981FA81838F61E08091E60493
:1029A0000E9497038091E50487FD03C061E00E94C7
:1029B000970384E08093E80488E28093E704109210
:1029C000E9041092EA040E94240F1092EB04809113
:1029D000EC04833508F483E58093EC041092ED0455
:1029E0008091EE048F3208F48FE28093EE040E940F
:1029F000620F84E60E940D0F0E94D80F62E080E112
:102A00000E94970362E08FE00E94970362E08EE0ED
:102A10000E94970361E088E00E94970361E087E0ED
:102A20000E94970362E082E00E94970362E083E0E5
:102A30000E94970323EF34E03093020120930101B9
:102A4000809169008C7F816080936900E89A30935F
:102A500004012093030180916900837F8460809347
:102A60006900E99A60E087E00E94690380911F0491
:102A700090912004009709F43FC0019709F4B5C470
:102A800080E090E0892B91F30E94E505882371F3A3
:102A90000E940000EBCF61E0E981FA8184850E9409
:102AA0009703A981BA811A968C911A978B7FF9F4B2
:102AB00060E01C968C910E946903A981BA811D96E1
:102AC0008C918F3F49F061E00E94970361E0E981BA
:102AD000FA8185850E946903A981BA811E968C912D
:102AE0008F3F09F456CF60E00E94970352CF61E018
:102AF000E981FA818485DFCF19821A821B821C82C8
:102B0000412C512C32011986F1E0FE87312C222410
:102B100023940E94E7046D837E838F83988720919E
:102B20000C0430910D0440910E0450910F042A873B
:102B30003B874C875D873E85332309F41AC180911A
:102B4000080490910904A0910A04B0910B048E87A7
:102B50009F87A88BB98B0E94D80F80900C0490900F
:102B60000D04A0900E04B0900F0460910C047091BD
:102B70000D0480910E0490910F0420E030E0A90133
:102B80000E94571D87FF1FC0B7FAB094B7F8B094E2
:102B9000EE24E394F12C0AE010E024E030E04AE077
:102BA00050E070E060E088EC94E00E94640A0BE082
:102BB00010E024E030E04BE050E070E060E088ECB2
:102BC00094E00E94640AC501B4010E94CE1D6B010D
:102BD0007B8B6A8B072E000C880B990B0E94061EBC
:102BE0009B01AC01C501B4010E94EA1C20E030E069
:102BF00048EC52E40E94BB1E4B015C0193E09093B1
:102C0000DC049093DD04D6011A970CF0E0C1E7E0F4
:102C1000F0E0F093D504E093D4041092D70410921E
:102C2000D60465EE73E088EC94E00E94BB1129E1C4
:102C300030E03093D5042093D4041092D70410923E
:102C4000D604B60188EC94E00E945A10C501B40184
:102C50000E94CE1D6B0120E030E040E251E4C5014E
:102C6000B4010E94571D87FFB9C180E390E09093A3
:102C7000D5048093D4041092D7041092D60465EE44
:102C800073E088EC94E00E94BB1182E490E09093A2
:102C9000D5048093D4041092D7041092D604B601C0
:102CA00088EC94E00E945A10B2E0B093DC04B09338
:102CB000DD04E6E2F0E0F093D504E093D40428E0EC
:102CC00030E03093D7042093D60467EE73E088ECAD
:102CD00094E00E94BB1148E450E05093D504409327
:102CE000D40480E290E09093D7048093D60469EEF8
:102CF00073E088EC94E00E94BB11809109019091EF
:102D00000A01EE24E394F12C08E110E027E230E020
:102D100048E150E068E170E0019731F021E530E0F2
:102D200048E150E062E470E088EC94E00E94640ABC
:102D300091E09093DC049093DD04AEE1B0E0B093B9
:102D4000D504A093D404E7E2F0E0F093D704E09335
:102D5000D60422E04E855F856889798988EC94E005
:102D60000E94C01031100E94D80B0E947F0C0E945C
:102D7000620F0E94580EF0911A04FE87FF2309F497
:102D800034C180E190E00E94380E882309F42DC1FF
:102D90002091090130910A012130310509F077C1F4
:102DA000A2E0B0E0B0930A01A093090110921A04C6
:102DB0008E87412C512C320180911904882391F087
:102DC0008EE090E00E94380E8A8B882359F03320E1
:102DD00009F48CC10E94A310312C109219042A8985
:102DE0002E87222E80911804811182C180911604B1
:102DF00090911704209114043091150482179307C1
:102E000009F088C1C0900404D0900504E090060445
:102E1000F09007040E94E704A7019601261B370BD8
:102E2000480B590BDA01C90181339547A105B1055A
:102E300070F040E3C40E45E7D41EE11CF11CC092C3
:102E40000404D0920504E0920604F09207043320B3
:102E500009F4A6C020910C0430910D0440910E0499
:102E600050910F046A857B858C859D850E94571D36
:102E7000811102C0222031F060E074E083E090E232
:102E80000E94BD118091050190910601A09107015A
:102E9000B09108012D813E814F815885281B390B47
:102EA0004A0B5B0BDA01C901212C883E9340A10536
:102EB000B10508F475C08D819E81AF81B88580937E
:102EC000050190930601A0930701B093080187E4E0
:102ED00080937C0080917A00806480937A00809156
:102EE0007A0086FDFCCF6091780070917900072E02
:102EF000000C880B990B0E94061E29EE36EA42EF61
:102F000053E40E94EA1C2AEA30E64FE152E40E94B0
:102F10005C1D6B017C01C0920804D0920904E09210
:102F20000A04F0920B0460910C0470910D048091DE
:102F30000E0490910F042DEC3CEC4CEC5DE30E94F0
:102F4000EA1CA70196010E94571D1816A4F0609173
:102F50000C0470910D0480910E0490910F042DECDF
:102F60003CEC4CEC5DE30E94EB1CA70196010E9437
:102F7000B61E87FF37C284EF93E00E9490106091E5
:102F800008047091090480910A0490910B040E9436
:102F9000A61184E693E00E949010212C91E09E8778
:102FA0000E94E7042D813E814F815885621B730B7F
:102FB000840B950B693171058105910508F0A9CD48
:102FC00062E070E080E090E00E94B504E9CF47E065
:102FD00050E05093D5044093D4042FCEA0E3B0E04A
:102FE000B093D504A093D40456CE0E94E7046B019D
:102FF0007C012E85222309F4DFCE411451046104A3
:103000007104A9F136E0431651046104710470F0B3
:1030100089819A81AB81BC8188539F4FAF4FBF4F4D
:10302000C816D906EA06FB0608F059C4AEECBFEF95
:10303000A30192010E94B11C89809A80AB80BC8060
:1030400044EF840E41E0941EA11CB11C860E971E15
:10305000A81EB91EC814D904EA04FB0408F43FC032
:1030600057EE451653E055066104710458F48FEF8E
:10307000481A580A680A780A95E04916510461040A
:10308000710461F0C982DA82EB82FC8228C021508F
:10309000310930930A012093090188CEB985BB23F9
:1030A00001F160E088E00E9469031E866BEE73E028
:1030B0008AE294E00E94BB11EE856E2F70E08AE2F6
:1030C00094E00E945A1067E573E08AE294E00E945F
:1030D000FF0FC982DA82EB82FC82FE85F9871E86A9
:1030E0006BCE61E088E00E946903E0CF3A8875CE3C
:1030F0008FE090E00E94380E882309F477CE81E0BB
:1031000090E09093200480931F040E94A3101092DB
:103110001804B6CCC0900C04D0900D04E0900E04BE
:10312000F0900F044091140450911504209109016E
:1031300030910A01841795070CF0C6C04091140421
:1031400050911504841795074CF440911404509144
:1031500015040A96841795070CF44EC021303105EA
:1031600009F0A5C060910C0470910D0480910E04CB
:1031700090910F0420E030E040E85FE30E94EB1CF8
:1031800060930C0470930D0480930E0490930F04CD
:1031900020E030E0A901C701B6010E94571D87FF5A
:1031A00045C020E030E040E85FEBC701B6010E9477
:1031B000B61E1816DCF520910C0430910D044091D8
:1031C0000E0450910F04C701B6010E94571D87FFDE
:1031D0002DC080900C0490900D04A0900E04B0902F
:1031E0000F0420E030E040E050ECC701B6010E943F
:1031F000BB1EA501940110C060910C0470910D04D8
:1032000080910E0490910F042130310509F04AC0DD
:1032100020E030E040E251E40E94EB1C60930C049B
:1032200070930D0480930E0490930F0460910C042E
:1032300070910D0480910E0490910F0420E030E015
:1032400040E251EC0E94571D87FDC2C060910C0402
:1032500070910D0480910E0490910F0420E030E0F5
:1032600040E251E40E94B61E18160CF4B6C08091DC
:103270000C0490910D04A0910E04B0910F04809362
:103280000C0490930D04A0930E04B0930F0480914E
:10329000140490911504909317048093160431E060
:1032A0003E87B0CD2DEC3CEC4CEC5DE3B5CF6091AE
:1032B0000C0470910D0480910E0490910F042AE08B
:1032C00037ED43E25CE3A8CF40911404509115041C
:1032D000481759074CF440911404509115040A976B
:1032E000481759070CF450C02130310509F063C06C
:1032F00060910C0470910D0480910E0490910F0464
:1033000020E030E040E85FE30E94EA1C60930C0498
:1033100070930D0480930E0490930F0420E030E02E
:10332000A901C701B6010E94B61E18160CF07ECF87
:1033300020E030E040E85FE3C701B6010E94571D7E
:1033400087FF74CF20910C0430910D0440910E043E
:1033500050910F04C701B6010E94B61E18160CF05A
:1033600065CF80900C0490900D04A0900E04B09056
:103370000F04A7019601C701B6010E94EB1C9B0137
:10338000AC01C501B4010FC060910C0470910D0433
:1033900080910E0490910F042130310539F420E022
:1033A00030E040E251E40E94EA1C38CF2DEC3CECC6
:1033B0004CEC5DE3F8CF60910C0470910D048091AA
:1033C0000E0490910F042AE037ED43E25CE3EBCF6B
:1033D00080E090E0A0E2B1EC52CF80E090E0A0E28B
:1033E000B1E44DCF81EF93E0C8CD31E03D83312C86
:1033F000222423940E94E70469837A838B839C832D
:1034000040901B0450901C0460901D0470901E049A
:103410004D81442309F4E7C060911B0470911C04A2
:1034200080911D0490911E040E94CE1D6B017E832D
:103430006D8380901B0490901C04A0901D04B0909C
:103440001E04072E000C880B990B0E94061E9B0180
:10345000AC01C501B4010E94EA1C20E030E048EC58
:1034600052E40E94BB1E4B015C010E94D80F53E046
:103470005093DC045093DD048D819E810A970CF0FB
:1034800012C1A7E0B0E0B093D504A093D404109289
:10349000D7041092D60465EE73E088EC94E00E94A5
:1034A000BB11E9E1F0E0F093D504E093D40410926D
:1034B000D7041092D604B60188EC94E00E945A100A
:1034C000C501B4010E94CE1D6B0120E030E040E157
:1034D00051E4C501B4010E94571D18160CF4EAC04E
:1034E00040E350E05093D5044093D4041092D704A5
:1034F0001092D60465EE73E088EC94E00E94BB1154
:1035000082E490E09093D5048093D4041092D70481
:103510001092D604B60188EC94E00E945A1092E012
:103520009093DC049093DD04A6E2B0E0B093D50460
:10353000A093D404E8E0F0E0F093D704E093D6043D
:1035400067EE73E088EC94E00E94BB112CE330E05E
:103550003093D5042093D40440E250E05093D70434
:103560004093D6046AEF73E088EC94E00E94BB11AC
:103570008091090190910A01EE24E394F12C08E175
:1035800010E027E230E048E150E068E170E00197A8
:1035900031F021E530E048E150E062E470E088EC91
:1035A00094E00E94640A51E05093DC045093DD04DF
:1035B0008EE190E09093D5048093D404A7E2B0E02C
:1035C000B093D704A093D60422E040E050E0BA01C3
:1035D00088EC94E00E94C01031100E94D80B0E9429
:1035E0007F0C0E94620F0E94580E80911A04811174
:1035F00064C01D8280911904882391F08EE090E0D0
:103600000E94380E8987882359F0332009F473C04B
:103610000E94A310312C10921904F985FD832F2EDE
:1036200080911804811169C080911604909117044B
:1036300020911404309115048217930709F06DC08E
:103640003320D1F020911B0430911C0440911D04C3
:1036500050911E04C301B2010E94571D811103C085
:10366000222009F439C160E174E087E090E20E9411
:10367000BD11212C31E03D830E94E70429813A816C
:103680004B815C81621B730B840B950B6931710557
:103690008105910508F0AECE62E070E080E090E038
:1036A0000E94B504E9CF27E030E03093D5042093A1
:1036B000D404FDCE80E390E025CF80E190E00E942D
:1036C000380E8D83882309F494CF8091090190915D
:1036D0000A018130910549F4E2E0F0E0F0930A013B
:1036E000E093090110921A0485CF019790930A0183
:1036F00080930901F7CF39848ECF8FE090E00E944C
:10370000380E882309F490CF1092200410921F04E1
:1037100060E087E00E946903F8CC40911404509166
:1037200015042091090130910A01841795070CF0C6
:1037300087C040911404509115048417950744F4F0
:1037400040911404509115040A96841795078CF043
:103750002130310509F067C060911B0470911C0491
:1037600080911D0490911E0420E030E040E85FE36A
:1037700010C060911B0470911C0480911D049091F5
:103780001E042130310509F049C020E030E040E25C
:1037900051E40E94EB1C60931B0470931C04809303
:1037A0001D0490931E0460911B0470911C04809171
:1037B0001D0490911E0420E030E0A9010E94571DD5
:1037C00087FD81C060911B0470911C0480911D04D1
:1037D00090911E0420E030E040EC51E40E94B61EBF
:1037E00018160CF474C080911B0490911C04A091D5
:1037F0001D04B0911E0480931B0490931C04A0939D
:103800001D04B0931E0480911404909115049093AC
:1038100017048093160421E02D8312CF2DEC3CEC8D
:103820004CEC5DE3B6CF60911B0470911C04809159
:103830001D0490911E042AE037ED43E25CE3A9CF1A
:1038400040911404509115044817590744F44091CD
:103850001404509115040A974817590784F0213031
:10386000310521F560911B0470911C0480911D04A9
:1038700090911E0420E030E040E85FE30FC06091CB
:103880001B0470911C0480911D0490911E04213032
:10389000310539F420E030E040E251E40E94EA1CB6
:1038A0007ACF2DEC3CEC4CEC5DE3F8CF60911B043F
:1038B00070911C0480911D0490911E042AE037ED44
:1038C00043E25CE3EBCF80E090E0DC0194CF80E06A
:1038D00090E0A0ECB1E48FCF41E04D83CDCE47EE38
:1038E000441643E054066104710408F0CBCBBFCB0F
:1038F00097FB072E16F4009407D077FD09D00E949D
:10390000B61C07FC05D03EF4909581959F4F089515
:10391000709561957F4F0895A1E21A2EAA1BBB1BDB
:10392000FD010DC0AA1FBB1FEE1FFF1FA217B3078B
:10393000E407F50720F0A21BB30BE40BF50B661FA1
:10394000771F881F991F1A9469F760957095809565
:1039500090959B01AC01BD01CF010895B7FF0C9478
:10396000D01C0E94D01C821B930B0895AA1BBB1B6A
:1039700051E107C0AA1FBB1FA617B70710F0A61B6F
:10398000B70B881F991F5A95A9F780959095BC0190
:10399000CD010895EE0FFF1F0590F491E02D0994DD
:1039A0000E94DB1CA59F900DB49F900DA49F800DDD
:1039B000911D11240895A29FB001B39FC001A39F40
:1039C000700D811D1124911DB29F700D811D112458
:1039D000911D08955058BB27AA270E94021D0C94E0
:1039E0007C1E0E946E1E38F00E94751E20F039F475
:1039F0009F3F19F426F40C946B1E0EF4E095E7FB40
:103A00000C94651EE92F0E948D1E58F3BA176207A9
:103A100073078407950720F079F4A6F50C94AF1E80
:103A20000EF4E0950B2EBA2FA02D0B01B9019001D9
:103A30000C01CA01A0011124FF27591B99F0593F1D
:103A400050F4503E68F11A16F040A22F232F342F65
:103A50004427585FF3CF469537952795A795F040B3
:103A60005395C9F77EF41F16BA0B620B730B840BC8
:103A7000BAF09150A1F0FF0FBB1F661F771F881F80
:103A8000C2F70EC0BA0F621F731F841F48F48795D8
:103A900077956795B795F7959E3F08F0B0CF9395CA
:103AA000880F08F09927EE0F9795879508950E9443
:103AB000411E08F481E008950E94701D0C947C1E44
:103AC0000E94751E58F00E946E1E40F029F45F3F60
:103AD00029F00C94651E51110C94B01E0C946B1EB1
:103AE0000E948D1E68F39923B1F3552391F3951B22
:103AF000550BBB27AA2762177307840738F09F5F0F
:103B00005F4F220F331F441FAA1FA9F335D00E2E7B
:103B10003AF0E0E832D091505040E695001CCAF7E8
:103B20002BD0FE2F29D0660F771F881FBB1F2617AB
:103B300037074807AB07B0E809F0BB0B802DBF0182
:103B4000FF2793585F4F3AF09E3F510578F00C9451
:103B5000651E0C94B01E5F3FE4F3983ED4F3869547
:103B600077956795B795F7959F5FC9F7880F911D72
:103B70009695879597F90895E1E0660F771F881F5E
:103B8000BB1F621773078407BA0720F0621B730B11
:103B9000840BBA0BEE1F88F7E09508950E94D51D9F
:103BA0006894B1110C94B01E08950E94951E88F07F
:103BB0009F5798F0B92F9927B751B0F0E1F0660FF1
:103BC000771F881F991F1AF0BA95C9F714C0B13032
:103BD00091F00E94AF1EB1E008950C94AF1E672FC4
:103BE000782F8827B85F39F0B93FCCF38695779561
:103BF0006795B395D9F73EF490958095709561954A
:103C00007F4F8F4F9F4F0895E89409C097FB3EF474
:103C100090958095709561957F4F8F4F9F4F992319
:103C2000A9F0F92F96E9BB279395F6958795779597
:103C30006795B795F111F8CFFAF4BB0F11F460FF57
:103C40001BC06F5F7F4F8F4F9F4F16C0882311F0AF
:103C500096E911C0772321F09EE8872F762F05C0C3
:103C6000662371F096E8862F70E060E02AF09A955E
:103C7000660F771F881FDAF7880F9695879597F953
:103C80000895990F0008550FAA0BE0E8FEEF1616ED
:103C90001706E807F907C0F012161306E407F50740
:103CA00098F0621B730B840B950B39F40A2661F0B4
:103CB000232B242B252B21F408950A2609F4A14057
:103CC000A6958FEF811D811D089597F99F6780E864
:103CD00070E060E008959FEF80EC089500240A945E
:103CE0001616170618060906089500240A941216D7
:103CF0001306140605060895092E0394000C11F40A
:103D0000882352F0BB0F40F4BF2B11F460FF04C0B6
:103D10006F5F7F4F8F4F9F4F089557FD9058440F0F
:103D2000551F59F05F3F71F04795880F97FB991F1A
:103D300061F09F3F79F087950895121613061406D7
:103D4000551FF2CF4695F1DF08C016161706180664
:103D5000991FF1CF86957105610508940895E8943F
:103D6000BB2766277727CB0197F908950E94411E4C
:103D700008F48FEF08950E94CE1E0C947C1E0E94C2
:103D80006E1E38F00E94751E20F0952311F00C94E1
:103D9000651E0C946B1E11240C94B01E0E948D1E87
:103DA00070F3959FC1F3950F50E0551F629FF0018E
:103DB000729FBB27F00DB11D639FAA27F00DB11DA7
:103DC000AA1F649F6627B00DA11D661F829F222730
:103DD000B00DA11D621F739FB00DA11D621F839FB7
:103DE000A00D611D221F749F3327A00D611D231F8D
:103DF000849F600D211D822F762F6A2F11249F57DB
:103E000050409AF0F1F088234AF0EE0FFF1FBB1FDD
:103E1000661F771F881F91505040A9F79E3F51059C
:103E200080F00C94651E0C94B01E5F3FE4F3983E46
:103E3000D4F3869577956795B795F795E7959F5F46
:103E4000C1F7FE2B880F911D9695879597F90895D8
:103E50000E94411E880B990B08950F931F93CF93D7
:103E6000DF938230910510F482E090E0E091F90454
:103E7000F091FA0430E020E0B0E0A0E0309799F44F
:103E80002115310509F44AC0281B390B24303105AE
:103E9000D8F58A819B816115710589F1FB019383B6
:103EA0008283FE0111C04081518102811381481734
:103EB0005907E0F04817590799F4109761F01296E6
:103EC0000C93129713961C933296CF01DF91CF91EA
:103ED0001F910F9108950093F9041093FA04F4CF01
:103EE0002115310551F04217530738F0A901DB01C4
:103EF0009A01BD01DF01F801C1CFEF01F9CF909325
:103F0000FA048093F904CDCFFE01E20FF31F8193F1
:103F100091932250310939832883D7CF2091F70418
:103F20003091F804232B41F42091050330910603CE
:103F30003093F8042093F704209103033091040395
:103F40002115310541F42DB73EB74091070350913B
:103F50000803241B350BE091F704F091F804E217F5
:103F6000F307A0F42E1B3F0B2817390778F0AC019C
:103F70004E5F5F4F2417350748F04E0F5F1F509379
:103F8000F8044093F704819391939FCFF0E0E0E031
:103F90009CCFCF93DF930097E9F0FC013297138217
:103FA0001282A091F904B091FA04ED0130E020E012
:103FB0001097A1F420813181820F931F2091F70483
:103FC0003091F8042817390709F061C0F093F8041C
:103FD000E093F704DF91CF910895EA01CE17DF0750
:103FE000E8F54A815B819E0141155105B1F7E90170
:103FF000FB83EA8349915991C40FD51FEC17FD0744
:1040000061F4808191810296840F951FE901998363
:104010008883828193819B838A83F0E0E0E012961B
:104020008D919C9113970097B9F52D913C91119723
:10403000CD010296820F931F2091F7043091F8046E
:104040002817390739F6309751F51092FA04109273
:10405000F904B093F804A093F704BCCFD383C283D0
:1040600040815181840F951FC817D90761F44E5FB5
:104070005F4F88819981480F591F518340838A81FE
:104080009B81938382832115310509F0B0CFF09392
:10409000FA04E093F9049ECFFD01DC01C0CF138246
:1040A0001282D7CF81E090E0F8940C945720F894D6
:0240B000FFCF40
:1040B20003730573053200000001000000000000D8
:1040C20000000000000000000000000000000000EE
:1040D20000000000000000000000000000000000DE
:1040E20000C0E0F0F8FCFCFEFFFCE0000000000075
:1040F20000000000000000000000000000000000BE
:1041020000000000000000000000000000000000AD
:10411200000000000000000000000000000000009D
:10412200F8F8F8F8F8F8F8F8F8F8F8F8F0F0E0E04D
:10413200C080C0FCFFFFFFFF7F3F7FFFFFFFFFFF4D
:10414200000000000000000000000000000000006D
:10415200000000000000000000000000000000005D
:10416200000000000000000000000000000000004D
:1041720000000000000F1F3F7FFFFFFFFFFFFFFF58
:10418200FFE7C7C7878F9F9FFFFFFFC1C0E0FCFF0C
:10419200FFFFFFFFFCFCFCFCFEFEFEFCFCF8F8F05F
:1041A200E0C0C000000000000000000000000000AD
:1041B20000000000000000000000000000000000FD
:1041C20000000000000000000000000080C0E0F1DC
:1041D200FBFFFFFFFFFF7F1F0F0F87E7FFFFFF1FA1
:1041E2001F3FF9F8F8F8F8F8F8FDFFFFFFFFFFFFAF
:1041F200FFFFFF7F3F0F07010000000000000000EB
:1042020000000000000000000000000000000000AC
:104212000000000000000000000000000000F0FEAE
:10422200FFFFFFFFFFFFFFFFFFFFFE7E3F3F0F1F6E
:10423200FFFFFFFCF0E0F1FFFFFFFFFFFCF00101D9
:104242000101010101010000000000000000000066
:10425200000000000000000000000000000000005C
:10426200000000000000000000000000000000004C
:104272000000030303030303030301010101000020
:104282000000000000030F1F3F7F7FFFFFFFFF7F43
:104292007F1F03000000000000000000000000007B
:1042A200000000000000000000000000000000000C
:1042B2000000000000FB04800000FF01000100007C
:1042C200FFFF0000010001FF00000000001B067B51
:1042D20005A8056806D905B705CB0500000000331F
:1042E200097B05FF0DFE0D88061603780CB00BCC7A
:1042F2000BC00B510D1603F906C70F770B3E0BF9D6
:104302000ADC0A640A050A0D0A0044495341424C78
:10431200454421002D2D2D2D2D2D2D2D2D2D2D2DD5
:104322002D2D2D2D2D2D2D2D2D2D2D2D2D2D006EA7
:10433200616E00696E66006F7666006D6F6465205F
:104342006F7074696F6E2020203A0076616C75651B
:104352002020202020202020203A006375727265E0
:104362006E742076616C7565203A00766F6C6174AC
:104372006167652076616C75653A00444542425535
:104382004720424547494E202121210059454545B4
:10439200454545540030002E005600204C4544202F
:0E43A200004E4F204552524F52006D41000018
:00000001FF
