:100000000C94E2020C94DF120C94B8120C940A03C4
:100010000C940A030C940A030C940A030C940A032C
:100020000C940A030C940A030C940A030C940A031C
:100030000C940A030C940A030C940A030C940A030C
:100040000C946E120C940A030C940A030C940A0389
:100050000C940A030C940A030C940A030C940A03EC
:100060000C940A030C940A0300000000003E5B4F4E
:100070005B3E3E6B4F6B3E1C3E7C3E1C183C7E3C08
:10008000181C577D571C1C5E7F5E1C00183C180016
:10009000FFE7C3E7FF0018241800FFE7DBE7FF30A6
:1000A000483A060E2629792926407F050507407F14
:1000B00005253F5A3CE73C5A7F3E1C1C08081C1C87
:1000C0003E7F14227F22145F5F005F5F06097F017D
:1000D0007F006689956A606060606094A2FFA29468
:1000E00008047E040810207E201008082A1C080836
:1000F0001C2A08081E101010100C1E0C1E0C303884
:100100003E3830060E3E0E06000000000000005F84
:1001100000000007000700147F147F14242A7F2AA0
:100120001223130864623649562050000807030062
:10013000001C2241000041221C002A1C7F1C2A08AE
:10014000083E080800807030000808080808000011
:1001500060600020100804023E5149453E00427F85
:10016000400072494949462141494D331814127FD4
:100170001027454545393C4A494931412111090774
:100180003649494936464949291E000014000000F5
:1001900040340000000814224114141414140041C7
:1001A00022140802015909063E415D594E7C121184
:1001B000127C7F494949363E414141227F414141BC
:1001C0003E7F494949417F090909013E4141517337
:1001D0007F0808087F00417F41002040413F017FA8
:1001E000081422417F404040407F021C027F7F0470
:1001F00008107F3E4141413E7F090909063E4151B9
:10020000215E7F09192946264949493203017F01A8
:10021000033F4040403F1F2040201F3F4038403FA9
:10022000631408146303047804036159494D4300BF
:100230007F4141410204081020004141417F0402F6
:10024000010204404040404000030708002054548D
:1002500078407F284444383844444428384444286B
:100260007F385454541800087E090218A4A49C78BE
:100270007F0804047800447D40002040403D007F1A
:100280001028440000417F40007C047804787C08FA
:100290000404783844444438FC18242418182424CE
:1002A00018FC7C08040408485454542404043F44B3
:1002B000243C4040207C1C2040201C3C4030403CE2
:1002C00044281028444C9090907C4464544C440042
:1002D00008364100000077000000413608000201A6
:1002E0000204023C2623263C1EA1A161123A404092
:1002F000207A38545455592155557941225454780F
:1003000042215554784020545579400C1E527212A7
:100310003955555559395454545939555454580030
:1003200000457C410002457D420001457C407D1234
:1003300011127DF0282528F07C5455450020545496
:100340007C547C0A097F4932494949323A44444441
:100350003A324A4848303A4141217A3A424020787C
:10036000009DA0A07D3D4242423D3D4040403D3C7D
:1003700024FF2424487E4943662B2FFC2F2BFF09A2
:1003800029F620C0887E0903205454794100004496
:100390007D413048484A32384040227A007A0A0A81
:1003A000727D0D19317D2629292F282629292926F4
:1003B00030484D4020380808080808080808382F39
:1003C00010C8ACBA2F102834FA00007B00000814C3
:1003D0002A142222142A14085500550055AA55AA99
:1003E00055AAFF55FF55FF000000FF00101010FF39
:1003F00000141414FF001010FF00FF1010F010F094
:10040000141414FC001414F700FF0000FF00FF1484
:1004100014F404FC141417101F10101F101F1414D0
:10042000141F00101010F0000000001F101010101A
:100430001F10101010F010000000FF10101010100E
:1004400010101010FF10000000FF140000FF00FF4C
:1004500000001F10170000FC04F4141417101714E8
:1004600014F404F40000FF00F7141414141414140A
:10047000F700F7141414171410101F101F1414147D
:10048000F4141010F010F000001F101F0000001FE7
:1004900014000000FC140000F010F01010FF10FF1A
:1004A000141414FF141010101F00000000F010FFAF
:1004B000FFFFFFFFF0F0F0F0F0FFFFFF0000000093
:1004C00000FFFF0F0F0F0F0F3844443844FC4A4A17
:1004D0004A347E02020606027E027E0263554941CC
:1004E000633844443C04407E201E2006027E020203
:1004F00099A5E7A5991C2A492A1C4C7201724C3017
:100500004A4D4D303048784830BC625A463D3E49ED
:100510004949007E0101017E2A2A2A2A2A44445F91
:10052000444440514A444040444A51400000FF0185
:1005300003E080FF000008086B6B08361236243693
:10054000060F090F060000181800000010100030F8
:1005500040FF0101001F01011E00191D1712003C80
:100560003C3C3C000000000000000000240027008C
:100570002A0000000000250028002B0000000000D9
:1005800023002600290004040404040404040202D5
:100590000202020203030303030301020408102002
:1005A000408001020408102001020408102000000D
:1005B0000008000201000003040700000000000022
:1005C00000002E1C11241FBECFEFD8E0DEBFCDBF30
:1005D00013E0A0E0B1E0E2E0F1E402C005900D928A
:1005E000A438B107D9F723E0A4E8B3E001C01D9215
:1005F000AD3EB207E1F712E0C2EED2E004C02197AF
:10060000FE010E94F21CC13ED107C9F70E940613E9
:100610000C947F200C9400004F925F926F927F9217
:100620008F929F92AF92BF92CF92DF92EF92FF9202
:100630004B015C0169017A012DEC3CEC4CEC5DE373
:100640000E94121D2B013C0120E030E0A901C501F0
:10065000B4010E94DE1E18160CF056C02DEC3CECC6
:100660004CEC5DE3C501B4010E94131D4B015C011C
:10067000A3019201C701B6010E94DE1EA5019401EB
:1006800087FD18C0C701B6010E947F1D18160CF423
:100690007FC01092E8031092E603FF90EF90DF9086
:1006A000CF90BF90AF909F908F907F906F905F9012
:1006B0004F900895C701B6010E947F1D18166CF077
:1006C00020E030E0A901C701B6010E94DE1E181625
:1006D00024F481E08093E803DECFA3019201C701F7
:1006E000B6010E94DE1E87FF09C020E030E0A901AC
:1006F000C701B6010E947F1D87FFCFCF1092E8038C
:1007000081E08093E603C9CFA3019201C701B6013E
:100710000E94DE1E87FD11C02DEC3CEC4CEC5DE32D
:10072000C501B4010E94131D9B01AC01C701B601B4
:100730000E947F1D18160CF0ACCFA3019201C701D7
:10074000B6010E947F1D1816CCF620E030E0A9010A
:10075000C701B6010E94DE1E181684F22DEC3CEC97
:100760004CEC5DE3C501B4010E94131D9B01AC017B
:10077000C701B6010E94DE1E87FD8FCF20E030E06A
:10078000A901C701B6010E947F1D87FF86CFA1CFB7
:10079000A5019401C701B6010E947F1D18160CF037
:1007A0008FCFACCFFC0120812EBD0DB407FEFDCF55
:1007B0002EB5FC01208308950895833081F028F43C
:1007C000813099F08230A9F008958730A9F08830FF
:1007D000C9F08430B1F4809180008F7D03C0809196
:1007E00080008F7780938000089584B58F7784BDD3
:1007F000089584B58F7DFBCF8091B0008F77809373
:10080000B00008958091B0008F7DF9CFCF93DF9332
:10081000282F30E0F901E255FA4F8491F901E656AC
:10082000FA4FD491F901EA57FA4FC491CC23A1F0C1
:1008300081110E94DD03EC2FF0E0EE0FFF1FE45862
:10084000FA4FA591B491EC91ED2381E090E009F489
:1008500080E0DF91CF91089580E090E0FACF1F9380
:10086000CF93DF93282F30E0F901E255FA4F8491BE
:10087000F901E656FA4FD491F901EA57FA4FC491BB
:10088000CC23A9F0162F81110E94DD03EC2FF0E09C
:10089000EE0FFF1FEE58FA4FA591B4918FB7F89461
:1008A000EC91111108C0D095DE23DC938FBFDF914E
:1008B000CF911F910895DE2BF8CFCF93DF9390E077
:1008C000FC01E656FA4F24918A579A4FFC01849115
:1008D0008823C9F090E0880F991FFC01E859FA4F6E
:1008E000A591B491FC01EE58FA4FC591D4916111D4
:1008F0000DC09FB7F8948C91209582238C938881AA
:10090000282328839FBFDF91CF910895623051F44F
:100910009FB7F8943C91822F809583238C93E88134
:100920002E2BEFCF8FB7F894EC912E2B2C938FBFFB
:10093000EACF8E3008F08E508770806480937C0000
:1009400080917A00806480937A0080917A0086FD9D
:10095000FCCF8091780090917900089582309105C4
:1009600038F0880F991F880F991F05970197F1F7A5
:1009700008959F92AF92BF92CF92DF92EF92FF9233
:100980000F931F93CF93DF93EC016B0188859985BB
:1009900011E0892B09F010E8F601A0808A2D81234F
:1009A000992493948111912C2C813D814E815F81FA
:1009B00060E271EA87E090E00E94B41C022FB12C43
:1009C000E22EF12C002319F0C7010E94AE048A85A3
:1009D000877F09F04FC08D858F3F89F09A2D912335
:1009E00081E009F480E0891551F0EF85F8898F895D
:1009F0009923D1F19081892B808399249394E9895B
:100A0000FA898081998D892B8083002319F0C70191
:100A10000E94AE048E858F3F39F0EB89FC8980817E
:100A2000988D892309F0B12AE989FA899081898D05
:100A30008095892380838E858F3F11F0F601B082E7
:100A400088859985892B09F044C0110F1111BACFFF
:100A5000DF91CF911F910F91FF90EF90DF90CF909A
:100A6000BF90AF909F900895908180958923808357
:100A7000912CC5CFE989FA898081998D892B808352
:100A8000002319F0C7010E94AE048D858F3F49F005
:100A9000EF85F8898F899A2D9123B9F09081892B60
:100AA0008083E989FA899081898D80958923808363
:100AB0008E858F3F09F4BFCFEB89FC898081988DAB
:100AC000892309F4B8CFB12AB6CF908180958923C4
:100AD000E7CF1695BBCF3FB7F8948091BB039091B9
:100AE000BC03A091BD03B091BE0326B5A89B05C071
:100AF0002F3F19F00196A11DB11D3FBFBA2FA92F9D
:100B0000982F8827BC01CD01620F711D811D911D99
:100B100042E0660F771F881F991F4A95D1F7089505
:100B20008F929F92AF92BF92CF92DF92EF92FF92FD
:100B30004B015C010E946B056B017C010E946B05FF
:100B40006C197D098E099F09683E734081059105E6
:100B5000A8F321E0821A9108A108B10888EEC80E16
:100B600083E0D81EE11CF11C81149104A104B1049E
:100B700029F7FF90EF90DF90CF90BF90AF909F90BC
:100B80008F9008952FB7F8946091B7037091B803D0
:100B90008091B9039091BA032FBF08950F931F93CB
:100BA000CF93DF93C0910001CC0FCC0FC093000115
:100BB00082E00E940604892B19F0C260C0930001F4
:100BC00083E00E940604892B29F080910001816056
:100BD00080930001E0910001EF70F0E0EF5EFC4FC8
:100BE000808190918403890F80938403843094F1F1
:100BF0000E946B0500918A0310918B0320918C0356
:100C000030918D03601B710B820B930BC1E0D0E020
:100C1000603F79448240910510F4CAE0D0E00E9420
:100C20006B0560938A0370938B0380938C0390937E
:100C30008D0380919F039091A0038C0F9D1F909333
:100C4000A00380939F0310928403DF91CF911F91A3
:100C50000F9108958D3FCCF70E946B05009186039C
:100C6000109187032091880330918903601B710BD9
:100C7000820B930BCFEFDFEF603F79448240910509
:100C800010F4C6EFDFEF0E946B056093860370934C
:100C900087038093880390938903CBCF0895AF9205
:100CA000BF92CF92DF92EF92FF920F931F93CF9359
:100CB000DF936C017B018B01040F151FEB015E01BB
:100CC000AE18BF08C017D10759F06991D601ED9150
:100CD000FC910190F081E02DC6010995892B79F7EF
:100CE000C501DF91CF911F910F91FF90EF90DF90A1
:100CF000CF90BF90AF900895FC0177FD55C08085DF
:100D00009185681779070CF04FC057FD4DC082855B
:100D10009385481759070CF047C08689823009F43B
:100D200044C0833009F44EC0813031F48FE290E04A
:100D3000861B970BBA01AC01842FA62F93A16917CC
:100D400008F4962F93A394A19A1708F49A2F94A3CA
:100D500095A1891708F4982F95A396A1981708F4E0
:100D6000982F96A3CA0157FD0796E3E095958795BE
:100D7000EA95E1F7A4E5A89FF001A99FF00D1124E1
:100D8000E60FF71FED5EFE4FCA0168E070E00E94BB
:100D9000A01C41E050E001C0440F8A95EAF7808131
:100DA000232BB9F0842B8083089583E590E0DC0148
:100DB000A61BB70BBD018FE290E0DC01A41BB50BB5
:100DC000AD01BACF83E590E0841B950BAB01BC016C
:100DD000B3CF40958423E7CF0895FC016370668B01
:100DE0008481958126813781613039F0633029F023
:100DF000918780873387228708953187208793875B
:100E0000828708952F923F924F925F926F927F92C6
:100E10008F929F92AF92BF92CF92DF92EF92FF920A
:100E20000F931F93CF93DF93CDB7DEB76A970FB6BB
:100E3000F894DEBF0FBECDBF9A8F898F7A83698306
:100E40004A01D22E18870F833701BC2CDC0159963A
:100E50002D913C915A972115310509F015C118962D
:100E60008D919C911997681779070CF0D7C11A9644
:100E70008D919C91481759070CF0D0C14C2C512CE6
:100E8000B6E0CB9E600D711D11247C876B87161612
:100E900017060CF0C3C1EA2DF0E0FA87E98793E06A
:100EA000EE0FFF1F9A95E1F7F88BEF87CF01840FC4
:100EB000951F181619060CF0B1C1A98DBA8D589658
:100EC0008C91811104C0BFEABD1508F4D394A98D9B
:100ED000BA8DED91FC9111970284F385E02DCD013F
:100EE0000995B5E0DB9EC0011124E981FA81FC83FC
:100EF000EB83312C212C9C0128593F4F388F2F8BAD
:100F00004A2D50E05E8B4D8BEF89F88DE20DF31D7D
:100F100044919E828D82D12CC12C69817A81620D8F
:100F2000731D7A8B698B842F90E09C8B8B8BE98D62
:100F3000FA8DA081B18140FF82C0F1E0BF126FC085
:100F4000AF126DC01C96ED91FC912F813885A401E4
:100F50004C0D5D1D69897A89898D9A8D0995EB897A
:100F6000FC89F595E7954E2F5FEFC51AD50A6D817F
:100F70007E818D899E89680F791F7E836D8398E0BD
:100F8000C916D10481F6AFEF2A1A3A0AEB81FC8127
:100F9000E40DF51DFC83EB83F5E02F16310409F019
:100FA000B3CF2F81388526153705B9F0A98DBA8DB5
:100FB000ED91FC91B1E0BB1257C0AB1255C06981F5
:100FC0007A816B5F7F4F0088F189E02D830128E0F3
:100FD00030E0A401898D9A8D0995A98DBA8DED9186
:100FE000FC9111970688F789E02DCD016A960FB61E
:100FF000F894DEBF0FBECDBFDF91CF911F910F914F
:10100000FF90EF90DF90CF90BF90AF909F908F9028
:101010007F906F905F904F903F902F9009941E9615
:10102000ED91FC91EF80F88409851A8592014D813C
:101030005E816B817C81898D9A8D099590CF2F81FE
:1010400038852615370509F48ACF31E0B31207C079
:10105000A31205C01C96ED91FC91930178CF1E96CA
:10106000ED91FC917301E0CF6B857C856419750966
:101070000684F785E02D73010F8518899201A4017C
:10108000898D9A8D0995A9CFF9013496949132975B
:1010900045915491D91AB7E0DB9E400D511D1124A2
:1010A000F901259134913C8B2B8BFA0125903490DA
:1010B000FA013296749031963491398B329664905D
:1010C0003196449041E04C1518F04A1508F07FC065
:1010D000662D062C000C770B7C836B83842D042CEF
:1010E000000C990B9E838D83A98DBA8DED91FC9197
:1010F00011970284F385E02DCD010995512CD12C57
:10110000C12CEA2DF0E0FA87E9872B2D30E03C87EF
:101110002B87A401440D511D47FC5A95588F4F8BC6
:1011200069817A81660D711D67FC7A957E876D876E
:101130007989C71608F051CF2C2D30E04D815E81A2
:10114000420F531FA985BA854A9FC0014B9F900D3E
:101150005A9F900D1124FC01E80DF91DF88BEF87C3
:10116000852D612C4F89588D420F531F5E8B4D8BFF
:10117000671408F050C044244394480E877041F42B
:10118000C1010196EB89FC89E20DF31DD4901C018D
:10119000D7FE19C0A98DBA8DED91FC91662D70E036
:1011A000B1E0BB1219C0AB1217C02D853E85620F8E
:1011B000731F0484F585E02D2F8138854D895E8964
:1011C000898D9A8D0995DD0C6394842DD1CF1E8273
:1011D0001D821C821B8288CF4B815C81640F751F2E
:1011E000AB85BC856A9FC0016B9F900D7A9F900D67
:1011F000112469817A81680F791F0684F785E02DB3
:10120000EF80F88409851A859D014F855889898D5D
:101210009A8D0995D8CF570CC3948ACF6A960FB68A
:10122000F894DEBF0FBECDBFDF91CF911F910F911C
:10123000FF90EF90DF90CF90BF90AF909F908F90F6
:101240007F906F905F904F903F902F9008958F9276
:101250009F92AF92CF92EF92FF920F931F93CF93F3
:10126000DF93EC01262F898D9A8D009709F051C0EC
:101270006A30D1F41D861C868D8948E0849F9001D8
:1012800011248E859F85820F931F9F878E8781E013
:1012900090E0DF91CF911F910F91FF90EF90CF9051
:1012A000AF909F908F9008956D3089F3CC88AD8872
:1012B0008F898823C1F08C859D8536E0C39E800D83
:1012C000911D1124488559854817590764F44E85A6
:1012D0005F851D861C8638E0A39EC0011124840F03
:1012E000951F9F878E87EA88FB88088919894E8514
:1012F0005F856C857D85CE010E9402072C898C85D7
:101300009D8546E0249F800D911D11249D878C872B
:10131000BECF6A3069F41D861C86FC013896E491C4
:101320002D898E859F85E29F800D911D1124ADCF63
:101330006D3009F4ACCFFC0134963491631708F496
:10134000A6CF3296E491E61708F4A1CFFC013296BD
:1013500085909490462F431B342F47E0349F800C98
:10136000911C1124F401329634913196E491332387
:10137000A9F1EE2399F1CC88F4013596E491AD887A
:101380004F89442301F10E2E000CFF0BE30FF11DDA
:10139000CE9EA001CF9E500D11246C857D85460FF9
:1013A000571F68857985641775076CF44E855F85CE
:1013B0001D861C86FC013896E491AE9E400D511DA1
:1013C00011245F874E87EA88FB88088919894E8532
:1013D0005F856C857D85CE010E940207F4013496FD
:1013E000E4912C898C859D85E29F800D911D1124AF
:1013F0008DCF6F927F928F929F92AF92BF92CF923A
:10140000DF92EF92FF920F931F93CF93DF93EC0144
:101410006B015A0139014801E881F9810284F385A1
:10142000E02D0995E881F9810288F389E02D870193
:101430009301A501B601CE010995A501480D591DDD
:1014400041505109E881F9810288F389E02D930127
:10145000B601CE010995E881F9810088F189E02D76
:101460009401A501B601CE010995C60CD71CB601A1
:1014700061507109E881F9810088F189E02D9401BA
:10148000A501CE010995E881F9810688F789E02D4B
:10149000CE01DF91CF911F910F91FF90EF90DF90E0
:1014A000CF90BF90AF909F908F907F906F90099456
:1014B0006F927F928F929F92AF92BF92CF92DF9264
:1014C000EF92FF920F931F93CF93DF935C01EB0199
:1014D0006A01490138018701DC01ED91FC91621735
:1014E000730719F5641675062CF0962D872D3A01B1
:1014F000C92ED82E9601261937092F5F3F4F048C2D
:10150000F58DE02DA301BE01C5010995DF91CF91B5
:101510001F910F91FF90EF90DF90CF90BF90AF9011
:101520009F908F907F906F9008954615570591F486
:101530002617370724F0892D4B01C22FD82F9E0183
:10154000281939092F5F3F4F068CF78DE02DA60132
:10155000B401DACF0284F385E02D0995D501ED9130
:10156000FC910488F589E02D83019401A601BE0158
:10157000C5010995D501ED91FC910688F789E02D0B
:10158000C501DF91CF911F910F91FF90EF90DF90F8
:10159000CF90BF90AF909F908F907F906F90099465
:1015A000EF92FF920F931F93DC011A960D911C91FD
:1015B0001B9718962D913C911997ED91FC9100A0E5
:1015C000F1A1E02D7B0150E040E070E060E0099582
:1015D0001F910F91FF90EF9008954F925F926F923D
:1015E0007F928F929F92AF92BF92CF92DF92EF92B3
:1015F000FF920F931F93CF93DF936C012B015A013E
:1016000039014801DC01ED91FC910284F385E02D64
:101610000995E201640C751CD601ED91FC91C6158B
:10162000D7055CF40088F189E02D87019401A501BC
:10163000BE01C60109952196EFCF0688F789E02DF6
:10164000C601DF91CF911F910F91FF90EF90DF9036
:10165000CF90BF90AF909F908F907F906F905F9052
:101660004F9009948F929F92AF92BF92CF92DF9248
:10167000EF92FF920F931F93CF93DF93EC015B01E7
:101680004A016901E881F9810284F385E02D099519
:1016900095012C0D3D1D21503109E881F981048807
:1016A000F589E02D78018401A401B501CE010995E9
:1016B000E881F9810688F789E02DCE01DF91CF918D
:1016C0001F910F91FF90EF90DF90CF90BF90AF9060
:1016D0009F908F9009948F929F92AF92BF92CF92DA
:1016E000DF92EF92FF920F931F93CF93DF93EC0162
:1016F0005B014A0169017801E881F9810284F3857F
:10170000E02D0995C80CD91C860101501109E8810A
:10171000F9810488F589E02D9501A401B501CE0178
:101720000995E881F9810688F789E02DCE01DF91DE
:10173000CF911F910F91FF90EF90DF90CF90BF90CE
:10174000AF909F908F900994EF92FF920F931F9309
:10175000DC01ED91FC9100A0F1A1E02D09951F9114
:101760000F91FF90EF9008950F931F93DC01ED917F
:10177000FC91068CF78DE02D09951F910F9108952E
:101780000F931F93DC01ED91FC91048CF58DE02DFE
:1017900009951F910F9108952F923F924F925F925A
:1017A0006F927F928F929F92AF92BF92CF92DF9271
:1017B000EF92FF920F931F93CF93DF9301E010E01E
:1017C00029E030E045E250E066E070E08FEB93E026
:1017D0000E94C00B54E0652E712C44244394512C7C
:1017E000F12CE12CC4E0D0E078EF272E33243A949A
:1017F000EDEFCE2EDD24DA948FEFE81AF80A82E0BE
:10180000480E511CC40CD51CCE15DF050CF44EC07F
:101810004E01880C991C8FEF881A980A01E010E09D
:10182000940149E2A42EB12CAC1ABD0AA501B7015E
:101830006A5F7F4F8FEB93E00E94C00B9401A5017C
:1018400066E070E06E197F098FEB93E00E94C00B99
:10185000C615D705F9F0B3016A5F7F4F01E010E0CC
:10186000420182E0881A910894018AE2A82EB12CE4
:10187000AE18BF08A5018FEB93E00E94C00B66E095
:1018800070E0661977099401A5018FEB93E00E943F
:10189000C00B3E01EC16FD0664F4D7FCADCF2197DA
:1018A00082E0280E311CC20CD31CA6CFC615D7056A
:1018B00091F6DF91CF911F910F91FF90EF90DF9004
:1018C000CF90BF90AF909F908F907F906F905F90E0
:1018D0004F903F902F900895DC01ED91FC91008492
:1018E000F185E02D09942F923F924F925F926F9273
:1018F0007F928F929F92AF92BF92CF92DF92EF92A0
:10190000FF920F931F93CF93DF9321E030E04FE2DC
:1019100050E066E070E08FEB93E00E946C0C21E0F9
:1019200030E043E250E066E070E08FEB93E00E942D
:101930006C0C21E030E049E250E06CE070E08FEBAD
:1019400093E00E946C0C21E030E049E250E070E04E
:1019500060E08FEB93E00E946C0C44244394512C84
:1019600010E000E0C6E0D0E034EF632E77247A94F4
:101970004BEFE42EFF24FA9456E0252E312C0F5F16
:101980001F4F82E0480E511CE40CF51C480186E014
:10199000880E911C21E030E06E0189E2C80ED11C56
:1019A000A601B4018FEB93E00E946C0C5101A01AC8
:1019B000B10A21E030E0A601B5018FEB93E00E946F
:1019C0006C0C21E030E089E2C82ED12CCC1ADD0A63
:1019D000A601B4018FEB93E00E946C0C21E030E093
:1019E000A601B5018FEB93E00E946C0C680189E2BF
:1019F000C80ED11C21E030E0A6015E0186E0A80EF1
:101A0000B11CB5018FEB93E00E946C0C21E030E03B
:101A1000A6016101CC1ADD0AB6018FEB93E00E94AA
:101A20006C0C99E2892E912C801A910A21E030E009
:101A3000A401B5018FEB93E00E946C0C21E030E033
:101A4000A401B6018FEB93E00E946C0C0C171D07EC
:101A50009CF0DF91CF911F910F91FF90EF90DF905D
:101A6000CF90BF90AF909F908F907F906F905F903E
:101A70004F903F902F900895F7FC81CF219782E0FF
:101A8000680E711CE60CF71C7ACF2F923F924F9292
:101A90005F926F927F928F929F92AF92BF92CF92FE
:101AA000DF92EF92FF920F931F93CF93DF9300D0BB
:101AB00000D000D0CDB7DEB73C016A013E832D8354
:101AC000FC82EB825801A41AB50AB7FE03C0B19498
:101AD000A194B1088D809E80861A970A97FE03C054
:101AE0009194819491088A149B045CF0902F812F2B
:101AF0000D811E819D838E839C2D8D2D6B01692F01
:101B0000782F0C151D055CF09D818E817E836D8381
:101B1000692F782F902F812F8601C92ED82E16017C
:101B2000201A310A2B012D813E81421A530A57FE99
:101B300003C0519441945108710137FE03C03FEF37
:101B4000E31AF30AF594E7948D819E81861797072F
:101B50005CF5A1E0B0E0BA83A983C016D1064CF1D0
:101B6000D301ED91FC910484F585E02D2B813C811E
:101B7000A8016D817E818A149B041CF04D815E81D9
:101B8000B801C3010995E418F508F7FE0AC02D81D4
:101B90003E8189819A81280F391F3E832D83E20C73
:101BA000F31C0F5F1F4FD9CF2FEF3FEF3A832983ED
:101BB000D4CF26960FB6F894DEBF0FBECDBFDF910F
:101BC000CF911F910F91FF90EF90DF90CF90BF903A
:101BD000AF909F908F907F906F905F904F903F90CD
:101BE0002F900895089590E080E00895CF93CFB7A7
:101BF000F89480918E03811127C0E0E9F5E084918B
:101C0000E4EAF5E09491E82FF0E0EE0FFF1FE859C9
:101C1000FA4FA591B491EC91E92321F461E08AE0B7
:101C20000E942F0461E08AE00E945D048CB580610F
:101C30008CBD8CB580648CBD61E08DE00E945D043C
:101C400061E08BE00E945D0480918E038F5F809342
:101C50008E03CFBFCF91089561E087E00E942F04EB
:101C60006DE471E080E090E00C94900561E08111FA
:101C700001C060E084E00C942F040CB405FC0DC09E
:101C80009EBD00000DB407FEFDCF9EB58EBD0000C9
:101C90000DB407FEFDCF8EB508958EBD00000DB4C6
:101CA00007FEFDCF8EB59EBD00000DB407FEFDCF33
:101CB0009EB508958EBD00000DB407FEFDCF8EB514
:101CC00008950F931F93CF93DF938C01EB016091E5
:101CD000B0037091B1038091B2039091B30320E0FF
:101CE0003FEF4FE757E40E94E31E20E030E040EC76
:101CF00051E40E94841D0E94FD1D60939B0370931C
:101D00009C0380939D0390939E0360919703709131
:101D100098038091990390919A0320E030E040E28B
:101D200051E40E94841D20E030E040E85FE30E941F
:101D3000131D20E030E040E05FE30E94E31E20E05E
:101D40003FEF4FE757E40E94E31E0E94FD1D6093A2
:101D50008F0370939003809391039093920360E0BC
:101D60008AE00E942F0485E50E945A0EC801906106
:101D70000E943D0E61E08AE00E942F0461E070E065
:101D800080E090E00E94900560E08AE00E942F04CD
:101D900081E00E945A0E88819981AA81BB810E94AC
:101DA0003D0E61E08AE00E942F0461E070E080E077
:101DB00090E0DF91CF911F910F910C94900560E01E
:101DC0008AE00E942F0485E50E945A0E80E090E28E
:101DD0000E943D0E61E08AE00E942F0461E070E005
:101DE00080E090E00C9490058CBD9DBD0895AF926D
:101DF000BF92CF92DF92EF92FF920F931F93CF93F8
:101E0000DF931F92CDB7DEB78C015B016A01DC0165
:101E10008D919C911197892B39F01296ED91FC913F
:101E2000808191810E94F40EF80183858F3F19F023
:101E300060E00E942F047501CA0CDB1CEC14FD0449
:101E4000A9F0D7018D917D018983F801808191816D
:101E5000892B29F0CE0101960E94D203EFCFBE015B
:101E60006F5F7F4FC8010E94B904E8CFD8011B966D
:101E70008C918F3F19F061E00E942F0481E00F9058
:101E8000DF91CF911F910F91FF90EF90DF90CF9056
:101E9000BF90AF9008950F931F93CF93DF931F923E
:101EA000CDB7DEB78C01698360E0FC01868D0E94AE
:101EB0002F0441E050E0BE016F5F7F4FF801838D3A
:101EC000948D0E94F70E0F90DF91CF911F910F918B
:101ED0000895CF93C82F87FDCFE7C093DE0361E25B
:101EE0008FEB93E00E944B0F6C2F60688FEB93E0B9
:101EF0000E944B0F60E28FEB93E0CF910C944B0F5D
:101F0000CF938091DC0387FD13C061E00E945D04E4
:101F100060E08091DC030E942F0461E070E080E0CB
:101F200090E00E94900561E08091DC030E942F0404
:101F3000C091DF03C83008F0C7E0C093DF0361E25F
:101F40008FEB93E00E944B0F6C2F60618FEB93E05F
:101F50000E944B0F60E28FEB93E00E944B0F809149
:101F6000DE030E94690F60E28FEB93E00E944B0F4B
:101F70006CE08FEB93E0CF910C944B0FFF920F939B
:101F80001F93CF93DF939091E003992339F08091D1
:101F9000E1038F5F8917E8F58093E103D091E403B3
:101FA000D695D695D69584E5D89F80011124809149
:101FB000E5038695869586958D1780F16D2F606473
:101FC0008FEB93E00E944B0FC091E203F090E3038C
:101FD0006C2F60688FEB93E00E944B0F61E0809163
:101FE000DD030E942F044F2D50E06C2F70E0461B44
:101FF000570B4F5F5F4F600F711F6D5E7E4F80917B
:10200000DA039091DB030E94F70EDF5F0C5A1F4F3B
:10201000CECF1092E1030E94800FC0CF60E48FEB1F
:1020200093E00E944B0F83E58093E2031092E30359
:102030008FE28093E4031092E503DF91CF911F912B
:102040000F91FF9008951F93CF93DF93EC01162F0C
:1020500060E20E944B0F6CE011116DE0CE01DF9148
:10206000CF911F910C944B0F4F925F926F927F9282
:102070008F929F92AF92BF92CF92DF92EF92FF9298
:102080000F931F93CF93DF93F82EEB018A010E94E9
:10209000C2054B015C01FF2009F45BC0F801C08060
:1020A000D180E280F380C114D104E104F10489F10C
:1020B000488059806A807B80F6E0CF16D104E10425
:1020C000F10458F0D301C20188539F4FAF4FBF4F67
:1020D00088169906AA06BB06A8F4AEECBFEFA701C6
:1020E00096010E94D91C24EF420E21E0521E611C71
:1020F000711C460E571E681E791E84149504A60492
:10210000B70438F187EEC81683E0D806E104F1047D
:1021100050F4EFEFCE1ADE0AEE0AFE0AF801C08292
:10212000D182E282F38288829982AA82BB8281E094
:10213000DF91CF911F910F91FF90EF90DF90CF90A3
:10214000BF90AF909F908F907F906F905F904F90D7
:10215000089580E0EDCFCF93C82F0E940604019729
:1021600031F48C2F0E94060421E0019709F020E051
:10217000822FCF910895CF93C82F0E940604892BF8
:1021800031F48C2F0E94060421E0892B09F020E015
:10219000822FCF9108958EE090E00E94BB1088239B
:1021A00019F081E08093AA0380E190E00E94BB10C7
:1021B000882319F081E08093A3038FE090E00E94D0
:1021C000BB10882319F081E08093A8030895E3E110
:1021D000F1E088EF91E0DF019C011D922150304039
:1021E000E1F71092E2038091E303833508F483E57D
:1021F0008093E3031092E4038091E5038F3208F4A7
:102200008FE28093E5031092CC031092CB031092DF
:10221000CE031092CD030895FC0101900020E9F750
:102220003197AF01481B590BBC018FEB93E00C9425
:102230004F068F929F92AF92BF920F931F93CF93AF
:10224000DF93CDB7DEB7A1970FB6F894DEBF0FBE10
:10225000CDBF19A2423008F44AE08E010F5D1F4F36
:10226000842E912CB12CA12CA50194010E94B41CA8
:10227000E62FB901CA01EA30F4F4E05DD801EE932B
:102280008D01232B242B252B79F790E080E01097EC
:1022900019F0CD010E940C11A1960FB6F894DEBF83
:1022A0000FBECDBFDF91CF911F910F91BF90AF9027
:1022B0009F908F900895E95CE1CF0C940C114F92A0
:1022C0005F926F927F928F929F92AF92BF92CF92C6
:1022D000DF92EF92FF920F931F93CF936B017C01DC
:1022E000742EAC019B010E94501F882399F08DE44D
:1022F00093E0CF911F910F91FF90EF90DF90CF90DF
:10230000BF90AF909F908F907F906F905F904F9015
:102310000C940C1146015701E894B7F82FEF3FEFEA
:102320004FE75FE7C501B4010E94501F81110DC046
:102330002FEF3FEF4FE75FE7C501B4010E947F1D1C
:1023400018161CF481E593E0D4CF2FEF3FEF4FE751
:102350005FE4C701B6010E94DE1E18161CF485E575
:1023600093E0C7CF2FEF3FEF4FE75FECC701B60118
:102370000E947F1D87FDF3CF20E030E0A901C70157
:10238000B6010E947F1D10E000E087FF0AC06DE2E9
:102390008FEB93E00E9427098C01F7FAF094F7F88D
:1023A000F094C0E060E070E080E09FE37C1641F0D4
:1023B00020E030E040E251E40E94841DCF5FF6CF80
:1023C000A70196010E94131D2B013C010E94FD1DD7
:1023D0004B015C014AE00E9419117C01E00EF11EE4
:1023E000CC23C1F1C501B4010E942C1E9B01AC019C
:1023F000C301B2010E94121D4B015C016EE28FEB22
:1024000093E00E942709E80EF91EC15018F120E060
:1024100030E040E251E4C501B4010E94E31E2B010B
:102420003C010E94FD1D4B01B12CA12C4AE0C501CD
:10243000B4010E941911E80EF91EC501B4010E94F1
:102440002C1E9B01AC01C301B2010E94121D4B0165
:102450005C01DBCFC701CF911F910F91FF90EF90EF
:10246000DF90CF90BF90AF909F908F907F906F90B4
:102470005F904F900895CF92DF92EF92FF92CF93AB
:10248000DF936C01092E000CEE08FF0897FF19C0BE
:102490006DE28FEB93E00E942709EC016627772716
:1024A000CB016C197D098E099F094AE00E94191120
:1024B0008C0F9D1FDF91CF91FF90EF90DF90CF9019
:1024C00008954AE0C701B601DF91CF91FF90EF90E8
:1024D000DF90CF900C9419110E947A201F920F92D6
:1024E0000FB60F9211242F933F938F939F93AF9327
:1024F000BF938091B7039091B803A091B903B091B5
:10250000BA033091B60323E0230F2D3758F5019617
:10251000A11DB11D2093B6038093B7039093B80318
:10252000A093B903B093BA038091BB039091BC030D
:10253000A091BD03B091BE030196A11DB11D809372
:10254000BB039093BC03A093BD03B093BE03BF91A4
:10255000AF919F918F913F912F910F900FBE0F9050
:102560001F90189526E8230F0296A11DB11DD2CF0A
:102570001F920F920FB60F9211242F933F934F93F8
:102580005F936F937F938F939F93AF93BF93EF93DB
:10259000FF93E0910301F09104010995FF91EF9100
:1025A000BF91AF919F918F917F916F915F914F916B
:1025B0003F912F910F900FBE0F901F9018951F9273
:1025C0000F920FB60F9211242F933F934F935F9367
:1025D0006F937F938F939F93AF93BF93EF93FF93EB
:1025E000E0910101F09102010995FF91EF91BF91F6
:1025F000AF919F918F917F916F915F914F913F919B
:102600002F910F900FBE0F901F901895CF93DF93CF
:10261000CDB7DEB764970FB6F894DEBF0FBECDBF5F
:10262000789484B5826084BD84B5816084BD85B5AD
:10263000826085BD85B5816085BD80916E008160B9
:1026400080936E001092810080918100826080935F
:102650008100809181008160809381008091800061
:102660008160809380008091B10084608093B1008C
:102670008091B00081608093B00080917A00846086
:1026800080937A0080917A00826080937A008091B2
:102690007A00816080937A0080917A0080688093CC
:1026A0007A001092C1000E94F60D81E590E00E9430
:1026B000F40E61E08AE00E945D040091DA0310915B
:1026C000DB03D8011B968C918F3F41F061E00E94A3
:1026D0005D0461E0F80183850E942F04D8018D918B
:1026E0009C91892B09F484C00E94F60D81E0F801C9
:1026F000838F61E08091DD030E945D048091DC03A3
:1027000087FD03C061E00E945D0484E08093DF03E5
:1027100088E28093DE031092E0031092E1030E94AE
:10272000800F1092E2038091E303833508F483E580
:102730008093E3031092E4038091E5038F3208F461
:102740008FE28093E5030E94BE0F84E60E94690F2A
:102750000E94E71062E08EE00E945D0462E080E18A
:102760000E945D0462E08FE00E945D0461E084E00D
:102770000E945D0461E087E00E945D0465E375E00E
:1027800080E090E00E94900560E084E00E942F04C9
:1027900062E082E00E945D0462E083E00E945D04EA
:1027A0002EEC35E030930201209301018091690005
:1027B0008C7F816080936900E89A309304012093B4
:1027C000030180916900837F846080936900E99AA6
:1027D0008091B4039091B5030097A9F1019709F492
:1027E0009EC480E090E0892B99F30E940000F0CF16
:1027F00061E0F80184850E945D04D8011A968C91ED
:102800001A978B7FE1F460E01C968C910E942F0454
:10281000D8011D968C918F3F41F061E00E945D04CC
:1028200061E0F80185850E942F04D8011E968C91E5
:102830008F3F09F45BCF60E00E945D0457CF61E0F9
:10284000F8018485E3CF1D821E821F8218861982BB
:102850001A821B821C82D12C11E0F1E0FD8767E116
:10286000262E312C0E94C20569877A878B879C8728
:1028700020919703309198034091990350919A03C6
:10288000298B3A8B4B8B5C8B112309F430C18090E0
:10289000930390909403A0909503B0909603C090FA
:1028A000AB030E94E710409097035090980360900C
:1028B000990370909A0360919703709198038091A7
:1028C000990390919A0320E030E0A9010E947F1DB6
:1028D00087FF1FC077FA709477F87094EE24E39422
:1028E000F12C0AE010E024E030E04AE050E070E033
:1028F00060E08FEB93E00E94580A0BE010E024E0C8
:1029000030E04BE050E070E060E08FEB93E00E943D
:10291000580A20E030E048EC52E4C301B2010E94C2
:10292000E31E20E030E040E05FE30E94131D0E94C0
:10293000F61DCB0164E670E00E94A01C7B018C01B7
:10294000BC01990F880B990B0E942E1E2B013C0194
:1029500083E08093D3038093D40387E090E0909347
:10296000CC038093CB031092CE031092CD033AE0B8
:10297000E316F10474F489E593E00E945D1189E1A6
:1029800090E09093CC038093CB031092CE031092EF
:10299000CD03C7010E943B1220E030E040E251E449
:1029A000C301B2010E947F1D87FFC8C080E390E091
:1029B0009093CC038093CB031092CE031092CD035F
:1029C00089E593E00E945D1182E490E09093CC034E
:1029D0008093CB031092CE031092CD03C8010E94C6
:1029E0003B1282E08093D3038093D40346E250E00D
:1029F0005093CC034093CB0388E090E09093CE03B8
:102A00008093CD038BE593E00E945D11A8E4B0E0D4
:102A1000B093CC03A093CB03E0E2F0E0F093CE03BD
:102A2000E093CD038DE593E00E945D11809111014B
:102A300090911201EE24E394F12C07E110E027E2DB
:102A400030E047E150E068E170E0019731F021E5C6
:102A500030E047E150E062E470E08FEB93E00E94E9
:102A6000580A81E08093D3038093D403D1100E944D
:102A7000CC0B0E94730C8091E603882309F461C09B
:102A8000DD2009F45EC023E130E03093CC032093D5
:102A9000CB0389E190E09093CE038093CD038FE543
:102AA00093E00E945D113092CC032092CB0381E22F
:102AB00090E09093CE038093CD0388E693E00E944C
:102AC0005D1188E190E09093CC038093CB03A9E261
:102AD000B0E0B093CE03A093CD03CC2009F446C060
:102AE00042E0C501B4010E945F110E94BE0F0E9426
:102AF000CB100091AA03002309F443C08EE090E0BC
:102B00000E94AB10182F8823E1F180911101909160
:102B100012018130910509F060C182E090E090934C
:102B20001201809311011092AA031092A303109234
:102B3000A8031D821E821F8218862FC080E390E0AA
:102B400045CF8091E803882309F4BBCFDD2009F449
:102B5000B8CF3092CC032092CB034DE150E050939C
:102B6000CE034093CD038FE693E0A9CFE2E1F0E0FE
:102B7000F093CC03E093CB0386E793E00E945D11D2
:102B8000B4CFAE014B5F5F4FBE016F5F7F4F802FB1
:102B90000E943410182F811122C18091A80388232C
:102BA00009F18FE090E00E94AB10082F8823D1F04C
:102BB000DD2009F42CC10E94DF0E29853A854B8562
:102BC0005C852093A4033093A5034093A603509300
:102BD000A7030D87D12C1092AA031092A303109281
:102BE000A803102F8091A30381111CC18091A10320
:102BF0009091A20320919F033091A0038217930725
:102C000009F026C1DD20D1F020919703309198037F
:102C10004091990350919A0369897A898B899C899B
:102C20000E947F1D811103C03D85332339F06FE879
:102C300073E083E090E20E94610E1D860091AB0379
:102C4000002309F453C08091050190910601A091E1
:102C50000701B091080129853A854B855C85281BC1
:102C6000390B4A0B5B0BDA01C901883E9340A10581
:102C7000B105E0F189859A85AB85BC858093050116
:102C800090930601A0930701B093080184E10E948C
:102C90009904BC01990F880B990B0E942E1E20E00D
:102CA00030E543EC57E40E94E31E20EA3DE547EAA5
:102CB00058E40E94131D2CE533E443E85AE40E94D3
:102CC000841D9B01AC0120939303309394034093A4
:102CD00095035093960360919703709198038091A8
:102CE000990390919A030E940C03102F8091A903DD
:102CF000882341F18091090190910A01A0910B0173
:102D0000B0910C0129853A854B855C85281B390BD0
:102D10004A0B5B0BDA01C9018B309A41A105B10561
:102D200088F089859A85AB85BC858093090190934D
:102D30000A01A0930B01B0930C011092A90380E04B
:102D40000E94360E002391F1D11030C08091A4036F
:102D50009091A503A091A603B091A70329853A8578
:102D60004B855C85281B390B4A0B5B0BDA01C901CB
:102D700080319742A105B105C8F089859A85AB8558
:102D8000BC858093A4039093A503A093A603B0935E
:102D9000A7031092AB036DE471E080E090E00E9425
:102DA000900560E087E00E942F04102F0E94C2056A
:102DB00029853A854B855C85621B730B840B950BCB
:102DC000633071058105910508F04CCD62E070E03B
:102DD00080E090E00E949005E9CF0197A0CE8D8120
:102DE0009E81AF81B8850397A105B10551F480910B
:102DF000A903882341F01092A9038091A9030E949E
:102E0000360E10E0CACE81E08093A903F6CFD090B1
:102E1000AB03D110E0CE81E08093AB030E942C0E77
:102E2000D02ED9CE80E190E00E94AB10882309F427
:102E3000DDCE81E090E09093B5038093B4030E94CF
:102E4000DF0E1092A3031092AA031092A803C9CC1C
:102E50008090970390909803A0909903B0909A0364
:102E600040919F035091A0032091110130911201D4
:102E7000841795070CF0C5C040919F035091A003A3
:102E8000841795074CF440919F035091A0030A9634
:102E9000841795070CF44EC02130310509F0A4C009
:102EA00060919703709198038091990390919A0390
:102EB00020E030E040E85FE30E94131D6093970339
:102EC000709398038093990390939A0320E030E0E5
:102ED000A901C501B4010E947F1D87FF45C020E004
:102EE00030E040E85FEBC501B4010E94DE1E181619
:102EF000DCF520919703309198034091990350910C
:102F00009A03C501B4010E947F1D87FF2DC0409028
:102F10009703509098036090990370909A0320E073
:102F200030E040E050ECC501B4010E94E31EA30173
:102F3000920110C06091970370919803809199035A
:102F400090919A032130310509F049C020E030E02A
:102F500040E251E40E94131D60939703709398031D
:102F60008093990390939A036091970370919803CB
:102F70008091990390919A0320E030E040E251EC77
:102F80000E947F1D87FDC1C06091970370919803D7
:102F90008091990390919A0320E030E040E251E45F
:102FA0000E94DE1E18160CF4B5C080919703909114
:102FB0009803A0919903B0919A03809397039093FB
:102FC0009803A0939903B0939A0380919F039091E3
:102FD000A0039093A2038093A10311E013CE2DECE4
:102FE0003CEC4CEC5DE3B6CF609197037091980395
:102FF0008091990390919A032AE037ED43E25CE3D4
:10300000A9CF40919F035091A003481759074CF452
:1030100040919F035091A0030A97481759070CF459
:1030200050C02130310509F063C060919703709161
:1030300098038091990390919A0320E030E040E852
:103040005FE30E94121D609397037093980380932F
:10305000990390939A0320E030E0A901C501B401DF
:103060000E94DE1E18160CF07FCF20E030E040E812
:103070005FE3C501B4010E947F1D87FF75CF2091DA
:103080009703309198034091990350919A03C50199
:10309000B4010E94DE1E18160CF066CF4090970314
:1030A000509098036090990370909A03A501940141
:1030B000C501B4010E94131D9B01AC01C301B20103
:1030C0000FC060919703709198038091990390913C
:1030D0009A032130310539F420E030E040E251E438
:1030E0000E94121D39CF2DEC3CEC4CEC5DE3F8CF87
:1030F00060919703709198038091990390919A033E
:103100002AE037ED43E25CE3EBCF80E090E0A0E221
:10311000B1EC53CF80E090E0A0E2B1E44ECF1D824D
:103120001E821F82188619821A821B821C82D12C51
:1031300011E031E0398737E1232E312C0E94C2059E
:103140004B015C018091B0039091B103A091B20357
:10315000B091B3038D879E87AF87B88B112309F495
:1031600006C12091AC033091AD034091AE03509164
:10317000AF03298B3A8B4B8B5C8BC090AB030E94C7
:10318000E7106091B0037091B1038091B203909108
:10319000B30320E030E048EC52E40E94E31E20E05C
:1031A00030E040E05FE30E94131D0E94F61DCB015A
:1031B00064E670E00E94A01C7B018C01BC01990FA9
:1031C000880B990B0E942E1E2B013C0183E08093FB
:1031D000D3038093D40387E090E09093CC03809353
:1031E000CB031092CE031092CD033AE0E316F10424
:1031F00074F489E593E00E945D1189E190E0909379
:10320000CC038093CB031092CE031092CD03C70161
:103210000E943B1220E030E040E251E4C301B201E1
:103220000E947F1D87FFC6C080E390E09093CC038F
:103230008093CB031092CE031092CD0389E593E0E7
:103240000E945D1182E490E09093CC038093CB03C5
:103250001092CE031092CD03C8010E943B1282E06F
:103260008093D3038093D40346E250E05093CC0381
:103270004093CB0388E090E09093CE038093CD03FE
:103280008BE593E00E945D11ACE3B0E0B093CC031A
:10329000A093CB03E0E2F0E0F093CE03E093CD0304
:1032A0008AE793E00E945D118091110190911201D3
:1032B000EE24E394F12C07E110E027E230E047E14F
:1032C00050E068E170E0019731F021E530E047E13E
:1032D00050E062E470E08FEB93E00E94580A81E0D6
:1032E0008093D3038093D403D1100E94CC0B0E940F
:1032F000730C8091E603882309F45FC0DD2009F494
:103300005CC023E130E03093CC032093CB0389E110
:1033100090E09093CE038093CD038FE593E00E94DD
:103320005D113092CC032092CB0381E290E0909328
:10333000CE038093CD0388E693E00E945D1188E17F
:1033400090E09093CC038093CB03A9E2B0E0B093DC
:10335000CE03A093CD03CC2009F444C042E0698998
:103360007A898B899C890E945F110E94BE0F0E94FE
:10337000CB100091AA03002309F43FC08EE090E037
:103380000E94AB10182F8823C1F1809111019091F8
:1033900012018130910509F04CC182E090E09093D8
:1033A0001201809311011092AA031D821E821F82B6
:1033B00018862FC080E390E047CF8091E8038823F0
:1033C00009F4BDCFDD2009F4BACF3092CC032092AE
:1033D000CB034DE150E05093CE034093CD038DE7F6
:1033E00093E0ABCFE2E1F0E0F093CC03E093CB03CA
:1033F00086E793E00E945D11B8CFAE014B5F5F4F4F
:10340000BE016F5F7F4F802F0E943410182F8111F3
:1034100012C18091A8038823B1F08FE090E00E9450
:10342000AB10082F882379F0D1101DC1D090AB03C9
:10343000D11006C081E08093AB030E942C0ED02EE9
:103440001092A803102F8091A303811119C18091BC
:10345000A1039091A20320919F033091A0038217B2
:10346000930709F01DC1DD20D1F02091B003309108
:10347000B1034091B2035091B3036D857E858F8572
:1034800098890E947F1D811103C0F985FF2339F0BF
:103490006BE973E087E090E20E94610E198600916B
:1034A000AB03002309F45EC080910D0190910E01E1
:1034B000A0910F01B0911001A5019401281B390BB7
:1034C0004A0B5B0BDA01C901883E9340A105B105A7
:1034D00008F448C080920D0190920E01A0920F0155
:1034E000B092100183E10E949904BC01990F880BEE
:1034F000990B0E942E1E9B01AC012093AC033093CC
:10350000AD034093AE035093AF036091B00370914D
:10351000B1038091B2039091B3030E940C0320E0A9
:1035200030E44CE156E46091AC037091AD038091BE
:10353000AE039091AF030E94E31E2CE934E145E90C
:103540005AE40E94121D20E636EE44EC58E40E9434
:10355000841D6093AC037093AD038093AE0390938E
:10356000AF03102F8091A903882311F180910901E5
:1035700090910A01A0910B01B0910C01A501940159
:10358000281B390B4A0B5B0BDA01C9018B309A41BE
:10359000A105B10568F08092090190920A01A092FC
:1035A0000B01B0920C011092A90380E00E94360E2C
:1035B000002361F1D1102AC08091A4039091A5034A
:1035C000A091A603B091A703A5019401281B390B74
:1035D0004A0B5B0BDA01C90180319742A105B105A5
:1035E000A8F08092A4039092A503A092A603B092A3
:1035F000A7031092AB036DE471E080E090E00E94BD
:10360000900560E087E00E942F04102F0E94C20501
:10361000681979098A099B09693171058105910544
:1036200008F08CCD62E070E080E090E00E949005B0
:10363000EDCF0197B4CE8D819E81AF81B885039780
:10364000A105B10551F48091A903882341F010929E
:10365000A9038091A9030E94360E10E0DACE81E022
:103660008093A903F6CF0E94DF0E8092A40390926C
:10367000A503A092A603B092A7030987D12CE0CEA0
:1036800080E190E00E94AB10882309F4E0CE109214
:10369000B5031092B4030E94DF0E1092A303A1C8D9
:1036A00040919F035091A00320911101309112018C
:1036B000841795070CF086C040919F035091A0039A
:1036C0008417950744F440919F035091A0030A96F4
:1036D000841795078CF02130310509F066C06091A0
:1036E000B0037091B1038091B2039091B30320E0D5
:1036F00030E040E85FE310C06091B0037091B10327
:103700008091B2039091B3032130310509F048C094
:1037100020E030E040E251E40E94131D6093B003CA
:103720007093B1038093B2039093B3036091B0039D
:103730007091B1038091B2039091B30320E030E027
:10374000A9010E947F1D87FD80C06091B003709128
:10375000B1038091B2039091B30320E030E040ECDC
:1037600051E40E94DE1E18160CF473C08091B00361
:103770009091B103A091B203B091B3038093B003D1
:103780009093B103A093B203B093B30380919F03CE
:103790009091A0039093A2038093A10311E063CEC4
:1037A0002DEC3CEC4CEC5DE3B7CF6091B003709135
:1037B000B1038091B2039091B3032AE037ED43E265
:1037C0005CE3AACF40919F035091A003481759078B
:1037D00044F440919F035091A0030A97481759075A
:1037E00084F02130310521F56091B0037091B1036F
:1037F0008091B2039091B30320E030E040E85FE3B2
:103800000FC06091B0037091B1038091B2039091A9
:10381000B3032130310539F420E030E040E251E4D7
:103820000E94121D7BCF2DEC3CEC4CEC5DE3F8CFFD
:103830006091B0037091B1038091B2039091B30392
:103840002AE037ED43E25CE3EBCF80E090E0DC017F
:1038500095CF80E090E0A0ECB1E490CF0F931F9360
:10386000CF93DF930E946B0560938A0370938B0361
:1038700080938C0390938D030E946B056093860365
:10388000709387038093880390938903CFEBD3E0F1
:103890001B821A8224E530E03D832C8380E390E094
:1038A0009F838E83398728879B878A871E8A1D86F8
:1038B0001C861F861E8681E08D8B8C8B2FEF3FEF41
:1038C0003B8B2A8B398B288B8F8B188E1A8E198EF7
:1038D00085E293E0998388838CE190E00E94551FF4
:1038E0008C0185E0F80183878FEF86878587848741
:1038F00085E893E091838083138E82E090E00E94BC
:10390000551F20E5FC0120831182F80193838283F7
:1039100080E099E0ADE3B0E084839583A683B7832C
:1039200081E090E09187808712861C8F0B8F86E064
:103930008E8F84E08D8FDF91CF911F910F9108952D
:1039400097FB072E16F4009407D077FD09D00E944C
:10395000DE1C07FC05D03EF4909581959F4F08959D
:10396000709561957F4F0895A1E21A2EAA1BBB1B8B
:10397000FD010DC0AA1FBB1FEE1FFF1FA217B3073B
:10398000E407F50720F0A21BB30BE40BF50B661F51
:10399000771F881F991F1A9469F760957095809515
:1039A00090959B01AC01BD01CF010895B7FF0C9428
:1039B000F81C0E94F81C821B930B0895AA1BBB1BCA
:1039C00051E107C0AA1FBB1FA617B70710F0A61B1F
:1039D000B70B881F991F5A95A9F780959095BC0140
:1039E000CD010895EE0FFF1F0590F491E02D09948D
:1039F0000E94031DA59F900DB49F900DA49F800D64
:103A0000911D11240895A29FB001B39FC001A39FEF
:103A1000700D811D1124911DB29F700D811D112407
:103A2000911D08955058BB27AA270E942A1D0C9467
:103A3000A41E0E94961E38F00E949D1E20F039F4AC
:103A40009F3F19F426F40C94931E0EF4E095E7FBC7
:103A50000C948D1EE92F0E94B51E58F3BA17620709
:103A600073078407950720F079F4A6F50C94D71E08
:103A70000EF4E0950B2EBA2FA02D0B01B901900189
:103A80000C01CA01A0011124FF27591B99F0593FCD
:103A900050F4503E68F11A16F040A22F232F342F15
:103AA0004427585FF3CF469537952795A795F04063
:103AB0005395C9F77EF41F16BA0B620B730B840B78
:103AC000BAF09150A1F0FF0FBB1F661F771F881F30
:103AD000C2F70EC0BA0F621F731F841F48F4879588
:103AE00077956795B795F7959E3F08F0B0CF93957A
:103AF000880F08F09927EE0F9795879508950E94F3
:103B0000691E08F481E008950E94981D0C94A41E7B
:103B10000E949D1E58F00E94961E40F029F45F3FBF
:103B200029F00C948D1E51110C94D81E0C94931EE8
:103B30000E94B51E68F39923B1F3552391F3951BA9
:103B4000550BBB27AA2762177307840738F09F5FBE
:103B50005F4F220F331F441FAA1FA9F335D00E2E2B
:103B60003AF0E0E832D091505040E695001CCAF798
:103B70002BD0FE2F29D0660F771F881FBB1F26175B
:103B800037074807AB07B0E809F0BB0B802DBF0132
:103B9000FF2793585F4F3AF09E3F510578F00C9401
:103BA0008D1E0C94D81E5F3FE4F3983ED4F38695A7
:103BB00077956795B795F7959F5FC9F7880F911D22
:103BC0009695879597F90895E1E0660F771F881F0E
:103BD000BB1F621773078407BA0720F0621B730BC1
:103BE000840BBA0BEE1F88F7E09508950E94FD1D27
:103BF0006894B1110C94D81E08950E94BD1E88F0DF
:103C00009F5798F0B92F9927B751B0F0E1F0660FA0
:103C1000771F881F991F1AF0BA95C9F714C0B130E1
:103C200091F00E94D71EB1E008950C94D71E672F23
:103C3000782F8827B85F39F0B93FCCF38695779510
:103C40006795B395D9F73EF49095809570956195F9
:103C50007F4F8F4F9F4F0895E89409C097FB3EF424
:103C600090958095709561957F4F8F4F9F4F9923C9
:103C7000A9F0F92F96E9BB279395F6958795779547
:103C80006795B795F111F8CFFAF4BB0F11F460FF07
:103C90001BC06F5F7F4F8F4F9F4F16C0882311F05F
:103CA00096E911C0772321F09EE8872F762F05C073
:103CB000662371F096E8862F70E060E02AF09A950E
:103CC000660F771F881FDAF7880F9695879597F903
:103CD0000895990F0008550FAA0BE0E8FEEF16169D
:103CE0001706E807F907C0F012161306E407F507F0
:103CF00098F0621B730B840B950B39F40A2661F064
:103D0000232B242B252B21F408950A2609F4A14006
:103D1000A6958FEF811D811D089597F99F6780E813
:103D200070E060E008959FEF80EC089500240A940D
:103D30001616170618060906089500240A94121686
:103D40001306140605060895092E0394000C11F4B9
:103D5000882352F0BB0F40F4BF2B11F460FF04C066
:103D60006F5F7F4F8F4F9F4F089557FD9058440FBF
:103D7000551F59F05F3F71F04795880F97FB991FCA
:103D800061F09F3F79F08795089512161306140687
:103D9000551FF2CF4695F1DF08C016161706180614
:103DA000991FF1CF86957105610508940895E894EF
:103DB000BB2766277727CB0197F908950E94691ED4
:103DC00008F48FEF08950E94F61E0C94A41E0E9422
:103DD000961E38F00E949D1E20F0952311F00C9441
:103DE0008D1E0C94931E11240C94D81E0E94B51E97
:103DF00070F3959FC1F3950F50E0551F629FF0013E
:103E0000729FBB27F00DB11D639FAA27F00DB11D56
:103E1000AA1F649F6627B00DA11D661F829F2227DF
:103E2000B00DA11D621F739FB00DA11D621F839F66
:103E3000A00D611D221F749F3327A00D611D231F3C
:103E4000849F600D211D822F762F6A2F11249F578A
:103E500050409AF0F1F088234AF0EE0FFF1FBB1F8D
:103E6000661F771F881F91505040A9F79E3F51054C
:103E700080F00C948D1E0C94D81E5F3FE4F3983EA6
:103E8000D4F3869577956795B795F795E7959F5FF6
:103E9000C1F7FE2B880F911D9695879597F9089588
:103EA0000E94691E880B990B08950F931F93CF935F
:103EB000DF938230910510F482E090E0E091EB0313
:103EC000F091EC0330E020E0B0E0A0E0309799F40E
:103ED0002115310509F44AC0281B390B243031055E
:103EE000D8F58A819B816115710589F1FB01938366
:103EF0008283FE0111C040815181028113814817E4
:103F00005907E0F04817590799F4109761F0129695
:103F10000C93129713961C933296CF01DF91CF9199
:103F20001F910F9108950093EB031093EC03F4CFCE
:103F30002115310551F04217530738F0A901DB0173
:103F40009A01BD01DF01F801C1CFEF01F9CF9093D4
:103F5000EC038093EB03CDCFFE01E20FF31F8193BF
:103F600091932250310939832883D7CF2091E903D7
:103F70003091EA03232B41F420910D0330910E037D
:103F80003093EA032093E90320910B0330910C0353
:103F90002115310541F42DB73EB740910F035091E3
:103FA0001003241B350BE091E903F091EA03E217BB
:103FB000F307A0F42E1B3F0B2817390778F0AC014C
:103FC0004E5F5F4F2417350748F04E0F5F1F509329
:103FD000EA034093E903819391939FCFF0E0E0E0FF
:103FE0009CCFCF93DF930097E9F0FC0132971382C7
:103FF0001282A091EB03B091EC03ED0130E020E0E0
:104000001097A1F420813181820F931F2091E90341
:104010003091EA032817390709F061C0F093EA03E9
:10402000E093E903DF91CF910895EA01CE17DF070E
:10403000E8F54A815B819E0141155105B1F7E9011F
:10404000FB83EA8349915991C40FD51FEC17FD07F3
:1040500061F4808191810296840F951FE901998313
:104060008883828193819B838A83F0E0E0E01296CB
:104070008D919C9113970097B9F52D913C911197D3
:10408000CD010296820F931F2091E9033091EA033C
:104090002817390739F6309751F51092EC03109232
:1040A000EB03B093EA03A093E903BCCFD383C283AD
:1040B00040815181840F951FC817D90761F44E5F65
:1040C0005F4F88819981480F591F518340838A81AE
:1040D0009B81938382832115310509F0B0CFF09342
:1040E000EC03E093EB039ECFFD01DC01C0CF138214
:1040F0001282D7CF81E090E0F8940C947F20F8945E
:02410000FFCFEF
:10410200034E064E0632000000190000004B00006C
:10411200000100000000000000000000000000009C
:10412200000000000000000000000000000000008D
:10413200000000000000000000C0E0F0F8FCFCFEFF
:10414200FFFCE00000000000000000000000000092
:10415200000000000000000000000000000000005D
:10416200000000000000000000000000000000004D
:104172000000000000000000F8F8F8F8F8F8F8F87D
:10418200F8F8F8F8F0F0E0E0C080C0FCFFFFFFFFB5
:104192007F3F7FFFFFFFFFFF0000000000000000E5
:1041A200000000000000000000000000000000000D
:1041B20000000000000000000000000000000000FD
:1041C200000000000000000000000000000F1F3F80
:1041D2007FFFFFFFFFFFFFFFFFE7C7C7878F9F9F9D
:1041E200FFFFFFC1C0E0FCFFFFFFFFFFFCFCFCFC88
:1041F200FEFEFEFCFCF8F8F0E0C0C000000000008B
:1042020000000000000000000000000000000000AC
:10421200000000000000000000000000000000009C
:104222000000000080C0E0F1FBFFFFFFFFFF7F1FE7
:104232000F0F87E7FFFFFF1F1F3FF9F8F8F8F8F8A5
:10424200F8FDFFFFFFFFFFFFFFFFFF7F3F0F0701AB
:10425200000000000000000000000000000000005C
:10426200000000000000000000000000000000004C
:10427200000000000000F0FEFFFFFFFFFFFFFFFF56
:10428200FFFFFE7E3F3F0F1FFFFFFFFCF0E0F1FF4D
:10429200FFFFFFFFFCF0010101010101010100002C
:1042A200000000000000000000000000000000000C
:1042B20000000000000000000000000000000000FC
:1042C20000000000000000000000030303030303DA
:1042D20003030101010100000000000000030F1FA1
:1042E2003F7F7FFFFFFFFF7F7F1F03000000000073
:1042F20000000000000000000000000000000000BC
:1043020000000000000000000000000000ED03803B
:104312000000FF0100010000FFFF0000010001FF9B
:10432200000000000027094F06F30DF20D7C06DCA9
:10433200036C0CA40BC00BB40B450DDC03ED062380
:10434200106B0B320BED0AD00A580AF9096E616E36
:1043520000696E66006F76660030002E00560045DA
:10436200585445524E414C00534F5552434500203C
:104372004C4F57205A004F4646006D41004849476E
:0443820048205A0075
:00000001FF
