:100000000C94E2020C94570F0C94300F0C940A03DA
:100010000C940A030C940A030C940A030C940A032C
:100020000C940A030C940A030C940A030C940A031C
:100030000C940A030C940A030C940A030C940A030C
:100040000C94E60E0C940A030C94A40F0C947E0FEF
:100050000C940A030C940A030C940A030C940A03EC
:100060000C940A030C940A0300000000003E5B4F4E
:100070005B3E3E6B4F6B3E1C3E7C3E1C183C7E3C08
:10008000181C577D571C1C5E7F5E1C00183C180016
:10009000FFE7C3E7FF0018241800FFE7DBE7FF30A6
:1000A000483A060E2629792926407F050507407F14
:1000B00005253F5A3CE73C5A7F3E1C1C08081C1C87
:1000C0003E7F14227F22145F5F005F5F06097F017D
:1000D0007F006689956A606060606094A2FFA29468
:1000E00008047E040810207E201008082A1C080836
:1000F0001C2A08081E101010100C1E0C1E0C303884
:100100003E3830060E3E0E06000000000000005F84
:1001100000000007000700147F147F14242A7F2AA0
:100120001223130864623649562050000807030062
:10013000001C2241000041221C002A1C7F1C2A08AE
:10014000083E080800807030000808080808000011
:1001500060600020100804023E5149453E00427F85
:10016000400072494949462141494D331814127FD4
:100170001027454545393C4A494931412111090774
:100180003649494936464949291E000014000000F5
:1001900040340000000814224114141414140041C7
:1001A00022140802015909063E415D594E7C121184
:1001B000127C7F494949363E414141227F414141BC
:1001C0003E7F494949417F090909013E4141517337
:1001D0007F0808087F00417F41002040413F017FA8
:1001E000081422417F404040407F021C027F7F0470
:1001F00008107F3E4141413E7F090909063E4151B9
:10020000215E7F09192946264949493203017F01A8
:10021000033F4040403F1F2040201F3F4038403FA9
:10022000631408146303047804036159494D4300BF
:100230007F4141410204081020004141417F0402F6
:10024000010204404040404000030708002054548D
:1002500078407F284444383844444428384444286B
:100260007F385454541800087E090218A4A49C78BE
:100270007F0804047800447D40002040403D007F1A
:100280001028440000417F40007C047804787C08FA
:100290000404783844444438FC18242418182424CE
:1002A00018FC7C08040408485454542404043F44B3
:1002B000243C4040207C1C2040201C3C4030403CE2
:1002C00044281028444C9090907C4464544C440042
:1002D00008364100000077000000413608000201A6
:1002E0000204023C2623263C1EA1A161123A404092
:1002F000207A38545455592155557941225454780F
:1003000042215554784020545579400C1E527212A7
:100310003955555559395454545939555454580030
:1003200000457C410002457D420001457C407D1234
:1003300011127DF0282528F07C5455450020545496
:100340007C547C0A097F4932494949323A44444441
:100350003A324A4848303A4141217A3A424020787C
:10036000009DA0A07D3D4242423D3D4040403D3C7D
:1003700024FF2424487E4943662B2FFC2F2BFF09A2
:1003800029F620C0887E0903205454794100004496
:100390007D413048484A32384040227A007A0A0A81
:1003A000727D0D19317D2629292F282629292926F4
:1003B00030484D4020380808080808080808382F39
:1003C00010C8ACBA2F102834FA00007B00000814C3
:1003D0002A142222142A14085500550055AA55AA99
:1003E00055AAFF55FF55FF000000FF00101010FF39
:1003F00000141414FF001010FF00FF1010F010F094
:10040000141414FC001414F700FF0000FF00FF1484
:1004100014F404FC141417101F10101F101F1414D0
:10042000141F00101010F0000000001F101010101A
:100430001F10101010F010000000FF10101010100E
:1004400010101010FF10000000FF140000FF00FF4C
:1004500000001F10170000FC04F4141417101714E8
:1004600014F404F40000FF00F7141414141414140A
:10047000F700F7141414171410101F101F1414147D
:10048000F4141010F010F000001F101F0000001FE7
:1004900014000000FC140000F010F01010FF10FF1A
:1004A000141414FF141010101F00000000F010FFAF
:1004B000FFFFFFFFF0F0F0F0F0FFFFFF0000000093
:1004C00000FFFF0F0F0F0F0F3844443844FC4A4A17
:1004D0004A347E02020606027E027E0263554941CC
:1004E000633844443C04407E201E2006027E020203
:1004F00099A5E7A5991C2A492A1C4C7201724C3017
:100500004A4D4D303048784830BC625A463D3E49ED
:100510004949007E0101017E2A2A2A2A2A44445F91
:10052000444440514A444040444A51400000FF0185
:1005300003E080FF000008086B6B08361236243693
:10054000060F090F060000181800000010100030F8
:1005500040FF0101001F01011E00191D1712003C80
:100560003C3C3C000000000000000000240027008C
:100570002A0000000000250028002B0000000000D9
:1005800023002600290004040404040404040202D5
:100590000202020203030303030301020408102002
:1005A000408001020408102001020408102000000D
:1005B0000008000201000003040700000000000022
:1005C0000000D60F11241FBECFEFD8E0DEBFCDBF95
:1005D00013E0A0E0B1E0EEE3FBE202C005900D9273
:1005E000A437B107D9F724E0A4E7B3E001C01D9216
:1005F000AF35B207E1F712E0C2EED2E004C02197B6
:10060000FE010E943F14C13ED107C9F70E94741039
:100610000C949D150C940000FC0120812EBD0DB49E
:1006200007FEFDCF2EB5FC0120830895833081F0B5
:1006300028F4813099F08230A9F008958730A9F02C
:100640008830C9F08430B1F4809180008F7D03C080
:10065000809180008F7780938000089584B58F7794
:1006600084BD089584B58F7DFBCF8091B0008F77D6
:100670008093B00008958091B0008F7DF9CFCF9323
:10068000DF93282F30E0F901E255FA4F8491F90108
:10069000E656FA4FD491F901EA57FA4FC491CC23A8
:1006A000A1F081110E941603EC2FF0E0EE0FFF1F66
:1006B000E458FA4FA591B491EC91ED2381E090E0DC
:1006C00009F480E0DF91CF91089580E090E0FACFC7
:1006D0001F93CF93DF93282F30E0F901E255FA4FB3
:1006E0008491F901E656FA4FD491F901EA57FA4F8D
:1006F000C491CC23A9F0162F81110E941603EC2F70
:10070000F0E0EE0FFF1FEE58FA4FA591B4918FB7AE
:10071000F894EC91111108C0D095DE23DC938FBFC3
:10072000DF91CF911F910895DE2BF8CFCF93DF9308
:1007300090E0FC01E656FA4F24918A579A4FFC014B
:1007400084918823C9F090E0880F991FFC01E85933
:10075000FA4FA591B491FC01EE58FA4FC591D4918E
:1007600061110DC09FB7F8948C91209582238C93D2
:100770008881282328839FBFDF91CF91089562301D
:1007800051F49FB7F8943C91822F809583238C93EA
:10079000E8812E2BEFCF8FB7F894EC912E2B2C9372
:1007A0008FBFEACF8230910538F0880F991F880FEC
:1007B000991F05970197F1F708959F92AF92BF9205
:1007C000CF92DF92EF92FF920F931F93CF93DF931D
:1007D000EC016B018885998511E0892B09F010E8FF
:1007E000F601A0808A2D8123992493948111912C64
:1007F0002C813D814E815F8160E271EA87E090E06B
:100800000E940914022FB12CE22EF12C002319F0C2
:10081000C7010E94D2038A85877F09F04FC08D856A
:100820008F3F89F09A2D912381E009F480E08915AA
:1008300051F0EF85F8898F899923D1F19081892B27
:10084000808399249394E989FA898081998D892BF1
:100850008083002319F0C7010E94D2038E858F3F49
:1008600039F0EB89FC898081988D892309F0B12AC0
:10087000E989FA899081898D8095892380838E8585
:100880008F3F11F0F601B08288859985892B09F098
:1008900044C0110F1111BACFDF91CF911F910F9169
:1008A000FF90EF90DF90CF90BF90AF909F90089512
:1008B0009081809589238083912CC5CFE989FA891D
:1008C0008081998D892B8083002319F0C7010E94B4
:1008D000D2038D858F3F49F0EF85F8898F899A2D56
:1008E0009123B9F09081892B8083E989FA899081DD
:1008F000898D8095892380838E858F3F09F4BFCFB2
:10090000EB89FC898081988D892309F4B8CFB12ABD
:10091000B6CF908180958923E7CF1695BBCF3FB79F
:10092000F89480918A0390918B03A0918C03B091ED
:100930008D0326B5A89B05C02F3F19F00196A11D78
:10094000B11D3FBFBA2FA92F982F8827BC01CD0119
:10095000620F711D811D911D42E0660F771F881F78
:10096000991F4A95D1F708958F929F92AF92BF92A7
:10097000CF92DF92EF92FF924B015C010E948F04B5
:100980006B017C010E948F046C197D098E099F09FF
:10099000683E734081059105A8F328EEC20E23E05E
:1009A000D21EE11CF11C8A9489288A288B2829F000
:1009B000812C912C54018394E5CFFF90EF90DF9030
:1009C000CF90BF90AF909F908F9008950F931F93FB
:1009D000CF93DF93C0910001CC0FCC0FC0930001E7
:1009E00082E00E943F03892B19F0C260C09300018E
:1009F00083E00E943F03892B29F0809100018160F0
:100A000080930001E0910001EF70F0E0E95FFC4F9E
:100A1000808190917403890F80937403843094F1E2
:100A20000E948F040091570410915804209159049A
:100A300030915A04601B710B820B930BC1E0D0E024
:100A4000603C764C8D42910510F4CAE0D0E00E94E3
:100A50008F046093570470935804809359049093C3
:100A60005A0480917D0390917E038C0F9D1F90937B
:100A70007E0380937D0310927403DF91CF911F91C9
:100A80000F9108958D3FCCF70E948F04009153047D
:100A9000109154042091550430915604601B710B41
:100AA000820B930BCFEFDFEF603C764C8D429105CC
:100AB00010F4C6EFDFEF0E948F046093530470932D
:100AC00054048093550490935604CBCF0895AF926D
:100AD000BF92CF92DF92EF92FF920F931F93CF932B
:100AE000DF936C017B018B01040F151FEB015E018D
:100AF000AE18BF08C017D10759F06991D601ED9122
:100B0000FC910190F081E02DC6010995892B79F7C0
:100B1000C501DF91CF911F910F91FF90EF90DF9072
:100B2000CF90BF90AF900895FC01538D448D252F39
:100B300030E0842F90E0821B930B541710F0CF9677
:100B4000089501970895FC01918D828D981761F0A9
:100B5000A28DAE0FBF2FB11D5D968C91928D9F5FC0
:100B60009F73928F90E008958FEF9FEF0895FC019F
:100B7000918D828D981731F0828DE80FF11D858D52
:100B800090E008958FEF9FEF0895FC01918D228DE5
:100B9000892F90E0805C9F4F821B91098F7399276A
:100BA00008958EE893E00E94C50521E0892B09F4A1
:100BB00020E0822F089580E090E0892B29F00E94A8
:100BC000D10581110C9400000895FC01A48DA80F9B
:100BD000B92FB11DA35ABF4F2C91848D90E001967F
:100BE0008F739927848FA689B7892C93A089B1899F
:100BF0008C91837080648C93938D848D981306C040
:100C00000288F389E02D80818F7D80830895EF92A3
:100C1000FF920F931F93CF93DF93EC0181E0888FB6
:100C20009B8D8C8D98131AC0E889F989808185FF86
:100C300015C09FB7F894EE89FF896083E889F98928
:100C400080818370806480839FBF81E090E0DF912A
:100C5000CF911F910F91FF90EF900895F62E0B8D7D
:100C600010E00F5F1F4F0F731127E02E8C8D8E1138
:100C70000CC00FB607FCFACFE889F989808185FF9F
:100C8000F5CFCE010E94E505F1CFEB8DEC0FFD2FE6
:100C9000F11DE35AFF4FF0829FB7F8940B8FEA895A
:100CA000FB8980818062CFCFCF93DF93EC01888D69
:100CB0008823B9F0AA89BB89E889F9898C9185FDD7
:100CC00003C0808186FD0DC00FB607FCF7CF8C9165
:100CD00085FFF2CF808185FFEDCFCE010E94E50533
:100CE000E9CFDF91CF910895FC0177FD55C0808554
:100CF0009185681779070CF04FC057FD4DC082856C
:100D00009385481759070CF047C08689823009F44B
:100D100044C0833009F44EC0813031F48FE290E05A
:100D2000861B970BBA01AC01842FA62F93A16917DC
:100D300008F4962F93A394A19A1708F49A2F94A3DA
:100D400095A1891708F4982F95A396A1981708F4F0
:100D5000982F96A3CA0157FD0796E3E095958795CE
:100D6000EA95E1F7A4E5A89FF001A99FF00D1124F1
:100D7000E60FF71FE75FFE4FCA0168E070E00E94D0
:100D8000F51341E050E001C0440F8A95EAF78081F5
:100D9000232BB9F0842B8083089583E590E0DC0158
:100DA000A61BB70BBD018FE290E0DC01A41BB50BC5
:100DB000AD01BACF83E590E0841B950BAB01BC017C
:100DC000B3CF40958423E7CF0895FC016370668B11
:100DD0008481958126813781613039F0633029F033
:100DE000918780873387228708953187208793876B
:100DF000828708952F923F924F925F926F927F92D7
:100E00008F929F92AF92BF92CF92DF92EF92FF921A
:100E10000F931F93CF93DF93CDB7DEB76A970FB6CB
:100E2000F894DEBF0FBECDBF9A8F898F7A83698316
:100E30004A01D22E18870F833701BC2CDC0159964A
:100E40002D913C915A972115310509F015C118963D
:100E50008D919C911997681779070CF0D7C11A9654
:100E60008D919C91481759070CF0D0C14C2C512CF6
:100E7000B6E0CB9E600D711D11247C876B87161622
:100E800017060CF0C3C1EA2DF0E0FA87E98793E07A
:100E9000EE0FFF1F9A95E1F7F88BEF87CF01840FD4
:100EA000951F181619060CF0B1C1A98DBA8D589668
:100EB0008C91811104C0BFEABD1508F4D394A98DAB
:100EC000BA8DED91FC9111970284F385E02DCD014F
:100ED0000995B5E0DB9EC0011124E981FA81FC830C
:100EE000EB83312C212C9C0128593F4F388F2F8BBD
:100EF0004A2D50E05E8B4D8BEF89F88DE20DF31D8E
:100F000044919E828D82D12CC12C69817A81620D9F
:100F1000731D7A8B698B842F90E09C8B8B8BE98D72
:100F2000FA8DA081B18140FF82C0F1E0BF126FC095
:100F3000AF126DC01C96ED91FC912F813885A401F4
:100F40004C0D5D1D69897A89898D9A8D0995EB898A
:100F5000FC89F595E7954E2F5FEFC51AD50A6D818F
:100F60007E818D899E89680F791F7E836D8398E0CD
:100F7000C916D10481F6AFEF2A1A3A0AEB81FC8137
:100F8000E40DF51DFC83EB83F5E02F16310409F029
:100F9000B3CF2F81388526153705B9F0A98DBA8DC5
:100FA000ED91FC91B1E0BB1257C0AB1255C0698105
:100FB0007A816B5F7F4F0088F189E02D830128E003
:100FC00030E0A401898D9A8D0995A98DBA8DED9196
:100FD000FC9111970688F789E02DCD016A960FB62E
:100FE000F894DEBF0FBECDBFDF91CF911F910F915F
:100FF000FF90EF90DF90CF90BF90AF909F908F9039
:101000007F906F905F904F903F902F9009941E9625
:10101000ED91FC91EF80F88409851A8592014D814C
:101020005E816B817C81898D9A8D099590CF2F810E
:1010300038852615370509F48ACF31E0B31207C089
:10104000A31205C01C96ED91FC91930178CF1E96DA
:10105000ED91FC917301E0CF6B857C856419750976
:101060000684F785E02D73010F8518899201A4018C
:10107000898D9A8D0995A9CFF9013496949132976B
:1010800045915491D91AB7E0DB9E400D511D1124B2
:10109000F901259134913C8B2B8BFA0125903490EA
:1010A000FA013296749031963491398B329664906D
:1010B0003196449041E04C1518F04A1508F07FC075
:1010C000662D062C000C770B7C836B83842D042CFF
:1010D000000C990B9E838D83A98DBA8DED91FC91A7
:1010E00011970284F385E02DCD010995512CD12C67
:1010F000C12CEA2DF0E0FA87E9872B2D30E03C8700
:101100002B87A401440D511D47FC5A95588F4F8BD6
:1011100069817A81660D711D67FC7A957E876D877E
:101120007989C71608F051CF2C2D30E04D815E81B2
:10113000420F531FA985BA854A9FC0014B9F900D4E
:101140005A9F900D1124FC01E80DF91DF88BEF87D3
:10115000852D612C4F89588D420F531F5E8B4D8B0F
:10116000671408F050C044244394480E877041F43B
:10117000C1010196EB89FC89E20DF31DD4901C019D
:10118000D7FE19C0A98DBA8DED91FC91662D70E046
:10119000B1E0BB1219C0AB1217C02D853E85620F9E
:1011A000731F0484F585E02D2F8138854D895E8974
:1011B000898D9A8D0995DD0C6394842DD1CF1E8283
:1011C0001D821C821B8288CF4B815C81640F751F3E
:1011D000AB85BC856A9FC0016B9F900D7A9F900D77
:1011E000112469817A81680F791F0684F785E02DC3
:1011F000EF80F88409851A859D014F855889898D6E
:101200009A8D0995D8CF570CC3948ACF6A960FB69A
:10121000F894DEBF0FBECDBFDF91CF911F910F912C
:10122000FF90EF90DF90CF90BF90AF909F908F9006
:101230007F906F905F904F903F902F9008958F9286
:101240009F92AF92CF92EF92FF920F931F93CF9303
:10125000DF93EC01262F898D9A8D009709F051C0FC
:101260006A30D1F41D861C868D8948E0849F9001E8
:1012700011248E859F85820F931F9F878E8781E023
:1012800090E0DF91CF911F910F91FF90EF90CF9061
:10129000AF909F908F9008956D3089F3CC88AD8882
:1012A0008F898823C1F08C859D8536E0C39E800D93
:1012B000911D1124488559854817590764F44E85B6
:1012C0005F851D861C8638E0A39EC0011124840F13
:1012D000951F9F878E87EA88FB88088919894E8524
:1012E0005F856C857D85CE010E94FA062C898C85F0
:1012F0009D8546E0249F800D911D11249D878C873C
:10130000BECF6A3069F41D861C86FC013896E491D4
:101310002D898E859F85E29F800D911D1124ADCF73
:101320006D3009F4ACCFFC0134963491631708F4A6
:10133000A6CF3296E491E61708F4A1CFFC013296CD
:1013400085909490462F431B342F47E0349F800CA8
:10135000911C1124F401329634913196E491332397
:10136000A9F1EE2399F1CC88F4013596E491AD888A
:101370004F89442301F10E2E000CFF0BE30FF11DEA
:10138000CE9EA001CF9E500D11246C857D85460F09
:10139000571F68857985641775076CF44E855F85DE
:1013A0001D861C86FC013896E491AE9E400D511DB1
:1013B00011245F874E87EA88FB88088919894E8542
:1013C0005F856C857D85CE010E94FA06F401349616
:1013D000E4912C898C859D85E29F800D911D1124BF
:1013E0008DCF6F927F928F929F92AF92BF92CF924A
:1013F000DF92EF92FF920F931F93CF93DF93EC0155
:101400006B015A0139014801E881F9810284F385B1
:10141000E02D0995E881F9810288F389E02D8701A3
:101420009301A501B601CE010995A501480D591DED
:1014300041505109E881F9810288F389E02D930137
:10144000B601CE010995E881F9810088F189E02D86
:101450009401A501B601CE010995C60CD71CB601B1
:1014600061507109E881F9810088F189E02D9401CA
:10147000A501CE010995E881F9810688F789E02D5B
:10148000CE01DF91CF911F910F91FF90EF90DF90F0
:10149000CF90BF90AF909F908F907F906F90099466
:1014A0006F927F928F929F92AF92BF92CF92DF9274
:1014B000EF92FF920F931F93CF93DF935C01EB01A9
:1014C0006A01490138018701DC01ED91FC91621745
:1014D000730719F5641675062CF0962D872D3A01C1
:1014E000C92ED82E9601261937092F5F3F4F048C3D
:1014F000F58DE02DA301BE01C5010995DF91CF91C6
:101500001F910F91FF90EF90DF90CF90BF90AF9021
:101510009F908F907F906F9008954615570591F496
:101520002617370724F0892D4B01C22FD82F9E0193
:10153000281939092F5F3F4F068CF78DE02DA60142
:10154000B401DACF0284F385E02D0995D501ED9140
:10155000FC910488F589E02D83019401A601BE0168
:10156000C5010995D501ED91FC910688F789E02D1B
:10157000C501DF91CF911F910F91FF90EF90DF9008
:10158000CF90BF90AF909F908F907F906F90099475
:10159000EF92FF920F931F93DC011A960D911C910D
:1015A0001B9718962D913C911997ED91FC9100A0F5
:1015B000F1A1E02D7B0150E040E070E060E0099592
:1015C0001F910F91FF90EF9008954F925F926F924D
:1015D0007F928F929F92AF92BF92CF92DF92EF92C3
:1015E000FF920F931F93CF93DF936C012B015A014E
:1015F00039014801DC01ED91FC910284F385E02D75
:101600000995E201640C751CD601ED91FC91C6159B
:10161000D7055CF40088F189E02D87019401A501CC
:10162000BE01C60109952196EFCF0688F789E02D06
:10163000C601DF91CF911F910F91FF90EF90DF9046
:10164000CF90BF90AF909F908F907F906F905F9062
:101650004F9009948F929F92AF92BF92CF92DF9258
:10166000EF92FF920F931F93CF93DF93EC015B01F7
:101670004A016901E881F9810284F385E02D099529
:1016800095012C0D3D1D21503109E881F981048817
:10169000F589E02D78018401A401B501CE010995F9
:1016A000E881F9810688F789E02DCE01DF91CF919D
:1016B0001F910F91FF90EF90DF90CF90BF90AF9070
:1016C0009F908F9009948F929F92AF92BF92CF92EA
:1016D000DF92EF92FF920F931F93CF93DF93EC0172
:1016E0005B014A0169017801E881F9810284F3858F
:1016F000E02D0995C80CD91C860101501109E8811B
:10170000F9810488F589E02D9501A401B501CE0188
:101710000995E881F9810688F789E02DCE01DF91EE
:10172000CF911F910F91FF90EF90DF90CF90BF90DE
:10173000AF909F908F9009940895EF92FF920F932E
:101740001F93DC01ED91FC9100A0F1A1E02D099522
:101750001F910F91FF90EF9008950F931F93DC015D
:10176000ED91FC91068CF78DE02D09951F910F915D
:1017700008950F931F93DC01ED91FC91048CF58D7E
:10178000E02D09951F910F910895DC01ED91FC91D9
:101790000084F185E02D09942F923F924F925F9241
:1017A0006F927F928F929F92AF92BF92CF92DF9271
:1017B000EF92FF920F931F93CF93DF9300D000D04F
:1017C00000D0CDB7DEB73C016A013E832D83FC8299
:1017D000EB825801A41AB50AB7FE03C0B194A194D4
:1017E000B1088D809E80861A970A97FE03C0919457
:1017F000819491088A149B045CF0902F812F0D81B5
:101800001E819D838E839C2D8D2D6B01692F782FDA
:101810000C151D055CF09D818E817E836D83692F83
:10182000782F902F812F8601C92ED82E1601201ACD
:10183000310A2B012D813E81421A530A57FE03C003
:10184000519441945108710137FE03C03FEFE31AF0
:10185000F30AF594E7948D819E81861797075CF5CE
:10186000A1E0B0E0BA83A983C016D1064CF1D30140
:10187000ED91FC910484F585E02D2B813C81A8013C
:101880006D817E818A149B041CF04D815E81B801BC
:10189000C3010995E418F508F7FE0AC02D813E81C1
:1018A00089819A81280F391F3E832D83E20CF31C16
:1018B0000F5F1F4FD9CF2FEF3FEF3A832983D4CF4C
:1018C00026960FB6F894DEBF0FBECDBFDF91CF9145
:1018D0001F910F91FF90EF90DF90CF90BF90AF904E
:1018E0009F908F907F906F905F904F903F902F9040
:1018F0000895089590E080E00895CF93CFB7F894CD
:1019000080917503811127C0E0E9F5E08491E4EA54
:10191000F5E09491E82FF0E0EE0FFF1FE859FA4F41
:10192000A591B491EC91E92321F461E08AE00E9451
:10193000680361E08AE00E9496038CB580618CBDEB
:101940008CB580648CBD61E08DE00E94960361E0FF
:101950008BE00E949603809175038F5F80937503DF
:10196000CFBFCF910895CF93C82F0E943F03019717
:1019700031F48C2F0E943F0321E0019709F020E011
:10198000822FCF910895CF93C82F0E943F03892BB8
:1019900031F48C2F0E943F0321E0892B09F020E0D5
:1019A000822FCF9108958EE090E00E94C30C88238F
:1019B00019F081E080937C038FE090E00E94C30CDB
:1019C000882319F081E080937A0380E190E00E94FF
:1019D000C30C882319F081E080937B0308958CBDAC
:1019E0009DBD0895AF92BF92CF92DF92EF92FF928A
:1019F0000F931F93CF93DF931F92CDB7DEB78C0168
:101A00005B016A01DC018D919C911197892B39F062
:101A10001296ED91FC91808191810E94EF0CF8016A
:101A200083858F3F19F060E00E9468037501CA0C3E
:101A3000DB1CEC14FD04A9F0D7018D917D01898395
:101A4000F80180819181892B29F0CE0101960E94B5
:101A50000C03EFCFBE016F5F7F4FC8010E94DD0313
:101A6000E8CFD8011B968C918F3F19F061E00E945E
:101A7000680381E00F90DF91CF911F910F91FF904C
:101A8000EF90DF90CF90BF90AF9008950F931F938A
:101A9000CF93DF931F92CDB7DEB78C01698360E0EF
:101AA000FC01868D0E94680341E050E0BE016F5F3B
:101AB0007F4FF801838D948D0E94F20C0F90DF917F
:101AC000CF911F910F910895CF93C82F87FDCFE736
:101AD000C0934B0461E28CE294E00E94460D6C2FAF
:101AE00060688CE294E00E94460D60E28CE294E033
:101AF000CF910C94460DCF938091490487FD13C07C
:101B000061E00E94960360E0809149040E946803AE
:101B100061E070E080E090E00E94B40461E08091B8
:101B200049040E946803C0914C04C83008F0C7E023
:101B3000C0934C0461E28CE294E00E94460D6C2F4D
:101B400060618CE294E00E94460D60E28CE294E0D9
:101B50000E94460D80914B040E94640D60E28CE26D
:101B600094E00E94460D6CE08CE294E0CF910C94DE
:101B7000460DFF920F931F93CF93DF9390914D04E7
:101B8000992339F080914E048F5F8917E8F580938F
:101B90004E04D0915104D695D695D69584E5D89F1C
:101BA00080011124809152048695869586958D1723
:101BB00080F16D2F60648CE294E00E94460DC0912C
:101BC0004F04F09050046C2F60688CE294E00E9407
:101BD000460D61E080914A040E9468034F2D50E059
:101BE0006C2F70E0461B570B4F5F5F4F600F711FEC
:101BF000675F7E4F80914704909148040E94F20CE9
:101C0000DF5F0C5A1F4FCECF10924E040E947B0D07
:101C1000C0CF60E48CE294E00E94460D83E580939F
:101C20004F04109250048FE280935104109252049A
:101C3000DF91CF911F910F91FF9008951F93CF9344
:101C4000DF93EC01162F60E20E94460D6CE011114B
:101C50006DE0CE01DF91CF911F910C94460DE9E02C
:101C6000F1E088EF91E0DF019C011D9221503040AE
:101C7000E1F710924F0480915004833508F483E516
:101C80008093500410925104809152048F3208F4D2
:101C90008FE280935204109239041092380410920B
:101CA0003B0410923A0408950E949815FB0101909C
:101CB0000020E9F73197AF01461B570BDC01ED918E
:101CC000FC910280F381E02D09948F929F92AF9254
:101CD000BF92CF92DF92EF92FF920F931F93CF9319
:101CE000DF93CDB7DEB7A1970FB6F894DEBF0FBE76
:101CF000CDBF6C01990FEE08FF08F7FE43C06DE2FF
:101D00008CE294E00E941F098C0122273327A9014D
:101D10002C193D094E095F0919A2CE0181967C015B
:101D20009AE0892E912CA12CB12CCA01B901A501F0
:101D300094010E940914605DF70162937F012115EF
:101D400031054105510589F790E080E0309729F091
:101D5000BF018CE294E00E94560E800F911FA19665
:101D60000FB6F894DEBF0FBECDBFDF91CF911F91AC
:101D70000F91FF90EF90DF90CF90BF90AF909F902A
:101D80008F900895A701960119A28E010F5D1F4F34
:101D90008AE0C82ED12CE12CF12CCA01B901A7018F
:101DA00096010E940914605DF80162938F0121156C
:101DB00031054105510589F790E080E0309779F2CF
:101DC000BF018CE294E00E94560EC9CF1F920F9281
:101DD0000FB60F9211242F933F938F939F93AF933E
:101DE000BF938091860390918703A0918803B0915F
:101DF00089033091850323E0230F2D3758F5019691
:101E0000A11DB11D209385038093860390938703C2
:101E1000A0938803B093890380918A0390918B03E8
:101E2000A0918C03B0918D030196A11DB11D8093EB
:101E30008A0390938B03A0938C03B0938D03BF917F
:101E4000AF919F918F913F912F910F900FBE0F9067
:101E50001F90189526E8230F0296A11DB11DD2CF21
:101E60001F920F920FB60F9211242F933F934F930F
:101E70005F936F937F938F939F93AF93BF93EF93F2
:101E8000FF93E0910301F09104010995FF91EF9117
:101E9000BF91AF919F918F917F916F915F914F9182
:101EA0003F912F910F900FBE0F901F9018951F928A
:101EB0000F920FB60F9211242F933F934F935F937E
:101EC0006F937F938F939F93AF93BF93EF93FF9302
:101ED000E0910101F09102010995FF91EF91BF910D
:101EE000AF919F918F917F916F915F914F913F91B2
:101EF0002F910F900FBE0F901F9018951F920F9269
:101F00000FB60F9211242F933F934F935F936F93CC
:101F10007F938F939F93AF93BF93EF93FF938EE83D
:101F200093E00E94E505FF91EF91BF91AF919F91E2
:101F30008F917F916F915F914F913F912F910F9072
:101F40000FBE0F901F9018951F920F920FB60F9211
:101F500011242F938F939F93EF93FF93E0919E0310
:101F6000F0919F038081E091A403F091A50382FD8D
:101F70001BC090818091A7038F5F8F732091A8036E
:101F8000821741F0E091A703F0E0E257FC4F958FF4
:101F90008093A703FF91EF919F918F912F910F90C5
:101FA0000FBE0F901F9018958081F4CF0F931F9351
:101FB000CF93DF93EEE8F3E01382128288EE93E092
:101FC000A0E0B0E084839583A683B7838BE193E0A0
:101FD0009183808385EC90E09587848784EC90E002
:101FE0009787868780EC90E0918B808B81EC90E0E6
:101FF000938B828B82EC90E0958B848B86EC90E0C7
:10200000978B868B118E128E138E148E0E948F04E6
:1020100060935704709358048093590490935A0422
:102020000E948F046093530470935404809355046A
:1020300090935604CCE2D4E01B821A8224E530E06F
:102040003D832C8380E390E09F838E8339872887AC
:102050009B878A871E8A1D861C861F861E8681E0B6
:102060008D8B8C8B2FEF3FEF3B8B2A8B398B288B03
:102070008F8B188E1A8E198E8DE293E09983888348
:102080008CE190E00E9473148C0185E0F801838755
:102090008FEF8687858784878BE294E091838083A6
:1020A000138E82E090E00E94731420E5FC012083EF
:1020B0001182F8019383828380E099E0ADE3B0E080
:1020C00084839583A683B78381E090E0918780879E
:1020D00012861C8F0B8F86E08E8F84E08D8FDF91B0
:1020E000CF911F910F910895789484B5826084BD3B
:1020F00084B5816084BD85B5826085BD85B581600C
:1021000085BD80916E00816080936E001092810089
:102110008091810082608093810080918100816044
:102120008093810080918000816080938000809105
:10213000B10084608093B1008091B0008160809391
:10214000B00080917A00846080937A0080917A0058
:10215000826080937A0080917A00816080937A0017
:1021600080917A00806880937A001092C100E0919B
:102170009E03F0919F0382E08083E0919A03F091A7
:102180009B031082E0919C03F0919D038FEC808370
:102190001092A603E091A203F091A30386E080834E
:1021A000E091A003F091A103808180618083E091A0
:1021B000A003F091A103808188608083E091A00357
:1021C000F091A103808180688083E091A003F09169
:1021D000A10380818F7D808365E573E08EE893E0C5
:1021E0000E94560E66E673E08EE893E00E94560E5B
:1021F00061E08DE00E9496030E947D0C81E590E0F5
:102200000E94EF0C61E08AE00E949603C0914704AF
:10221000D09148048B858F3F39F061E00E9496038E
:1022200061E08B850E94680388819981892B09F47C
:1022300075C00E947D0C81E08B8F61E080914A0423
:102240000E9496038091490487FD03C061E00E94CB
:10225000960384E080934C0488E280934B041092B0
:102260004D0410924E040E947B0D10924F048091F9
:102270005004833508F483E5809350041092510490
:10228000809152048F3208F48FE2809352040E94AE
:10229000B90D84E60E94640D0E942F0E62E08EE06C
:1022A0000E94960362E08FE00E94960362E080E164
:1022B0000E94960362E082E00E94960362E083E05F
:1022C0000E94960326EE34E0309302012093010130
:1022D000809169008C7F816080936900E89A3093D7
:1022E00004012093030180916900837F84608093BF
:1022F0006900E99A8091070190910801009761F1C6
:10230000019709F4DBC080E090E0892B99F30E94EB
:10231000D105882379F30E940000ECCF61E08C8521
:102320000E9496038A858B7F60E009F061E08C85CE
:102330000E9468038D858F3F39F061E00E9496030B
:1023400061E08D850E9468038E858F3F09F473CF0D
:1023500060E00E9496036FCF11E0C2E0D1E08FB73A
:10236000F8944090860350908703609088037090A3
:1023700089038FBF112371F10E942F0EC093400477
:10238000C09341042CE030E03093390420933804AA
:102390008AE090E090933B0480933A0490E080E0E0
:1023A0000E94650ED0934004D093410428E430E0AD
:1023B000309339042093380480E190E090933B04FB
:1023C00080933A0469E673E08CE294E00E94560E32
:1023D0000E94B90D0E94D30C8090760390907703F1
:1023E000A0907803B090790320E030E0A901C50106
:1023F000B4010E94451487FD38C020E030E040E27F
:1024000051E4C501B4010E946E14181634F4812CF5
:10241000912CE0E2AE2EE1E4BE2E80927603909203
:102420007703A0927803B092790310917C03112373
:1024300049F08EE090E00E94B30C182F8823C9F079
:1024400010927C0380917A038823E9F08FE090E07A
:102450000E94B30C8823B9F081E090E090930801CA
:102460008093070110927A034ECF812C912C540156
:10247000D4CF80E190E00E94B30C882319F310922E
:102480007C03182FDFCF2FB7F894809186039091AB
:102490008703A0918803B09189032FBF8419950900
:1024A000A609B7094997A105B10508F058CF62E020
:1024B00070E080E090E00E94B404E5CF11E033E0EA
:1024C000332E42E0242E58E0C52ED12C6CE3A62EEC
:1024D000B12C70E2872E912CC0E3D0E08FB7F89436
:1024E0004090860350908703609088037090890322
:1024F0008FBF112309F48FC00E942F0E3092400429
:1025000030924104809183039091840310923904A6
:102510001092380410923B0410923A048A309105CC
:10252000A4F46CE673E08CE294E00E94560E82E123
:1025300090E0909339048093380410923B041092F9
:102540003A0480918303909184030E94650E8091E8
:10255000810390918203D0933904C0933804109280
:102560003B0410923A048A309105A4F46CE673E0BF
:102570008CE294E00E94560E82E490E0909339043D
:102580008093380410923B0410923A0480918103A6
:10259000909182030E94650E209240042092410493
:1025A00024E230E03093390420933804D0923B0485
:1025B000C0923A046EE673E08CE294E00E94560EFC
:1025C000B0923904A092380490923B0480923A046D
:1025D00060E773E08CE294E00E94560E8091050162
:1025E00090910601EE24E394F12C08E110E021E241
:1025F00030E048E150E062E170E0019731F021E520
:1026000030E048E150E062E470E08CE294E00E9447
:10261000500A0E94B90D0E94D30C40917F03509143
:10262000800380917D0390917E0310E04817590745
:1026300009F45CC0E0917D03F0917E036091050197
:10264000709106012091830330918403809181036E
:10265000909182034E175F070CF086C0E0917D03D6
:10266000F0917E034E175F070CF077C0E0917D0379
:10267000F0917E03465F5F4F4E175F070CF06DC011
:102680000A966130710509F08DC0265F3F4F309387
:102690008403209383038091830390918403853185
:1026A000910514F084E190E097FF02C090E080E093
:1026B000909384038093830380918103909182039C
:1026C0008436910514F083E690E097FF02C090E015
:1026D00080E0909382038093810380917D039091A9
:1026E0007E039093800380937F0311E080917C03AD
:1026F0008823B9F08EE090E00E94B30C882389F023
:1027000020910501309106012130310509F04FC0BB
:1027100022E030E0309306012093050110927C0303
:10272000182F80917B03882349F080E190E00E947C
:10273000B30C882319F010927B03182F80917A0331
:102740008823C1F18FE090E00E94B30C882391F1BF
:10275000109208011092070185CE01966130710533
:1027600009F52F5F3F4F93CFE0917D03F0917E03FA
:10277000E417F5074CF4E0917D03F0917E034A5095
:102780005109E417F5073CF001976130710551F4E8
:10279000215031097CCF2A5031090A9761307105E7
:1027A00009F475CF909382038093810374CF2150F5
:1027B0003109B0CF2FB7F8948091860390918703A9
:1027C000A0918803B09189032FBF84199509A609A8
:1027D000B7094997A105B10508F080CE62E070E025
:1027E00080E090E00E94B404E5CF97FB072E16F43A
:1027F000009407D077FD09D00E942B1407FC05D068
:102800003EF4909581959F4F0895709561957F4F07
:102810000895A1E21A2EAA1BBB1BFD010DC0AA1F21
:10282000BB1FEE1FFF1FA217B307E407F50720F039
:10283000A21BB30BE40BF50B661F771F881F991FB4
:102840001A9469F760957095809590959B01AC01FD
:10285000BD01CF010895AA1BBB1B51E107C0AA1FF0
:10286000BB1FA617B70710F0A61BB70B881F991F31
:102870005A95A9F780959095BC01CD010895EE0F6A
:10288000FF1F0590F491E02D09940E944A1408F46A
:1028900081E00895990F0008550FAA0BE0E8FEEFBC
:1028A00016161706E807F907C0F012161306E40714
:1028B000F50798F0621B730B840B950B39F40A260D
:1028C00061F0232B242B252B21F408950A2609F4EB
:1028D000A140A6958FEF811D811D08950E944A1485
:1028E00008F48FEF08950F931F93CF93DF938230F7
:1028F000910510F482E090E0E0915D04F0915E04B7
:1029000030E020E0B0E0A0E0309799F421153105E7
:1029100009F44AC0281B390B24303105D8F58A81C7
:102920009B816115710589F1FB0193838283FE010F
:1029300011C0408151810281138148175907E0F08D
:102940004817590799F4109761F012960C93129753
:1029500013961C933296CF01DF91CF911F910F9167
:10296000089500935D0410935E04F4CF21153105A2
:1029700051F04217530738F0A901DB019A01BD015C
:10298000DF01F801C1CFEF01F9CF90935E0480938E
:102990005D04CDCFFE01E20FF31F8193919322508E
:1029A000310939832883D7CF20915B0430915C04AF
:1029B000232B41F4209103033091040330935C04F2
:1029C00020935B042091010330910203211531050E
:1029D00041F42DB73EB74091050350910603241BE7
:1029E000350BE0915B04F0915C04E217F307A0F46F
:1029F0002E1B3F0B2817390778F0AC014E5F5F4F55
:102A00002417350748F04E0F5F1F50935C04409326
:102A10005B04819391939FCFF0E0E0E09CCFCF9354
:102A2000DF930097E9F0FC01329713821282A091A4
:102A30005D04B0915E04ED0130E020E01097A1F458
:102A400020813181820F931F20915B0430915C04BF
:102A50002817390709F061C0F0935C04E0935B0428
:102A6000DF91CF910895EA01CE17DF07E8F54A819B
:102A70005B819E0141155105B1F7E901FB83EA83B2
:102A800049915991C40FD51FEC17FD0761F480815E
:102A900091810296840F951FE90199838883828131
:102AA00093819B838A83F0E0E0E012968D919C9164
:102AB00013970097B9F52D913C911197CD0102968E
:102AC000820F931F20915B0430915C042817390713
:102AD00039F6309751F510925E0410925D04B09370
:102AE0005C04A0935B04BCCFD383C283408151813B
:102AF000840F951FC817D90761F44E5F5F4F888117
:102B00009981480F591F518340838A819B81938308
:102B100082832115310509F0B0CFF0935E04E09374
:102B20005D049ECFFD01DC01C0CF13821282D7CF9E
:0E2B300081E090E0F8940C949D15F894FFCF8E
:102B3E0003660566050100010000000000000000AC
:102B4E000000000000000000000000000000000077
:102B5E00000000000000000000000000000000C0A7
:102B6E00E0F0F8FCFCFEFFFCE000000000000000BE
:102B7E000000000000000000000000000000000047
:102B8E000000000000000000000000000000000037
:102B9E000000000000000000000000000000F8F837
:102BAE00F8F8F8F8F8F8F8F8F8F8F0F0E0E0C08087
:102BBE00C0FCFFFFFFFF7F3F7FFFFFFFFFFF000017
:102BCE0000000000000000000000000000000000F7
:102BDE0000000000000000000000000000000000E7
:102BEE0000000000000000000000000000000000D7
:102BFE000000000F1F3F7FFFFFFFFFFFFFFFFFE7FC
:102C0E00C7C7878F9F9FFFFFFFC1C0E0FCFFFFFF7D
:102C1E00FFFFFCFCFCFCFEFEFEFCFCF8F8F0E0C046
:102C2E00C0000000000000000000000000000000D6
:102C3E000000000000000000000000000000000086
:102C4E000000000000000000000080C0E0F1FBFF6B
:102C5E00FFFFFFFF7F1F0F0F87E7FFFFFF1F1F3FC6
:102C6E00F9F8F8F8F8F8F8FDFFFFFFFFFFFFFFFF98
:102C7E00FF7F3F0F07010000000000000000000072
:102C8E000000000000000000000000000000000036
:102C9E00000000000000000000000000F0FEFFFF3A
:102CAE00FFFFFFFFFFFFFFFFFE7E3F3F0F1FFFFFF8
:102CBE00FFFCF0E0F1FFFFFFFFFFFCF0010101015F
:102CCE0001010101000000000000000000000000F2
:102CDE0000000000000000000000000000000000E6
:102CEE0000000000000000000000000000000000D6
:102CFE0003030303030303030101010100000000AA
:102D0E00000000030F1F3F7F7FFFFFFFFF7F7F1F2E
:102D1E0003000000000000000000000000000000A2
:102D2E000000000000000000000000000000000095
:102D3E000000005F04800000FF0100010000FFFFA3
:102D4E000000010001FF0000000000070667059467
:102D5E00055406C505A305B705000000001F096749
:102D6E00057A0C790C74069C0BC50B9D0BB90BAD3B
:102D7E000BCC0B9C0BE5061E0E630B2A0BE50AC84B
:102D8E000A500AF1094445424255472042454749F7
:102D9E004E20212121000D0A006D560030002E001C
:042DAE006D41000073
:00000001FF
