:100000000C94E2020C9475120C944E120C940A0398
:100010000C940A030C940A030C940A030C940A032C
:100020000C940A030C940A030C940A030C940A031C
:100030000C940A030C940A030C940A030C940A030C
:100040000C9404120C940A030C94C2120C949C128B
:100050000C940A030C940A030C940A030C940A03EC
:100060000C940A030C940A0300000000003E5B4F4E
:100070005B3E3E6B4F6B3E1C3E7C3E1C183C7E3C08
:10008000181C577D571C1C5E7F5E1C00183C180016
:10009000FFE7C3E7FF0018241800FFE7DBE7FF30A6
:1000A000483A060E2629792926407F050507407F14
:1000B00005253F5A3CE73C5A7F3E1C1C08081C1C87
:1000C0003E7F14227F22145F5F005F5F06097F017D
:1000D0007F006689956A606060606094A2FFA29468
:1000E00008047E040810207E201008082A1C080836
:1000F0001C2A08081E101010100C1E0C1E0C303884
:100100003E3830060E3E0E06000000000000005F84
:1001100000000007000700147F147F14242A7F2AA0
:100120001223130864623649562050000807030062
:10013000001C2241000041221C002A1C7F1C2A08AE
:10014000083E080800807030000808080808000011
:1001500060600020100804023E5149453E00427F85
:10016000400072494949462141494D331814127FD4
:100170001027454545393C4A494931412111090774
:100180003649494936464949291E000014000000F5
:1001900040340000000814224114141414140041C7
:1001A00022140802015909063E415D594E7C121184
:1001B000127C7F494949363E414141227F414141BC
:1001C0003E7F494949417F090909013E4141517337
:1001D0007F0808087F00417F41002040413F017FA8
:1001E000081422417F404040407F021C027F7F0470
:1001F00008107F3E4141413E7F090909063E4151B9
:10020000215E7F09192946264949493203017F01A8
:10021000033F4040403F1F2040201F3F4038403FA9
:10022000631408146303047804036159494D4300BF
:100230007F4141410204081020004141417F0402F6
:10024000010204404040404000030708002054548D
:1002500078407F284444383844444428384444286B
:100260007F385454541800087E090218A4A49C78BE
:100270007F0804047800447D40002040403D007F1A
:100280001028440000417F40007C047804787C08FA
:100290000404783844444438FC18242418182424CE
:1002A00018FC7C08040408485454542404043F44B3
:1002B000243C4040207C1C2040201C3C4030403CE2
:1002C00044281028444C9090907C4464544C440042
:1002D00008364100000077000000413608000201A6
:1002E0000204023C2623263C1EA1A161123A404092
:1002F000207A38545455592155557941225454780F
:1003000042215554784020545579400C1E527212A7
:100310003955555559395454545939555454580030
:1003200000457C410002457D420001457C407D1234
:1003300011127DF0282528F07C5455450020545496
:100340007C547C0A097F4932494949323A44444441
:100350003A324A4848303A4141217A3A424020787C
:10036000009DA0A07D3D4242423D3D4040403D3C7D
:1003700024FF2424487E4943662B2FFC2F2BFF09A2
:1003800029F620C0887E0903205454794100004496
:100390007D413048484A32384040227A007A0A0A81
:1003A000727D0D19317D2629292F282629292926F4
:1003B00030484D4020380808080808080808382F39
:1003C00010C8ACBA2F102834FA00007B00000814C3
:1003D0002A142222142A14085500550055AA55AA99
:1003E00055AAFF55FF55FF000000FF00101010FF39
:1003F00000141414FF001010FF00FF1010F010F094
:10040000141414FC001414F700FF0000FF00FF1484
:1004100014F404FC141417101F10101F101F1414D0
:10042000141F00101010F0000000001F101010101A
:100430001F10101010F010000000FF10101010100E
:1004400010101010FF10000000FF140000FF00FF4C
:1004500000001F10170000FC04F4141417101714E8
:1004600014F404F40000FF00F7141414141414140A
:10047000F700F7141414171410101F101F1414147D
:10048000F4141010F010F000001F101F0000001FE7
:1004900014000000FC140000F010F01010FF10FF1A
:1004A000141414FF141010101F00000000F010FFAF
:1004B000FFFFFFFFF0F0F0F0F0FFFFFF0000000093
:1004C00000FFFF0F0F0F0F0F3844443844FC4A4A17
:1004D0004A347E02020606027E027E0263554941CC
:1004E000633844443C04407E201E2006027E020203
:1004F00099A5E7A5991C2A492A1C4C7201724C3017
:100500004A4D4D303048784830BC625A463D3E49ED
:100510004949007E0101017E2A2A2A2A2A44445F91
:10052000444440514A444040444A51400000FF0185
:1005300003E080FF000008086B6B08361236243693
:10054000060F090F060000181800000010100030F8
:1005500040FF0101001F01011E00191D1712003C80
:100560003C3C3C000000000000000000240027008C
:100570002A0000000000250028002B0000000000D9
:1005800023002600290004040404040404040202D5
:100590000202020203030303030301020408102002
:1005A000408001020408102001020408102000000D
:1005B0000008000201000003040700000000000022
:1005C0000000F41211241FBECFEFD8E0DEBFCDBF74
:1005D00013E0A0E0B1E0E2EEF2E402C005900D927B
:1005E000A23CB107D9F724E0A2ECB3E001C01D9210
:1005F000AB3BB207E1F712E0C2EED2E004C02197B4
:10060000FE010E94E21DC13ED107C9F70E9492136C
:100610000C946F210C940000FC0120812EBD0DB4C0
:1006200007FEFDCF2EB5FC01208308950895833089
:1006300081F028F4813099F08230A9F00895873054
:10064000A9F08830C9F08430B1F4809180008F7DAA
:1006500003C0809180008F7780938000089584B5D7
:100660008F7784BD089584B58F7DFBCF8091B000D6
:100670008F778093B00008958091B0008F7DF9CF7F
:10068000CF93DF93282F30E0F901E255FA4F8491A0
:10069000F901E656FA4FD491F901EA57FA4FC4919D
:1006A000CC23A1F081110E941703EC2FF0E0EE0F94
:1006B000FF1FE458FA4FA591B491EC91ED2381E02E
:1006C00090E009F480E0DF91CF91089580E090E020
:1006D000FACF1F93CF93DF93282F30E0F901E25533
:1006E000FA4F8491F901E656FA4FD491F901EA578D
:1006F000FA4FC491CC23A9F0162F81110E94170341
:10070000EC2FF0E0EE0FFF1FEE58FA4FA591B491D9
:100710008FB7F894EC91111108C0D095DE23DC93CB
:100720008FBFDF91CF911F910895DE2BF8CFCF932C
:10073000DF9390E0FC01E656FA4F24918A579A4FD6
:10074000FC0184918823C9F090E0880F991FFC0177
:10075000E859FA4FA591B491FC01EE58FA4FC591B2
:10076000D49161110DC09FB7F8948C91209582238C
:100770008C938881282328839FBFDF91CF91089590
:10078000623051F49FB7F8943C91822F8095832377
:100790008C93E8812E2BEFCF8FB7F894EC912E2B12
:1007A0002C938FBFEACF8230910538F0880F991FC4
:1007B000880F991F05970197F1F708959F92AF92BF
:1007C000BF92CF92DF92EF92FF920F931F93CF933E
:1007D000DF93EC016B018885998511E0892B09F085
:1007E00010E8F601A0808A2D812399249394811129
:1007F000912C2C813D814E815F8160E271EA87E01E
:1008000090E00E94A41D022FB12CE22EF12C0023B7
:1008100019F0C7010E94D3038A85877F09F04FC072
:100820008D858F3F89F09A2D912381E009F480E036
:10083000891551F0EF85F8898F899923D1F190813D
:10084000892B808399249394E989FA898081998DF1
:10085000892B8083002319F0C7010E94D3038E8562
:100860008F3F39F0EB89FC898081988D892309F0CD
:10087000B12AE989FA899081898D809589238083BD
:100880008E858F3F11F0F601B08288859985892B7E
:1008900009F044C0110F1111BACFDF91CF911F9110
:1008A0000F91FF90EF90DF90CF90BF90AF909F900F
:1008B00008959081809589238083912CC5CFE98903
:1008C000FA898081998D892B8083002319F0C701D3
:1008D0000E94D3038D858F3F49F0EF85F8898F897A
:1008E0009A2D9123B9F09081892B8083E989FA8927
:1008F0009081898D8095892380838E858F3F09F42F
:10090000BFCFEB89FC898081988D892309F4B8CF0A
:10091000B12AB6CF908180958923E7CF1695BBCFBA
:100920003FB7F8948091E6039091E703A091E80324
:10093000B091E90326B5A89B05C02F3F19F0019699
:10094000A11DB11D3FBFBA2FA92F982F8827BC0129
:10095000CD01620F711D811D911D42E0660F771F51
:10096000881F991F4A95D1F708958F929F92AF9251
:10097000BF92CF92DF92EF92FF924B015C010E94F7
:1009800090046B017C010E9490046C197D098E0912
:100990009F09683E734081059105A8F321E0821A02
:1009A0009108A108B10888EEC80E83E0D81EE11CAA
:1009B000F11C81149104A104B10429F7FF90EF9078
:1009C000DF90CF90BF90AF909F908F9008952FB7FA
:1009D000F8946091E2037091E3038091E4039091B5
:1009E000E5032FBF08950F931F93CF93DF93C0911B
:1009F0000001CC0FCC0FC093000182E00E944003A5
:100A0000892B19F0C260C093000183E00E9440036B
:100A1000892B29F080910001816080930001E09191
:100A20000001EF70F0E0EB5EFC4F80819091C2031B
:100A3000890F8093C203843094F10E949004009146
:100A4000B3041091B4042091B5043091B604601B36
:100A5000710B820B930BC1E0D0E0603F7944824080
:100A6000910510F4CAE0D0E00E9490046093B304B2
:100A70007093B4048093B5049093B6048091D50329
:100A80009091D6038C0F9D1F9093D6038093D5032E
:100A90001092C203DF91CF911F910F9108958D3F66
:100AA000CCF70E9490040091AF041091B004209103
:100AB000B1043091B204601B710B820B930BCFEF2A
:100AC000DFEF603F79448240910510F4C6EFDFEF1D
:100AD0000E9490046093AF047093B0048093B104BB
:100AE0009093B204CBCF0895AF92BF92CF92DF9292
:100AF000EF92FF920F931F93CF93DF936C017B01D3
:100B00008B01040F151FEB015E01AE18BF08C01763
:100B1000D10759F06991D601ED91FC910190F081D6
:100B2000E02DC6010995892B79F7C501DF91CF9199
:100B30001F910F91FF90EF90DF90CF90BF90AF90FB
:100B40000895FC01538D448D252F30E0842F90E0D3
:100B5000821B930B541710F0CF96089501970895B8
:100B6000FC01918D828D981761F0A28DAE0FBF2F81
:100B7000B11D5D968C91928D9F5F9F73928F90E0D7
:100B800008958FEF9FEF0895FC01918D828D981746
:100B900031F0828DE80FF11D858D90E008958FEF83
:100BA0009FEF0895FC01918D228D892F90E0805C4C
:100BB0009F4F821B91098F73992708958AEE93E0C6
:100BC0000E94D20521E0892B09F420E0822F0895AC
:100BD00080E090E0892B29F00E94DE0581110C94C1
:100BE00000000895FC01A48DA80FB92FB11DA35AD0
:100BF000BF4F2C91848D90E001968F739927848F3D
:100C0000A689B7892C93A089B1898C91837080645F
:100C10008C93938D848D981306C00288F389E02D00
:100C200080818F7D80830895EF92FF920F931F93B1
:100C3000CF93DF93EC0181E0888F9B8D8C8D98138F
:100C40001AC0E889F989808185FF15C09FB7F8949B
:100C5000EE89FF896083E889F989808183708064E7
:100C600080839FBF81E090E0DF91CF911F910F9132
:100C7000FF90EF900895F62E0B8D10E00F5F1F4F41
:100C80000F731127E02E8C8D8E110CC00FB607FC50
:100C9000FACFE889F989808185FFF5CFCE010E94DE
:100CA000F205F1CFEB8DEC0FFD2FF11DE35AFF4F55
:100CB000F0829FB7F8940B8FEA89FB89808180626C
:100CC000CFCFCF93DF93EC01888D8823B9F0AA8929
:100CD000BB89E889F9898C9185FD03C0808186FDF7
:100CE0000DC00FB607FCF7CF8C9185FFF2CF808146
:100CF00085FFEDCFCE010E94F205E9CFDF91CF91C4
:100D00000895FC0177FD55C08085918568177907A6
:100D10000CF04FC057FD4DC0828593854817590789
:100D20000CF047C08689823009F444C0833009F44E
:100D30004EC0813031F48FE290E0861B970BBA01F0
:100D4000AC01842FA62F93A1691708F4962F93A3C3
:100D500094A19A1708F49A2F94A395A1891708F4DF
:100D6000982F95A396A1981708F4982F96A3CA01D7
:100D700057FD0796E3E095958795EA95E1F7A4E599
:100D8000A89FF001A99FF00D1124E60FF71FE95E5F
:100D9000FE4FCA0168E070E00E94901D41E050E003
:100DA00001C0440F8A95EAF78081232BB9F0842B88
:100DB0008083089583E590E0DC01A61BB70BBD019D
:100DC0008FE290E0DC01A41BB50BAD01BACF83E547
:100DD00090E0841B950BAB01BC01B3CF40958423FD
:100DE000E7CF0895FC016370668B8481958126812D
:100DF0003781613039F0633029F0918780873387FC
:100E000022870895318720879387828708952F92BC
:100E10003F924F925F926F927F928F929F92AF928A
:100E2000BF92CF92DF92EF92FF920F931F93CF93D7
:100E3000DF93CDB7DEB76A970FB6F894DEBF0FBE6B
:100E4000CDBF9A8F898F7A8369834A01D22E188702
:100E50000F833701BC2CDC0159962D913C915A9798
:100E60002115310509F015C118968D919C9119979E
:100E7000681779070CF0D7C11A968D919C91481785
:100E800059070CF0D0C14C2C512CB6E0CB9E600D14
:100E9000711D11247C876B87161617060CF0C3C1D1
:100EA000EA2DF0E0FA87E98793E0EE0FFF1F9A95AD
:100EB000E1F7F88BEF87CF01840F951F18161906FD
:100EC0000CF0B1C1A98DBA8D58968C91811104C0D6
:100ED000BFEABD1508F4D394A98DBA8DED91FC91AC
:100EE00011970284F385E02DCD010995B5E0DB9ED5
:100EF000C0011124E981FA81FC83EB83312C212C80
:100F00009C0128593F4F388F2F8B4A2D50E05E8B24
:100F10004D8BEF89F88DE20DF31D44919E828D82F9
:100F2000D12CC12C69817A81620D731D7A8B698BFA
:100F3000842F90E09C8B8B8BE98DFA8DA081B18101
:100F400040FF82C0F1E0BF126FC0AF126DC01C96AF
:100F5000ED91FC912F813885A4014C0D5D1D6989AF
:100F60007A89898D9A8D0995EB89FC89F595E795A4
:100F70004E2F5FEFC51AD50A6D817E818D899E89BE
:100F8000680F791F7E836D8398E0C916D10481F6BE
:100F9000AFEF2A1A3A0AEB81FC81E40DF51DFC83C0
:100FA000EB83F5E02F16310409F0B3CF2F8138859C
:100FB00026153705B9F0A98DBA8DED91FC91B1E0F8
:100FC000BB1257C0AB1255C069817A816B5F7F4FEE
:100FD0000088F189E02D830128E030E0A401898DAB
:100FE0009A8D0995A98DBA8DED91FC91119706887E
:100FF000F789E02DCD016A960FB6F894DEBF0FBEDB
:10100000CDBFDF91CF911F910F91FF90EF90DF90B7
:10101000CF90BF90AF909F908F907F906F905F9098
:101020004F903F902F9009941E96ED91FC91EF8088
:10103000F88409851A8592014D815E816B817C81DE
:10104000898D9A8D099590CF2F8138852615370582
:1010500009F48ACF31E0B31207C0A31205C01C9671
:10106000ED91FC91930178CF1E96ED91FC91730167
:10107000E0CF6B857C85641975090684F785E02DC2
:1010800073010F8518899201A401898D9A8D0995A4
:10109000A9CFF90134969491329745915491D91A78
:1010A000B7E0DB9E400D511D1124F90125913491CB
:1010B0003C8B2B8BFA0125903490FA013296749078
:1010C00031963491398B329664903196449041E058
:1010D0004C1518F04A1508F07FC0662D062C000C40
:1010E000770B7C836B83842D042C000C990B9E83DF
:1010F0008D83A98DBA8DED91FC9111970284F385B2
:10110000E02DCD010995512CD12CC12CEA2DF0E018
:10111000FA87E9872B2D30E03C872B87A401440D0B
:10112000511D47FC5A95588F4F8B69817A81660D06
:10113000711D67FC7A957E876D877989C71608F0DF
:1011400051CF2C2D30E04D815E81420F531FA98578
:10115000BA854A9FC0014B9F900D5A9F900D112454
:10116000FC01E80DF91DF88BEF87852D612C4F8967
:10117000588D420F531F5E8B4D8B671408F050C083
:1011800044244394480E877041F4C1010196EB89D1
:10119000FC89E20DF31DD4901C01D7FE19C0A98D66
:1011A000BA8DED91FC91662D70E0B1E0BB1219C0D3
:1011B000AB1217C02D853E85620F731F0484F58521
:1011C000E02D2F8138854D895E89898D9A8D09950D
:1011D000DD0C6394842DD1CF1E821D821C821B8264
:1011E00088CF4B815C81640F751FAB85BC856A9F7E
:1011F000C0016B9F900D7A9F900D112469817A81B7
:10120000680F791F0684F785E02DEF80F884098543
:101210001A859D014F855889898D9A8D0995D8CF5A
:10122000570CC3948ACF6A960FB6F894DEBF0FBEF0
:10123000CDBFDF91CF911F910F91FF90EF90DF9085
:10124000CF90BF90AF909F908F907F906F905F9066
:101250004F903F902F9008958F929F92AF92CF9290
:10126000EF92FF920F931F93CF93DF93EC01262F02
:10127000898D9A8D009709F051C06A30D1F41D868E
:101280001C868D8948E0849F900111248E859F855E
:10129000820F931F9F878E8781E090E0DF91CF912F
:1012A0001F910F91FF90EF90CF90AF909F908F90F4
:1012B00008956D3089F3CC88AD888F898823C1F07B
:1012C0008C859D8536E0C39E800D911D1124488537
:1012D00059854817590764F44E855F851D861C861D
:1012E00038E0A39EC0011124840F951F9F878E872D
:1012F000EA88FB88088919894E855F856C857D851C
:10130000CE010E9407072C898C859D8546E0249F8D
:10131000800D911D11249D878C87BECF6A3069F4A2
:101320001D861C86FC013896E4912D898E859F854B
:10133000E29F800D911D1124ADCF6D3009F4ACCF2B
:10134000FC0134963491631708F4A6CF3296E491E9
:10135000E61708F4A1CFFC01329685909490462FB1
:10136000431B342F47E0349F800C911C1124F4015F
:10137000329634913196E4913323A9F1EE2399F119
:10138000CC88F4013596E491AD884F89442301F16E
:101390000E2E000CFF0BE30FF11DCE9EA001CF9E81
:1013A000500D11246C857D85460F571F6885798502
:1013B000641775076CF44E855F851D861C86FC01DD
:1013C0003896E491AE9E400D511D11245F874E87E3
:1013D000EA88FB88088919894E855F856C857D853B
:1013E000CE010E940707F4013496E4912C898C8584
:1013F0009D85E29F800D911D11248DCF6F927F926C
:101400008F929F92AF92BF92CF92DF92EF92FF9214
:101410000F931F93CF93DF93EC016B015A013901B6
:101420004801E881F9810284F385E02D0995E8817E
:10143000F9810288F389E02D87019301A501B601A6
:10144000CE010995A501480D591D41505109E8816A
:10145000F9810288F389E02D9301B601CE01099547
:10146000E881F9810088F189E02D9401A501B60198
:10147000CE010995C60CD71CB60161507109E881EF
:10148000F9810088F189E02D9401A501CE0109952B
:10149000E881F9810688F789E02DCE01DF91CF91AF
:1014A0001F910F91FF90EF90DF90CF90BF90AF9082
:1014B0009F908F907F906F9009946F927F928F9200
:1014C0009F92AF92BF92CF92DF92EF92FF920F93D3
:1014D0001F93CF93DF935C01EB016A01490138014F
:1014E0008701DC01ED91FC916217730719F5641611
:1014F00075062CF0962D872D3A01C92ED82E96010F
:10150000261937092F5F3F4F048CF58DE02DA3017D
:10151000BE01C5010995DF91CF911F910F91FF90F9
:10152000EF90DF90CF90BF90AF909F908F907F9083
:101530006F9008954615570591F42617370724F044
:10154000892D4B01C22FD82F9E01281939092F5FF1
:101550003F4F068CF78DE02DA601B401DACF02844F
:10156000F385E02D0995D501ED91FC910488F5896D
:10157000E02D83019401A601BE01C5010995D501A5
:10158000ED91FC910688F789E02DC501DF91CF919F
:101590001F910F91FF90EF90DF90CF90BF90AF9091
:1015A0009F908F907F906F900994EF92FF920F938E
:1015B0001F93DC011A960D911C911B9718962D9183
:1015C0003C911997ED91FC9100A0F1A1E02D7B01D8
:1015D00050E040E070E060E009951F910F91FF90AE
:1015E000EF9008954F925F926F927F928F929F92A9
:1015F000AF92BF92CF92DF92EF92FF920F931F9321
:10160000CF93DF936C012B015A0139014801DC01B2
:10161000ED91FC910284F385E02D0995E201640CC3
:10162000751CD601ED91FC91C615D7055CF40088B8
:10163000F189E02D87019401A501BE01C60109953C
:101640002196EFCF0688F789E02DC601DF91CF9173
:101650001F910F91FF90EF90DF90CF90BF90AF90D0
:101660009F908F907F906F905F904F9009948F9292
:101670009F92AF92BF92CF92DF92EF92FF920F9321
:101680001F93CF93DF93EC015B014A016901E8816D
:10169000F9810284F385E02D099595012C0D3D1DFE
:1016A00021503109E881F9810488F589E02D78011C
:1016B0008401A401B501CE010995E881F98106886C
:1016C000F789E02DCE01DF91CF911F910F91FF900F
:1016D000EF90DF90CF90BF90AF909F908F90099444
:1016E0008F929F92AF92BF92CF92DF92EF92FF9232
:1016F0000F931F93CF93DF93EC015B014A016901C4
:101700007801E881F9810284F385E02D0995C80C00
:10171000D91C860101501109E881F9810488F589F5
:10172000E02D9501A401B501CE010995E881F9816B
:101730000688F789E02DCE01DF91CF911F910F919F
:10174000FF90EF90DF90CF90BF90AF909F908F90E1
:101750000994EF92FF920F931F93DC01ED91FC919E
:1017600000A0F1A1E02D09951F910F91FF90EF903E
:1017700008950F931F93DC01ED91FC91068CF78D7A
:10178000E02D09951F910F9108950F931F93DC0190
:10179000ED91FC91048CF58DE02D09951F910F9131
:1017A00008952F923F924F925F926F927F928F9205
:1017B0009F92AF92BF92CF92DF92EF92FF920F93E0
:1017C0001F93CF93DF9301E010E029E030E045E282
:1017D00050E066E070E088E894E00E94C50B54E0B9
:1017E000652E712C44244394512CF12CE12CC4E03F
:1017F000D0E078EF272E33243A94EDEFCE2EDD247F
:10180000DA948FEFE81AF80A82E0480E511CC40CF3
:10181000D51CCE15DF050CF44EC04E01880C991C6A
:101820008FEF881A980A01E010E0940149E2A42E93
:10183000B12CAC1ABD0AA501B7016A5F7F4F88E8D9
:1018400094E00E94C50B9401A50166E070E06E195A
:101850007F0988E894E00E94C50BC615D705F9F00A
:10186000B3016A5F7F4F01E010E0420182E0881A15
:10187000910894018AE2A82EB12CAE18BF08A501E8
:1018800088E894E00E94C50B66E070E0661977096D
:101890009401A50188E894E00E94C50B3E01EC1676
:1018A000FD0664F4D7FCADCF219782E0280E311CF1
:1018B000C20CD31CA6CFC615D70591F6DF91CF91E8
:1018C0001F910F91FF90EF90DF90CF90BF90AF905E
:1018D0009F908F907F906F905F904F903F902F9050
:1018E0000895DC01ED91FC910084F185E02D0994CF
:1018F0002F923F924F925F926F927F928F929F9220
:10190000AF92BF92CF92DF92EF92FF920F931F930D
:10191000CF93DF9321E030E04FE250E066E070E0EB
:1019200088E894E00E94710C21E030E043E250E04E
:1019300066E070E088E894E00E94710C21E030E0FD
:1019400049E250E06CE070E088E894E00E94710C9D
:1019500021E030E049E250E070E060E088E894E0A7
:101960000E94710C44244394512C10E000E0C6E026
:10197000D0E034EF632E77247A944BEFE42EFF24EB
:10198000FA9456E0252E312C0F5F1F4F82E0480E4F
:10199000511CE40CF51C480186E0880E911C21E0E6
:1019A00030E06E0189E2C80ED11CA601B40188E8BE
:1019B00094E00E94710C5101A01AB10A21E030E0BC
:1019C000A601B50188E894E00E94710C21E030E0A6
:1019D00089E2C82ED12CCC1ADD0AA601B40188E810
:1019E00094E00E94710C21E030E0A601B50188E886
:1019F00094E00E94710C680189E2C80ED11C21E0BC
:101A000030E0A6015E0186E0A80EB11CB50188E8B1
:101A100094E00E94710C21E030E0A6016101CC1A33
:101A2000DD0AB60188E894E00E94710C99E2892EE3
:101A3000912C801A910A21E030E0A401B50188E8D8
:101A400094E00E94710C21E030E0A401B60188E826
:101A500094E00E94710C0C171D079CF0DF91CF9150
:101A60001F910F91FF90EF90DF90CF90BF90AF90BC
:101A70009F908F907F906F905F904F903F902F90AE
:101A80000895F7FC81CF219782E0680E711CE60C67
:101A9000F71C7ACF2F923F924F925F926F927F9274
:101AA0008F929F92AF92BF92CF92DF92EF92FF926E
:101AB0000F931F93CF93DF9300D000D000D0CDB70A
:101AC000DEB73C016A013E832D83FC82EB82580124
:101AD000A41AB50AB7FE03C0B194A194B1088D80D1
:101AE0009E80861A970A97FE03C09194819491086C
:101AF0008A149B045CF0902F812F0D811E819D83A1
:101B00008E839C2D8D2D6B01692F782F0C151D0553
:101B10005CF09D818E817E836D83692F782F902F5D
:101B2000812F8601C92ED82E1601201A310A2B01C9
:101B30002D813E81421A530A57FE03C051944194AD
:101B40005108710137FE03C03FEFE31AF30AF59421
:101B5000E7948D819E81861797075CF5A1E0B0E040
:101B6000BA83A983C016D1064CF1D301ED91FC9143
:101B70000484F585E02D2B813C81A8016D817E8157
:101B80008A149B041CF04D815E81B801C301099544
:101B9000E418F508F7FE0AC02D813E8189819A81FB
:101BA000280F391F3E832D83E20CF31C0F5F1F4F5C
:101BB000D9CF2FEF3FEF3A832983D4CF26960FB6A4
:101BC000F894DEBF0FBECDBFDF91CF911F910F9173
:101BD000FF90EF90DF90CF90BF90AF909F908F904D
:101BE0007F906F905F904F903F902F900895089551
:101BF00090E080E00895CF93CFB7F8948091C3032D
:101C0000811127C0E0E9F5E08491E4EAF5E09491E0
:101C1000E82FF0E0EE0FFF1FE859FA4FA591B491BD
:101C2000EC91E92321F461E08AE00E94690361E01C
:101C30008AE00E9497038CB580618CBD8CB580646E
:101C40008CBD61E08DE00E94970361E08BE00E9413
:101C500097038091C3038F5F8093C303CFBFCF915E
:101C600008950CB405FC0DC09EBD00000DB407FE28
:101C7000FDCF9EB58EBD00000DB407FEFDCF8EB525
:101C800008958EBD00000DB407FEFDCF8EB59EBD3C
:101C900000000DB407FEFDCF9EB508958EBD000077
:101CA0000DB407FEFDCF8EB508950F931F93CF930C
:101CB000DF938C01EB01609113017091140180910D
:101CC00015019091160120E03FEF4FE757E40E9485
:101CD000D31F20E030E040EC51E40E94741E0E94CB
:101CE000ED1E6093D1037093D2038093D30390933E
:101CF000D40360910D0170910E0180910F019091BC
:101D0000100120E030E040E251E40E94741E20E027
:101D100030E040E85FE30E94031E20E030E040E056
:101D20005FE30E94D31F20E03FEF4FE757E40E949C
:101D3000D31F0E94ED1E6093C4037093C50380936C
:101D4000C6039093C70360E08AE00E94690385E5BB
:101D50000E944E0EC80190610E94310E61E08AE03F
:101D60000E94690361E070E080E090E00E94B504A9
:101D700060E08AE00E94690381E00E944E0E888143
:101D80009981AA81BB810E94310E61E08AE00E94A4
:101D9000690361E070E080E090E0DF91CF911F91F6
:101DA0000F910C94B50460E08AE00E94690385E518
:101DB0000E944E0E80E090E20E94310E61E08AE0C7
:101DC0000E94690361E070E080E090E00C94B5044B
:101DD0008CBD9DBD0895AF92BF92CF92DF92EF92DE
:101DE000FF920F931F93CF93DF931F92CDB7DEB770
:101DF0008C015B016A01DC018D919C911197892B0B
:101E000039F01296ED91FC91808191810E94E80E4B
:101E1000F80183858F3F19F060E00E946903750126
:101E2000CA0CDB1CEC14FD04A9F0D7018D917D01D7
:101E30008983F80180819181892B29F0CE01019657
:101E40000E940C03EFCFBE016F5F7F4FC8010E945D
:101E5000DE03E8CFD8011B968C918F3F19F061E02B
:101E60000E94690381E00F90DF91CF911F910F9144
:101E7000FF90EF90DF90CF90BF90AF9008950F93B9
:101E80001F93CF93DF931F92CDB7DEB78C01698389
:101E900060E0FC01868D0E94690341E050E0BE01D4
:101EA0006F5F7F4FF801838D948D0E94EB0E0F9032
:101EB000DF91CF911F910F910895CF93C82F87FD88
:101EC000CFE7C093A70461E288E894E00E943F0F47
:101ED0006C2F606888E894E00E943F0F60E288E819
:101EE00094E0CF910C943F0FCF938091A50487FD90
:101EF00013C061E00E94970360E08091A5040E94F6
:101F0000690361E070E080E090E00E94B50461E068
:101F10008091A5040E946903C091A804C83008F00C
:101F2000C7E0C093A80461E288E894E00E943F0FF4
:101F30006C2F606188E894E00E943F0F60E288E8BF
:101F400094E00E943F0F8091A7040E945D0F60E221
:101F500088E894E00E943F0F6CE088E894E0CF911D
:101F60000C943F0FFF920F931F93CF93DF939091A9
:101F7000A904992339F08091AA048F5F8917E8F5A5
:101F80008093AA04D091AD04D695D695D69584E5D4
:101F9000D89F800111248091AE0486958695869500
:101FA0008D1780F16D2F606488E894E00E943F0FE8
:101FB000C091AB04F090AC046C2F606888E894E0AA
:101FC0000E943F0F61E08091A6040E9469034F2D9B
:101FD00050E06C2F70E0461B570B4F5F5F4F600F58
:101FE000711F695E7E4F8091A3049091A4040E94AA
:101FF000EB0EDF5F0C5A1F4FCECF1092AA040E9447
:10200000740FC0CF60E488E894E00E943F0F83E53E
:102010008093AB041092AC048FE28093AD041092D5
:10202000AE04DF91CF911F910F91FF9008951F9300
:10203000CF93DF93EC01162F60E20E943F0F6CE01C
:1020400011116DE0CE01DF91CF911F910C943F0FE4
:10205000CF93C82F0E944003019731F48C2F0E9428
:10206000400321E0019709F020E0822FCF910895ED
:10207000CF93C82F0E944003892B31F48C2F0E94EC
:10208000400321E0892B09F020E0822FCF910895B1
:1020900080E190E00E943810882319F081E080935D
:1020A000DB038FE090E00E943810882319F081E074
:1020B0008093D9038EE090E00E943810882319F0B5
:1020C00081E08093DA030895E7E1F1E088EF91E0A1
:1020D000DF019C011D9221503040E1F71092AB04CA
:1020E0008091AC04833508F483E58093AC041092AE
:1020F000AD048091AE048F3208F48FE28093AE0479
:1021000010929504109294041092970410929604E1
:1021100008950E946A21FB0101900020E9F73197A0
:10212000AF01461B570BDC01ED91FC910280F3815E
:10213000E02D09948F929F92AF92BF920F931F93BD
:10214000CF93DF93CDB7DEB7A1970FB6F894DEBF7C
:102150000FBECDBF19A2423008F44AE08E010F5DD8
:102160001F4F842E912CB12CA12CA50194010E940B
:10217000A41DE62FB901CA01EA3004F5E05DD801DB
:10218000EE938D01232B242B252B79F790E080E013
:10219000109729F0BD0188E894E00E948B10A19669
:1021A0000FB6F894DEBF0FBECDBFDF91CF911F9168
:1021B0000F91BF90AF909F908F900895E95CDFCF13
:1021C000CF92DF92EF92FF92CF93DF936C01990F42
:1021D000EE08FF08F7FE19C06DE288E894E00E945F
:1021E0002C09EC0166277727CB016C197D098E0934
:1021F0009F094AE00E949A108C0F9D1FDF91CF919A
:10220000FF90EF90DF90CF9008954AE0C701B601AC
:10221000DF91CF91FF90EF90DF90CF900C949A10C8
:10222000CF93DF93BC018AEE93E00E948B10EC0108
:1022300063E673E08AEE93E00E948B108C0F9D1F83
:10224000DF91CF9108954F925F926F927F928F921C
:102250009F92AF92BF92CF92DF92EF92FF920F9335
:102260001F93CF936B017C01742EAC019B010E94E4
:10227000402066E673E0811126C046015701E894CC
:10228000B7F82FEF3FEF4FE75FE7C501B4010E94BA
:10229000402081110CC02FEF3FEF4FE75FE7C501F2
:1022A000B4010E946F1E6AE673E0181664F02FEF07
:1022B0003FEF4FE75FE4C701B6010E94CE1F18163B
:1022C000ACF46EE673E088E894E0CF911F910F9133
:1022D000FF90EF90DF90CF90BF90AF909F908F9046
:1022E0007F906F905F904F900C948B102FEF3FEF8B
:1022F0004FE75FECC701B6010E946F1E87FDE1CF7B
:1023000020E030E0A901C701B6010E946F1E10E075
:1023100000E087FF0AC06DE288E894E00E942C0983
:102320008C01F7FAF094F7F8F094C0E060E070E008
:1023300080E09FE37C1641F020E030E040E251E491
:102340000E94741ECF5FF6CFA70196010E94031E64
:102350002B013C010E94ED1E4B015C014AE00E94F2
:102360009A107C01E00EF11ECC23C1F1C501B4012D
:102370000E941C1F9B01AC01C301B2010E94021EFE
:102380004B015C016EE288E894E00E942C09E80EA3
:10239000F91EC15018F120E030E040E251E4C501DF
:1023A000B4010E94D31F2B013C010E94ED1E4B0182
:1023B000B12CA12C4AE0C501B4010E949A10E80E8C
:1023C000F91EC501B4010E941C1F9B01AC01C30191
:1023D000B2010E94021E4B015C01DBCFC701CF910D
:1023E0001F910F91FF90EF90DF90CF90BF90AF9033
:1023F0009F908F907F906F905F904F900895BC0159
:1024000088E894E00C948B101F920F920FB60F92F5
:1024100011242F933F938F939F93AF93BF938091FA
:10242000E2039091E303A091E403B091E5033091BE
:10243000E10323E0230F2D3758F50196A11DB11DAF
:102440002093E1038093E2039093E303A093E403DA
:10245000B093E5038091E6039091E703A091E80330
:10246000B091E9030196A11DB11D8093E6039093FD
:10247000E703A093E803B093E903BF91AF919F9165
:102480008F913F912F910F900FBE0F901F90189535
:1024900026E8230F0296A11DB11DD2CF1F920F92E5
:1024A0000FB60F9211242F933F934F935F936F9327
:1024B0007F938F939F93AF93BF93EF93FF93E0919D
:1024C0000301F09104010995FF91EF91BF91AF9144
:1024D0009F918F917F916F915F914F913F912F913C
:1024E0000F900FBE0F901F9018951F920F920FB66E
:1024F0000F9211242F933F934F935F936F937F938A
:102500008F939F93AF93BF93EF93FF93E09101015C
:10251000F09102010995FF91EF91BF91AF919F91C9
:102520008F917F916F915F914F913F912F910F907C
:102530000FBE0F901F9018951F920F920FB60F921B
:1025400011242F933F934F935F936F937F938F93B8
:102550009F93AF93BF93EF93FF938AEE93E00E9414
:10256000F205FF91EF91BF91AF919F918F917F9174
:102570006F915F914F913F912F910F900FBE0F90F0
:102580001F9018951F920F920FB60F9211242F9340
:102590008F939F93EF93FF93E091FA03F091FB03E6
:1025A0008081E0910004F091010482FD1BC09081C4
:1025B000809103048F5F8F7320910404821741F090
:1025C000E0910304F0E0E651FC4F958F8093030403
:1025D000FF91EF919F918F912F910F900FBE0F90D0
:1025E0001F9018958081F4CF0F931F93CF93DF93A3
:1025F000EAEEF3E01382128288EE93E0A0E0B0E00E
:1026000084839583A683B78389E293E09183808353
:1026100085EC90E09587848784EC90E097878687A7
:1026200080EC90E0918B808B81EC90E0938B828B9F
:1026300082EC90E0958B848B86EC90E0978B868B78
:10264000118E128E138E148E0E9490046093B30428
:102650007093B4048093B5049093B6040E949004E0
:102660006093AF047093B0048093B1049093B2046C
:10267000C8E8D4E01B821A8224E530E03D832C8335
:1026800080E390E09F838E83398728879B878A87A2
:102690001E8A1D861C861F861E8681E08D8B8C8B74
:1026A0002FEF3FEF3B8B2A8B398B288B8F8B188E2C
:1026B0001A8E198E8BE393E0998388838CE190E0E6
:1026C0000E9445208C0185E0F80183878FEF868783
:1026D0008587848787E894E091838083138E82E0E6
:1026E00090E00E94452020E5FC0120831182F80142
:1026F0009383828380E099E0ADE3B0E084839583A7
:10270000A683B78381E090E09187808712861C8F33
:102710000B8F86E08E8F84E08D8FDF91CF911F919C
:102720000F910895CF93DF93CDB7DEB764970FB6BF
:10273000F894DEBF0FBECDBF789484B5826084BDAF
:1027400084B5816084BD85B5826085BD85B58160B5
:1027500085BD80916E00816080936E001092810033
:1027600080918100826080938100809181008160EE
:1027700080938100809180008160809380008091AF
:10278000B10084608093B1008091B000816080933B
:10279000B00080917A00846080937A0080917A0002
:1027A000826080937A0080917A00816080937A00C1
:1027B00080917A00806880937A001092C100E09145
:1027C000FA03F091FB0382E08083E091F603F0913D
:1027D000F7031082E091F803F091F9038FEC808306
:1027E00010920204E091FE03F091FF0386E08083E3
:1027F000E091FC03F091FD03808180618083E09192
:10280000FC03F091FD03808188608083E091FC03EC
:10281000F091FD03808180688083E091FC03F0915A
:10282000FD0380818F7D808382E793E00E941011F9
:1028300083E893E00E9410110E94FB0D81E590E077
:102840000E94E80E61E08AE00E9497032091A304B1
:102850003091A4043A832983D9011B968C918F3F30
:1028600049F061E00E94970361E0E981FA81838584
:102870000E946903A981BA818D919C91892B09F4E9
:1028800080C00E94FB0D81E0E981FA81838F61E0C5
:102890008091A6040E9497038091A50487FD03C040
:1028A00061E00E94970384E08093A80488E280930B
:1028B000A7041092A9041092AA040E94740F109207
:1028C000AB048091AC04833508F483E58093AC04B9
:1028D0001092AD048091AE048F3208F48FE28093A1
:1028E000AE040E94B20F84E60E945D0F0E94641045
:1028F00062E080E10E94970362E08FE00E9497030C
:1029000062E08EE00E94970361E088E00E949703F6
:1029100061E087E00E94970362E082E00E949703F3
:1029200062E083E00E94970323EF34E030930201DA
:1029300020930101809169008C7F81608093690000
:10294000E89A309304012093030180916900837F0A
:10295000846080936900E99A8091DF039091E0039D
:10296000009709F43FC0019709F43CC680E090E06D
:10297000892B91F30E94DE05882371F30E940000E9
:10298000EBCF61E0E981FA8184850E949703A981F8
:10299000BA811A968C911A978B7FF9F460E01C9695
:1029A0008C910E946903A981BA811D968C918F3FF9
:1029B00049F061E00E94970361E0E981FA81858531
:1029C0000E946903A981BA811E968C918F3F09F4F8
:1029D0005ACF60E00E94970356CF61E0E981FA8107
:1029E0008485DFCF1A861B861C861D8619821A8273
:1029F0001B821C821986F1E0FA8B212C332433943C
:102A00000E94E7046D837E838F83988720910D0158
:102A100030910E0140910F01509110012E873F8798
:102A2000488B598B3A89332309F445C18090CD03F3
:102A30009090CE03A090CF03B090D0030E9464107A
:102A400040900D0150900E0160900F0170901001A8
:102A500060910D0170910E0180910F019091100114
:102A600020E030E0A9010E946F1E87FF1FC077FAA7
:102A7000709477F87094EE24E394F12C0AE010E05F
:102A800024E030E04AE050E070E060E088E894E064
:102A90000E945D0A0BE010E024E030E04BE050E0E3
:102AA00070E060E088E894E00E945D0AC301B20132
:102AB0000E94E61E6B017C8B6B8B072E000C880B33
:102AC000990B0E941E1F9B01AC01C301B2010E9421
:102AD000021E20E030E048EC52E40E94D31F2B019C
:102AE0003C0183E080939C0480939D04A6014A30BE
:102AF00051050CF073C287E090E0909395048093A9
:102B0000940410929704109296048CE893E00E942B
:102B1000FF11A9E1B0E0B0939504A0939404109242
:102B2000970410929604C6010E94E010C301B201FE
:102B30000E94E61E6B0120E030E040E251E4C30158
:102B4000B2010E946F1E87FF50C220E330E0309335
:102B500095042093940410929704109296048CE8A4
:102B600093E00E94FF1182E490E09093950480939B
:102B700094041092970410929604C6010E94E010EB
:102B800082E080939C0480939D0486E290E0909381
:102B9000950480939404A8E0B0E0B0939704A093C8
:102BA00096048EE893E00E94FF11E8E4F0E0F093D1
:102BB0009504E093940420E230E03093970420934E
:102BC000960480E993E00E94FF1180911101909199
:102BD0001201EE24E394F12C07E110E027E230E04B
:102BE00047E150E068E170E0019731F021E530E025
:102BF00047E150E062E470E088E894E00E945D0AFA
:102C000081E080939C0480939D0421100E94D10B4D
:102C10000E94780C8091DC03882309F4EDC1222006
:102C200009F4EAC143E150E05093950440939404C1
:102C300089E190E0909397048093960482E993E071
:102C40000E94FF11A9E1B0E0B0939504A093940411
:102C5000E1E2F0E0F0939704E093960480EB93E0D8
:102C60000E94FF118EE190E090939504809394046C
:102C7000A9E2B0E0B0939704A093960420E030E07E
:102C800040E551E4C501B4010E94CE1F181654F06E
:102C900020E030E040E451ECC501B4010E946F1E19
:102CA00087FFC1C1C501B4010E94E61ECB010E948D
:102CB000E0100E94B20F0E944810B091DB03BA8B63
:102CC000BB2309F4B6C180E190E00E94281088235C
:102CD00009F4AFC120911101309112012130310569
:102CE00009F001C242E050E05093120140931101FB
:102CF0001092DB031092D9031092DA038A849B842A
:102D0000AC84BD848A8B19821A821B821C828091BA
:102D1000DA03882321F18EE090E00E9428108A8750
:102D20008823E9F0211000C22090CC0321100EC0AE
:102D300081E08093CC0361E087E00E94690365E352
:102D400075E080E090E00E94B5042A841092DA03D6
:102D50001092DB031092D9033A853A8B332E80917F
:102D6000D9038111F9C18091D7039091D8032091A3
:102D7000D5033091D6038217930709F003C22220AE
:102D800009F4ADC020910D0130910E0140910F0169
:102D9000509110016E857F85888999890E946F1EE8
:102DA000811102C0332031F064EC73E083E090E2E3
:102DB0000E94550E8091090190910A01A0910B018A
:102DC000B0910C012D813E814F815885281B390B14
:102DD0004A0B5B0BDA01C901312C883E9340A105F7
:102DE000B10508F47CC08D819E81AF81B885809348
:102DF000090190930A01A0930B01B0930C0187E4A1
:102E000080937C0080917A00806480937A00809126
:102E10007A0086FDFCCF6091780070917900072ED2
:102E2000000C880B990B0E941E1F25E33EE545EF21
:102E300053E40E94021E24E439E241E252E40E947B
:102E4000741E6B017C01C092CD03D092CE03E09240
:102E5000CF03F092D00360910D0170910E0180912B
:102E60000F019091100120E030E0A9010E94CE1FD7
:102E700018160CF047C360910D0170910E018091FE
:102E80000F01909110012DEC3CEC4CEC5DE30E94A5
:102E9000021EA70196010E946F1E18160CF4DAC2DA
:102EA00060910D0170910E0180910F0190911001C0
:102EB0002DEC3CEC4CEC5DE30E94031EA701960157
:102EC0000E94CE1F87FDC6C21092DE031092DC0363
:102ED00082EA93E00E941011312C91E09A8B39859F
:102EE000332349F18091050190910601A0910701DA
:102EF000B09108012D813E814F815885281B390BE7
:102F00004A0B5B0BDA01C90181329E44A105B10570
:102F100008F463C38D819E81AF81B88580930501DC
:102F200090930601A0930701B093080160E088E048
:102F30000E9469031986A091CC03AA87AA2399F15C
:102F400021104EC38091C8039091C903A091CA0378
:102F5000B091CB032D813E814F815885281B390BC1
:102F60004A0B5B0BDA01C90189399A43A105B10506
:102F7000D0F08D819E81AF81B8858093C8039093F6
:102F8000C903A093CA03B093CB031092CC0361E0B2
:102F900087E00E94690365E375E080E090E00E94AD
:102FA000B5049A859A8B0E94E7042D813E814F815A
:102FB0005885621B730B840B950B69317105810574
:102FC000910538F462E070E080E090E00E94B50482
:102FD000EACF8A869B86AC86BD8612CDE7E0F0E01C
:102FE000F0939504E09394049ACD40E350E050931D
:102FF000950440939404BDCD8091DE03882309F4A9
:1030000031CE222009F42ECE29E130E03093950410
:10301000209394044DE150E050939704409396041C
:103020008BE993E01DCE42E0C501B4010E9423115B
:1030300040CE0E94E7044B015C01EA89EE2309F4CB
:1030400069C029813A814B815C8121153105410597
:103050005105B1F1263031054105510568F08A85E9
:103060009B85AC85BD8588539F4FAF4FBF4F88165A
:103070009906AA06BB06D8F4AEECBFEF29813A81C7
:103080004B815C810E94C91DCA84DB84EC84FD8471
:1030900034EFC30E31E0D31EE11CF11CC60ED71E67
:1030A000E81EF91E8C149D04AE04BF04C0F1898192
:1030B0009A81AB81BC81873E9340A105B10588F41C
:1030C00029813A814B815C812F5F3F4F4F4F5F4F8A
:1030D00029833A834B835C832530310541055105B3
:1030E00049F01A8A14CE21503109309312012093ED
:1030F0001101FECD5985552331F060E088E00E9432
:1031000069031986EECF61E088E00E9469038A892D
:103110008987E7CF8A849B84AC84BD84F8CD8A8478
:103120009B84AC84BD84DDCF0E94D30E1092CD036E
:103130001092CE031092CF031092D0032D813E81C6
:103140004F8158852093C8033093C9034093CA0325
:103150005093CB03212CFACD8FE090E00E942810F1
:10316000882309F400CE81E090E09093E0038093FF
:10317000DF030E94D30E1092D9031092DB0310924A
:10318000DA03F4CBC0900D01D0900E01E0900F0156
:10319000F09010014091D5035091D6032091110178
:1031A00030911201841795070CF0C6C04091D503E9
:1031B0005091D603841795074CF44091D503509154
:1031C000D6030A96841795070CF44EC021303105BA
:1031D00009F0A5C060910D0170910E0180910F0161
:1031E0009091100120E030E040E85FE30E94031E70
:1031F00060930D0170930E0180930F019093100165
:1032000020E030E0A901C701B6010E946F1E87FFD0
:1032100045C020E030E040E85FEBC701B6010E9406
:10322000CE1F1816DCF520910D0130910E01409152
:103230000F0150911001C701B6010E946F1E87FF58
:103240002DC040900D0150900E0160900F017090C4
:10325000100120E030E040E050ECC701B6010E94D0
:10326000D31FA301920110C060910D0170910E0156
:1032700080910F01909110012130310509F04AC071
:1032800020E030E040E251E40E94031E60930D0113
:1032900070930E0180930F019093100160910D01C6
:1032A00070910E0180910F019091100120E030E0AB
:1032B00040E251EC0E946F1E87FDC2C060910D017B
:1032C00070910E0180910F019091100120E030E08B
:1032D00040E251E40E94CE1F18160CF4B6C0809153
:1032E0000D0190910E01A0910F01B09110018093FA
:1032F0000D0190930E01A0930F01B09310018091E6
:10330000D5039091D6039093D8038093D70341E0DF
:103310004A8B35CD2DEC3CEC4CEC5DE3B5CF6091A8
:103320000D0170910E0180910F01909110012AE022
:1033300037ED43E25CE3A8CF4091D5035091D6032B
:10334000481759074CF44091D5035091D6030A977A
:10335000481759070CF450C02130310509F063C0FB
:1033600060910D0170910E0180910F0190911001FB
:1033700020E030E040E85FE30E94021E60930D0110
:1033800070930E0180930F019093100120E030E0C4
:10339000A901C701B6010E94CE1F18160CF07ECFFE
:1033A00020E030E040E85FE3C701B6010E946F1EF5
:1033B00087FF74CF20910D0130910E0140910F01D4
:1033C00050911001C701B6010E94CE1F18160CF0D3
:1033D00065CF40900D0150900E0160900F017090EC
:1033E0001001A7019601C701B6010E94031E9B01AF
:1033F000AC01C301B2010FC060910D0170910E01CB
:1034000080910F01909110012130310539F420E0B5
:1034100030E040E251E40E94021E38CF2DEC3CEC3B
:103420004CEC5DE3F8CF60910D0170910E0180913D
:103430000F01909110012AE037ED43E25CE3EBCFFE
:1034400080E090E0A0E2B1EC52CF80E090E0A0E21A
:10345000B1E44DCF60910D0170910E0180910F018B
:10346000909110012DEC3CEC4CEC5DE30E94031EAE
:10347000A70196010E94CE1F87FD09C020E030E021
:10348000A901C701B6010E94CE1F18160CF1609168
:103490000D0170910E0180910F01909110012DECA2
:1034A0003CEC4CEC5DE30E94021EA70196010E94D9
:1034B0006F1E1816D4F01092DE0381E08093DC03B7
:1034C00087EA93E00E941011312CB1E0BA8B07CD4E
:1034D00081E08093DE031092DC038CE993E00E948C
:1034E0001011312CA1E0AA8BFACC20E030E0A90128
:1034F000C701B6010E946F1E87FDDDCF312CF1E0C0
:10350000FA8BEDCC60910D0170910E0180910F014D
:10351000909110012DEC3CEC4CEC5DE30E94021EFE
:10352000A70196010E946F1E1816A4F060910D016C
:1035300070910E0180910F01909110012DEC3CECE7
:103540004CEC5DE30E94031EA70196010E94CE1F72
:1035500087FFBACC60910D0170910E0180910F012F
:10356000909110012DEC3CEC4CEC5DE30E94021EAE
:10357000A70196010E94CE1F87FF9DCF20E030E07B
:10358000A901C701B6010E94CE1F18160CF493CFF3
:1035900060910D0170910E0180910F0190911001C9
:1035A0002DEC3CEC4CEC5DE30E94031EA701960160
:1035B0000E946F1E18166CF020E030E0A901C701D0
:1035C000B6010E946F1E87FD83CF312CE1E0EA8BAC
:1035D00086CC312C21E02A8B82CC91E09987ABCC30
:1035E0002A84E1CC31E03987312C2224239439E13B
:1035F000632E712C40E3442E512C0E94E704698312
:103600007A838B839C838091130190911401A09104
:103610001501B09116018D839E83AF83B88799857C
:10362000992309F4F5C06091130170911401809100
:103630001501909116010E94E61E6B017B876A8737
:103640008090130190901401A0901501B090160184
:10365000072E000C880B990B0E941E1F9B01AC01CA
:10366000C501B4010E94021E20E030E048EC52E4A3
:103670000E94D31F4B015C010E94641083E0809381
:103680009C0480939D04AA85BB851A970CF01FC1EA
:10369000E7E0F0E0F0939504E0939404109297042F
:1036A000109296048CE893E00E94FF1170929504AA
:1036B000609294041092970410929604C6010E949E
:1036C000E010C501B4010E94E61E6B0120E030E06D
:1036D00040E151E4C501B4010E946F1E509295046F
:1036E000409294041092970410929604181674F065
:1036F0008CE893E00E94FF1182E490E0909395049F
:10370000809394041092970410929604C6010E942C
:10371000E01082E080939C0480939D0446E250E098
:10372000509395044093940488E090E0909397041C
:10373000809396048EE893E00E94FF11ACE3B0E022
:10374000B0939504A0939404E0E2F0E0F093970422
:10375000E093960487EB93E00E94FF1180911101A2
:1037600090911201EE24E394F12C08E110E027E29D
:1037700030E048E150E068E170E0019731F021E588
:1037800030E048E150E062E470E088E894E00E94B4
:103790005D0A81E080939C0480939D048091DC030A
:1037A000882309F49BC023E130E0309395042093F3
:1037B0009404709297046092960482E993E00E94C8
:1037C000FF11709295046092940441E250E050938E
:1037D00097044093960480EB93E00E94FF11AEE1C2
:1037E000B0E0B0939504A0939404E9E2F0E0F09384
:1037F0009704E093960442E060E070E0CB010E9401
:10380000231131100E94D10B0E94780C0E94B20F3C
:103810000E9448108091DB03811172C0198680914B
:10382000DA03882391F08EE090E00E9428108A87C6
:10383000882359F0332009F481C00E94D30E312C23
:103840001092DA033A853987232E8091D9038111AA
:1038500077C08091D7039091D8032091D503309100
:10386000D6038217930709F07CC03320C9F020915A
:1038700013013091140140911501509116016D8191
:103880007E818F8198850E946F1E811102C0222047
:1038900039F061ED73E087E090E20E94550E212C33
:1038A0000E94E70429813A814B815C81621B730B82
:1038B000840B950B693171058105910508F09DCE4A
:1038C00062E070E080E090E00E94B504E9CF27E07C
:1038D00030E03093950420939404ECCE8091DD0386
:1038E000882309F47CCF70929504609294048DE152
:1038F00090E090939704809396048AEB93E06DCFC9
:1039000080E190E00E9428108987882309F486CFFF
:1039100080911101909112018130910549F422E0CA
:1039200030E030931201209311011092DB0377CF26
:1039300001979093120180931101F7CF3A8480CFC1
:103940008FE090E00E942810882309F482CF109223
:10395000E0031092DF030E94D30E1092D9030C945F
:10396000B6144091D5035091D603209111013091A6
:103970001201841795070CF087C04091D503509130
:10398000D6038417950744F44091D5035091D6038C
:103990000A96841795078CF02130310509F067C02D
:1039A000609113017091140180911501909116019D
:1039B00020E030E040E85FE310C0609113017091B7
:1039C000140180911501909116012130310509F003
:1039D00049C020E030E040E251E40E94031E6093C1
:1039E0001301709314018093150190931601609157
:1039F000130170911401809115019091160120E03E
:103A000030E0A9010E946F1E87FD81C06091130103
:103A100070911401809115019091160120E030E021
:103A200040EC51E40E94CE1F18160CF474C0809133
:103A3000130190911401A0911501B091160180938A
:103A4000130190931401A0931501B0931601809176
:103A5000D5039091D6039093D8038093D70341E088
:103A6000498703CF2DEC3CEC4CEC5DE3B6CF609185
:103A700013017091140180911501909116012AE0B3
:103A800037ED43E25CE3A9CF4091D5035091D603D3
:103A90004817590744F44091D5035091D6030A972B
:103AA0004817590784F02130310521F56091130141
:103AB00070911401809115019091160120E030E081
:103AC00040E85FE30FC06091130170911401809191
:103AD0001501909116012130310539F420E030E0D4
:103AE00040E251E40E94021E7ACF2DEC3CEC4CECFB
:103AF0005DE3F8CF6091130170911401809115017D
:103B0000909116012AE037ED43E25CE3EBCF80E0D1
:103B100090E0DC0194CF80E090E0A0ECB1E48FCFA6
:103B200097FB072E16F4009407D077FD09D00E946A
:103B3000CE1D07FC05D03EF4909581959F4F0895CA
:103B4000709561957F4F0895A1E21A2EAA1BBB1BA9
:103B5000FD010DC0AA1FBB1FEE1FFF1FA217B30759
:103B6000E407F50720F0A21BB30BE40BF50B661F6F
:103B7000771F881F991F1A9469F760957095809533
:103B800090959B01AC01BD01CF010895B7FF0C9446
:103B9000E81D0E94E81D821B930B0895AA1BBB1B06
:103BA00051E107C0AA1FBB1FA617B70710F0A61B3D
:103BB000B70B881F991F5A95A9F780959095BC015E
:103BC000CD010895EE0FFF1F0590F491E02D0994AB
:103BD0000E94F31DA59F900DB49F900DA49F800D92
:103BE000911D11240895A29FB001B39FC001A39F0E
:103BF000700D811D1124911DB29F700D811D112426
:103C0000911D08955058BB27AA270E941A1E0C9494
:103C1000941F0E94861F38F00E948D1F20F039F4F7
:103C20009F3F19F426F40C94831F0EF4E095E7FBF4
:103C30000C947D1FE92F0E94A51F58F3BA17620745
:103C400073078407950720F079F4A6F50C94C71F35
:103C50000EF4E0950B2EBA2FA02D0B01B9019001A7
:103C60000C01CA01A0011124FF27591B99F0593FEB
:103C700050F4503E68F11A16F040A22F232F342F33
:103C80004427585FF3CF469537952795A795F04081
:103C90005395C9F77EF41F16BA0B620B730B840B96
:103CA000BAF09150A1F0FF0FBB1F661F771F881F4E
:103CB000C2F70EC0BA0F621F731F841F48F48795A6
:103CC00077956795B795F7959E3F08F0B0CF939598
:103CD000880F08F09927EE0F9795879508950E9411
:103CE000591F08F481E008950E94881E0C94941FC7
:103CF0000E948D1F58F00E94861F40F029F45F3FFC
:103D000029F00C947D1F51110C94C81F0C94831F33
:103D10000E94A51F68F39923B1F3552391F3951BD6
:103D2000550BBB27AA2762177307840738F09F5FDC
:103D30005F4F220F331F441FAA1FA9F335D00E2E49
:103D40003AF0E0E832D091505040E695001CCAF7B6
:103D50002BD0FE2F29D0660F771F881FBB1F261779
:103D600037074807AB07B0E809F0BB0B802DBF0150
:103D7000FF2793585F4F3AF09E3F510578F00C941F
:103D80007D1F0C94C81F5F3FE4F3983ED4F38695E3
:103D900077956795B795F7959F5FC9F7880F911D40
:103DA0009695879597F90895E1E0660F771F881F2C
:103DB000BB1F621773078407BA0720F0621B730BDF
:103DC000840BBA0BEE1F88F7E09508950E94ED1E54
:103DD0006894B1110C94C81F08950E94AD1F88F01B
:103DE0009F5798F0B92F9927B751B0F0E1F0660FBF
:103DF000771F881F991F1AF0BA95C9F714C0B13000
:103E000091F00E94C71FB1E008950C94C71F672F5F
:103E1000782F8827B85F39F0B93FCCF3869577952E
:103E20006795B395D9F73EF4909580957095619517
:103E30007F4F8F4F9F4F0895E89409C097FB3EF442
:103E400090958095709561957F4F8F4F9F4F9923E7
:103E5000A9F0F92F96E9BB279395F6958795779565
:103E60006795B795F111F8CFFAF4BB0F11F460FF25
:103E70001BC06F5F7F4F8F4F9F4F16C0882311F07D
:103E800096E911C0772321F09EE8872F762F05C091
:103E9000662371F096E8862F70E060E02AF09A952C
:103EA000660F771F881FDAF7880F9695879597F921
:103EB0000895990F0008550FAA0BE0E8FEEF1616BB
:103EC0001706E807F907C0F012161306E407F5070E
:103ED00098F0621B730B840B950B39F40A2661F082
:103EE000232B242B252B21F408950A2609F4A14025
:103EF000A6958FEF811D811D089597F99F6780E832
:103F000070E060E008959FEF80EC089500240A942B
:103F10001616170618060906089500240A941216A4
:103F20001306140605060895092E0394000C11F4D7
:103F3000882352F0BB0F40F4BF2B11F460FF04C084
:103F40006F5F7F4F8F4F9F4F089557FD9058440FDD
:103F5000551F59F05F3F71F04795880F97FB991FE8
:103F600061F09F3F79F087950895121613061406A5
:103F7000551FF2CF4695F1DF08C016161706180632
:103F8000991FF1CF86957105610508940895E8940D
:103F9000BB2766277727CB0197F908950E94591F01
:103FA00008F48FEF08950E94E61F0C94941F0E945E
:103FB000861F38F00E948D1F20F0952311F00C947D
:103FC0007D1F0C94831F11240C94C81F0E94A51FF1
:103FD00070F3959FC1F3950F50E0551F629FF0015C
:103FE000729FBB27F00DB11D639FAA27F00DB11D75
:103FF000AA1F649F6627B00DA11D661F829F2227FE
:10400000B00DA11D621F739FB00DA11D621F839F84
:10401000A00D611D221F749F3327A00D611D231F5A
:10402000849F600D211D822F762F6A2F11249F57A8
:1040300050409AF0F1F088234AF0EE0FFF1FBB1FAB
:10404000661F771F881F91505040A9F79E3F51056A
:1040500080F00C947D1F0C94C81F5F3FE4F3983EE2
:10406000D4F3869577956795B795F795E7959F5F14
:10407000C1F7FE2B880F911D9695879597F90895A6
:104080000E94591F880B990B08950F931F93CF938C
:10409000DF938230910510F482E090E0E091B90462
:1040A000F091BA0430E020E0B0E0A0E0309799F45D
:1040B0002115310509F44AC0281B390B243031057C
:1040C000D8F58A819B816115710589F1FB01938384
:1040D0008283FE0111C04081518102811381481702
:1040E0005907E0F04817590799F4109761F01296B4
:1040F0000C93129713961C933296CF01DF91CF91B8
:104100001F910F9108950093B9041093BA04F4CF4E
:104110002115310551F04217530738F0A901DB0191
:104120009A01BD01DF01F801C1CFEF01F9CF9093F2
:10413000BA048093B904CDCFFE01E20FF31F81933F
:1041400091932250310939832883D7CF2091B70426
:104150003091B804232B41F42091110330911203C4
:104160003093B8042093B70420910F0330911003CB
:104170002115310541F42DB73EB7409113035091FD
:104180001403241B350BE091B704F091B804E21737
:10419000F307A0F42E1B3F0B2817390778F0AC016A
:1041A0004E5F5F4F2417350748F04E0F5F1F509347
:1041B000B8044093B704819391939FCFF0E0E0E07F
:1041C0009CCFCF93DF930097E9F0FC0132971382E5
:1041D0001282A091B904B091BA04ED0130E020E060
:1041E0001097A1F420813181820F931F2091B70491
:1041F0003091B8042817390709F061C0F093B8046A
:10420000E093B704DF91CF910895EA01CE17DF075D
:10421000E8F54A815B819E0141155105B1F7E9013D
:10422000FB83EA8349915991C40FD51FEC17FD0711
:1042300061F4808191810296840F951FE901998331
:104240008883828193819B838A83F0E0E0E01296E9
:104250008D919C9113970097B9F52D913C911197F1
:10426000CD010296820F931F2091B7043091B804BC
:104270002817390739F6309751F51092BA04109281
:10428000B904B093B804A093B704BCCFD383C2835E
:1042900040815181840F951FC817D90761F44E5F83
:1042A0005F4F88819981480F591F518340838A81CC
:1042B0009B81938382832115310509F0B0CFF09360
:1042C000BA04E093B9049ECFFD01DC01C0CF138294
:1042D0001282D7CF81E090E0F8940C946F21F8948B
:0242E000FFCF0E
:1042E20003730573051900000032000000AE474158
:1042F200410100AE47C14100000000000000000083
:1043020000000000000000000000000000000000AB
:1043120000000000000000000000000000C0E0F00B
:10432200F8FCFCFEFFFCE0000000000000000000C2
:10433200000000000000000000000000000000007B
:10434200000000000000000000000000000000006B
:10435200000000000000000000000000F8F8F8F87B
:10436200F8F8F8F8F8F8F8F8F0F0E0E0C080C0FCEF
:10437200FFFFFFFF7F3F7FFFFFFFFFFF0000000007
:10438200000000000000000000000000000000002B
:10439200000000000000000000000000000000001B
:1043A200000000000000000000000000000000000B
:1043B200000F1F3F7FFFFFFFFFFFFFFFFFE7C7C7A2
:1043C200878F9F9FFFFFFFC1C0E0FCFFFFFFFFFF42
:1043D200FCFCFCFCFEFEFEFCFCF8F8F0E0C0C000B9
:1043E20000000000000000000000000000000000CB
:1043F20000000000000000000000000000000000BB
:10440200000000000000000080C0E0F1FBFFFFFFA1
:10441200FFFF7F1F0F0F87E7FFFFFF1F1F3FF9F807
:10442200F8F8F8F8F8FDFFFFFFFFFFFFFFFFFF7F3F
:104432003F0F070100000000000000000000000024
:10444200000000000000000000000000000000006A
:1044520000000000000000000000F0FEFFFFFFFF70
:10446200FFFFFFFFFFFFFE7E3F3F0F1FFFFFFFFC2F
:10447200F0E0F1FFFFFFFFFFFCF00101010101018C
:104482000101000000000000000000000000000028
:10449200000000000000000000000000000000001A
:1044A2000000000000000000000000000000030304
:1044B20003030303030301010101000000000000E4
:1044C20000030F1F3F7F7FFFFFFFFF7F7F1F030060
:1044D20000000000000000000000000000000000DA
:1044E20000000000000000000000000000000000CA
:1044F20000BB04800000FF0100010000FFFF00007C
:10450200010001FF000000000014067405A105610E
:1045120006D205B005C405000000002C097405F898
:104522000DF70D81061603710CA90BC50BB90B4AC9
:104532000D1603F2061710700B370BF20AD50A5D3F
:104542000AFE090D0A006E616E00696E66006F76E2
:10455200660044454242554720424547494E202184
:1045620021210059454545454545540030002E005E
:10457200560045585445524E414C00204C4F57204E
:104582005A0046494E450045585445524E414C202A
:10459200534F55524345006D410048494748205A00
:0245A200000017
:00000001FF
