:100000000C94E2020C94EC100C94C5100C940A03AE
:100010000C940A030C940A030C940A030C940A032C
:100020000C940A030C940A030C940A030C940A031C
:100030000C940A030C940A030C940A030C940A030C
:100040000C947B100C940A030C9439110C9413112A
:100050000C940A030C940A030C940A030C940A03EC
:100060000C940A030C940A0300000000003E5B4F4E
:100070005B3E3E6B4F6B3E1C3E7C3E1C183C7E3C08
:10008000181C577D571C1C5E7F5E1C00183C180016
:10009000FFE7C3E7FF0018241800FFE7DBE7FF30A6
:1000A000483A060E2629792926407F050507407F14
:1000B00005253F5A3CE73C5A7F3E1C1C08081C1C87
:1000C0003E7F14227F22145F5F005F5F06097F017D
:1000D0007F006689956A606060606094A2FFA29468
:1000E00008047E040810207E201008082A1C080836
:1000F0001C2A08081E101010100C1E0C1E0C303884
:100100003E3830060E3E0E06000000000000005F84
:1001100000000007000700147F147F14242A7F2AA0
:100120001223130864623649562050000807030062
:10013000001C2241000041221C002A1C7F1C2A08AE
:10014000083E080800807030000808080808000011
:1001500060600020100804023E5149453E00427F85
:10016000400072494949462141494D331814127FD4
:100170001027454545393C4A494931412111090774
:100180003649494936464949291E000014000000F5
:1001900040340000000814224114141414140041C7
:1001A00022140802015909063E415D594E7C121184
:1001B000127C7F494949363E414141227F414141BC
:1001C0003E7F494949417F090909013E4141517337
:1001D0007F0808087F00417F41002040413F017FA8
:1001E000081422417F404040407F021C027F7F0470
:1001F00008107F3E4141413E7F090909063E4151B9
:10020000215E7F09192946264949493203017F01A8
:10021000033F4040403F1F2040201F3F4038403FA9
:10022000631408146303047804036159494D4300BF
:100230007F4141410204081020004141417F0402F6
:10024000010204404040404000030708002054548D
:1002500078407F284444383844444428384444286B
:100260007F385454541800087E090218A4A49C78BE
:100270007F0804047800447D40002040403D007F1A
:100280001028440000417F40007C047804787C08FA
:100290000404783844444438FC18242418182424CE
:1002A00018FC7C08040408485454542404043F44B3
:1002B000243C4040207C1C2040201C3C4030403CE2
:1002C00044281028444C9090907C4464544C440042
:1002D00008364100000077000000413608000201A6
:1002E0000204023C2623263C1EA1A161123A404092
:1002F000207A38545455592155557941225454780F
:1003000042215554784020545579400C1E527212A7
:100310003955555559395454545939555454580030
:1003200000457C410002457D420001457C407D1234
:1003300011127DF0282528F07C5455450020545496
:100340007C547C0A097F4932494949323A44444441
:100350003A324A4848303A4141217A3A424020787C
:10036000009DA0A07D3D4242423D3D4040403D3C7D
:1003700024FF2424487E4943662B2FFC2F2BFF09A2
:1003800029F620C0887E0903205454794100004496
:100390007D413048484A32384040227A007A0A0A81
:1003A000727D0D19317D2629292F282629292926F4
:1003B00030484D4020380808080808080808382F39
:1003C00010C8ACBA2F102834FA00007B00000814C3
:1003D0002A142222142A14085500550055AA55AA99
:1003E00055AAFF55FF55FF000000FF00101010FF39
:1003F00000141414FF001010FF00FF1010F010F094
:10040000141414FC001414F700FF0000FF00FF1484
:1004100014F404FC141417101F10101F101F1414D0
:10042000141F00101010F0000000001F101010101A
:100430001F10101010F010000000FF10101010100E
:1004400010101010FF10000000FF140000FF00FF4C
:1004500000001F10170000FC04F4141417101714E8
:1004600014F404F40000FF00F7141414141414140A
:10047000F700F7141414171410101F101F1414147D
:10048000F4141010F010F000001F101F0000001FE7
:1004900014000000FC140000F010F01010FF10FF1A
:1004A000141414FF141010101F00000000F010FFAF
:1004B000FFFFFFFFF0F0F0F0F0FFFFFF0000000093
:1004C00000FFFF0F0F0F0F0F3844443844FC4A4A17
:1004D0004A347E02020606027E027E0263554941CC
:1004E000633844443C04407E201E2006027E020203
:1004F00099A5E7A5991C2A492A1C4C7201724C3017
:100500004A4D4D303048784830BC625A463D3E49ED
:100510004949007E0101017E2A2A2A2A2A44445F91
:10052000444440514A444040444A51400000FF0185
:1005300003E080FF000008086B6B08361236243693
:10054000060F090F060000181800000010100030F8
:1005500040FF0101001F01011E00191D1712003C80
:100560003C3C3C000000000000000000240027008C
:100570002A0000000000250028002B0000000000D9
:1005800023002600290004040404040404040202D5
:100590000202020203030303030301020408102002
:1005A000408001020408102001020408102000000D
:1005B0000008000201000003040700000000000022
:1005C00000006B1111241FBECFEFD8E0DEBFCDBFFE
:1005D00013E0A0E0B1E0E0E1FAE302C005900D9283
:1005E000A037B107D9F724E0A0E7B3E001C01D921E
:1005F000A536B207E1F712E0C2EED2E004C02197BF
:10060000FE010E949819C13ED107C9F70E94091244
:100610000C94061D0C940000FC0120812EBD0DB42D
:1006200007FEFDCF2EB5FC01208308950895833089
:1006300081F028F4813099F08230A9F00895873054
:10064000A9F08830C9F08430B1F4809180008F7DAA
:1006500003C0809180008F7780938000089584B5D7
:100660008F7784BD089584B58F7DFBCF8091B000D6
:100670008F778093B00008958091B0008F7DF9CF7F
:10068000CF93DF93282F30E0F901E255FA4F8491A0
:10069000F901E656FA4FD491F901EA57FA4FC4919D
:1006A000CC23A1F081110E941703EC2FF0E0EE0F94
:1006B000FF1FE458FA4FA591B491EC91ED2381E02E
:1006C00090E009F480E0DF91CF91089580E090E020
:1006D000FACF1F93CF93DF93282F30E0F901E25533
:1006E000FA4F8491F901E656FA4FD491F901EA578D
:1006F000FA4FC491CC23A9F0162F81110E94170341
:10070000EC2FF0E0EE0FFF1FEE58FA4FA591B491D9
:100710008FB7F894EC91111108C0D095DE23DC93CB
:100720008FBFDF91CF911F910895DE2BF8CFCF932C
:10073000DF9390E0FC01E656FA4F24918A579A4FD6
:10074000FC0184918823C9F090E0880F991FFC0177
:10075000E859FA4FA591B491FC01EE58FA4FC591B2
:10076000D49161110DC09FB7F8948C91209582238C
:100770008C938881282328839FBFDF91CF91089590
:10078000623051F49FB7F8943C91822F8095832377
:100790008C93E8812E2BEFCF8FB7F894EC912E2B12
:1007A0002C938FBFEACF8230910538F0880F991FC4
:1007B000880F991F05970197F1F708959F92AF92BF
:1007C000BF92CF92DF92EF92FF920F931F93CF933E
:1007D000DF93EC016B018885998511E0892B09F085
:1007E00010E8F601A0808A2D812399249394811129
:1007F000912C2C813D814E815F8160E271EA87E01E
:1008000090E00E946219022FB12CE22EF12C0023FD
:1008100019F0C7010E94D3038A85877F09F04FC072
:100820008D858F3F89F09A2D912381E009F480E036
:10083000891551F0EF85F8898F899923D1F190813D
:10084000892B808399249394E989FA898081998DF1
:10085000892B8083002319F0C7010E94D3038E8562
:100860008F3F39F0EB89FC898081988D892309F0CD
:10087000B12AE989FA899081898D809589238083BD
:100880008E858F3F11F0F601B08288859985892B7E
:1008900009F044C0110F1111BACFDF91CF911F9110
:1008A0000F91FF90EF90DF90CF90BF90AF909F900F
:1008B00008959081809589238083912CC5CFE98903
:1008C000FA898081998D892B8083002319F0C701D3
:1008D0000E94D3038D858F3F49F0EF85F8898F897A
:1008E0009A2D9123B9F09081892B8083E989FA8927
:1008F0009081898D8095892380838E858F3F09F42F
:10090000BFCFEB89FC898081988D892309F4B8CF0A
:10091000B12AB6CF908180958923E7CF1695BBCFBA
:100920003FB7F8948091900390919103A091920326
:10093000B091930326B5A89B05C02F3F19F00196EF
:10094000A11DB11D3FBFBA2FA92F982F8827BC0129
:10095000CD01620F711D811D911D42E0660F771F51
:10096000881F991F4A95D1F708958F929F92AF9251
:10097000BF92CF92DF92EF92FF924B015C010E94F7
:1009800090046B017C010E9490046C197D098E0912
:100990009F09683E734081059105A8F328EEC20EB9
:1009A00023E0D21EE11CF11C8A9489288A288B2816
:1009B00029F0812C912C54018394E5CFFF90EF9086
:1009C000DF90CF90BF90AF909F908F9008950F933E
:1009D0001F93CF93DF93C0910001CC0FCC0FC09336
:1009E000000182E00E944003892B19F0C260C0938D
:1009F000000183E00E944003892B29F080910001CF
:100A0000816080930001E0910001EF70F0E0EB5F06
:100A1000FC4F808190917003890F80937003843024
:100A200094F10E94900400915D0410915E04209165
:100A30005F0430916004601B710B820B930BC1E06B
:100A4000D0E0603C764C8D42910510F4CAE0D0E0D5
:100A50000E94900460935D0470935E0480935F0431
:100A60009093600480918103909182038C0F9D1F6D
:100A7000909382038093810310927003DF91CF9152
:100A80001F910F9108958D3FCCF70E949004009123
:100A9000590410915A0420915B0430915C04601B4E
:100AA000710B820B930BCFEFDFEF603C764C8D42E6
:100AB000910510F4C6EFDFEF0E9490046093590493
:100AC00070935A0480935B0490935C04CBCF089599
:100AD000AF92BF92CF92DF92EF92FF920F931F934C
:100AE000CF93DF936C017B018B01040F151FEB018A
:100AF0005E01AE18BF08C017D10759F06991D60141
:100B0000ED91FC910190F081E02DC6010995892BB2
:100B100079F7C501DF91CF911F910F91FF90EF9071
:100B2000DF90CF90BF90AF900895FC01538D448D1E
:100B3000252F30E0842F90E0821B930B541710F088
:100B4000CF96089501970895FC01918D828D981795
:100B500061F0A28DAE0FBF2FB11D5D968C91928D6D
:100B60009F5F9F73928F90E008958FEF9FEF08959E
:100B7000FC01918D828D981731F0828DE80FF11D67
:100B8000858D90E008958FEF9FEF0895FC01918D82
:100B9000228D892F90E0805C9F4F821B91098F737B
:100BA0009927089584E993E00E94C60521E0892BE6
:100BB00009F420E0822F089580E090E0892B29F04D
:100BC0000E94D20581110C9400000895FC01A48DAF
:100BD000A80FB92FB11DA35ABF4F2C91848D90E05F
:100BE00001968F739927848FA689B7892C93A08942
:100BF000B1898C91837080648C93938D848D9813CC
:100C000006C00288F389E02D80818F7D808308955E
:100C1000EF92FF920F931F93CF93DF93EC0181E04C
:100C2000888F9B8D8C8D98131AC0E889F9898081F3
:100C300085FF15C09FB7F894EE89FF896083E88926
:100C4000F98980818370806480839FBF81E090E018
:100C5000DF91CF911F910F91FF90EF900895F62EA5
:100C60000B8D10E00F5F1F4F0F731127E02E8C8D3F
:100C70008E110CC00FB607FCFACFE889F989808184
:100C800085FFF5CFCE010E94E605F1CFEB8DEC0F8D
:100C9000FD2FF11DE35AFF4FF0829FB7F8940B8FA1
:100CA000EA89FB8980818062CFCFCF93DF93EC010B
:100CB000888D8823B9F0AA89BB89E889F9898C9144
:100CC00085FD03C0808186FD0DC00FB607FCF7CF00
:100CD0008C9185FFF2CF808185FFEDCFCE010E9400
:100CE000E605E9CFDF91CF910895FC0177FD55C06E
:100CF00080859185681779070CF04FC057FD4DC06E
:100D000082859385481759070CF047C08689823041
:100D100009F444C0833009F44EC0813031F48FE2CD
:100D200090E0861B970BBA01AC01842FA62F93A1EC
:100D3000691708F4962F93A394A19A1708F49A2F91
:100D400094A395A1891708F4982F95A396A19817B5
:100D500008F4982F96A3CA0157FD0796E3E09595EE
:100D60008795EA95E1F7A4E5A89FF001A99FF00D0A
:100D70001124E60FF71FE95FFE4FCA0168E070E03B
:100D80000E944E1941E050E001C0440F8A95EAF7F5
:100D90008081232BB9F0842B8083089583E590E034
:100DA000DC01A61BB70BBD018FE290E0DC01A41BA8
:100DB000B50BAD01BACF83E590E0841B950BAB0179
:100DC000BC01B3CF40958423E7CF0895FC01637045
:100DD000668B8481958126813781613039F063305B
:100DE00029F091878087338722870895318720876C
:100DF0009387828708952F923F924F925F926F92CE
:100E00007F928F929F92AF92BF92CF92DF92EF929A
:100E1000FF920F931F93CF93DF93CDB7DEB76A97FF
:100E20000FB6F894DEBF0FBECDBF9A8F898F7A833D
:100E300069834A01D22E18870F833701BC2CDC014D
:100E400059962D913C915A972115310509F015C1FC
:100E500018968D919C911997681779070CF0D7C156
:100E60001A968D919C91481759070CF0D0C14C2CC3
:100E7000512CB6E0CB9E600D711D11247C876B87D1
:100E8000161617060CF0C3C1EA2DF0E0FA87E987C1
:100E900093E0EE0FFF1F9A95E1F7F88BEF87CF01F4
:100EA000840F951F181619060CF0B1C1A98DBA8DC3
:100EB00058968C91811104C0BFEABD1508F4D394F3
:100EC000A98DBA8DED91FC9111970284F385E02DE7
:100ED000CD010995B5E0DB9EC0011124E981FA81BD
:100EE000FC83EB83312C212C9C0128593F4F388FF8
:100EF0002F8B4A2D50E05E8B4D8BEF89F88DE20DE4
:100F0000F31D44919E828D82D12CC12C69817A81FE
:100F1000620D731D7A8B698B842F90E09C8B8B8B79
:100F2000E98DFA8DA081B18140FF82C0F1E0BF124E
:100F30006FC0AF126DC01C96ED91FC912F8138856A
:100F4000A4014C0D5D1D69897A89898D9A8D099559
:100F5000EB89FC89F595E7954E2F5FEFC51AD50A09
:100F60006D817E818D899E89680F791F7E836D8357
:100F700098E0C916D10481F6AFEF2A1A3A0AEB813C
:100F8000FC81E40DF51DFC83EB83F5E02F163104A5
:100F900009F0B3CF2F81388526153705B9F0A98D13
:100FA000BA8DED91FC91B1E0BB1257C0AB1255C0A8
:100FB00069817A816B5F7F4F0088F189E02D830121
:100FC00028E030E0A401898D9A8D0995A98DBA8D0C
:100FD000ED91FC9111970688F789E02DCD016A9675
:100FE0000FB6F894DEBF0FBECDBFDF91CF911F913A
:100FF0000F91FF90EF90DF90CF90BF90AF909F90B8
:101000008F907F906F905F904F903F902F900994BA
:101010001E96ED91FC91EF80F88409851A85920166
:101020004D815E816B817C81898D9A8D099590CFF0
:101030002F8138852615370509F48ACF31E0B312A0
:1010400007C0A31205C01C96ED91FC91930178CFC7
:101050001E96ED91FC917301E0CF6B857C85641940
:1010600075090684F785E02D73010F8518899201B3
:10107000A401898D9A8D0995A9CFF901349694918F
:10108000329745915491D91AB7E0DB9E400D511D1E
:101090001124F901259134913C8B2B8BFA01259079
:1010A0003490FA013296749031963491398B32969D
:1010B00064903196449041E04C1518F04A1508F0C0
:1010C0007FC0662D062C000C770B7C836B83842DF0
:1010D000042C000C990B9E838D83A98DBA8DED9104
:1010E000FC9111970284F385E02DCD010995512CD7
:1010F000D12CC12CEA2DF0E0FA87E9872B2D30E0C6
:101100003C872B87A401440D511D47FC5A95588FED
:101110004F8B69817A81660D711D67FC7A957E8798
:101120006D877989C71608F051CF2C2D30E04D819D
:101130005E81420F531FA985BA854A9FC0014B9F0C
:10114000900D5A9F900D1124FC01E80DF91DF88BAC
:10115000EF87852D612C4F89588D420F531F5E8B71
:101160004D8B671408F050C044244394480E877098
:1011700041F4C1010196EB89FC89E20DF31DD49085
:101180001C01D7FE19C0A98DBA8DED91FC91662D79
:1011900070E0B1E0BB1219C0AB1217C02D853E85BF
:1011A000620F731F0484F585E02D2F8138854D89EA
:1011B0005E89898D9A8D0995DD0C6394842DD1CF3C
:1011C0001E821D821C821B8288CF4B815C81640F32
:1011D000751FAB85BC856A9FC0016B9F900D7A9F80
:1011E000900D112469817A81680F791F0684F78533
:1011F000E02DEF80F88409851A859D014F85588977
:10120000898D9A8D0995D8CF570CC3948ACF6A9649
:101210000FB6F894DEBF0FBECDBFDF91CF911F9107
:101220000F91FF90EF90DF90CF90BF90AF909F9085
:101230008F907F906F905F904F903F902F90089588
:101240008F929F92AF92CF92EF92FF920F931F9344
:10125000CF93DF93EC01262F898D9A8D009709F0AB
:1012600051C06A30D1F41D861C868D8948E0849F68
:10127000900111248E859F85820F931F9F878E87F3
:1012800081E090E0DF91CF911F910F91FF90EF905F
:10129000CF90AF909F908F9008956D3089F3CC8858
:1012A000AD888F898823C1F08C859D8536E0C39EEB
:1012B000800D911D1124488559854817590764F4FC
:1012C0004E855F851D861C8638E0A39EC0011124D3
:1012D000840F951F9F878E87EA88FB880889198964
:1012E0004E855F856C857D85CE010E94FB062C892D
:1012F0008C859D8546E0249F800D911D11249D873E
:101300008C87BECF6A3069F41D861C86FC01389636
:10131000E4912D898E859F85E29F800D911D11247A
:10132000ADCF6D3009F4ACCFFC0134963491631726
:1013300008F4A6CF3296E491E61708F4A1CFFC0199
:10134000329685909490462F431B342F47E0349F6C
:10135000800C911C1124F401329634913196E49161
:101360003323A9F1EE2399F1CC88F4013596E49169
:10137000AD884F89442301F10E2E000CFF0BE30FC3
:10138000F11DCE9EA001CF9E500D11246C857D8550
:10139000460F571F68857985641775076CF44E856D
:1013A0005F851D861C86FC013896E491AE9E400D3B
:1013B000511D11245F874E87EA88FB8808891989A7
:1013C0004E855F856C857D85CE010E94FB06F4010C
:1013D0003496E4912C898C859D85E29F800D911D2A
:1013E00011248DCF6F927F928F929F92AF92BF9276
:1013F000CF92DF92EF92FF920F931F93CF93DF93E1
:10140000EC016B015A0139014801E881F98102843C
:10141000F385E02D0995E881F9810288F389E02DB3
:1014200087019301A501B601CE010995A501480DDB
:10143000591D41505109E881F9810288F389E02D55
:101440009301B601CE010995E881F9810088F189FF
:10145000E02D9401A501B601CE010995C60CD71C5B
:10146000B60161507109E881F9810088F189E02DA8
:101470009401A501CE010995E881F9810688F789D3
:10148000E02DCE01DF91CF911F910F91FF90EF9052
:10149000DF90CF90BF90AF909F908F907F906F9094
:1014A00009946F927F928F929F92AF92BF92CF9248
:1014B000DF92EF92FF920F931F93CF93DF935C0124
:1014C000EB016A01490138018701DC01ED91FC91D2
:1014D0006217730719F5641675062CF0962D872D83
:1014E0003A01C92ED82E9601261937092F5F3F4F92
:1014F000048CF58DE02DA301BE01C5010995DF9196
:10150000CF911F910F91FF90EF90DF90CF90BF9000
:10151000AF909F908F907F906F90089546155705DC
:1015200091F42617370724F0892D4B01C22FD82FAD
:101530009E01281939092F5F3F4F068CF78DE02D4A
:10154000A601B401DACF0284F385E02D0995D50117
:10155000ED91FC910488F589E02D83019401A601A9
:10156000BE01C5010995D501ED91FC910688F78969
:10157000E02DC501DF91CF911F910F91FF90EF906A
:10158000DF90CF90BF90AF909F908F907F906F90A3
:101590000994EF92FF920F931F93DC011A960D911D
:1015A0001C911B9718962D913C911997ED91FC91E8
:1015B00000A0F1A1E02D7B0150E040E070E060E090
:1015C00009951F910F91FF90EF9008954F925F92B0
:1015D0006F927F928F929F92AF92BF92CF92DF9243
:1015E000EF92FF920F931F93CF93DF936C012B0128
:1015F0005A0139014801DC01ED91FC910284F38527
:10160000E02D0995E201640C751CD601ED91FC9169
:10161000C615D7055CF40088F189E02D8701940197
:10162000A501BE01C60109952196EFCF0688F7896D
:10163000E02DC601DF91CF911F910F91FF90EF90A8
:10164000DF90CF90BF90AF909F908F907F906F90E2
:101650005F904F9009948F929F92AF92BF92CF92DA
:10166000DF92EF92FF920F931F93CF93DF93EC01E2
:101670005B014A016901E881F9810284F385E02D6B
:10168000099595012C0D3D1D21503109E881F98105
:101690000488F589E02D78018401A401B501CE010B
:1016A0000995E881F9810688F789E02DCE01DF915F
:1016B000CF911F910F91FF90EF90DF90CF90BF904F
:1016C000AF909F908F9009948F929F92AF92BF920C
:1016D000CF92DF92EF92FF920F931F93CF93DF93FE
:1016E000EC015B014A0169017801E881F98102841A
:1016F000F385E02D0995C80CD91C8601015011090C
:10170000E881F9810488F589E02D9501A401B501EE
:10171000CE010995E881F9810688F789E02DCE018F
:10172000DF91CF911F910F91FF90EF90DF90CF90BD
:10173000BF90AF909F908F900994EF92FF920F937C
:101740001F93DC01ED91FC9100A0F1A1E02D099522
:101750001F910F91FF90EF9008950F931F93DC015D
:10176000ED91FC91068CF78DE02D09951F910F915D
:1017700008950F931F93DC01ED91FC91048CF58D7E
:10178000E02D09951F910F9108952F923F924F924E
:101790005F926F927F928F929F92AF92BF92CF9201
:1017A000DF92EF92FF920F931F93CF93DF9301E0AD
:1017B00010E029E030E045E250E066E070E082E3CE
:1017C00094E00E94B90B54E0652E712C442443949C
:1017D000512CF12CE12CC4E0D0E078EF272E3324FB
:1017E0003A94EDEFCE2EDD24DA948FEFE81AF80A62
:1017F00082E0480E511CC40CD51CCE15DF050CF43C
:101800004EC04E01880C991C8FEF881A980A01E08F
:1018100010E0940149E2A42EB12CAC1ABD0AA50136
:10182000B7016A5F7F4F82E394E00E94B90B940195
:10183000A50166E070E06E197F0982E394E00E94E2
:10184000B90BC615D705F9F0B3016A5F7F4F01E008
:1018500010E0420182E0881A910894018AE2A82EE1
:10186000B12CAE18BF08A50182E394E00E94B90B29
:1018700066E070E0661977099401A50182E394E0BF
:101880000E94B90B3E01EC16FD0664F4D7FCADCF07
:10189000219782E0280E311CC20CD31CA6CFC6159E
:1018A000D70591F6DF91CF911F910F91FF90EF90A7
:1018B000DF90CF90BF90AF909F908F907F906F9070
:1018C0005F904F903F902F900895DC01ED91FC9137
:1018D0000084F185E02D09942F923F924F925F9200
:1018E0006F927F928F929F92AF92BF92CF92DF9230
:1018F000EF92FF920F931F93CF93DF9321E030E09D
:101900004FE250E066E070E082E394E00E94650CF4
:1019100021E030E043E250E066E070E082E394E0F2
:101920000E94650C21E030E049E250E06CE070E09C
:1019300082E394E00E94650C21E030E049E250E04F
:1019400070E060E082E394E00E94650C44244394DC
:10195000512C10E000E0C6E0D0E034EF632E772495
:101960007A944BEFE42EFF24FA9456E0252E312C86
:101970000F5F1F4F82E0480E511CE40CF51C48011C
:1019800086E0880E911C21E030E06E0189E2C80EED
:10199000D11CA601B40182E394E00E94650C5101C0
:1019A000A01AB10A21E030E0A601B50182E394E07B
:1019B0000E94650C21E030E089E2C82ED12CCC1ABF
:1019C000DD0AA601B40182E394E00E94650C21E0E7
:1019D00030E0A601B50182E394E00E94650C680145
:1019E00089E2C80ED11C21E030E0A6015E0186E04C
:1019F000A80EB11CB50182E394E00E94650C21E0C1
:101A000030E0A6016101CC1ADD0AB60182E394E060
:101A10000E94650C99E2892E912C801A910A21E08E
:101A200030E0A401B50182E394E00E94650C21E05E
:101A300030E0A401B60182E394E00E94650C0C172B
:101A40001D079CF0DF91CF911F910F91FF90EF90B8
:101A5000DF90CF90BF90AF909F908F907F906F90CE
:101A60005F904F903F902F900895F7FC81CF219782
:101A700082E0680E711CE60CF71C7ACF2F923F9221
:101A80004F925F926F927F928F929F92AF92BF928E
:101A9000CF92DF92EF92FF920F931F93CF93DF933A
:101AA00000D000D000D0CDB7DEB73C016A013E8344
:101AB0002D83FC82EB825801A41AB50AB7FE03C03D
:101AC000B194A194B1088D809E80861A970A97FEE2
:101AD00003C09194819491088A149B045CF0902F28
:101AE000812F0D811E819D838E839C2D8D2D6B01F9
:101AF000692F782F0C151D055CF09D818E817E83EA
:101B00006D83692F782F902F812F8601C92ED82EB3
:101B10001601201A310A2B012D813E81421A530AE7
:101B200057FE03C0519441945108710137FE03C020
:101B30003FEFE31AF30AF594E7948D819E818617AF
:101B400097075CF5A1E0B0E0BA83A983C016D1067F
:101B50004CF1D301ED91FC910484F585E02D2B81AE
:101B60003C81A8016D817E818A149B041CF04D810B
:101B70005E81B801C3010995E418F508F7FE0AC0B3
:101B80002D813E8189819A81280F391F3E832D83C3
:101B9000E20CF31C0F5F1F4FD9CF2FEF3FEF3A83BB
:101BA0002983D4CF26960FB6F894DEBF0FBECDBFE3
:101BB000DF91CF911F910F91FF90EF90DF90CF9029
:101BC000BF90AF909F908F907F906F905F904F905D
:101BD0003F902F900895089590E080E00895CF936E
:101BE000CFB7F89480917103811127C0E0E9F5E047
:101BF0008491E4EAF5E09491E82FF0E0EE0FFF1F06
:101C0000E859FA4FA591B491EC91E92321F461E0F0
:101C10008AE00E94690361E08AE00E9497038CB524
:101C200080618CBD8CB580648CBD61E08DE00E94CC
:101C3000970361E08BE00E949703809171038F5FAF
:101C400080937103CFBFCF910895CF93C82F0E9487
:101C50004003019731F48C2F0E94400321E001974B
:101C600009F020E0822FCF910895CF93C82F0E94D2
:101C70004003892B31F48C2F0E94400321E0892BF3
:101C800009F020E0822FCF91089581E190E00E9439
:101C9000350E882319F081E0809380038FE090E077
:101CA0000E94350E882319F081E080937E0380E145
:101CB00090E00E94350E882319F081E080937F0325
:101CC00008950CB405FC0DC09EBD00000DB407FEC8
:101CD000FDCF9EB58EBD00000DB407FEFDCF8EB5C5
:101CE00008958EBD00000DB407FEFDCF8EB59EBDDC
:101CF00000000DB407FEFDCF9EB508958EBD000017
:101D00000DB407FEFDCF8EB508958CBD9DBD089521
:101D1000AF92BF92CF92DF92EF92FF920F931F93F9
:101D2000CF93DF931F92CDB7DEB78C015B016A01C1
:101D3000DC018D919C911197892B39F01296ED91D0
:101D4000FC91808191810E94850EF80183858F3FEF
:101D500019F060E00E9469037501CA0CDB1CEC14E9
:101D6000FD04A9F0D7018D917D018983F80180815F
:101D70009181892B29F0CE0101960E940C03EFCFAF
:101D8000BE016F5F7F4FC8010E94DE03E8CFD8011C
:101D90001B968C918F3F19F061E00E94690381E0EE
:101DA0000F90DF91CF911F910F91FF90EF90DF90F7
:101DB000CF90BF90AF9008950F931F93CF93DF9371
:101DC0001F92CDB7DEB78C01698360E0FC01868D80
:101DD0000E94690341E050E0BE016F5F7F4FF80150
:101DE000838D948D0E94880E0F90DF91CF911F916B
:101DF0000F910895CF93C82F87FDCFE7C09351046B
:101E000061E282E394E00E94DC0E6C2F606882E362
:101E100094E00E94DC0E60E282E394E0CF910C94A7
:101E2000DC0ECF9380914F0487FD13C061E00E94C8
:101E3000970360E080914F040E94690361E070E0C5
:101E400080E090E00E94B50461E080914F040E9420
:101E50006903C0915204C83008F0C7E0C09352042F
:101E600061E282E394E00E94DC0E6C2F606182E309
:101E700094E00E94DC0E60E282E394E00E94DC0EBB
:101E8000809151040E94FA0E60E282E394E00E9485
:101E9000DC0E6CE082E394E0CF910C94DC0EFF92B8
:101EA0000F931F93CF93DF9390915304992339F0AD
:101EB000809154048F5F8917E8F580935404D09182
:101EC0005704D695D695D69584E5D89F80011124E0
:101ED000809158048695869586958D1780F16D2F93
:101EE000606482E394E00E94DC0EC0915504F0909F
:101EF00056046C2F606882E394E00E94DC0E61E07F
:101F0000809150040E9469034F2D50E06C2F70E0C7
:101F1000461B570B4F5F5F4F600F711F695F7E4F0E
:101F200080914D0490914E040E94880EDF5F0C5A00
:101F30001F4FCECF109254040E94110FC0CF60E407
:101F400082E394E00E94DC0E83E5809355041092B6
:101F500056048FE28093570410925804DF91CF917A
:101F60001F910F91FF9008951F93CF93DF93EC0182
:101F7000162F60E20E94DC0E6CE011116DE0CE01C4
:101F8000DF91CF911F910C94DC0EE7E0F1E088EF38
:101F900091E0DF019C011D9221503040E1F7109249
:101FA000550480915604833508F483E580935604E4
:101FB00010925704809158048F3208F48FE2809376
:101FC000580410923F0410923E0410924104109263
:101FD000400408950E94011DFB0101900020E9F7D3
:101FE0003197AF01461B570BDC01ED91FC9102804C
:101FF000F381E02D09948F929F92AF92BF92EF925E
:10200000FF920F931F93CF93DF93CDB7DEB7A197C6
:102010000FB6F894DEBF0FBECDBF7C01FA01CB0135
:1020200019A2223008F42AE08E010F5D1F4F822E84
:10203000912CB12CA12CBF01A50194010E94621921
:10204000F901CA016A300CF5605DD8016E938D010B
:10205000232B242B252B79F790E080E0109721F09B
:10206000BD01C7010E94EC0FA1960FB6F894DEBF28
:102070000FBECDBFDF91CF911F910F91FF90EF90D9
:10208000BF90AF909F908F900895695CDECFCF9204
:10209000DF92EF92FF92CF93DF936C01990FEE08DE
:1020A000FF08F7FE1BC06DE282E394E00E94200966
:1020B000EC0144275527BA014C195D096E097F09C7
:1020C0002AE082E394E00E94FB0F8C0F9D1FDF91BA
:1020D000CF91FF90EF90DF90CF9008952AE0B70165
:1020E000A60182E394E0DF91CF91FF90EF90DF9023
:1020F000CF900C94FB0F1F920F920FB60F921124EA
:102100002F933F938F939F93AF93BF9380918C03B3
:1021100090918D03A0918E03B0918F0330918B032A
:1021200023E0230F2D3758F50196A11DB11D2093F3
:102130008B0380938C0390938D03A0938E03B093B5
:102140008F038091900390919103A0919203B0919D
:1021500093030196A11DB11D809390039093910369
:10216000A0939203B0939303BF91AF919F918F91EE
:102170003F912F910F900FBE0F901F90189526E85A
:10218000230F0296A11DB11DD2CF1F920F920FB641
:102190000F9211242F933F934F935F936F937F93ED
:1021A0008F939F93AF93BF93EF93FF93E0910301BE
:1021B000F09104010995FF91EF91BF91AF919F912B
:1021C0008F917F916F915F914F913F912F910F90E0
:1021D0000FBE0F901F9018951F920F920FB60F927F
:1021E00011242F933F934F935F936F937F938F931C
:1021F0009F93AF93BF93EF93FF93E0910101F09111
:1022000002010995FF91EF91BF91AF919F918F913D
:102210007F916F915F914F913F912F910F900FBEE2
:102220000F901F9018951F920F920FB60F921124C6
:102230002F933F934F935F936F937F938F939F93CE
:10224000AF93BF93EF93FF9384E993E00E94E60579
:10225000FF91EF91BF91AF919F918F917F916F917E
:102260005F914F913F912F910F900FBE0F901F9054
:1022700018951F920F920FB60F9211242F938F93E0
:102280009F93EF93FF93E091A403F091A5038081C6
:10229000E091AA03F091AB0382FD1BC09081809175
:1022A000AD038F5F8F732091AE03821741F0E091F1
:1022B000AD03F0E0EC56FC4F958F8093AD03FF919A
:1022C000EF919F918F912F910F900FBE0F901F90C4
:1022D00018958081F4CF0F931F93CF93DF93E4E998
:1022E000F3E01382128288EE93E0A0E0B0E08483F2
:1022F0009583A683B78389E193E09183808385ECFE
:1023000090E09587848784EC90E09787868780ECBF
:1023100090E0918B808B81EC90E0938B828B82ECB0
:1023200090E0958B848B86EC90E0978B868B118E5A
:10233000128E138E148E0E94900460935D0470932D
:102340005E0480935F04909360040E949004609305
:10235000590470935A0480935B0490935C04C2E325
:10236000D4E01B821A8224E530E03D832C8380E395
:1023700090E09F838E83398728879B878A871E8A70
:102380001D861C861F861E8681E08D8B8C8B2FEF11
:102390003FEF3B8B2A8B398B288B8F8B188E1A8EB5
:1023A000198E8BE293E0998388838CE190E00E9400
:1023B000DC1B8C0185E0F80183878FEF868785879A
:1023C000848781E394E091838083138E82E090E0A0
:1023D0000E94DC1B20E5FC0120831182F80193831D
:1023E000828380E099E0ADE3B0E084839583A683A7
:1023F000B78381E090E09187808712861C8F0B8FD6
:1024000086E08E8F84E08D8FDF91CF911F910F91A9
:102410000895CF93DF9300D000D01F92CDB7DEB7E1
:10242000789484B5826084BD84B5816084BD85B5AF
:10243000826085BD85B5816085BD80916E008160BB
:1024400080936E0010928100809181008260809361
:102450008100809181008160809381008091800063
:102460008160809380008091B10084608093B1008E
:102470008091B00081608093B00080917A00846088
:1024800080937A0080917A00826080937A008091B4
:102490007A00816080937A0080917A0080688093CE
:1024A0007A001092C100E091A403F091A50382E0AC
:1024B0008083E091A003F091A1031082E091A20338
:1024C000F091A3038FEC80831092AC03E091A803FA
:1024D000F091A90386E08083E091A603F091A70321
:1024E000808180618083E091A603F091A7038081C1
:1024F00088608083E091A603F091A70380818068C3
:102500008083E091A603F091A70380818F7D808373
:1025100063E573E084E993E00E94EC0F64E673E006
:1025200084E993E00E94EC0F61E08DE00E94970344
:102530000E94EF0D81E590E00E94850E61E08AE047
:102540000E94970320914D0430914E043A832983D1
:10255000F90183858F3F49F061E00E94970361E0B4
:10256000E981FA8183850E946903E981FA8180818A
:102570009181892B09F47AC00E94EF0D81E0E981F5
:10258000FA81838F61E0809150040E9497038091CB
:102590004F0487FD03C061E00E94970384E08093AD
:1025A000520488E280935104109253041092540410
:1025B0000E94110F1092550480915604833508F43F
:1025C00083E58093560410925704809158048F320B
:1025D00008F48FE2809358040E944F0F84E60E9413
:1025E000FA0E0E94C50F62E081E10E94970362E04B
:1025F0008FE00E94970362E080E10E94970362E00F
:1026000082E00E94970362E083E00E94970327EE36
:1026100034E03093020120930101809169008C7FA6
:10262000816080936900E89A30930401209303014C
:1026300080916900837F846080936900E99AB0E3A8
:102640002B2E312C8091890390918A030097C1F140
:10265000019709F4E5C380E090E0892B99F30E948B
:10266000D205882361F30E940000E9CF61E0E9818F
:10267000FA8184850E949703E981FA8182858B7FA4
:1026800060E019F061E0E981FA8184850E946903C4
:10269000E981FA8185858F3F49F061E00E949703C7
:1026A00061E0E981FA8185850E946903E981FA8107
:1026B00086858F3F09F462CF60E00E9497035ECF6A
:1026C0001D8211E0E3E0BE2EF2E0AF2EA7E08A2EDD
:1026D000912C8FB7F89420918C0330918D03409109
:1026E0008E0350918F0329833A834B835C838FBF82
:1026F000112309F4EEC00E94C50F40907A03509058
:102700007B0360907C0370907D0360917A037091ED
:102710007B0380917C0390917D0320E030E0A90150
:102720000E940B1A87FF1FC077FA709477F8709495
:10273000EE24E394F12C0AE010E024E030E04AE0DB
:1027400050E070E060E082E394E00E94510A0BE008
:1027500010E024E030E04BE050E070E060E082E325
:1027600094E00E94510AC301B2010E94821A6B01D7
:102770008B01072E000C880B990B0E94BA1A9B0143
:10278000AC01C301B2010E949E1920E030E048EC88
:1027900052E40E946F1B2B013C01B0924604B092A0
:1027A000470490923F0480923E041092410410929C
:1027B00040040A30110584F467E673E082E394E094
:1027C0000E94EC0F49E150E050933F0440933E04D7
:1027D0001092410410924004C6010E944710C301A8
:1027E000B2010E94821A6B0120E030E040E251E425
:1027F000C301B2010E940B1A30923F0420923E04A2
:10280000109241041092400487FF10C067E673E005
:1028100082E394E00E94EC0F82E490E090933F0406
:1028200080933E041092410410924004C6010E941D
:102830004710A0924604A092470486E290E090934D
:102840003F0480933E04E8E0F0E0F0934104E0931D
:10285000400469E673E082E394E00E94EC0F28E410
:1028600030E030933F0420933E0440E250E0509328
:102870004104409340046BE673E082E394E00E94DD
:10288000EC0F8091050190910601EE24E394F12C68
:1028900008E110E027E230E048E150E068E170E054
:1028A000019731F021E530E048E150E062E470E06A
:1028B00082E394E00E94510A51E050934604509301
:1028C00047048D8181110E94C50B0E946C0C0E94EF
:1028D0004F0F0E94450E80918303909184032091B5
:1028E00081033091820310E08217930709F479C0C5
:1028F000C0907A03D0907B03E0907C03F0907D033E
:10290000409181035091820320910501309106018D
:10291000841795070CF0D0C1409181035091820338
:10292000841795070CF05FC1409181035091820399
:102930000A96841795070CF056C12130310509F02D
:10294000A1C160917A0370917B0380917C03909187
:102950007D0320E030E040E251E40E949F19609343
:102960007A0370937B0380937C0390937D03609143
:102970007A0370917B0380917C0390917D0320E02A
:1029800030E040E251EC0E940B1A87FD19C26091C1
:102990007A0370917B0380917C0390917D0320E00A
:1029A00030E040E251E40E946A1B18160CF40DC29C
:1029B00080917A0390917B03A0917C03B0917D0379
:1029C00080937A0390937B03A0937C03B0937D0361
:1029D0008091810390918203909384038093830379
:1029E00011E09D81992309F499C06091850370914C
:1029F0008603809187039091880320E03FEF4FE7A3
:102A000057E40E946F1B20E030E040EA51E40E944E
:102A1000101A0E94891A6093720370937303809353
:102A200074039093750360917A0370917B03809196
:102A30007C0390917D0320E030E040E251E40E946D
:102A4000101A20E030E040E85FE30E949F1920E088
:102A500030E040E05FE30E946F1B20E03FEF4FE774
:102A600057E40E946F1B0E94891A6093760370934B
:102A70007703809378039093790360E08AE00E9463
:102A8000690385E50E947E0E83E090E30E94610E5B
:102A900061E08AE00E94690361E070E080E090E01C
:102AA0000E94B50460E08AE00E94690381E00E9410
:102AB0007E0E8091760390917703A0917803B09178
:102AC00079030E94610E61E08AE00E94690361E07F
:102AD00070E080E090E00E94B50420E140E050E02A
:102AE000BA0184E993E00E94FB0F64E673E084E995
:102AF00093E00E94EC0F4091760350917703609130
:102B000078037091790320E184E993E00E94FB0F40
:102B100064E673E084E993E00E94EC0F8091800307
:102B20008823B9F081E190E00E94250E882389F086
:102B300020910501309106012130310509F04AC18B
:102B4000E2E0F0E0F0930601E093050110928003CB
:102B5000182F80917F03882369F080E190E00E9424
:102B6000250E882339F0FD8121E0F227FD831092A4
:102B70007F03182F80917E03882309F432C18FE0F0
:102B800090E00E94250E882309F42BC181E090E09B
:102B900090938A038093890360E08AE00E9469032E
:102BA00085E50E947E0E83E090E20E94610E61E066
:102BB0008AE00E94690361E070E080E090E00E949A
:102BC000B50420E143E050E260E070E084E993E086
:102BD0000E94FB0F64E673E084E993E00E94EC0F2F
:102BE00010927E0338CD2130310509F058C0609134
:102BF0007A0370917B0380917C0390917D0320E0A8
:102C000030E040E85FE30E949F1960937A0370937D
:102C10007B0380937C0390937D0320E030E0A90147
:102C2000C701B6010E940B1A87FFA1CE20E030E059
:102C300040E85FEBC701B6010E946A1B18160CF052
:102C400096CE20917A0330917B0340917C03509182
:102C50007D03C701B6010E940B1A87FF88CE409002
:102C60007A0350907B0360907C0370907D0320E09A
:102C700030E040E050ECC701B6010E946F1BA30199
:102C800092016BCE60917A0370917B0380917C03FB
:102C900090917D032DEC3CEC4CEC5DE35ECE6091BD
:102CA0007A0370917B0380917C0390917D032AE0ED
:102CB00037ED43E25CE351CE4091810350918203B2
:102CC000481759074CF440918103509182030A97A9
:102CD000481759070CF450C02130310509F063C082
:102CE00060917A0370917B0380917C0390917D03C6
:102CF00020E030E040E85FE30E949E1960937A0391
:102D000070937B0380937C0390937D0320E030E0FD
:102D1000A901C701B6010E946A1B18160CF027CE44
:102D200020E030E040E85FE3C701B6010E940B1AE3
:102D300087FF1DCE20917A0330917B0340917C0365
:102D400050917D03C701B6010E946A1B18160CF052
:102D50000ECE40907A0350907B0360907C0370907D
:102D60007D03A7019601C701B6010E949F199B012F
:102D7000AC01C301B2010FC060917A0370917B0373
:102D800080917C0390917D032130310539F420E05E
:102D900030E040E251E40E949E19E1CD2DEC3CEC84
:102DA0004CEC5DE3F8CF60917A0370917B038091E6
:102DB0007C0390917D032AE037ED43E25CE3EBCFA7
:102DC00080E090E0A0E2B1ECFBCD80E090E0A0E2FA
:102DD000B1E4F6CD2150310930930601209305016D
:102DE000B5CE2FB7F89480918C0390918D03A0916C
:102DF0008E03B0918F032FBF29813A814B815C8173
:102E0000821B930BA40BB50B4997A105B10508F0E4
:102E100060CC62E070E080E090E00E94B504E1CF19
:102E20001D8211E033E0B32E42E0A42E57E0852E40
:102E3000912C8FB7F89420918C0330918D034091A1
:102E40008E0350918F0329833A834B835C838FBF1A
:102E5000112309F4C8C060918503709186038091A5
:102E60008703909188030E94821A6B018B01409026
:102E70008503509086036090870370908803072E27
:102E8000000C880B990B0E94BA1A9B01AC01C3017C
:102E9000B2010E949E1920E030E048EC52E40E940A
:102EA0006F1B2B013C010E94C50FB0924604B092EB
:102EB000470490923F0480923E0410924104109285
:102EC00040040A30110584F467E673E082E394E07D
:102ED0000E94EC0F49E150E050933F0440933E04C0
:102EE0001092410410924004C6010E944710C30191
:102EF000B2010E94821A6B0120E030E040E151E40F
:102F0000C301B2010E940B1A30923F0420923E048A
:102F10001092410410924004181684F067E673E0A2
:102F200082E394E00E94EC0F82E490E090933F04EF
:102F300080933E041092410410924004C6010E9406
:102F40004710A0924604A092470486E290E0909336
:102F50003F0480933E04E8E0F0E0F0934104E09306
:102F6000400469E673E082E394E00E94EC0F2CE3F6
:102F700030E030933F0420933E0440E250E0509311
:102F80004104409340046DE673E082E394E00E94C4
:102F9000EC0F8091050190910601EE24E394F12C51
:102FA00008E110E027E230E048E150E068E170E03D
:102FB000019731F021E530E048E150E062E470E053
:102FC00082E394E00E94510A51E0509346045093EA
:102FD00047048D81882309F4C2C00E94C50B0E945A
:102FE0006C0C0E944F0F0E94450E809183039091BC
:102FF0008403209181033091820310E082179307AC
:1030000009F470C040918103509182032091050121
:1030100030910601841795070CF0CEC040918103D2
:1030200050918203841795070CF09CC04091810356
:10303000509182030A96841795070CF093C02130B3
:10304000310509F09FC060918503709186038091DE
:1030500087039091880320E030E040E251E40E9431
:103060009F196093850370938603809387039093E1
:103070008803609185037091860380918703909106
:10308000880320E030E0A9010E940B1A87FDD7C019
:1030900060918503709186038091870390918803E6
:1030A00020E030E040EC51E40E946A1B18160CF45A
:1030B000CAC08091850390918603A0918703B09147
:1030C00088038093850390938603A0938703B0932E
:1030D000880380918103909182039093840380936D
:1030E000830311E0809180038823B9F081E190E0AF
:1030F0000E94250E882389F0209105013091060158
:103100002130310509F0A4C0E2E0F0E0F0930601BF
:10311000E093050110928003182F80917F0388238C
:1031200069F080E190E00E94250E882339F0FD814E
:1031300021E0F227FD8310927F03182F80917E03F8
:10314000882309F48CC08FE090E00E94250E88232C
:1031500009F485C010928A031092890341CD0E9420
:10316000C50B3FCF21303105D1F4609185037091BB
:103170008603809187039091880320E030E040E847
:103180005FE36DCF60918503709186038091870323
:10319000909188032DEC3CEC4CEC5DE360CF6091AA
:1031A00085037091860380918703909188032AE0BC
:1031B00037ED43E25CE353CF4091810350918203AA
:1031C0004817590744F440918103509182030A97AC
:1031D0004817590784F02130310521F560918503A6
:1031E00070918603809187039091880320E030E0FE
:1031F00040E85FE30FC06091850370918603809182
:103200008703909188032130310539F420E030E0C4
:1032100040E251E40E949E1924CF2DEC3CEC4CEC92
:103220005DE3F8CF609185037091860380918703F9
:10323000909188032AE037ED43E25CE3EBCF80E036
:1032400090E0DC013ECF80E090E0A0ECB1E439CF2B
:103250002150310930930601209305015BCF2FB730
:10326000F89480918C0390918D03A0918E03B0917E
:103270008F032FBF29813A814B815C81821B930B85
:10328000A40BB50B4997A105B10508F0D2CD62E0BA
:1032900070E080E090E00E94B504E1CF97FB072E3C
:1032A00016F4009407D077FD09D00E94841907FC1A
:1032B00005D03EF4909581959F4F08957095619546
:1032C0007F4F0895A1E21A2EAA1BBB1BFD010DC062
:1032D000AA1FBB1FEE1FFF1FA217B307E407F507C6
:1032E00020F0A21BB30BE40BF50B661F771F881FA2
:1032F000991F1A9469F760957095809590959B0138
:10330000AC01BD01CF010895AA1BBB1B51E107C051
:10331000AA1FBB1FA617B70710F0A61BB70B881F65
:10332000991F5A95A9F780959095BC01CD010895F4
:10333000EE0FFF1F0590F491E02D09945058BB2724
:10334000AA270E94B6190C94301B0E94221B38F049
:103350000E94291B20F039F49F3F19F426F40C94A5
:103360001F1B0EF4E095E7FB0C94191BE92F0E943C
:10337000411B58F3BA17620773078407950720F0BB
:1033800079F4A6F50C94631B0EF4E0950B2EBA2F7E
:10339000A02D0B01B90190010C01CA01A00111245B
:1033A000FF27591B99F0593F50F4503E68F11A1607
:1033B000F040A22F232F342F4427585FF3CF469598
:1033C00037952795A795F0405395C9F77EF41F16BA
:1033D000BA0B620B730B840BBAF09150A1F0FF0F84
:1033E000BB1F661F771F881FC2F70EC0BA0F621F70
:1033F000731F841F48F4879577956795B795F79560
:103400009E3F08F0B0CF9395880F08F09927EE0FF4
:103410009795879508950E94F51A08F481E008951C
:103420000E94241A0C94301B0E94291B58F00E9401
:10343000221B40F029F45F3F29F00C94191B511115
:103440000C94641B0C941F1B0E94411B68F399236E
:10345000B1F3552391F3951B550BBB27AA27621790
:103460007307840738F09F5F5F4F220F331F441F9D
:10347000AA1FA9F335D00E2E3AF0E0E832D09150D1
:103480005040E695001CCAF72BD0FE2F29D0660FBE
:10349000771F881FBB1F261737074807AB07B0E801
:1034A00009F0BB0B802DBF01FF2793585F4F3AF007
:1034B0009E3F510578F00C94191B0C94641B5F3FE0
:1034C000E4F3983ED4F3869577956795B795F7958D
:1034D0009F5FC9F7880F911D9695879597F9089575
:1034E000E1E0660F771F881FBB1F62177307840711
:1034F000BA0720F0621B730B840BBA0BEE1F88F720
:10350000E09508950E94891A6894B1110C94641B87
:1035100008950E94491B88F09F5798F0B92F99276A
:10352000B751B0F0E1F0660F771F881F991F1AF0AE
:10353000BA95C9F714C0B13091F00E94631BB1E095
:1035400008950C94631B672F782F8827B85F39F094
:10355000B93FCCF3869577956795B395D9F73EF447
:1035600090958095709561957F4F8F4F9F4F0895EF
:10357000E89409C097FB3EF490958095709561950D
:103580007F4F8F4F9F4F9923A9F0F92F96E9BB27C3
:103590009395F695879577956795B795F111F8CF3F
:1035A000FAF4BB0F11F460FF1BC06F5F7F4F8F4FAA
:1035B0009F4F16C0882311F096E911C0772321F0A0
:1035C0009EE8872F762F05C0662371F096E8862F38
:1035D00070E060E02AF09A95660F771F881FDAF78F
:1035E000880F9695879597F90895990F0008550FBC
:1035F000AA0BE0E8FEEF16161706E807F907C0F079
:1036000012161306E407F50798F0621B730B840B80
:10361000950B39F40A2661F0232B242B252B21F45A
:1036200008950A2609F4A140A6958FEF811D811DFA
:10363000089597F99F6780E870E060E008959FEF34
:1036400080EC089500240A94161617061806090639
:10365000089500240A941216130614060506089508
:10366000092E0394000C11F4882352F0BB0F40F490
:10367000BF2B11F460FF04C06F5F7F4F8F4F9F4FD0
:10368000089557FD9058440F551F59F05F3F71F052
:103690004795880F97FB991F61F09F3F79F08795B9
:1036A0000895121613061406551FF2CF4695F1DF42
:1036B00008C0161617061806991FF1CF86957105D2
:1036C000610508940895E894BB2766277727CB0106
:1036D00097F908950E94F51A08F48FEF08950E9453
:1036E000821B0C94301B0E94221B38F00E94291B65
:1036F00020F0952311F00C94191B0C941F1B11241E
:103700000C94641B0E94411B70F3959FC1F3950FAD
:1037100050E0551F629FF001729FBB27F00DB11D55
:10372000639FAA27F00DB11DAA1F649F6627B00DE5
:10373000A11D661F829F2227B00DA11D621F739FCE
:10374000B00DA11D621F839FA00D611D221F749FDC
:103750003327A00D611D231F849F600D211D822F23
:10376000762F6A2F11249F5750409AF0F1F088234A
:103770004AF0EE0FFF1FBB1F661F771F881F915077
:103780005040A9F79E3F510580F00C94191B0C94F2
:10379000641B5F3FE4F3983ED4F386957795679575
:1037A000B795F795E7959F5FC1F7FE2B880F911DA1
:1037B0009695879597F908950F931F93CF93DF936D
:1037C0008230910510F482E090E0E0916304F09182
:1037D000640430E020E0B0E0A0E0309799F42115D7
:1037E000310509F44AC0281B390B24303105D8F5BE
:1037F0008A819B816115710589F1FB019383828325
:10380000FE0111C04081518102811381481759077F
:10381000E0F04817590799F4109761F012960C934D
:10382000129713961C933296CF01DF91CF911F917F
:103830000F9108950093630410936404F4CF21154D
:10384000310551F04217530738F0A901DB019A0105
:10385000BD01DF01F801C1CFEF01F9CF90936404FE
:1038600080936304CDCFFE01E20FF31F8193919308
:103870002250310939832883D7CF209161043091B8
:103880006204232B41F42091010330910203309311
:103890006204209361042091FF02309100032115FE
:1038A000310541F42DB73EB7409103035091040315
:1038B000241B350BE0916104F0916204E217F307D9
:1038C000A0F42E1B3F0B2817390778F0AC014E5F90
:1038D0005F4F2417350748F04E0F5F1F5093620467
:1038E00040936104819391939FCFF0E0E0E09CCFFF
:1038F000CF93DF930097E9F0FC0132971382128295
:10390000A0916304B0916404ED0130E020E01097D1
:10391000A1F420813181820F931F209161043091A5
:1039200062042817390709F061C0F0936204E0933C
:103930006104DF91CF910895EA01CE17DF07E8F522
:103940004A815B819E0141155105B1F7E901FB8375
:10395000EA8349915991C40FD51FEC17FD0761F413
:10396000808191810296840F951FE9019983888354
:10397000828193819B838A83F0E0E0E012968D91AF
:103980009C9113970097B9F52D913C911197CD011A
:103990000296820F931F20916104309162042817D0
:1039A000390739F6309751F5109264041092630488
:1039B000B0936204A0936104BCCFD383C2834081DF
:1039C0005181840F951FC817D90761F44E5F5F4F6F
:1039D00088819981480F591F518340838A819B8137
:1039E000938382832115310509F0B0CFF0936404ED
:1039F000E09363049ECFFD01DC01C0CF13821282ED
:103A0000D7CF81E090E0F8940C94061DF894FFCF96
:103A100003670567050100000000000000000000CA
:103A20000000000000000000000000000000000096
:103A300000000000000000000000000000C0E0F0F6
:103A4000F8FCFCFEFFFCE0000000000000000000AD
:103A50000000000000000000000000000000000066
:103A60000000000000000000000000000000000056
:103A7000000000000000000000000000F8F8F8F866
:103A8000F8F8F8F8F8F8F8F8F0F0E0E0C080C0FCDA
:103A9000FFFFFFFF7F3F7FFFFFFFFFFF00000000F2
:103AA0000000000000000000000000000000000016
:103AB0000000000000000000000000000000000006
:103AC00000000000000000000000000000000000F6
:103AD000000F1F3F7FFFFFFFFFFFFFFFFFE7C7C78D
:103AE000878F9F9FFFFFFFC1C0E0FCFFFFFFFFFF2D
:103AF000FCFCFCFCFEFEFEFCFCF8F8F0E0C0C000A4
:103B000000000000000000000000000000000000B5
:103B100000000000000000000000000000000000A5
:103B2000000000000000000080C0E0F1FBFFFFFF8C
:103B3000FFFF7F1F0F0F87E7FFFFFF1F1F3FF9F8F2
:103B4000F8F8F8F8F8FDFFFFFFFFFFFFFFFFFF7F2A
:103B50003F0F07010000000000000000000000000F
:103B60000000000000000000000000000000000055
:103B700000000000000000000000F0FEFFFFFFFF5B
:103B8000FFFFFFFFFFFFFE7E3F3F0F1FFFFFFFFC1A
:103B9000F0E0F1FFFFFFFFFFFCF001010101010177
:103BA0000101000000000000000000000000000013
:103BB0000000000000000000000000000000000005
:103BC00000000000000000000000000000000303EF
:103BD00003030303030301010101000000000000CF
:103BE00000030F1F3F7F7FFFFFFFFF7F7F1F03004B
:103BF00000000000000000000000000000000000C5
:103C000000000000000000000000000000000000B4
:103C1000006504800000FF0100010000FFFF0000BC
:103C2000010001FF00000000000806680595055529
:103C300006C605A405B8050000000020096805ECCB
:103C40000DEB0D75061603650C9D0BB90BAD0B3E08
:103C50000D1603E606B40F640B2B0BE60AC90A51D6
:103C60000AF20944454242554720424547494E2001
:103C7000212121000D0A0030002E0056006D410068
:00000001FF
