:100000000C94E2020C9495110C946E110C940A035A
:100010000C940A030C940A030C940A030C940A032C
:100020000C940A030C940A030C940A030C940A031C
:100030000C940A030C940A030C940A030C940A030C
:100040000C9424110C940A030C94E2110C94BC112E
:100050000C940A030C940A030C940A030C940A03EC
:100060000C940A030C940A0300000000003E5B4F4E
:100070005B3E3E6B4F6B3E1C3E7C3E1C183C7E3C08
:10008000181C577D571C1C5E7F5E1C00183C180016
:10009000FFE7C3E7FF0018241800FFE7DBE7FF30A6
:1000A000483A060E2629792926407F050507407F14
:1000B00005253F5A3CE73C5A7F3E1C1C08081C1C87
:1000C0003E7F14227F22145F5F005F5F06097F017D
:1000D0007F006689956A606060606094A2FFA29468
:1000E00008047E040810207E201008082A1C080836
:1000F0001C2A08081E101010100C1E0C1E0C303884
:100100003E3830060E3E0E06000000000000005F84
:1001100000000007000700147F147F14242A7F2AA0
:100120001223130864623649562050000807030062
:10013000001C2241000041221C002A1C7F1C2A08AE
:10014000083E080800807030000808080808000011
:1001500060600020100804023E5149453E00427F85
:10016000400072494949462141494D331814127FD4
:100170001027454545393C4A494931412111090774
:100180003649494936464949291E000014000000F5
:1001900040340000000814224114141414140041C7
:1001A00022140802015909063E415D594E7C121184
:1001B000127C7F494949363E414141227F414141BC
:1001C0003E7F494949417F090909013E4141517337
:1001D0007F0808087F00417F41002040413F017FA8
:1001E000081422417F404040407F021C027F7F0470
:1001F00008107F3E4141413E7F090909063E4151B9
:10020000215E7F09192946264949493203017F01A8
:10021000033F4040403F1F2040201F3F4038403FA9
:10022000631408146303047804036159494D4300BF
:100230007F4141410204081020004141417F0402F6
:10024000010204404040404000030708002054548D
:1002500078407F284444383844444428384444286B
:100260007F385454541800087E090218A4A49C78BE
:100270007F0804047800447D40002040403D007F1A
:100280001028440000417F40007C047804787C08FA
:100290000404783844444438FC18242418182424CE
:1002A00018FC7C08040408485454542404043F44B3
:1002B000243C4040207C1C2040201C3C4030403CE2
:1002C00044281028444C9090907C4464544C440042
:1002D00008364100000077000000413608000201A6
:1002E0000204023C2623263C1EA1A161123A404092
:1002F000207A38545455592155557941225454780F
:1003000042215554784020545579400C1E527212A7
:100310003955555559395454545939555454580030
:1003200000457C410002457D420001457C407D1234
:1003300011127DF0282528F07C5455450020545496
:100340007C547C0A097F4932494949323A44444441
:100350003A324A4848303A4141217A3A424020787C
:10036000009DA0A07D3D4242423D3D4040403D3C7D
:1003700024FF2424487E4943662B2FFC2F2BFF09A2
:1003800029F620C0887E0903205454794100004496
:100390007D413048484A32384040227A007A0A0A81
:1003A000727D0D19317D2629292F282629292926F4
:1003B00030484D4020380808080808080808382F39
:1003C00010C8ACBA2F102834FA00007B00000814C3
:1003D0002A142222142A14085500550055AA55AA99
:1003E00055AAFF55FF55FF000000FF00101010FF39
:1003F00000141414FF001010FF00FF1010F010F094
:10040000141414FC001414F700FF0000FF00FF1484
:1004100014F404FC141417101F10101F101F1414D0
:10042000141F00101010F0000000001F101010101A
:100430001F10101010F010000000FF10101010100E
:1004400010101010FF10000000FF140000FF00FF4C
:1004500000001F10170000FC04F4141417101714E8
:1004600014F404F40000FF00F7141414141414140A
:10047000F700F7141414171410101F101F1414147D
:10048000F4141010F010F000001F101F0000001FE7
:1004900014000000FC140000F010F01010FF10FF1A
:1004A000141414FF141010101F00000000F010FFAF
:1004B000FFFFFFFFF0F0F0F0F0FFFFFF0000000093
:1004C00000FFFF0F0F0F0F0F3844443844FC4A4A17
:1004D0004A347E02020606027E027E0263554941CC
:1004E000633844443C04407E201E2006027E020203
:1004F00099A5E7A5991C2A492A1C4C7201724C3017
:100500004A4D4D303048784830BC625A463D3E49ED
:100510004949007E0101017E2A2A2A2A2A44445F91
:10052000444440514A444040444A51400000FF0185
:1005300003E080FF000008086B6B08361236243693
:10054000060F090F060000181800000010100030F8
:1005500040FF0101001F01011E00191D1712003C80
:100560003C3C3C000000000000000000240027008C
:100570002A0000000000250028002B0000000000D9
:1005800023002600290004040404040404040202D5
:100590000202020203030303030301020408102002
:1005A000408001020408102001020408102000000D
:1005B0000008000201000003040700000000000022
:1005C0000000141211241FBECFEFD8E0DEBFCDBF54
:1005D00013E0A0E0B1E0E0EFFAE302C005900D9275
:1005E000A237B107D9F724E0A2E7B3E001C01D921A
:1005F000A736B207E1F712E0C2EED2E004C02197BD
:10060000FE010E94081AC13ED107C9F70E94B2122A
:100610000C94761D0C940000FC0120812EBD0DB4BD
:1006200007FEFDCF2EB5FC01208308950895833089
:1006300081F028F4813099F08230A9F00895873054
:10064000A9F08830C9F08430B1F4809180008F7DAA
:1006500003C0809180008F7780938000089584B5D7
:100660008F7784BD089584B58F7DFBCF8091B000D6
:100670008F778093B00008958091B0008F7DF9CF7F
:10068000CF93DF93282F30E0F901E255FA4F8491A0
:10069000F901E656FA4FD491F901EA57FA4FC4919D
:1006A000CC23A1F081110E941703EC2FF0E0EE0F94
:1006B000FF1FE458FA4FA591B491EC91ED2381E02E
:1006C00090E009F480E0DF91CF91089580E090E020
:1006D000FACF1F93CF93DF93282F30E0F901E25533
:1006E000FA4F8491F901E656FA4FD491F901EA578D
:1006F000FA4FC491CC23A9F0162F81110E94170341
:10070000EC2FF0E0EE0FFF1FEE58FA4FA591B491D9
:100710008FB7F894EC91111108C0D095DE23DC93CB
:100720008FBFDF91CF911F910895DE2BF8CFCF932C
:10073000DF9390E0FC01E656FA4F24918A579A4FD6
:10074000FC0184918823C9F090E0880F991FFC0177
:10075000E859FA4FA591B491FC01EE58FA4FC591B2
:10076000D49161110DC09FB7F8948C91209582238C
:100770008C938881282328839FBFDF91CF91089590
:10078000623051F49FB7F8943C91822F8095832377
:100790008C93E8812E2BEFCF8FB7F894EC912E2B12
:1007A0002C938FBFEACF8230910538F0880F991FC4
:1007B000880F991F05970197F1F708959F92AF92BF
:1007C000BF92CF92DF92EF92FF920F931F93CF933E
:1007D000DF93EC016B018885998511E0892B09F085
:1007E00010E8F601A0808A2D812399249394811129
:1007F000912C2C813D814E815F8160E271EA87E01E
:1008000090E00E94D219022FB12CE22EF12C00238D
:1008100019F0C7010E94D3038A85877F09F04FC072
:100820008D858F3F89F09A2D912381E009F480E036
:10083000891551F0EF85F8898F899923D1F190813D
:10084000892B808399249394E989FA898081998DF1
:10085000892B8083002319F0C7010E94D3038E8562
:100860008F3F39F0EB89FC898081988D892309F0CD
:10087000B12AE989FA899081898D809589238083BD
:100880008E858F3F11F0F601B08288859985892B7E
:1008900009F044C0110F1111BACFDF91CF911F9110
:1008A0000F91FF90EF90DF90CF90BF90AF909F900F
:1008B00008959081809589238083912CC5CFE98903
:1008C000FA898081998D892B8083002319F0C701D3
:1008D0000E94D3038D858F3F49F0EF85F8898F897A
:1008E0009A2D9123B9F09081892B8083E989FA8927
:1008F0009081898D8095892380838E858F3F09F42F
:10090000BFCFEB89FC898081988D892309F4B8CF0A
:10091000B12AB6CF908180958923E7CF1695BBCFBA
:100920003FB7F8948091820390918303A091840350
:10093000B091850326B5A89B05C02F3F19F00196FD
:10094000A11DB11D3FBFBA2FA92F982F8827BC0129
:10095000CD01620F711D811D911D42E0660F771F51
:10096000881F991F4A95D1F708958F929F92AF9251
:10097000BF92CF92DF92EF92FF924B015C010E94F7
:1009800090046B017C010E9490046C197D098E0912
:100990009F09683E734081059105A8F328EEC20EB9
:1009A00023E0D21EE11CF11C8A9489288A288B2816
:1009B00029F0812C912C54018394E5CFFF90EF9086
:1009C000DF90CF90BF90AF909F908F9008950F933E
:1009D0001F93CF93DF93C0910001CC0FCC0FC09336
:1009E000000182E00E944003892B19F0C260C0938D
:1009F000000183E00E944003892B29F080910001CF
:100A0000816080930001E0910001EF70F0E0EB5F06
:100A1000FC4F808190917203890F80937203843020
:100A200094F10E94900400915F0410916004209161
:100A3000610430916204601B710B820B930BC1E067
:100A4000D0E0603C764C8D42910510F4CAE0D0E0D5
:100A50000E94900460935F0470936004809361042B
:100A60009093620480917703909178038C0F9D1F7F
:100A7000909378038093770310927203DF91CF9164
:100A80001F910F9108958D3FCCF70E949004009123
:100A90005B0410915C0420915D0430915E04601B46
:100AA000710B820B930BCFEFDFEF603C764C8D42E6
:100AB000910510F4C6EFDFEF0E94900460935B0491
:100AC00070935C0480935D0490935E04CBCF089593
:100AD000AF92BF92CF92DF92EF92FF920F931F934C
:100AE000CF93DF936C017B018B01040F151FEB018A
:100AF0005E01AE18BF08C017D10759F06991D60141
:100B0000ED91FC910190F081E02DC6010995892BB2
:100B100079F7C501DF91CF911F910F91FF90EF9071
:100B2000DF90CF90BF90AF900895FC01538D448D1E
:100B3000252F30E0842F90E0821B930B541710F088
:100B4000CF96089501970895FC01918D828D981795
:100B500061F0A28DAE0FBF2FB11D5D968C91928D6D
:100B60009F5F9F73928F90E008958FEF9FEF08959E
:100B7000FC01918D828D981731F0828DE80FF11D67
:100B8000858D90E008958FEF9FEF0895FC01918D82
:100B9000228D892F90E0805C9F4F821B91098F737B
:100BA0009927089586E993E00E94C60521E0892BE4
:100BB00009F420E0822F089580E090E0892B29F04D
:100BC0000E94D20581110C9400000895FC01A48DAF
:100BD000A80FB92FB11DA35ABF4F2C91848D90E05F
:100BE00001968F739927848FA689B7892C93A08942
:100BF000B1898C91837080648C93938D848D9813CC
:100C000006C00288F389E02D80818F7D808308955E
:100C1000EF92FF920F931F93CF93DF93EC0181E04C
:100C2000888F9B8D8C8D98131AC0E889F9898081F3
:100C300085FF15C09FB7F894EE89FF896083E88926
:100C4000F98980818370806480839FBF81E090E018
:100C5000DF91CF911F910F91FF90EF900895F62EA5
:100C60000B8D10E00F5F1F4F0F731127E02E8C8D3F
:100C70008E110CC00FB607FCFACFE889F989808184
:100C800085FFF5CFCE010E94E605F1CFEB8DEC0F8D
:100C9000FD2FF11DE35AFF4FF0829FB7F8940B8FA1
:100CA000EA89FB8980818062CFCFCF93DF93EC010B
:100CB000888D8823B9F0AA89BB89E889F9898C9144
:100CC00085FD03C0808186FD0DC00FB607FCF7CF00
:100CD0008C9185FFF2CF808185FFEDCFCE010E9400
:100CE000E605E9CFDF91CF910895FC0177FD55C06E
:100CF00080859185681779070CF04FC057FD4DC06E
:100D000082859385481759070CF047C08689823041
:100D100009F444C0833009F44EC0813031F48FE2CD
:100D200090E0861B970BBA01AC01842FA62F93A1EC
:100D3000691708F4962F93A394A19A1708F49A2F91
:100D400094A395A1891708F4982F95A396A19817B5
:100D500008F4982F96A3CA0157FD0796E3E09595EE
:100D60008795EA95E1F7A4E5A89FF001A99FF00D0A
:100D70001124E60FF71FE95FFE4FCA0168E070E03B
:100D80000E94BE1941E050E001C0440F8A95EAF785
:100D90008081232BB9F0842B8083089583E590E034
:100DA000DC01A61BB70BBD018FE290E0DC01A41BA8
:100DB000B50BAD01BACF83E590E0841B950BAB0179
:100DC000BC01B3CF40958423E7CF0895FC01637045
:100DD000668B8481958126813781613039F063305B
:100DE00029F091878087338722870895318720876C
:100DF0009387828708952F923F924F925F926F92CE
:100E00007F928F929F92AF92BF92CF92DF92EF929A
:100E1000FF920F931F93CF93DF93CDB7DEB76A97FF
:100E20000FB6F894DEBF0FBECDBF9A8F898F7A833D
:100E300069834A01D22E18870F833701BC2CDC014D
:100E400059962D913C915A972115310509F015C1FC
:100E500018968D919C911997681779070CF0D7C156
:100E60001A968D919C91481759070CF0D0C14C2CC3
:100E7000512CB6E0CB9E600D711D11247C876B87D1
:100E8000161617060CF0C3C1EA2DF0E0FA87E987C1
:100E900093E0EE0FFF1F9A95E1F7F88BEF87CF01F4
:100EA000840F951F181619060CF0B1C1A98DBA8DC3
:100EB00058968C91811104C0BFEABD1508F4D394F3
:100EC000A98DBA8DED91FC9111970284F385E02DE7
:100ED000CD010995B5E0DB9EC0011124E981FA81BD
:100EE000FC83EB83312C212C9C0128593F4F388FF8
:100EF0002F8B4A2D50E05E8B4D8BEF89F88DE20DE4
:100F0000F31D44919E828D82D12CC12C69817A81FE
:100F1000620D731D7A8B698B842F90E09C8B8B8B79
:100F2000E98DFA8DA081B18140FF82C0F1E0BF124E
:100F30006FC0AF126DC01C96ED91FC912F8138856A
:100F4000A4014C0D5D1D69897A89898D9A8D099559
:100F5000EB89FC89F595E7954E2F5FEFC51AD50A09
:100F60006D817E818D899E89680F791F7E836D8357
:100F700098E0C916D10481F6AFEF2A1A3A0AEB813C
:100F8000FC81E40DF51DFC83EB83F5E02F163104A5
:100F900009F0B3CF2F81388526153705B9F0A98D13
:100FA000BA8DED91FC91B1E0BB1257C0AB1255C0A8
:100FB00069817A816B5F7F4F0088F189E02D830121
:100FC00028E030E0A401898D9A8D0995A98DBA8D0C
:100FD000ED91FC9111970688F789E02DCD016A9675
:100FE0000FB6F894DEBF0FBECDBFDF91CF911F913A
:100FF0000F91FF90EF90DF90CF90BF90AF909F90B8
:101000008F907F906F905F904F903F902F900994BA
:101010001E96ED91FC91EF80F88409851A85920166
:101020004D815E816B817C81898D9A8D099590CFF0
:101030002F8138852615370509F48ACF31E0B312A0
:1010400007C0A31205C01C96ED91FC91930178CFC7
:101050001E96ED91FC917301E0CF6B857C85641940
:1010600075090684F785E02D73010F8518899201B3
:10107000A401898D9A8D0995A9CFF901349694918F
:10108000329745915491D91AB7E0DB9E400D511D1E
:101090001124F901259134913C8B2B8BFA01259079
:1010A0003490FA013296749031963491398B32969D
:1010B00064903196449041E04C1518F04A1508F0C0
:1010C0007FC0662D062C000C770B7C836B83842DF0
:1010D000042C000C990B9E838D83A98DBA8DED9104
:1010E000FC9111970284F385E02DCD010995512CD7
:1010F000D12CC12CEA2DF0E0FA87E9872B2D30E0C6
:101100003C872B87A401440D511D47FC5A95588FED
:101110004F8B69817A81660D711D67FC7A957E8798
:101120006D877989C71608F051CF2C2D30E04D819D
:101130005E81420F531FA985BA854A9FC0014B9F0C
:10114000900D5A9F900D1124FC01E80DF91DF88BAC
:10115000EF87852D612C4F89588D420F531F5E8B71
:101160004D8B671408F050C044244394480E877098
:1011700041F4C1010196EB89FC89E20DF31DD49085
:101180001C01D7FE19C0A98DBA8DED91FC91662D79
:1011900070E0B1E0BB1219C0AB1217C02D853E85BF
:1011A000620F731F0484F585E02D2F8138854D89EA
:1011B0005E89898D9A8D0995DD0C6394842DD1CF3C
:1011C0001E821D821C821B8288CF4B815C81640F32
:1011D000751FAB85BC856A9FC0016B9F900D7A9F80
:1011E000900D112469817A81680F791F0684F78533
:1011F000E02DEF80F88409851A859D014F85588977
:10120000898D9A8D0995D8CF570CC3948ACF6A9649
:101210000FB6F894DEBF0FBECDBFDF91CF911F9107
:101220000F91FF90EF90DF90CF90BF90AF909F9085
:101230008F907F906F905F904F903F902F90089588
:101240008F929F92AF92CF92EF92FF920F931F9344
:10125000CF93DF93EC01262F898D9A8D009709F0AB
:1012600051C06A30D1F41D861C868D8948E0849F68
:10127000900111248E859F85820F931F9F878E87F3
:1012800081E090E0DF91CF911F910F91FF90EF905F
:10129000CF90AF909F908F9008956D3089F3CC8858
:1012A000AD888F898823C1F08C859D8536E0C39EEB
:1012B000800D911D1124488559854817590764F4FC
:1012C0004E855F851D861C8638E0A39EC0011124D3
:1012D000840F951F9F878E87EA88FB880889198964
:1012E0004E855F856C857D85CE010E94FB062C892D
:1012F0008C859D8546E0249F800D911D11249D873E
:101300008C87BECF6A3069F41D861C86FC01389636
:10131000E4912D898E859F85E29F800D911D11247A
:10132000ADCF6D3009F4ACCFFC0134963491631726
:1013300008F4A6CF3296E491E61708F4A1CFFC0199
:10134000329685909490462F431B342F47E0349F6C
:10135000800C911C1124F401329634913196E49161
:101360003323A9F1EE2399F1CC88F4013596E49169
:10137000AD884F89442301F10E2E000CFF0BE30FC3
:10138000F11DCE9EA001CF9E500D11246C857D8550
:10139000460F571F68857985641775076CF44E856D
:1013A0005F851D861C86FC013896E491AE9E400D3B
:1013B000511D11245F874E87EA88FB8808891989A7
:1013C0004E855F856C857D85CE010E94FB06F4010C
:1013D0003496E4912C898C859D85E29F800D911D2A
:1013E00011248DCF6F927F928F929F92AF92BF9276
:1013F000CF92DF92EF92FF920F931F93CF93DF93E1
:10140000EC016B015A0139014801E881F98102843C
:10141000F385E02D0995E881F9810288F389E02DB3
:1014200087019301A501B601CE010995A501480DDB
:10143000591D41505109E881F9810288F389E02D55
:101440009301B601CE010995E881F9810088F189FF
:10145000E02D9401A501B601CE010995C60CD71C5B
:10146000B60161507109E881F9810088F189E02DA8
:101470009401A501CE010995E881F9810688F789D3
:10148000E02DCE01DF91CF911F910F91FF90EF9052
:10149000DF90CF90BF90AF909F908F907F906F9094
:1014A00009946F927F928F929F92AF92BF92CF9248
:1014B000DF92EF92FF920F931F93CF93DF935C0124
:1014C000EB016A01490138018701DC01ED91FC91D2
:1014D0006217730719F5641675062CF0962D872D83
:1014E0003A01C92ED82E9601261937092F5F3F4F92
:1014F000048CF58DE02DA301BE01C5010995DF9196
:10150000CF911F910F91FF90EF90DF90CF90BF9000
:10151000AF909F908F907F906F90089546155705DC
:1015200091F42617370724F0892D4B01C22FD82FAD
:101530009E01281939092F5F3F4F068CF78DE02D4A
:10154000A601B401DACF0284F385E02D0995D50117
:10155000ED91FC910488F589E02D83019401A601A9
:10156000BE01C5010995D501ED91FC910688F78969
:10157000E02DC501DF91CF911F910F91FF90EF906A
:10158000DF90CF90BF90AF909F908F907F906F90A3
:101590000994EF92FF920F931F93DC011A960D911D
:1015A0001C911B9718962D913C911997ED91FC91E8
:1015B00000A0F1A1E02D7B0150E040E070E060E090
:1015C00009951F910F91FF90EF9008954F925F92B0
:1015D0006F927F928F929F92AF92BF92CF92DF9243
:1015E000EF92FF920F931F93CF93DF936C012B0128
:1015F0005A0139014801DC01ED91FC910284F38527
:10160000E02D0995E201640C751CD601ED91FC9169
:10161000C615D7055CF40088F189E02D8701940197
:10162000A501BE01C60109952196EFCF0688F7896D
:10163000E02DC601DF91CF911F910F91FF90EF90A8
:10164000DF90CF90BF90AF909F908F907F906F90E2
:101650005F904F9009948F929F92AF92BF92CF92DA
:10166000DF92EF92FF920F931F93CF93DF93EC01E2
:101670005B014A016901E881F9810284F385E02D6B
:10168000099595012C0D3D1D21503109E881F98105
:101690000488F589E02D78018401A401B501CE010B
:1016A0000995E881F9810688F789E02DCE01DF915F
:1016B000CF911F910F91FF90EF90DF90CF90BF904F
:1016C000AF909F908F9009948F929F92AF92BF920C
:1016D000CF92DF92EF92FF920F931F93CF93DF93FE
:1016E000EC015B014A0169017801E881F98102841A
:1016F000F385E02D0995C80CD91C8601015011090C
:10170000E881F9810488F589E02D9501A401B501EE
:10171000CE010995E881F9810688F789E02DCE018F
:10172000DF91CF911F910F91FF90EF90DF90CF90BD
:10173000BF90AF909F908F900994EF92FF920F937C
:101740001F93DC01ED91FC9100A0F1A1E02D099522
:101750001F910F91FF90EF9008950F931F93DC015D
:10176000ED91FC91068CF78DE02D09951F910F915D
:1017700008950F931F93DC01ED91FC91048CF58D7E
:10178000E02D09951F910F9108952F923F924F924E
:101790005F926F927F928F929F92AF92BF92CF9201
:1017A000DF92EF92FF920F931F93CF93DF9301E0AD
:1017B00010E029E030E045E250E066E070E084E3CC
:1017C00094E00E94B90B54E0652E712C442443949C
:1017D000512CF12CE12CC4E0D0E078EF272E3324FB
:1017E0003A94EDEFCE2EDD24DA948FEFE81AF80A62
:1017F00082E0480E511CC40CD51CCE15DF050CF43C
:101800004EC04E01880C991C8FEF881A980A01E08F
:1018100010E0940149E2A42EB12CAC1ABD0AA50136
:10182000B7016A5F7F4F84E394E00E94B90B940193
:10183000A50166E070E06E197F0984E394E00E94E0
:10184000B90BC615D705F9F0B3016A5F7F4F01E008
:1018500010E0420182E0881A910894018AE2A82EE1
:10186000B12CAE18BF08A50184E394E00E94B90B27
:1018700066E070E0661977099401A50184E394E0BD
:101880000E94B90B3E01EC16FD0664F4D7FCADCF07
:10189000219782E0280E311CC20CD31CA6CFC6159E
:1018A000D70591F6DF91CF911F910F91FF90EF90A7
:1018B000DF90CF90BF90AF909F908F907F906F9070
:1018C0005F904F903F902F900895DC01ED91FC9137
:1018D0000084F185E02D09942F923F924F925F9200
:1018E0006F927F928F929F92AF92BF92CF92DF9230
:1018F000EF92FF920F931F93CF93DF9321E030E09D
:101900004FE250E066E070E084E394E00E94650CF2
:1019100021E030E043E250E066E070E084E394E0F0
:101920000E94650C21E030E049E250E06CE070E09C
:1019300084E394E00E94650C21E030E049E250E04D
:1019400070E060E084E394E00E94650C44244394DA
:10195000512C10E000E0C6E0D0E034EF632E772495
:101960007A944BEFE42EFF24FA9456E0252E312C86
:101970000F5F1F4F82E0480E511CE40CF51C48011C
:1019800086E0880E911C21E030E06E0189E2C80EED
:10199000D11CA601B40184E394E00E94650C5101BE
:1019A000A01AB10A21E030E0A601B50184E394E079
:1019B0000E94650C21E030E089E2C82ED12CCC1ABF
:1019C000DD0AA601B40184E394E00E94650C21E0E5
:1019D00030E0A601B50184E394E00E94650C680143
:1019E00089E2C80ED11C21E030E0A6015E0186E04C
:1019F000A80EB11CB50184E394E00E94650C21E0BF
:101A000030E0A6016101CC1ADD0AB60184E394E05E
:101A10000E94650C99E2892E912C801A910A21E08E
:101A200030E0A401B50184E394E00E94650C21E05C
:101A300030E0A401B60184E394E00E94650C0C1729
:101A40001D079CF0DF91CF911F910F91FF90EF90B8
:101A5000DF90CF90BF90AF909F908F907F906F90CE
:101A60005F904F903F902F900895F7FC81CF219782
:101A700082E0680E711CE60CF71C7ACF2F923F9221
:101A80004F925F926F927F928F929F92AF92BF928E
:101A9000CF92DF92EF92FF920F931F93CF93DF933A
:101AA00000D000D000D0CDB7DEB73C016A013E8344
:101AB0002D83FC82EB825801A41AB50AB7FE03C03D
:101AC000B194A194B1088D809E80861A970A97FEE2
:101AD00003C09194819491088A149B045CF0902F28
:101AE000812F0D811E819D838E839C2D8D2D6B01F9
:101AF000692F782F0C151D055CF09D818E817E83EA
:101B00006D83692F782F902F812F8601C92ED82EB3
:101B10001601201A310A2B012D813E81421A530AE7
:101B200057FE03C0519441945108710137FE03C020
:101B30003FEFE31AF30AF594E7948D819E818617AF
:101B400097075CF5A1E0B0E0BA83A983C016D1067F
:101B50004CF1D301ED91FC910484F585E02D2B81AE
:101B60003C81A8016D817E818A149B041CF04D810B
:101B70005E81B801C3010995E418F508F7FE0AC0B3
:101B80002D813E8189819A81280F391F3E832D83C3
:101B9000E20CF31C0F5F1F4FD9CF2FEF3FEF3A83BB
:101BA0002983D4CF26960FB6F894DEBF0FBECDBFE3
:101BB000DF91CF911F910F91FF90EF90DF90CF9029
:101BC000BF90AF909F908F907F906F905F904F905D
:101BD0003F902F900895089590E080E00895CF936E
:101BE000CFB7F89480917303811127C0E0E9F5E045
:101BF0008491E4EAF5E09491E82FF0E0EE0FFF1F06
:101C0000E859FA4FA591B491EC91E92321F461E0F0
:101C10008AE00E94690361E08AE00E9497038CB524
:101C200080618CBD8CB580648CBD61E08DE00E94CC
:101C3000970361E08BE00E949703809173038F5FAD
:101C400080937303CFBFCF910895CF93C82F0E9485
:101C50004003019731F48C2F0E94400321E001974B
:101C600009F020E0822FCF910895CF93C82F0E94D2
:101C70004003892B31F48C2F0E94400321E0892BF3
:101C800009F020E0822FCF91089581E190E00E9439
:101C9000350E882319F081E0809376038FE090E081
:101CA0000E94350E882319F081E08093740380E14F
:101CB00090E00E94350E882319F081E0809375032F
:101CC00008950CB405FC0DC09EBD00000DB407FEC8
:101CD000FDCF9EB58EBD00000DB407FEFDCF8EB5C5
:101CE00008958EBD00000DB407FEFDCF8EB59EBDDC
:101CF00000000DB407FEFDCF9EB508958EBD000017
:101D00000DB407FEFDCF8EB508958CBD9DBD089521
:101D1000AF92BF92CF92DF92EF92FF920F931F93F9
:101D2000CF93DF931F92CDB7DEB78C015B016A01C1
:101D3000DC018D919C911197892B39F01296ED91D0
:101D4000FC91808191810E94850EF80183858F3FEF
:101D500019F060E00E9469037501CA0CDB1CEC14E9
:101D6000FD04A9F0D7018D917D018983F80180815F
:101D70009181892B29F0CE0101960E940C03EFCFAF
:101D8000BE016F5F7F4FC8010E94DE03E8CFD8011C
:101D90001B968C918F3F19F061E00E94690381E0EE
:101DA0000F90DF91CF911F910F91FF90EF90DF90F7
:101DB000CF90BF90AF9008950F931F93CF93DF9371
:101DC0001F92CDB7DEB78C01698360E0FC01868D80
:101DD0000E94690341E050E0BE016F5F7F4FF80150
:101DE000838D948D0E94880E0F90DF91CF911F916B
:101DF0000F910895CF93C82F87FDCFE7C093530469
:101E000061E284E394E00E94DC0E6C2F606884E35E
:101E100094E00E94DC0E60E284E394E0CF910C94A5
:101E2000DC0ECF938091510487FD13C061E00E94C6
:101E3000970360E0809151040E94690361E070E0C3
:101E400080E090E00E94B50461E0809151040E941E
:101E50006903C0915404C83008F0C7E0C09354042B
:101E600061E284E394E00E94DC0E6C2F606184E305
:101E700094E00E94DC0E60E284E394E00E94DC0EB9
:101E8000809153040E94FA0E60E284E394E00E9481
:101E9000DC0E6CE084E394E0CF910C94DC0EFF92B6
:101EA0000F931F93CF93DF9390915504992339F0AB
:101EB000809156048F5F8917E8F580935604D0917E
:101EC0005904D695D695D69584E5D89F80011124DE
:101ED00080915A048695869586958D1780F16D2F91
:101EE000606484E394E00E94DC0EC0915704F0909B
:101EF00058046C2F606884E394E00E94DC0E61E07B
:101F0000809152040E9469034F2D50E06C2F70E0C5
:101F1000461B570B4F5F5F4F600F711F695F7E4F0E
:101F200080914F04909150040E94880EDF5F0C5AFC
:101F30001F4FCECF109256040E94110FC0CF60E405
:101F400084E394E00E94DC0E83E5809357041092B2
:101F500058048FE28093590410925A04DF91CF9174
:101F60001F910F91FF9008951F93CF93DF93EC0182
:101F7000162F60E20E94DC0E6CE011116DE0CE01C4
:101F8000DF91CF911F910C94DC0EE7E0F1E088EF38
:101F900091E0DF019C011D9221503040E1F7109249
:101FA000570480915804833508F483E580935804DE
:101FB0001092590480915A048F3208F48FE2809372
:101FC0005A0410924104109240041092430410925B
:101FD000420408950E94711DFB0101900020E9F761
:101FE0003197AF01461B570BDC01ED91FC9102804C
:101FF000F381E02D09948F929F92AF92BF92EF925E
:10200000FF920F931F93CF93DF93CDB7DEB7A197C6
:102010000FB6F894DEBF0FBECDBF7C01FA01CB0135
:1020200019A2223008F42AE08E010F5D1F4F822E84
:10203000912CB12CA12CBF01A50194010E94D219B1
:10204000F901CA016A300CF5605DD8016E938D010B
:10205000232B242B252B79F790E080E0109721F09B
:10206000BD01C7010E94EC0FA1960FB6F894DEBF28
:102070000FBECDBFDF91CF911F910F91FF90EF90D9
:10208000BF90AF909F908F900895695CDECFCF9204
:10209000DF92EF92FF92CF93DF936C01990FEE08DE
:1020A000FF08F7FE1BC06DE284E394E00E94200964
:1020B000EC0144275527BA014C195D096E097F09C7
:1020C0002AE084E394E00E94FB0F8C0F9D1FDF91B8
:1020D000CF91FF90EF90DF90CF9008952AE0B70165
:1020E000A60184E394E0DF91CF91FF90EF90DF9021
:1020F000CF900C94FB0F0F931F93CF93DF93EC01C2
:102100008B0160919203709193038091940390915D
:10211000950320E03FEF4FE757E40E94DF1B20E0EC
:1021200030E040EC51E40E94801A0E94F91A60935A
:102130008E0370938F03809390039093910360912B
:102140008A0370918B0380918C0390918D0320E022
:1021500030E040E251E40E94801A20E030E040E8A4
:102160005FE30E940F1A20E030E040E05FE30E944E
:10217000DF1B20E03FEF4FE757E40E94DF1B0E9488
:10218000F91A609386037093870380938803909372
:102190008903D06160E08AE00E94690385E50E94BE
:1021A0007E0ECE010E94610E61E08AE00E9469030A
:1021B00061E070E080E090E00E94B50460E08AE0B9
:1021C0000E94690381E00E947E0EF8018081918166
:1021D000A281B3810E94610E61E08AE00E946903DE
:1021E00061E070E080E090E00E94B504AE0170E034
:1021F00060E020E186E993E00E94FB0F63E573E075
:1022000086E993E00E94EC0FF801408151816281E0
:10221000738120E186E993E00E94FB0F63E573E0A0
:1022200086E993E00E94EC0F66E573E086E993E0AF
:102230000E94EC0F63E573E086E993E0DF91CF91B4
:102240001F910F910C94EC0F1F920F920FB60F92EB
:1022500011242F933F938F939F93AF93BF938091BC
:102260007E0390917F03A0918003B0918103309110
:102270007D0323E0230F2D3758F50196A11DB11DD5
:1022800020937D0380937E0390937F03A09380032C
:10229000B09381038091820390918303A091840382
:1022A000B09185030196A11DB11D80938203909387
:1022B0008303A0938403B0938503BF91AF919F9153
:1022C0008F913F912F910F900FBE0F901F901895F7
:1022D00026E8230F0296A11DB11DD2CF1F920F92A7
:1022E0000FB60F9211242F933F934F935F936F93E9
:1022F0007F938F939F93AF93BF93EF93FF93E0915F
:102300000301F09104010995FF91EF91BF91AF9105
:102310009F918F917F916F915F914F913F912F91FD
:102320000F900FBE0F901F9018951F920F920FB62F
:102330000F9211242F933F934F935F936F937F934B
:102340008F939F93AF93BF93EF93FF93E09101011E
:10235000F09102010995FF91EF91BF91AF919F918B
:102360008F917F916F915F914F913F912F910F903E
:102370000FBE0F901F9018951F920F920FB60F92DD
:1023800011242F933F934F935F936F937F938F937A
:102390009F93AF93BF93EF93FF9386E993E00E94DF
:1023A000E605FF91EF91BF91AF919F918F917F9142
:1023B0006F915F914F913F912F910F900FBE0F90B2
:1023C0001F9018951F920F920FB60F9211242F9302
:1023D0008F939F93EF93FF93E091A603F091A70350
:1023E0008081E091AC03F091AD0382FD1BC0908130
:1023F0008091AF038F5F8F732091B003821741F0FC
:10240000E091AF03F0E0EA56FC4F958F8093AF0365
:10241000FF91EF919F918F912F910F900FBE0F9091
:102420001F9018958081F4CF0F931F93CF93DF9364
:10243000E6E9F3E01382128288EE93E0A0E0B0E0D8
:1024400084839583A683B78389E193E09183808316
:1024500085EC90E09587848784EC90E09787868769
:1024600080EC90E0918B808B81EC90E0938B828B61
:1024700082EC90E0958B848B86EC90E0978B868B3A
:10248000118E128E138E148E0E94900460935F043E
:102490007093600480936104909362040E9490049E
:1024A00060935B0470935C0480935D0490935E047E
:1024B000C4E3D4E01B821A8224E530E03D832C8300
:1024C00080E390E09F838E83398728879B878A8764
:1024D0001E8A1D861C861F861E8681E08D8B8C8B36
:1024E0002FEF3FEF3B8B2A8B398B288B8F8B188EEE
:1024F0001A8E198E8BE293E0998388838CE190E0A9
:102500000E944C1C8C0185E0F80183878FEF868741
:102510008587848783E394E091838083138E82E0B0
:1025200090E00E944C1C20E5FC0120831182F80100
:102530009383828380E099E0ADE3B0E08483958368
:10254000A683B78381E090E09187808712861C8FF5
:102550000B8F86E08E8F84E08D8FDF91CF911F915E
:102560000F910895CF93DF9300D000D000D0CDB766
:10257000DEB7789484B5826084BD84B5816084BD03
:1025800085B5826085BD85B5816085BD80916E0011
:10259000816080936E001092810080918100826042
:1025A000809381008091810081608093810080917F
:1025B00080008160809380008091B100846080936E
:1025C000B1008091B00081608093B00080917A006A
:1025D000846080937A0080917A00826080937A0090
:1025E00080917A00816080937A0080917A0080687F
:1025F00080937A001092C100E091A603F091A703A6
:1026000082E08083E091A203F091A3031082E09125
:10261000A403F091A5038FEC80831092AE03E091A8
:10262000AA03F091AB0386E08083E091A803F091C8
:10263000A903808180618083E091A803F091A903C0
:10264000808188608083E091A803F091A903808154
:1026500080688083E091A803F091A90380818F7D39
:10266000808368E573E086E993E00E94EC0F63E500
:1026700073E086E993E00E94EC0F61E08DE00E9438
:1026800097030E94EF0D81E590E00E94850E61E0C6
:102690008AE00E94970320914F04309150043A83BE
:1026A0002983F90183858F3F49F061E00E949703F8
:1026B00061E0E981FA8183850E946903E981FA81F9
:1026C00080819181892B09F477C00E94EF0D81E010
:1026D000E981FA81838F61E0809152040E9497031F
:1026E0008091510487FD03C061E00E94970384E05C
:1026F0008093540488E280935304109255041092FE
:1027000056040E94110F109257048091580483358B
:1027100008F483E5809358041092590480915A0478
:102720008F3208F48FE280935A040E944F0F84E6A0
:102730000E94FA0E0E94C50F62E081E10E94970399
:1027400062E08FE00E94970362E080E10E949703BD
:1027500062E082E00E94970362E083E00E949703B8
:1027600027EE34E03093020120930101809169004B
:102770008C7F816080936900E89A309304012093F4
:10278000030180916900837F846080936900E99AE6
:1027900080917B0390917C030097C1F1019709F42C
:1027A0007DC380E090E0892B99F30E94D2058823B5
:1027B00079F30E940000ECCF61E0E981FA81848521
:1027C0000E949703E981FA8182858B7F60E019F08E
:1027D00061E0E981FA8184850E946903E981FA81D7
:1027E00085858F3F49F061E00E94970361E0E981B0
:1027F000FA8185850E946903E981FA8186858F3F88
:1028000009F465CF60E00E94970361CF1D8211E05B
:102810003324339462E0262E8FB7F89420917E0300
:1028200030917F03409180035091810329833A8343
:102830004B835C838FBF40908A0350908B036090E2
:102840008C0370908D03112309F4F4C00E94C50F0E
:1028500080908A0390908B03A0908C03B0908D039E
:1028600060918A0370918B0380918C0390918D030A
:1028700020E030E0A9010E947B1A87FF1FC0B7FA51
:10288000B094B7F8B094EE24E394F12C0AE010E091
:1028900024E030E04AE050E070E060E084E394E05F
:1028A0000E94510A0BE010E024E030E04BE050E0E1
:1028B00070E060E084E394E00E94510AC501B40135
:1028C0000E94F21A6B018B01072E000C880B990BEA
:1028D0000E942A1B9B01AC01C501B4010E940E1A83
:1028E00020E030E048EC52E40E94DF1B4B015C0129
:1028F00033E030934804309349040A3011050CF05A
:1029000074C147E050E0509341044093400410925A
:1029100043041092420469E673E084E394E00E9469
:10292000EC0F89E190E09093410480934004109271
:10293000430410924204C6010E944710C501B4012D
:102940000E94F21A6B0120E030E040E251E4C50140
:10295000B4010E947B1A87FF4FC120E330E030931F
:10296000410420934004109243041092420469E60B
:1029700073E084E394E00E94EC0F82E490E0909393
:102980004104809340041092430410924204C60113
:102990000E944710209248042092490486E290E069
:1029A0009093410480934004E8E0F0E0F093430406
:1029B000E09342046BE673E084E394E00E94EC0F42
:1029C00028E430E0309341042093400440E250E09A
:1029D00050934304409342046DE673E084E394E033
:1029E0000E94EC0F8091050190910601EE24E39482
:1029F000F12C08E110E027E230E048E150E068E126
:102A000070E0019731F021E530E048E150E062E408
:102A100070E084E394E00E94510A51E0509348042E
:102A2000509349048D8181110E94C50B0E946C0C4A
:102A30000E944F0F0E94450E8091790390917A0376
:102A4000209177033091780310E08217930709F4FF
:102A500079C0C0908A03D0908B03E0908C03F090F3
:102A60008D034091770350917803209105013091B7
:102A70000601841795070CF02FC140917703509100
:102A80007803841795070CF0BEC0409177035091EE
:102A900078030A96841795070CF0B5C021303105EC
:102AA00009F000C160918A0370918B0380918C03BF
:102AB00090918D0320E030E040E251E40E940F1A33
:102AC00060938A0370938B0380938C0390938D03A0
:102AD00060918A0370918B0380918C0390918D0398
:102AE00020E030E040E251EC0E947B1A87FD78C183
:102AF00060918A0370918B0380918C0390918D0378
:102B000020E030E040E251E40E94DA1B18160CF499
:102B10006CC180918A0390918B03A0918C03B0913A
:102B20008D0380938A0390938B03A0938C03B093BF
:102B30008D03809177039091780390937A0380932B
:102B4000790311E0809176038823B9F081E190E068
:102B50000E94250E882389F02091050130910601FD
:102B60002130310509F046C1E2E0F0E0F0930601C2
:102B7000E093050110927603182F80917503882346
:102B800071F080E190E00E94250E882341F0FD81E4
:102B900021E0F227FD8310927503182F382E8091C3
:102BA000740381112EC13D8131115FC12FB7F8949B
:102BB00080917E0390917F03A0918003B091810367
:102BC0002FBF29813A814B815C81821B930BA40B1F
:102BD000B50B4997A105B10508F01ECE62E070E083
:102BE00080E090E00E94B504E1CFE7E0F0E0F093F0
:102BF0004104E09340049BCE40E350E050934104F5
:102C000040934004C0CE2130310509F058C0609196
:102C10008A0370918B0380918C0390918D0320E047
:102C200030E040E85FE30E940F1A60938A037093DC
:102C30008B0380938C0390938D0320E030E0A901F7
:102C4000C701B6010E947B1A87FF42CF20E030E027
:102C500040E85FEBC701B6010E94DA1B18160CF0C2
:102C600037CF20918A0330918B0340918C03509190
:102C70008D03C701B6010E947B1A87FF29CF809080
:102C80008A0390908B03A0908C03B0908D0320E07A
:102C900030E040E050ECC701B6010E94DF1BA50107
:102CA00094010CCF60918A0370918B0380918C0307
:102CB00090918D032DEC3CEC4CEC5DE3FFCE6091EC
:102CC0008A0370918B0380918C0390918D032AE08D
:102CD00037ED43E25CE3F2CE409177035091780305
:102CE000481759074CF440917703509178030A979D
:102CF000481759070CF450C02130310509F063C062
:102D000060918A0370918B0380918C0390918D0365
:102D100020E030E040E85FE30E940E1A60938A03EF
:102D200070938B0380938C0390938D0320E030E0AD
:102D3000A901C701B6010E94DA1B18160CF0C8CE13
:102D400020E030E040E85FE3C701B6010E947B1A53
:102D500087FFBECE20918A0330918B0340918C0374
:102D600050918D03C701B6010E94DA1B18160CF0B2
:102D7000AFCE80908A0390908B03A0908C03B0908C
:102D80008D03A7019601C701B6010E940F1A9B018E
:102D9000AC01C501B4010FC060918A0370918B032F
:102DA00080918C0390918D032130310539F420E01E
:102DB00030E040E251E40E940E1A82CE2DEC3CEC51
:102DC0004CEC5DE3F8CF60918A0370918B038091A6
:102DD0008C0390918D032AE037ED43E25CE3EBCF67
:102DE00080E090E0A0E2B1EC9CCE80E090E0A0E238
:102DF000B1E497CE215031093093060120930501AB
:102E0000B9CE8FE090E00E94250E882309F4CBCE46
:102E100081E090E090937C0380937B0360E08AE004
:102E20000E94690385E50E947E0E83E090E20E9485
:102E3000610E61E08AE00E94690361E070E080E079
:102E400090E00E94B50420E143E050E260E070E0D1
:102E500086E993E00E94FB0F63E573E086E993E067
:102E60000E94EC0F109274039CCC20918A03309145
:102E70008B0340918C0350918D03C301B2010E94DA
:102E80007B1A811103C0332009F490CE66E873E009
:102E900083E090E20E947B10312C88CE1D8211E0ED
:102EA00031E03E8332E0232E332433948FB7F894FD
:102EB00020917E0330917F034091800350918103E4
:102EC00029833A834B835C838FBF809092039090D9
:102ED0009303A0909403B0909503112309F4CCC000
:102EE0006091920370919303809194039091950364
:102EF0000E94F21A6B018B01409092035090930351
:102F00006090940370909503072E000C880B990B2A
:102F10000E942A1B9B01AC01C301B2010E940E1A40
:102F200020E030E048EC52E40E94DF1B2B013C0122
:102F30000E94C50F33E030934804309349040A30AF
:102F400011050CF06AC147E050E0509341044093F2
:102F50004004109243041092420469E673E084E353
:102F600094E00E94EC0F89E190E0909341048093FB
:102F700040041092430410924204C6010E9447107C
:102F8000C301B2010E94F21A6B0120E030E040E17F
:102F900051E4C301B2010E947B1A18160CF444C11B
:102FA00020E330E030934104209340041092430426
:102FB0001092420469E673E084E394E00E94EC0F0F
:102FC00082E490E090934104809340041092430483
:102FD00010924204C6010E94471020924804209299
:102FE000490486E290E09093410480934004E8E035
:102FF000F0E0F0934304E09342046BE673E084E373
:1030000094E00E94EC0F2CE330E0309341042093D5
:10301000400440E250E050934304409342046FE682
:1030200073E084E394E00E94EC0F8091050190919D
:103030000601EE24E394F12C08E110E027E230E0F1
:1030400048E150E068E170E0019731F021E530E0BF
:1030500048E150E062E470E084E394E00E94510AA9
:1030600030924804309249045D8151110E94C50B91
:103070000E946C0C0E944F0F0E94450E80917903B4
:1030800090917A03209177033091780310E08217B2
:10309000930709F470C04091770350917803209111
:1030A000050130910601841795070CF0EEC04091A0
:1030B000770350917803841795070CF0BCC04091BA
:1030C0007703509178030A96841795070CF0B3C0E4
:1030D0002130310509F0BFC06091920370919303D4
:1030E000809194039091950320E030E040E251E418
:1030F0000E940F1A6093920370939303809394033A
:10310000909395036091920370919303809194033F
:103110009091950320E030E0A9010E947B1A87FD81
:10312000F7C0609192037091930380919403909102
:10313000950320E030E040EC51E40E94DA1B1816C1
:103140000CF4EAC08091920390919303A0919403B0
:10315000B09195038093920390939303A09394036B
:10316000B0939503809177039091780390937A03BD
:103170008093790311E0809176038823B9F081E18F
:1031800090E00E94250E882389F02091050130915E
:1031900006012130310509F0C4C0E2E0F0E0F0930F
:1031A0000601E093050110927603182F80917503B4
:1031B000882369F080E190E00E94250E882339F091
:1031C000FD81F325FD8310927503182F8E83809166
:1031D00074038111ADC02D812111B6C02FB7F894B1
:1031E00080917E0390917F03A0918003B091810331
:1031F0002FBF29813A814B815C81821B930BA40BE9
:10320000B50B4997A105B10508F050CE62E070E01A
:1032100080E090E00E94B504E1CFE7E0F0E0F093B9
:103220004104E0934004A5CE40E350E050934104B4
:1032300040934004CBCE21303105D1F4609192030C
:1032400070919303809194039091950320E030E076
:1032500040E85FE34DCF60919203709193038091BA
:103260009403909195032DEC3CEC4CEC5DE340CF46
:1032700060919203709193038091940390919503D0
:103280002AE037ED43E25CE333CF4091770350917E
:1032900078034817590744F4409177035091780315
:1032A0000A974817590784F02130310521F56091BC
:1032B000920370919303809194039091950320E081
:1032C00030E040E85FE30FC0609192037091930398
:1032D00080919403909195032130310539F420E0D9
:1032E00030E040E251E40E940E1A04CF2DEC3CEC99
:1032F0004CEC5DE3F8CF6091920370919303809161
:103300009403909195032AE037ED43E25CE3EBCF21
:1033100080E090E0DC011ECF80E090E0A0ECB1E422
:1033200019CF2150310930930601209305013BCF7D
:103330008FE090E00E94250E882309F44CCF109274
:103340007C0310927B038ECD2091920330919303E6
:103350004091940350919503C501B4010E947B1ADA
:10336000811104C03E81332309F438CF6EE873E045
:1033700087E090E20E947B101E8230CF97FB072EE1
:1033800016F4009407D077FD09D00E94F41907FCC9
:1033900005D03EF4909581959F4F08957095619565
:1033A0007F4F0895A1E21A2EAA1BBB1BFD010DC081
:1033B000AA1FBB1FEE1FFF1FA217B307E407F507E5
:1033C00020F0A21BB30BE40BF50B661F771F881FC1
:1033D000991F1A9469F760957095809590959B0157
:1033E000AC01BD01CF010895AA1BBB1B51E107C071
:1033F000AA1FBB1FA617B70710F0A61BB70B881F85
:10340000991F5A95A9F780959095BC01CD01089513
:10341000EE0FFF1F0590F491E02D09945058BB2743
:10342000AA270E94261A0C94A01B0E94921B38F017
:103430000E94991B20F039F49F3F19F426F40C9454
:103440008F1B0EF4E095E7FB0C94891BE92F0E947B
:10345000B11B58F3BA17620773078407950720F06A
:1034600079F4A6F50C94D31B0EF4E0950B2EBA2F2D
:10347000A02D0B01B90190010C01CA01A00111247A
:10348000FF27591B99F0593F50F4503E68F11A1626
:10349000F040A22F232F342F4427585FF3CF4695B7
:1034A00037952795A795F0405395C9F77EF41F16D9
:1034B000BA0B620B730B840BBAF09150A1F0FF0FA3
:1034C000BB1F661F771F881FC2F70EC0BA0F621F8F
:1034D000731F841F48F4879577956795B795F7957F
:1034E0009E3F08F0B0CF9395880F08F09927EE0F14
:1034F0009795879508950E94651B08F481E00895CB
:103500000E94941A0C94A01B0E94991B58F00E94D0
:10351000921B40F029F45F3F29F00C94891B511154
:103520000C94D41B0C948F1B0E94B11B68F399233D
:10353000B1F3552391F3951B550BBB27AA276217AF
:103540007307840738F09F5F5F4F220F331F441FBC
:10355000AA1FA9F335D00E2E3AF0E0E832D09150F0
:103560005040E695001CCAF72BD0FE2F29D0660FDD
:10357000771F881FBB1F261737074807AB07B0E820
:1035800009F0BB0B802DBF01FF2793585F4F3AF026
:103590009E3F510578F00C94891B0C94D41B5F3F1F
:1035A000E4F3983ED4F3869577956795B795F795AC
:1035B0009F5FC9F7880F911D9695879597F9089594
:1035C000E1E0660F771F881FBB1F62177307840730
:1035D000BA0720F0621B730B840BBA0BEE1F88F73F
:1035E000E09508950E94F91A6894B1110C94D41BC7
:1035F00008950E94B91B88F09F5798F0B92F99271A
:10360000B751B0F0E1F0660F771F881F991F1AF0CD
:10361000BA95C9F714C0B13091F00E94D31BB1E044
:1036200008950C94D31B672F782F8827B85F39F043
:10363000B93FCCF3869577956795B395D9F73EF466
:1036400090958095709561957F4F8F4F9F4F08950E
:10365000E89409C097FB3EF490958095709561952C
:103660007F4F8F4F9F4F9923A9F0F92F96E9BB27E2
:103670009395F695879577956795B795F111F8CF5E
:10368000FAF4BB0F11F460FF1BC06F5F7F4F8F4FC9
:103690009F4F16C0882311F096E911C0772321F0BF
:1036A0009EE8872F762F05C0662371F096E8862F57
:1036B00070E060E02AF09A95660F771F881FDAF7AE
:1036C000880F9695879597F90895990F0008550FDB
:1036D000AA0BE0E8FEEF16161706E807F907C0F098
:1036E00012161306E407F50798F0621B730B840BA0
:1036F000950B39F40A2661F0232B242B252B21F47A
:1037000008950A2609F4A140A6958FEF811D811D19
:10371000089597F99F6780E870E060E008959FEF53
:1037200080EC089500240A94161617061806090658
:10373000089500240A941216130614060506089527
:10374000092E0394000C11F4882352F0BB0F40F4AF
:10375000BF2B11F460FF04C06F5F7F4F8F4F9F4FEF
:10376000089557FD9058440F551F59F05F3F71F071
:103770004795880F97FB991F61F09F3F79F08795D8
:103780000895121613061406551FF2CF4695F1DF61
:1037900008C0161617061806991FF1CF86957105F1
:1037A000610508940895E894BB2766277727CB0125
:1037B00097F908950E94651B08F48FEF08950E9401
:1037C000F21B0C94A01B0E94921B38F00E94991BC4
:1037D00020F0952311F00C94891B0C948F1B11245D
:1037E0000C94D41B0E94B11B70F3959FC1F3950FED
:1037F00050E0551F629FF001729FBB27F00DB11D75
:10380000639FAA27F00DB11DAA1F649F6627B00D04
:10381000A11D661F829F2227B00DA11D621F739FED
:10382000B00DA11D621F839FA00D611D221F749FFB
:103830003327A00D611D231F849F600D211D822F42
:10384000762F6A2F11249F5750409AF0F1F0882369
:103850004AF0EE0FFF1FBB1F661F771F881F915096
:103860005040A9F79E3F510580F00C94891B0C94A1
:10387000D41B5F3FE4F3983ED4F386957795679524
:10388000B795F795E7959F5FC1F7FE2B880F911DC0
:103890009695879597F908950F931F93CF93DF938C
:1038A0008230910510F482E090E0E0916504F0919F
:1038B000660430E020E0B0E0A0E0309799F42115F4
:1038C000310509F44AC0281B390B24303105D8F5DD
:1038D0008A819B816115710589F1FB019383828344
:1038E000FE0111C04081518102811381481759079F
:1038F000E0F04817590799F4109761F012960C936D
:10390000129713961C933296CF01DF91CF911F919E
:103910000F9108950093650410936604F4CF211568
:10392000310551F04217530738F0A901DB019A0124
:10393000BD01DF01F801C1CFEF01F9CF909366041B
:1039400080936504CDCFFE01E20FF31F8193919325
:103950002250310939832883D7CF209163043091D5
:103960006404232B41F4209101033091020330932E
:103970006404209363042091FF0230910003211519
:10398000310541F42DB73EB7409103035091040334
:10399000241B350BE0916304F0916404E217F307F4
:1039A000A0F42E1B3F0B2817390778F0AC014E5FAF
:1039B0005F4F2417350748F04E0F5F1F5093640484
:1039C00040936304819391939FCFF0E0E0E09CCF1C
:1039D000CF93DF930097E9F0FC01329713821282B4
:1039E000A0916504B0916604ED0130E020E01097ED
:1039F000A1F420813181820F931F209163043091C3
:103A000064042817390709F061C0F0936404E09357
:103A10006304DF91CF910895EA01CE17DF07E8F53F
:103A20004A815B819E0141155105B1F7E901FB8394
:103A3000EA8349915991C40FD51FEC17FD0761F432
:103A4000808191810296840F951FE9019983888373
:103A5000828193819B838A83F0E0E0E012968D91CE
:103A60009C9113970097B9F52D913C911197CD0139
:103A70000296820F931F20916304309164042817EB
:103A8000390739F6309751F51092660410926504A3
:103A9000B0936404A0936304BCCFD383C2834081FA
:103AA0005181840F951FC817D90761F44E5F5F4F8E
:103AB00088819981480F591F518340838A819B8156
:103AC000938382832115310509F0B0CFF09366040A
:103AD000E09365049ECFFD01DC01C0CF138212820A
:103AE000D7CF81E090E0F8940C94761DF894FFCF46
:103AF00003670567050100000000000000000000EA
:103B000000000000000000000000000000000000B5
:103B100000000000000000000000000000C0E0F015
:103B2000F8FCFCFEFFFCE0000000000000000000CC
:103B30000000000000000000000000000000000085
:103B40000000000000000000000000000000000075
:103B5000000000000000000000000000F8F8F8F885
:103B6000F8F8F8F8F8F8F8F8F0F0E0E0C080C0FCF9
:103B7000FFFFFFFF7F3F7FFFFFFFFFFF0000000011
:103B80000000000000000000000000000000000035
:103B90000000000000000000000000000000000025
:103BA0000000000000000000000000000000000015
:103BB000000F1F3F7FFFFFFFFFFFFFFFFFE7C7C7AC
:103BC000878F9F9FFFFFFFC1C0E0FCFFFFFFFFFF4C
:103BD000FCFCFCFCFEFEFEFCFCF8F8F0E0C0C000C3
:103BE00000000000000000000000000000000000D5
:103BF00000000000000000000000000000000000C5
:103C0000000000000000000080C0E0F1FBFFFFFFAB
:103C1000FFFF7F1F0F0F87E7FFFFFF1F1F3FF9F811
:103C2000F8F8F8F8F8FDFFFFFFFFFFFFFFFFFF7F49
:103C30003F0F07010000000000000000000000002E
:103C40000000000000000000000000000000000074
:103C500000000000000000000000F0FEFFFFFFFF7A
:103C6000FFFFFFFFFFFFFE7E3F3F0F1FFFFFFFFC39
:103C7000F0E0F1FFFFFFFFFFFCF001010101010196
:103C80000101000000000000000000000000000032
:103C90000000000000000000000000000000000024
:103CA000000000000000000000000000000003030E
:103CB00003030303030301010101000000000000EE
:103CC00000030F1F3F7F7FFFFFFFFF7F7F1F03006A
:103CD00000000000000000000000000000000000E4
:103CE00000000000000000000000000000000000D4
:103CF000006704800000FF0100010000FFFF0000DA
:103D0000010001FF00000000000806680595055548
:103D100006C605A405B8050000000020096805ECEA
:103D20000DEB0D75061603650C9D0BB90BAD0B3E27
:103D30000D1603E606B40F640B2B0BE60AC90A51F5
:103D40000AF2090D0A00200044454242554720422C
:103D50004547494E202121210030002E0056006D9C
:023D6000410020
:00000001FF
