:100000000C94E2020C94E3100C94BC100C940A03C0
:100010000C940A030C940A030C940A030C940A032C
:100020000C940A030C940A030C940A030C940A031C
:100030000C940A030C940A030C940A030C940A030C
:100040000C9472100C940A030C9430110C940A1145
:100050000C940A030C940A030C940A030C940A03EC
:100060000C940A030C940A0300000000003E5B4F4E
:100070005B3E3E6B4F6B3E1C3E7C3E1C183C7E3C08
:10008000181C577D571C1C5E7F5E1C00183C180016
:10009000FFE7C3E7FF0018241800FFE7DBE7FF30A6
:1000A000483A060E2629792926407F050507407F14
:1000B00005253F5A3CE73C5A7F3E1C1C08081C1C87
:1000C0003E7F14227F22145F5F005F5F06097F017D
:1000D0007F006689956A606060606094A2FFA29468
:1000E00008047E040810207E201008082A1C080836
:1000F0001C2A08081E101010100C1E0C1E0C303884
:100100003E3830060E3E0E06000000000000005F84
:1001100000000007000700147F147F14242A7F2AA0
:100120001223130864623649562050000807030062
:10013000001C2241000041221C002A1C7F1C2A08AE
:10014000083E080800807030000808080808000011
:1001500060600020100804023E5149453E00427F85
:10016000400072494949462141494D331814127FD4
:100170001027454545393C4A494931412111090774
:100180003649494936464949291E000014000000F5
:1001900040340000000814224114141414140041C7
:1001A00022140802015909063E415D594E7C121184
:1001B000127C7F494949363E414141227F414141BC
:1001C0003E7F494949417F090909013E4141517337
:1001D0007F0808087F00417F41002040413F017FA8
:1001E000081422417F404040407F021C027F7F0470
:1001F00008107F3E4141413E7F090909063E4151B9
:10020000215E7F09192946264949493203017F01A8
:10021000033F4040403F1F2040201F3F4038403FA9
:10022000631408146303047804036159494D4300BF
:100230007F4141410204081020004141417F0402F6
:10024000010204404040404000030708002054548D
:1002500078407F284444383844444428384444286B
:100260007F385454541800087E090218A4A49C78BE
:100270007F0804047800447D40002040403D007F1A
:100280001028440000417F40007C047804787C08FA
:100290000404783844444438FC18242418182424CE
:1002A00018FC7C08040408485454542404043F44B3
:1002B000243C4040207C1C2040201C3C4030403CE2
:1002C00044281028444C9090907C4464544C440042
:1002D00008364100000077000000413608000201A6
:1002E0000204023C2623263C1EA1A161123A404092
:1002F000207A38545455592155557941225454780F
:1003000042215554784020545579400C1E527212A7
:100310003955555559395454545939555454580030
:1003200000457C410002457D420001457C407D1234
:1003300011127DF0282528F07C5455450020545496
:100340007C547C0A097F4932494949323A44444441
:100350003A324A4848303A4141217A3A424020787C
:10036000009DA0A07D3D4242423D3D4040403D3C7D
:1003700024FF2424487E4943662B2FFC2F2BFF09A2
:1003800029F620C0887E0903205454794100004496
:100390007D413048484A32384040227A007A0A0A81
:1003A000727D0D19317D2629292F282629292926F4
:1003B00030484D4020380808080808080808382F39
:1003C00010C8ACBA2F102834FA00007B00000814C3
:1003D0002A142222142A14085500550055AA55AA99
:1003E00055AAFF55FF55FF000000FF00101010FF39
:1003F00000141414FF001010FF00FF1010F010F094
:10040000141414FC001414F700FF0000FF00FF1484
:1004100014F404FC141417101F10101F101F1414D0
:10042000141F00101010F0000000001F101010101A
:100430001F10101010F010000000FF10101010100E
:1004400010101010FF10000000FF140000FF00FF4C
:1004500000001F10170000FC04F4141417101714E8
:1004600014F404F40000FF00F7141414141414140A
:10047000F700F7141414171410101F101F1414147D
:10048000F4141010F010F000001F101F0000001FE7
:1004900014000000FC140000F010F01010FF10FF1A
:1004A000141414FF141010101F00000000F010FFAF
:1004B000FFFFFFFFF0F0F0F0F0FFFFFF0000000093
:1004C00000FFFF0F0F0F0F0F3844443844FC4A4A17
:1004D0004A347E02020606027E027E0263554941CC
:1004E000633844443C04407E201E2006027E020203
:1004F00099A5E7A5991C2A492A1C4C7201724C3017
:100500004A4D4D303048784830BC625A463D3E49ED
:100510004949007E0101017E2A2A2A2A2A44445F91
:10052000444440514A444040444A51400000FF0185
:1005300003E080FF000008086B6B08361236243693
:10054000060F090F060000181800000010100030F8
:1005500040FF0101001F01011E00191D1712003C80
:100560003C3C3C000000000000000000240027008C
:100570002A0000000000250028002B0000000000D9
:1005800023002600290004040404040404040202D5
:100590000202020203030303030301020408102002
:1005A000408001020408102001020408102000000D
:1005B0000008000201000003040700000000000022
:1005C0000000621111241FBECFEFD8E0DEBFCDBF07
:1005D00013E0A0E0B1E0E0EDFAE302C005900D9277
:1005E000AC37B107D9F724E0ACE7B3E001C01D9206
:1005F000A137B207E1F712E0C2EED2E004C02197C2
:10060000FE010E94F319C13ED107C9F70E940012F2
:100610000C94661D0C940000FC0120812EBD0DB4CD
:1006200007FEFDCF2EB5FC0120830895833081F0B5
:1006300028F4813099F08230A9F008958730A9F02C
:100640008830C9F08430B1F4809180008F7D03C080
:10065000809180008F7780938000089584B58F7794
:1006600084BD089584B58F7DFBCF8091B0008F77D6
:100670008093B00008958091B0008F7DF9CFCF9323
:10068000DF93282F30E0F901E255FA4F8491F90108
:10069000E656FA4FD491F901EA57FA4FC491CC23A8
:1006A000A1F081110E941603EC2FF0E0EE0FFF1F66
:1006B000E458FA4FA591B491EC91ED2381E090E0DC
:1006C00009F480E0DF91CF91089580E090E0FACFC7
:1006D0001F93CF93DF93282F30E0F901E255FA4FB3
:1006E0008491F901E656FA4FD491F901EA57FA4F8D
:1006F000C491CC23A9F0162F81110E941603EC2F70
:10070000F0E0EE0FFF1FEE58FA4FA591B4918FB7AE
:10071000F894EC91111108C0D095DE23DC938FBFC3
:10072000DF91CF911F910895DE2BF8CFCF93DF9308
:1007300090E0FC01E656FA4F24918A579A4FFC014B
:1007400084918823C9F090E0880F991FFC01E85933
:10075000FA4FA591B491FC01EE58FA4FC591D4918E
:1007600061110DC09FB7F8948C91209582238C93D2
:100770008881282328839FBFDF91CF91089562301D
:1007800051F49FB7F8943C91822F809583238C93EA
:10079000E8812E2BEFCF8FB7F894EC912E2B2C9372
:1007A0008FBFEACF8230910538F0880F991F880FEC
:1007B000991F05970197F1F708959F92AF92BF9205
:1007C000CF92DF92EF92FF920F931F93CF93DF931D
:1007D000EC016B018885998511E0892B09F010E8FF
:1007E000F601A0808A2D8123992493948111912C64
:1007F0002C813D814E815F8160E271EA87E090E06B
:100800000E94BD19022FB12CE22EF12C002319F009
:10081000C7010E94D2038A85877F09F04FC08D856A
:100820008F3F89F09A2D912381E009F480E08915AA
:1008300051F0EF85F8898F899923D1F19081892B27
:10084000808399249394E989FA898081998D892BF1
:100850008083002319F0C7010E94D2038E858F3F49
:1008600039F0EB89FC898081988D892309F0B12AC0
:10087000E989FA899081898D8095892380838E8585
:100880008F3F11F0F601B08288859985892B09F098
:1008900044C0110F1111BACFDF91CF911F910F9169
:1008A000FF90EF90DF90CF90BF90AF909F90089512
:1008B0009081809589238083912CC5CFE989FA891D
:1008C0008081998D892B8083002319F0C7010E94B4
:1008D000D2038D858F3F49F0EF85F8898F899A2D56
:1008E0009123B9F09081892B8083E989FA899081DD
:1008F000898D8095892380838E858F3F09F4BFCFB2
:10090000EB89FC898081988D892309F4B8CFB12ABD
:10091000B6CF908180958923E7CF1695BBCF3FB79F
:10092000F89480919C0390919D03A0919E03B091B7
:100930009F0326B5A89B05C02F3F19F00196A11D66
:10094000B11D3FBFBA2FA92F982F8827BC01CD0119
:10095000620F711D811D911D42E0660F771F881F78
:10096000991F4A95D1F708958F929F92AF92BF92A7
:10097000CF92DF92EF92FF924B015C010E948F04B5
:100980006B017C010E948F046C197D098E099F09FF
:10099000683E734081059105A8F328EEC20E23E05E
:1009A000D21EE11CF11C8A9489288A288B2829F000
:1009B000812C912C54018394E5CFFF90EF90DF9030
:1009C000CF90BF90AF909F908F90089508950F9310
:1009D0001F93CF93DF93C0910001CC0FCC0FC09336
:1009E000000182E00E943F03892B19F0C260C0938E
:1009F000000183E00E943F03892B29F080910001D0
:100A0000816080930001E0910001EF70F0E0EB5F06
:100A1000FC4F808190917C03890F80937C0384300C
:100A200094F10E948F040091690410916A0420914E
:100A30006B0430916C04601B710B820B930BC1E053
:100A4000D0E0603C764C8D42910510F4CAE0D0E0D5
:100A50000E948F046093690470936A0480936B040E
:100A600090936C048091890390918A038C0F9D1F51
:100A700090938A038093890310927C03DF91CF9136
:100A80001F910F9108958D3FCCF70E948F04009124
:100A90006504109166042091670430916804601B1E
:100AA000710B820B930BCFEFDFEF603C764C8D42E6
:100AB000910510F4C6EFDFEF0E948F046093650488
:100AC000709366048093670490936804CBCF089575
:100AD000AF92BF92CF92DF92EF92FF920F931F934C
:100AE000CF93DF936C017B018B01040F151FEB018A
:100AF0005E01AE18BF08C017D10759F06991D60141
:100B0000ED91FC910190F081E02DC6010995892BB2
:100B100079F7C501DF91CF911F910F91FF90EF9071
:100B2000DF90CF90BF90AF900895FC01538D448D1E
:100B3000252F30E0842F90E0821B930B541710F088
:100B4000CF96089501970895FC01918D828D981795
:100B500061F0A28DAE0FBF2FB11D5D968C91928D6D
:100B60009F5F9F73928F90E008958FEF9FEF08959E
:100B7000FC01918D828D981731F0828DE80FF11D67
:100B8000858D90E008958FEF9FEF0895FC01918D82
:100B9000228D892F90E0805C9F4F821B91098F737B
:100BA0009927089580EA93E00E94C60521E0892BE9
:100BB00009F420E0822F089580E090E0892B29F04D
:100BC0000E94D20581110C9400000895FC01A48DAF
:100BD000A80FB92FB11DA35ABF4F2C91848D90E05F
:100BE00001968F739927848FA689B7892C93A08942
:100BF000B1898C91837080648C93938D848D9813CC
:100C000006C00288F389E02D80818F7D808308955E
:100C1000EF92FF920F931F93CF93DF93EC0181E04C
:100C2000888F9B8D8C8D98131AC0E889F9898081F3
:100C300085FF15C09FB7F894EE89FF896083E88926
:100C4000F98980818370806480839FBF81E090E018
:100C5000DF91CF911F910F91FF90EF900895F62EA5
:100C60000B8D10E00F5F1F4F0F731127E02E8C8D3F
:100C70008E110CC00FB607FCFACFE889F989808184
:100C800085FFF5CFCE010E94E605F1CFEB8DEC0F8D
:100C9000FD2FF11DE35AFF4FF0829FB7F8940B8FA1
:100CA000EA89FB8980818062CFCFCF93DF93EC010B
:100CB000888D8823B9F0AA89BB89E889F9898C9144
:100CC00085FD03C0808186FD0DC00FB607FCF7CF00
:100CD0008C9185FFF2CF808185FFEDCFCE010E9400
:100CE000E605E9CFDF91CF910895FC0177FD55C06E
:100CF00080859185681779070CF04FC057FD4DC06E
:100D000082859385481759070CF047C08689823041
:100D100009F444C0833009F44EC0813031F48FE2CD
:100D200090E0861B970BBA01AC01842FA62F93A1EC
:100D3000691708F4962F93A394A19A1708F49A2F91
:100D400094A395A1891708F4982F95A396A19817B5
:100D500008F4982F96A3CA0157FD0796E3E09595EE
:100D60008795EA95E1F7A4E5A89FF001A99FF00D0A
:100D70001124E60FF71FE95FFE4FCA0168E070E03B
:100D80000E94A91941E050E001C0440F8A95EAF79A
:100D90008081232BB9F0842B8083089583E590E034
:100DA000DC01A61BB70BBD018FE290E0DC01A41BA8
:100DB000B50BAD01BACF83E590E0841B950BAB0179
:100DC000BC01B3CF40958423E7CF0895FC01637045
:100DD000668B8481958126813781613039F063305B
:100DE00029F091878087338722870895318720876C
:100DF0009387828708952F923F924F925F926F92CE
:100E00007F928F929F92AF92BF92CF92DF92EF929A
:100E1000FF920F931F93CF93DF93CDB7DEB76A97FF
:100E20000FB6F894DEBF0FBECDBF9A8F898F7A833D
:100E300069834A01D22E18870F833701BC2CDC014D
:100E400059962D913C915A972115310509F015C1FC
:100E500018968D919C911997681779070CF0D7C156
:100E60001A968D919C91481759070CF0D0C14C2CC3
:100E7000512CB6E0CB9E600D711D11247C876B87D1
:100E8000161617060CF0C3C1EA2DF0E0FA87E987C1
:100E900093E0EE0FFF1F9A95E1F7F88BEF87CF01F4
:100EA000840F951F181619060CF0B1C1A98DBA8DC3
:100EB00058968C91811104C0BFEABD1508F4D394F3
:100EC000A98DBA8DED91FC9111970284F385E02DE7
:100ED000CD010995B5E0DB9EC0011124E981FA81BD
:100EE000FC83EB83312C212C9C0128593F4F388FF8
:100EF0002F8B4A2D50E05E8B4D8BEF89F88DE20DE4
:100F0000F31D44919E828D82D12CC12C69817A81FE
:100F1000620D731D7A8B698B842F90E09C8B8B8B79
:100F2000E98DFA8DA081B18140FF82C0F1E0BF124E
:100F30006FC0AF126DC01C96ED91FC912F8138856A
:100F4000A4014C0D5D1D69897A89898D9A8D099559
:100F5000EB89FC89F595E7954E2F5FEFC51AD50A09
:100F60006D817E818D899E89680F791F7E836D8357
:100F700098E0C916D10481F6AFEF2A1A3A0AEB813C
:100F8000FC81E40DF51DFC83EB83F5E02F163104A5
:100F900009F0B3CF2F81388526153705B9F0A98D13
:100FA000BA8DED91FC91B1E0BB1257C0AB1255C0A8
:100FB00069817A816B5F7F4F0088F189E02D830121
:100FC00028E030E0A401898D9A8D0995A98DBA8D0C
:100FD000ED91FC9111970688F789E02DCD016A9675
:100FE0000FB6F894DEBF0FBECDBFDF91CF911F913A
:100FF0000F91FF90EF90DF90CF90BF90AF909F90B8
:101000008F907F906F905F904F903F902F900994BA
:101010001E96ED91FC91EF80F88409851A85920166
:101020004D815E816B817C81898D9A8D099590CFF0
:101030002F8138852615370509F48ACF31E0B312A0
:1010400007C0A31205C01C96ED91FC91930178CFC7
:101050001E96ED91FC917301E0CF6B857C85641940
:1010600075090684F785E02D73010F8518899201B3
:10107000A401898D9A8D0995A9CFF901349694918F
:10108000329745915491D91AB7E0DB9E400D511D1E
:101090001124F901259134913C8B2B8BFA01259079
:1010A0003490FA013296749031963491398B32969D
:1010B00064903196449041E04C1518F04A1508F0C0
:1010C0007FC0662D062C000C770B7C836B83842DF0
:1010D000042C000C990B9E838D83A98DBA8DED9104
:1010E000FC9111970284F385E02DCD010995512CD7
:1010F000D12CC12CEA2DF0E0FA87E9872B2D30E0C6
:101100003C872B87A401440D511D47FC5A95588FED
:101110004F8B69817A81660D711D67FC7A957E8798
:101120006D877989C71608F051CF2C2D30E04D819D
:101130005E81420F531FA985BA854A9FC0014B9F0C
:10114000900D5A9F900D1124FC01E80DF91DF88BAC
:10115000EF87852D612C4F89588D420F531F5E8B71
:101160004D8B671408F050C044244394480E877098
:1011700041F4C1010196EB89FC89E20DF31DD49085
:101180001C01D7FE19C0A98DBA8DED91FC91662D79
:1011900070E0B1E0BB1219C0AB1217C02D853E85BF
:1011A000620F731F0484F585E02D2F8138854D89EA
:1011B0005E89898D9A8D0995DD0C6394842DD1CF3C
:1011C0001E821D821C821B8288CF4B815C81640F32
:1011D000751FAB85BC856A9FC0016B9F900D7A9F80
:1011E000900D112469817A81680F791F0684F78533
:1011F000E02DEF80F88409851A859D014F85588977
:10120000898D9A8D0995D8CF570CC3948ACF6A9649
:101210000FB6F894DEBF0FBECDBFDF91CF911F9107
:101220000F91FF90EF90DF90CF90BF90AF909F9085
:101230008F907F906F905F904F903F902F90089588
:101240008F929F92AF92CF92EF92FF920F931F9344
:10125000CF93DF93EC01262F898D9A8D009709F0AB
:1012600051C06A30D1F41D861C868D8948E0849F68
:10127000900111248E859F85820F931F9F878E87F3
:1012800081E090E0DF91CF911F910F91FF90EF905F
:10129000CF90AF909F908F9008956D3089F3CC8858
:1012A000AD888F898823C1F08C859D8536E0C39EEB
:1012B000800D911D1124488559854817590764F4FC
:1012C0004E855F851D861C8638E0A39EC0011124D3
:1012D000840F951F9F878E87EA88FB880889198964
:1012E0004E855F856C857D85CE010E94FB062C892D
:1012F0008C859D8546E0249F800D911D11249D873E
:101300008C87BECF6A3069F41D861C86FC01389636
:10131000E4912D898E859F85E29F800D911D11247A
:10132000ADCF6D3009F4ACCFFC0134963491631726
:1013300008F4A6CF3296E491E61708F4A1CFFC0199
:10134000329685909490462F431B342F47E0349F6C
:10135000800C911C1124F401329634913196E49161
:101360003323A9F1EE2399F1CC88F4013596E49169
:10137000AD884F89442301F10E2E000CFF0BE30FC3
:10138000F11DCE9EA001CF9E500D11246C857D8550
:10139000460F571F68857985641775076CF44E856D
:1013A0005F851D861C86FC013896E491AE9E400D3B
:1013B000511D11245F874E87EA88FB8808891989A7
:1013C0004E855F856C857D85CE010E94FB06F4010C
:1013D0003496E4912C898C859D85E29F800D911D2A
:1013E00011248DCF6F927F928F929F92AF92BF9276
:1013F000CF92DF92EF92FF920F931F93CF93DF93E1
:10140000EC016B015A0139014801E881F98102843C
:10141000F385E02D0995E881F9810288F389E02DB3
:1014200087019301A501B601CE010995A501480DDB
:10143000591D41505109E881F9810288F389E02D55
:101440009301B601CE010995E881F9810088F189FF
:10145000E02D9401A501B601CE010995C60CD71C5B
:10146000B60161507109E881F9810088F189E02DA8
:101470009401A501CE010995E881F9810688F789D3
:10148000E02DCE01DF91CF911F910F91FF90EF9052
:10149000DF90CF90BF90AF909F908F907F906F9094
:1014A00009946F927F928F929F92AF92BF92CF9248
:1014B000DF92EF92FF920F931F93CF93DF935C0124
:1014C000EB016A01490138018701DC01ED91FC91D2
:1014D0006217730719F5641675062CF0962D872D83
:1014E0003A01C92ED82E9601261937092F5F3F4F92
:1014F000048CF58DE02DA301BE01C5010995DF9196
:10150000CF911F910F91FF90EF90DF90CF90BF9000
:10151000AF909F908F907F906F90089546155705DC
:1015200091F42617370724F0892D4B01C22FD82FAD
:101530009E01281939092F5F3F4F068CF78DE02D4A
:10154000A601B401DACF0284F385E02D0995D50117
:10155000ED91FC910488F589E02D83019401A601A9
:10156000BE01C5010995D501ED91FC910688F78969
:10157000E02DC501DF91CF911F910F91FF90EF906A
:10158000DF90CF90BF90AF909F908F907F906F90A3
:101590000994EF92FF920F931F93DC011A960D911D
:1015A0001C911B9718962D913C911997ED91FC91E8
:1015B00000A0F1A1E02D7B0150E040E070E060E090
:1015C00009951F910F91FF90EF9008954F925F92B0
:1015D0006F927F928F929F92AF92BF92CF92DF9243
:1015E000EF92FF920F931F93CF93DF936C012B0128
:1015F0005A0139014801DC01ED91FC910284F38527
:10160000E02D0995E201640C751CD601ED91FC9169
:10161000C615D7055CF40088F189E02D8701940197
:10162000A501BE01C60109952196EFCF0688F7896D
:10163000E02DC601DF91CF911F910F91FF90EF90A8
:10164000DF90CF90BF90AF909F908F907F906F90E2
:101650005F904F9009948F929F92AF92BF92CF92DA
:10166000DF92EF92FF920F931F93CF93DF93EC01E2
:101670005B014A016901E881F9810284F385E02D6B
:10168000099595012C0D3D1D21503109E881F98105
:101690000488F589E02D78018401A401B501CE010B
:1016A0000995E881F9810688F789E02DCE01DF915F
:1016B000CF911F910F91FF90EF90DF90CF90BF904F
:1016C000AF909F908F9009948F929F92AF92BF920C
:1016D000CF92DF92EF92FF920F931F93CF93DF93FE
:1016E000EC015B014A0169017801E881F98102841A
:1016F000F385E02D0995C80CD91C8601015011090C
:10170000E881F9810488F589E02D9501A401B501EE
:10171000CE010995E881F9810688F789E02DCE018F
:10172000DF91CF911F910F91FF90EF90DF90CF90BD
:10173000BF90AF909F908F900994EF92FF920F937C
:101740001F93DC01ED91FC9100A0F1A1E02D099522
:101750001F910F91FF90EF9008950F931F93DC015D
:10176000ED91FC91068CF78DE02D09951F910F915D
:1017700008950F931F93DC01ED91FC91048CF58D7E
:10178000E02D09951F910F910895DC01ED91FC91D9
:101790000084F185E02D09942F923F924F925F9241
:1017A0006F927F928F929F92AF92BF92CF92DF9271
:1017B000EF92FF920F931F93CF93DF9300D000D04F
:1017C00000D0CDB7DEB73C016A013E832D83FC8299
:1017D000EB825801A41AB50AB7FE03C0B194A194D4
:1017E000B1088D809E80861A970A97FE03C0919457
:1017F000819491088A149B045CF0902F812F0D81B5
:101800001E819D838E839C2D8D2D6B01692F782FDA
:101810000C151D055CF09D818E817E836D83692F83
:10182000782F902F812F8601C92ED82E1601201ACD
:10183000310A2B012D813E81421A530A57FE03C003
:10184000519441945108710137FE03C03FEFE31AF0
:10185000F30AF594E7948D819E81861797075CF5CE
:10186000A1E0B0E0BA83A983C016D1064CF1D30140
:10187000ED91FC910484F585E02D2B813C81A8013C
:101880006D817E818A149B041CF04D815E81B801BC
:10189000C3010995E418F508F7FE0AC02D813E81C1
:1018A00089819A81280F391F3E832D83E20CF31C16
:1018B0000F5F1F4FD9CF2FEF3FEF3A832983D4CF4C
:1018C00026960FB6F894DEBF0FBECDBFDF91CF9145
:1018D0001F910F91FF90EF90DF90CF90BF90AF904E
:1018E0009F908F907F906F905F904F903F902F9040
:1018F0000895089590E080E00895CF93CFB7F894CD
:1019000080917D03811127C0E0E9F5E08491E4EA4C
:10191000F5E09491E82FF0E0EE0FFF1FE859FA4F41
:10192000A591B491EC91E92321F461E08AE00E9451
:10193000680361E08AE00E9496038CB580618CBDEB
:101940008CB580648CBD61E08DE00E94960361E0FF
:101950008BE00E94960380917D038F5F80937D03CF
:10196000CFBFCF91089560919103709192038091C0
:1019700093039091940320E03FEF4FE757E40E94D8
:10198000CA1B20E030E040EA51E40E946B1A0E943A
:10199000E41A60938D0370938E0380938F0390936A
:1019A00090036091820370918303809184039091EE
:1019B000850320E030E040E251E40E946B1A20E011
:1019C00030E040E85FE30E94FA1920E030E040E0B8
:1019D0005FE30E94CA1B20E03FEF4FE757E40E94FD
:1019E000CA1B0E94E41A60937E0370937F03809366
:1019F0008003909381030895CF93C82F0E943F03E3
:101A0000019731F48C2F0E943F0321E0019709F0E8
:101A100020E0822FCF910895CF93C82F0E943F03DB
:101A2000892B31F48C2F0E943F0321E0892B09F090
:101A300020E0822FCF91089580E190E00E940C0D6C
:101A4000882319F081E0809388038FE090E00E9462
:101A50000C0D882319F081E0809386038EE090E0DE
:101A60000E940C0D882319F081E08093870308956C
:101A70000CB405FC0DC09EBD00000DB407FEFDCFEB
:101A80009EB58EBD00000DB407FEFDCF8EB5089546
:101A90008EBD00000DB407FEFDCF8EB59EBD0000CB
:101AA0000DB407FEFDCF9EB508950F931F93CF93FE
:101AB000DF938C01EB010E94B30C60E08AE00E948E
:101AC000680385E58EBD00000DB407FEFDCF8EB521
:101AD000C8010E94380D61E08AE00E94680361E05D
:101AE00070E080E090E00E94B40460E08AE00E9430
:101AF000680381E08EBD00000DB407FEFDCF8EB5FA
:101B000088819981AA81BB810E94380D61E08AE0B9
:101B10000E94680361E070E080E090E0DF91CF9187
:101B20001F910F910C94B4048CBD9DBD0895AF928C
:101B3000BF92CF92DF92EF92FF920F931F93CF93BA
:101B4000DF931F92CDB7DEB78C015B016A01DC0128
:101B50008D919C911197892B39F01296ED91FC9102
:101B6000808191810E94940DF80183858F3F19F047
:101B700060E00E9468037501CA0CDB1CEC14FD04D4
:101B8000A9F0D7018D917D018983F8018081918130
:101B9000892B29F0CE0101960E940C03EFCFBE01E4
:101BA0006F5F7F4FC8010E94DD03E8CFD8011B960D
:101BB0008C918F3F19F061E00E94680381E00F90E3
:101BC000DF91CF911F910F91FF90EF90DF90CF9019
:101BD000BF90AF9008950F931F93CF93DF931F9201
:101BE000CDB7DEB78C01698360E0FC01868D0E9471
:101BF000680341E050E0BE016F5F7F4FF801838DC5
:101C0000948D0E94970D0F90DF91CF911F910F91AE
:101C10000895CF93C82F87FDCFE7C0935D0461E29D
:101C20008EE394E00E94EB0D6C2F60688EE394E0ED
:101C30000E94EB0D60E28EE394E0CF910C94EB0DEB
:101C4000CF9380915B0487FD13C061E00E949603EF
:101C500060E080915B040E94680361E070E080E0D6
:101C600090E00E94B40461E080915B040E946803EC
:101C7000C0915E04C83008F0C7E0C0935E0461E222
:101C80008EE394E00E94EB0D6C2F60618EE394E094
:101C90000E94EB0D60E28EE394E00E94EB0D8091D8
:101CA0005D040E94090E60E28EE394E00E94EB0D59
:101CB0006CE08EE394E0CF910C94EB0DFF920F93C8
:101CC0001F93CF93DF9390915F04992339F0809114
:101CD00060048F5F8917E8F580936004D0916304F6
:101CE000D695D695D69584E5D89F8001112480910C
:101CF00064048695869586958D1780F16D2F6064B6
:101D00008EE394E00E94EB0DC0916104F0906204B8
:101D10006C2F60688EE394E00E94EB0D61E080918F
:101D20005C040E9468034F2D50E06C2F70E0461B4E
:101D3000570B4F5F5F4F600F711F695F7E4F809140
:101D4000590490915A040E94970DDF5F0C5A1F4F5F
:101D5000CECF109260040E94200EC0CF60E48EE3CC
:101D600094E00E94EB0D83E580936104109262047D
:101D70008FE28093630410926404DF91CF911F91EE
:101D80000F91FF9008951F93CF93DF93EC01162FCF
:101D900060E20E94EB0D6CE011116DE0CE01DF916D
:101DA000CF911F910C94EB0DE7E0F1E088EF91E00B
:101DB000DF019C011D9221503040E1F71092610437
:101DC00080916204833508F483E580936204109265
:101DD0006304809164048F3208F48FE2809364047A
:101DE00010924B0410924A0410924D0410924C042D
:101DF00008950E94611DFB0101900020E9F73197D1
:101E0000AF01461B570BDC01ED91FC910280F38181
:101E1000E02D09948F929F92AF92BF92EF92FF9222
:101E20000F931F93CF93DF93CDB7DEB7A1970FB674
:101E3000F894DEBF0FBECDBF7C01FA01CB0119A221
:101E4000223008F42AE08E010F5D1F4F822E912C64
:101E5000B12CA12CBF01A50194010E94BD19F9016B
:101E6000CA016A300CF5605DD8016E938D01232B99
:101E7000242B252B79F790E080E0109721F0BD010D
:101E8000C7010E94FB0EA1960FB6F894DEBF0FBEED
:101E9000CDBFDF91CF911F910F91FF90EF90BF9039
:101EA000AF909F908F900895695CDECFCF92DF92C4
:101EB000EF92FF920F931F93CF93DF936B01770FF6
:101EC000EE08FF08F7FE1FC0EC01E881F9810190E0
:101ED000F081E02D6DE209958C0144275527BA0168
:101EE0004C195D096E097F092AE0CE010E940A0F94
:101EF000800F911FDF91CF911F910F91FF90EF9075
:101F0000DF90CF9008952AE0B701A601DF91CF912D
:101F10001F910F91FF90EF90DF90CF900C940A0FDC
:101F20004F925F926F927F928F929F92AF92BF92E9
:101F3000CF92DF92EF92FF920F931F93CF936B019B
:101F40007C01742EAC019B010E94371C63E573E099
:101F5000811126C046015701E894B7F82FEF3FEFF3
:101F60004FE75FE7C501B4010E94371C81110CC027
:101F70002FEF3FEF4FE75FE7C501B4010E94661AFC
:101F800067E573E0181664F02FEF3FEF4FE75FE46B
:101F9000C701B6010E94C51B1816ACF46BE573E0CF
:101FA00080EA93E0CF911F910F91FF90EF90DF9027
:101FB000CF90BF90AF909F908F907F906F905F90E9
:101FC0004F900C94FB0E2FEF3FEF4FE75FECC701F4
:101FD000B6010E94661A87FDE1CF20E030E0A9013A
:101FE000C701B6010E94661A10E000E087FF0AC030
:101FF0006DE280EA93E00E9408068C01F7FAF09403
:10200000F7F8F094C0E060E070E080E09FE37C16B9
:1020100041F020E030E040E251E40E946B1ACF5FD3
:10202000F6CFA70196010E94FA192B013C010E94EC
:10203000E41A4B015C012AE0BC01A40180EA93E0B0
:102040000E940A0F7C01E00EF11ECC23D1F1C501E4
:10205000B4010E94131B9B01AC01C301B2010E9499
:10206000F9194B015C016EE280EA93E00E940806D8
:10207000E80EF91EC15028F120E030E040E251E4C2
:10208000C501B4010E94CA1B2B013C010E94E41A45
:102090004B01B12CA12C2AE0B501A40180EA93E008
:1020A0000E940A0FE80EF91EC501B4010E94131B1D
:1020B0009B01AC01C301B2010E94F9194B015C0103
:1020C000D9CFC701CF911F910F91FF90EF90DF9073
:1020D000CF90BF90AF909F908F907F906F905F90C8
:1020E0004F9008951F920F920FB60F9211242F93C5
:1020F0003F938F939F93AF93BF9380919803909159
:102100009903A0919A03B0919B033091970323E028
:10211000230F2D3758F50196A11DB11D209397036C
:102120008093980390939903A0939A03B0939B0391
:1021300080919C0390919D03A0919E03B0919F0379
:102140000196A11DB11D80939C0390939D03A093C4
:102150009E03B0939F03BF91AF919F918F913F9149
:102160002F910F900FBE0F901F90189526E8230F08
:102170000296A11DB11DD2CF1F920F920FB60F92E2
:1021800011242F933F934F935F936F937F938F937C
:102190009F93AF93BF93EF93FF93E0910301F0916F
:1021A00004010995FF91EF91BF91AF919F918F919C
:1021B0007F916F915F914F913F912F910F900FBE43
:1021C0000F901F9018951F920F920FB60F92112427
:1021D0002F933F934F935F936F937F938F939F932F
:1021E000AF93BF93EF93FF93E0910101F091020150
:1021F0000995FF91EF91BF91AF919F918F917F9141
:102200006F915F914F913F912F910F900FBE0F9063
:102210001F9018951F920F920FB60F9211242F93B3
:102220003F934F935F936F937F938F939F93AF935E
:10223000BF93EF93FF9380EA93E00E94E605FF913E
:10224000EF91BF91AF919F918F917F916F915F912E
:102250004F913F912F910F900FBE0F901F901895A7
:102260001F920F920FB60F9211242F938F939F936B
:10227000EF93FF93E091B003F091B1038081E0917F
:10228000B603F091B70382FD1BC090818091B90322
:102290008F5F8F732091BA03821741F0E091B903E9
:1022A000F0E0E056FC4F958F8093B903FF91EF91DA
:1022B0009F918F912F910F900FBE0F901F901895A7
:1022C0008081F4CF0F931F93CF93DF93E0EAF3E085
:1022D0001382128288EE93E0A0E0B0E084839583BD
:1022E000A683B78389E193E09183808385EC90E0B6
:1022F0009587848784EC90E09787868780EC90E0D0
:10230000918B808B81EC90E0938B828B82EC90E0C0
:10231000958B848B86EC90E0978B868B118E128E3A
:10232000138E148E0E948F046093690470936A0464
:1023300080936B0490936C040E948F0460936504F7
:10234000709366048093670490936804CEE3D4E0AE
:102350001B821A8224E530E03D832C8380E390E0E9
:102360009F838E83398728879B878A871E8A1D864D
:102370001C861F861E8681E08D8B8C8B2FEF3FEF96
:102380003B8B2A8B398B288B8F8B188E1A8E198E4C
:102390008BE293E0998388838CE190E00E943C1C5F
:1023A0008C0185E0F80183878FEF86878587848796
:1023B0008DE394E091838083138E82E090E00E940D
:1023C0003C1C20E5FC0120831182F8019383828369
:1023D00080E099E0ADE3B0E084839583A683B78382
:1023E00081E090E09187808712861C8F0B8F86E0BA
:1023F0008E8F84E08D8FDF91CF911F910F91089583
:10240000CF93DF93CDB7DEB72E970FB6F894DEBF2C
:102410000FBECDBF789484B5826084BD84B58160E1
:1024200084BD85B5826085BD85B5816085BD80919F
:102430006E00816080936E00109281008091810017
:10244000826080938100809181008160809381000F
:10245000809180008160809380008091B1008460D1
:102460008093B1008091B00081608093B000809132
:102470007A00846080937A0080917A0082608093F1
:102480007A0080917A00816080937A0080917A004E
:10249000806880937A001092C100E091B003F091BF
:1024A000B10382E08083E091AC03F091AD03108230
:1024B000E091AE03F091AF038FEC80831092B803EC
:1024C000E091B403F091B50386E08083E091B2031C
:1024D000F091B303808180618083E091B203F09139
:1024E000B303808188608083E091B203F091B303ED
:1024F000808180688083E091B203F091B303808192
:102500008F7D80836FE573E080EA93E00E94FB0E8D
:1025100060E773E080EA93E00E94FB0E61E08DE0EB
:102520000E9496030E947D0C81E590E00E94940D2C
:1025300061E08AE00E9496032091590430915A0488
:102540003A832983F90183858F3F49F061E00E9436
:10255000960361E0E981FA8183850E946803E9813D
:10256000FA8180819181892B09F477C00E947D0CCA
:1025700081E0E981FA81838F61E080915C040E94AF
:10258000960380915B0487FD03C061E00E9496037F
:1025900084E080935E0488E280935D0410925F047F
:1025A000109260040E94200E1092610480916204D7
:1025B000833508F483E5809362041092630480916C
:1025C00064048F3208F48FE2809364040E945E0EEC
:1025D00084E60E94090E0E94D40E62E080E10E940F
:1025E000960362E08FE00E94960362E08EE00E9414
:1025F000960362E082E00E94960362E083E00E941C
:10260000960327EE34E0309302012093010180917C
:1026100069008C7F816080936900E89A309304019F
:102620002093030180916900837F84608093690017
:10263000E99A80919503909196030097C1F10197D3
:1026400009F440C480E090E0892B99F30E94D20500
:10265000882379F30E940000ECCF61E0E981FA81E0
:1026600084850E949603E981FA8182858B7F60E0F0
:1026700019F061E0E981FA8184850E946803E981AB
:10268000FA8185858F3F49F061E00E94960361E001
:10269000E981FA8185850E946803E981FA8186854E
:1026A0008F3F09F465CF60E00E94960361CF1D82E1
:1026B000F1E0F9838FB7F894209198033091990352
:1026C00040919A0350919B0329873A874B875C87F7
:1026D0008FBF3981332309F4BCC10E94D40E80908E
:1026E000820390908303A0908403B090850360914F
:1026F000820370918303809184039091850320E08D
:1027000030E0A9010E94661A87FF1FC0B7FAB09493
:10271000B7F8B094EE24E394F12C0AE010E024E042
:1027200030E04AE050E070E060E08EE394E00E9428
:10273000510A0BE010E024E030E04BE050E070E0A4
:1027400060E08EE394E00E94510AC501B4010E944A
:10275000DD1A6B017A836983072E000C880B990BB5
:102760000E94151B9B01AC01C501B4010E94F9191F
:1027700020E030E048EC52E40E94CA1B2B013C01EF
:1027800083E08093520480935304A6014A3051059C
:102790000CF029C287E090E090934B0480934A04A8
:1027A00010924D0410924C0463E773E08EE394E0C2
:1027B0000E94FB0EE9E1F0E0F0934B04E0934A0441
:1027C00010924D0410924C04B6018EE394E00E94E6
:1027D000560FC301B2010E94DD1A6B0120E030E008
:1027E00040E151E4C301B2010E94661A18160CF4CC
:1027F00001C240E350E050934B0440934A041092CE
:102800004D0410924C0463E773E08EE394E00E9461
:10281000FB0E82E490E090934B0480934A04109264
:102820004D0410924C04B6018EE394E00E94560FC2
:1028300082E08093520480935304E6E2F0E0F09348
:102840004B04E0934A0428E030E030934D04209399
:102850004C0465E773E08EE394E00E94FB0E48E4CD
:1028600050E050934B0440934A0480E290E09093F0
:102870004D0480934C0467E773E08EE394E00E947C
:10288000FB0E8091050190910601EE24E394F12C5A
:1028900008E110E027E230E048E150E068E170E054
:1028A000019731F021E530E048E150E062E470E06A
:1028B0008EE394E00E94510A81E080935204809359
:1028C00053049D81992309F4A8C101E010E02DE093
:1028D00030E043E250E066E070E08EE394E00E9476
:1028E000B90BE1E0F0E0FC83EB8396E0492E512C3C
:1028F000712C612C26E030E03E872D8744EF5FEF9E
:102900005A8349832BEF222E33243A943FEF631AE4
:10291000730A4B815C814E5F5F4F5C834B83240E57
:10292000351E8D859E85861597050CF40BC56C01AB
:10293000CC0CDD1C9FEFC91AD90A01E010E096010A
:1029400089E2E82EF12CED85FE85EE1AFF0AA7013B
:10295000B3016A5F7F4F8EE394E00E94B90B96014A
:10296000A70166E070E0661977098EE394E00E94A3
:10297000B90B2D853E852415350509F1B2016A5F35
:102980007F4F01E010E0CB80DC8032E0C31AD10839
:102990009601AAE2EA2EF12CE618F708A7018EE3C9
:1029A00094E00E94B90B66E070E064197509960125
:1029B000A7018EE394E00E94B90B4D845E848D855F
:1029C0009E85681679060CF418C16EE773E083E003
:1029D00090E20E94550D42E0C501B4010E94900FA3
:1029E00060E773E080EA93E00E94FB0E609182034F
:1029F00070918303809184039091850342E00E944B
:102A0000900F60E773E080EA93E00E94FB0E409134
:102A10007E0350917F0360918003709181032AE0CF
:102A200080EA93E00E940A0F60E773E080EA93E097
:102A30000E94FB0E9D81692F70E080EA93E00E9466
:102A4000560F60E773E080EA93E00E94FB0E0E945D
:102A50005E0E0E941C0D80918B0390918C0320913F
:102A6000890330918A038217930709F407C24091C2
:102A7000890350918A032091050130910601841742
:102A800095070CF0AEC14091890350918A038417D9
:102A900095070CF07CC14091890350918A030A96F6
:102AA000841795070CF073C12130310509F07FC1FF
:102AB00060918203709183038091840390918503D8
:102AC00020E030E040E251E40E94FA196093820372
:102AD00070938303809384039093850360918203B2
:102AE00070918303809184039091850320E030E00E
:102AF00040E251EC0E94661A87FDB6C160918203E4
:102B000070918303809184039091850320E030E0ED
:102B100040E251E40E94C51B18160CF4AAC1809132
:102B2000820390918303A0918403B09185038093E5
:102B3000820390938303A0938403B09385038091D1
:102B4000890390918A0390938C0380938B0391E087
:102B50009983ED81EE2331F06EE773E083E090E23C
:102B60000E94550D809188038823B9F080E190E0A0
:102B70000E94FC0C882389F0209105013091060108
:102B80002130310509F07CC122E030E030930601AC
:102B900020930501109288038983809187038823FD
:102BA00069F08EE090E00E94FC0C882339F091E0FF
:102BB000FD81F927FD831092870389838091860325
:102BC000882309F460C18FE090E00E94FC0C882308
:102BD00009F459C181E090E09093960380939503A6
:102BE000109286032FCD27E030E030934B042093E2
:102BF0004A04E6CD80E390E00ECE37FC87CEED852B
:102C0000FE853197FE87ED8729813A812E5F3F4F00
:102C10003A832983220E331E79CE21E030E04FE241
:102C200050E066E070E08EE394E00E94C50B21E086
:102C300030E043E250E066E070E08EE394E00E9412
:102C4000C50B21E030E049E250E06CE070E08EE33B
:102C500094E00E94C50B21E030E049E250E070E0D2
:102C600060E08EE394E00E94C50B41E050E05C839D
:102C70004B83712C612C06E010E0E4EF4E2E5524BE
:102C80005A94FBEF2F2E33243A948FEF681A780A68
:102C9000EB81FC813296FC83EB832E0E3F1E630199
:102CA000F6E0CF0ED11C21E030E0A801475D5F4F78
:102CB0005A834983B6018EE394E00E94C50B66E017
:102CC000E62EF12CE618F70821E030E049815A8120
:102CD000B7018EE394E00E94C50B21E030E089E269
:102CE00090E0801B910B9A838983AC01B6018EE33F
:102CF00094E00E94C50B21E030E049815A81B70180
:102D00008EE394E00E94C50BF301B996FA83E98340
:102D100021E030E0AF017801F6E0EF0EF11CB701E1
:102D20008EE394E00E94C50B21E030E049815A8196
:102D300086E090E0801B910B9A838983BC018EE32F
:102D400094E00E94C50B79E2C72ED12CC618D70893
:102D500021E030E0A601B7018EE394E00E94C50BAC
:102D600021E030E0A60169817A818EE394E00E943F
:102D7000C50B601671060CF028CE37FC86CF0150CB
:102D8000110952E0450E511C240C351C7ECF213018
:102D90003105D1F4609182037091830380918403A3
:102DA0009091850320E030E040E85FE38DCE6091B4
:102DB00082037091830380918403909185032DECAD
:102DC0003CEC4CEC5DE380CE609182037091830318
:102DD00080918403909185032AE037ED43E25CE320
:102DE00073CE4091890350918A034817590744F4E0
:102DF0004091890350918A030A974817590784F034
:102E00002130310521F56091820370918303809117
:102E100084039091850320E030E040E85FE30FC039
:102E20006091820370918303809184039091850364
:102E30002130310539F420E030E040E251E40E94D5
:102E4000F91944CE2DEC3CEC4CEC5DE3F8CF6091ED
:102E500082037091830380918403909185032AE01B
:102E600037ED43E25CE3EBCF80E090E0A0E2B1EC31
:102E70005ECE80E090E0A0E2B1E459CE198269CE46
:102E80002150310983CE2FB7F89480919803909107
:102E90009903A0919A03B0919B032FBF29853A858E
:102EA0004B855C85821B930BA40BB50B4997A10541
:102EB000B10508F0FFCB62E070E080E090E00E9496
:102EC000B404E1CF198211E032E0B32E40E3242EA6
:102ED000312C57E0852E912CAA24A3948FB7F89417
:102EE000209198033091990340919A0350919B034C
:102EF0002D833E834F8358878FBF112309F4C0C0B1
:102F00006091910370919203809193039091940347
:102F10000E94DD1A6B018B01409091035090920347
:102F20006090930370909403072E000C880B990B0C
:102F30000E94151B9B01AC01C301B2010E94F9194B
:102F400020E030E048EC52E40E94CA1B2B013C0117
:102F50000E94D40E33E03093520430935304909285
:102F60004B0480924A0410924D0410924C040A3093
:102F7000110584F463E773E08EE394E00E94FB0E96
:102F800049E150E050934B0440934A0410924D04A1
:102F900010924C04B6018EE394E00E94560FC301D8
:102FA000B2010E94DD1A6B0120E030E040E151E403
:102FB000C301B2010E94661A30924B0420924A0467
:102FC00010924D0410924C04181684F063E773E0DD
:102FD0008EE394E00E94FB0E82E490E090934B0419
:102FE00080934A0410924D0410924C04B6018EE373
:102FF00094E00E94560FB0925204B092530486E2BD
:1030000090E090934B0480934A04E8E0F0E0F09362
:103010004D04E0934C0465E773E08EE394E00E9476
:10302000FB0E2CE330E030934B0420934A0440E243
:1030300050E050934D0440934C0469E773E08EE3F5
:1030400094E00E94FB0E8091050190910601EE2410
:10305000E394F12C08E110E027E230E048E150E091
:1030600068E170E0019731F021E530E048E150E09F
:1030700062E470E08EE394E00E94510A0E945E0ECA
:103080005981552341F00E94B30C6DE873E086E04E
:1030900090E20E94550D0E941C0D80918B0390912F
:1030A0008C032091890330918A0310E082179307E3
:1030B00009F470C04091890350918A032091050161
:1030C00030910601841795070CF0CAC0409189031E
:1030D00050918A03841795070CF098C0409189039A
:1030E00050918A030A96841795070CF08FC02130FF
:1030F000310509F09BC0609191037091920380911A
:1031000093039091940320E030E040E251E40E9468
:10311000FA196093910370939203809393039093B1
:103120009403609191037091920380919303909125
:10313000940320E030E0A9010E94661A87FDD3C005
:103140006091910370919203809193039091940305
:1031500020E030E040EC51E40E94C51B18160CF44E
:10316000C6C08091910390919203A0919303B09176
:1031700094038093910390939203A0939303B0934D
:1031800094038091890390918A0390938C03809398
:103190008B0311E0809188038823B9F080E190E0EF
:1031A0000E94FC0C882389F02091050130910601D2
:1031B0002130310509F0A0C0E2E0F0E0F093060113
:1031C000E093050110928803182F809187038823CC
:1031D00061F08EE090E00E94FC0C882331F0F981D0
:1031E000FA25F98310928703182F8091860388238C
:1031F00009F489C08FE090E00E94FC0C882309F458
:1032000082C01092960310929503EACC21303105CA
:10321000D1F4609191037091920380919303909106
:10322000940320E030E040E85FE371CF60919103C8
:103230007091920380919303909194032DEC3CEC58
:103240004CEC5DE364CF60919103709192038091A7
:103250009303909194032AE037ED43E25CE357CF68
:103260004091890350918A034817590744F44091CB
:10327000890350918A030A974817590784F021302F
:10328000310521F560919103709192038091930330
:103290009091940320E030E040E85FE30FC060913C
:1032A0009103709192038091930390919403213044
:1032B000310539F420E030E040E251E40E94F91990
:1032C00028CF2DEC3CEC4CEC5DE3F8CF6091910302
:1032D0007091920380919303909194032AE037EDCB
:1032E00043E25CE3EBCF80E090E0DC0142CF80E0A2
:1032F00090E0A0ECB1E43DCF2150310930930601BC
:10330000209305015FCF2FB7F89480919803909197
:103310009903A0919A03B0919B032FBF2D813E8109
:103320004F815885821B930BA40BB50B4997A105C0
:10333000B10508F0D3CD62E070E080E090E00E943B
:10334000B404E1CF4D855E854415550509F016CBD3
:103350003CCB97FB072E16F4009407D077FD09D0DD
:103360000E94DF1907FC05D03EF4909581959F4F90
:103370000895709561957F4F0895A1E21A2EAA1BBA
:10338000BB1BFD010DC0AA1FBB1FEE1FFF1FA21715
:10339000B307E407F50720F0A21BB30BE40BF50B12
:1033A000661F771F881F991F1A9469F7609570959B
:1033B000809590959B01AC01BD01CF010895AA1B9A
:1033C000BB1B51E107C0AA1FBB1FA617B70710F010
:1033D000A61BB70B881F991F5A95A9F78095909542
:1033E000BC01CD010895EE0FFF1F0590F491E02D73
:1033F00009945058BB27AA270E94111A0C948B1BC2
:103400000E947D1B38F00E94841B20F039F49F3FFE
:1034100019F426F40C947A1B0EF4E095E7FB0C9457
:10342000741BE92F0E949C1B58F3BA17620773079D
:103430008407950720F079F4A6F50C94BE1B0EF4D2
:10344000E0950B2EBA2FA02D0B01B90190010C01B4
:10345000CA01A0011124FF27591B99F0593F50F4CC
:10346000503E68F11A16F040A22F232F342F442724
:10347000585FF3CF469537952795A795F04053951C
:10348000C9F77EF41F16BA0B620B730B840BBAF0EC
:103490009150A1F0FF0FBB1F661F771F881FC2F757
:1034A0000EC0BA0F621F731F841F48F4879577956B
:1034B0006795B795F7959E3F08F0B0CF9395880F25
:1034C00008F09927EE0F9795879508950E94501B55
:1034D00008F481E008950E947F1A0C948B1B0E94CF
:1034E000841B58F00E947D1B40F029F45F3F29F0B7
:1034F0000C94741B51110C94BF1B0C947A1B0E94EA
:103500009C1B68F39923B1F3552391F3951B550B3D
:10351000BB27AA2762177307840738F09F5F5F4FA6
:10352000220F331F441FAA1FA9F335D00E2E3AF0E5
:10353000E0E832D091505040E695001CCAF72BD0FD
:10354000FE2F29D0660F771F881FBB1F261737074E
:103550004807AB07B0E809F0BB0B802DBF01FF2780
:1035600093585F4F3AF09E3F510578F00C94741BCE
:103570000C94BF1B5F3FE4F3983ED4F38695779598
:103580006795B795F7959F5FC9F7880F911D969539
:10359000879597F90895E1E0660F771F881FBB1F95
:1035A000621773078407BA0720F0621B730B840B42
:1035B000BA0BEE1F88F7E09508950E94E41A68940C
:1035C000B1110C94BF1B08950E94A41B88F09F5753
:1035D00098F0B92F9927B751B0F0E1F0660F771F37
:1035E000881F991F1AF0BA95C9F714C0B13091F02D
:1035F0000E94BE1BB1E008950C94BE1B672F782F6C
:103600008827B85F39F0B93FCCF3869577956795F1
:10361000B395D9F73EF490958095709561957F4F5D
:103620008F4F9F4F0895E89409C097FB3EF4909503
:103630008095709561957F4F8F4F9F4F9923A9F08B
:10364000F92F96E9BB279395F6958795779567951A
:10365000B795F111F8CFFAF4BB0F11F460FF1BC05E
:103660006F5F7F4F8F4F9F4F16C0882311F096E9F1
:1036700011C0772321F09EE8872F762F05C066239F
:1036800071F096E8862F70E060E02AF09A95660F58
:10369000771F881FDAF7880F9695879597F9089511
:1036A000990F0008550FAA0BE0E8FEEF1616170653
:1036B000E807F907C0F012161306E407F50798F0BB
:1036C000621B730B840B950B39F40A2661F0232BD4
:1036D000242B252B21F408950A2609F4A140A69550
:1036E0008FEF811D811D089597F99F6780E870E035
:1036F00060E008959FEF80EC089500240A94161668
:10370000170618060906089500240A9412161306CF
:10371000140605060895092E0394000C11F488235D
:1037200052F0BB0F40F4BF2B11F460FF04C06F5F79
:103730007F4F8F4F9F4F089557FD9058440F551F4F
:1037400059F05F3F71F04795880F97FB991F61F023
:103750009F3F79F087950895121613061406551F9A
:10376000F2CF4695F1DF08C0161617061806991F06
:10377000F1CF86957105610508940895E894BB27FB
:1037800066277727CB0197F908950E94501B08F40C
:103790008FEF08950E94DD1B0C948B1B0E947D1BF4
:1037A00038F00E94841B20F0952311F00C94741BB8
:1037B0000C947A1B11240C94BF1B0E949C1B70F369
:1037C000959FC1F3950F50E0551F629FF001729FC6
:1037D000BB27F00DB11D639FAA27F00DB11DAA1FD5
:1037E000649F6627B00DA11D661F829F2227B00D22
:1037F000A11D621F739FB00DA11D621F839FA00DAD
:10380000611D221F749F3327A00D611D231F849FFC
:10381000600D211D822F762F6A2F11249F57504053
:103820009AF0F1F088234AF0EE0FFF1FBB1F661FCE
:10383000771F881F91505040A9F79E3F510580F097
:103840000C94741B0C94BF1B5F3FE4F3983ED4F3BD
:10385000869577956795B795F795E7959F5FC1F73B
:10386000FE2B880F911D9695879597F908950E94D4
:10387000501B880B990B08950F931F93CF93DF93E1
:103880008230910510F482E090E0E0916F04F091B5
:10389000700430E020E0B0E0A0E0309799F421150A
:1038A000310509F44AC0281B390B24303105D8F5FD
:1038B0008A819B816115710589F1FB019383828364
:1038C000FE0111C0408151810281138148175907BF
:1038D000E0F04817590799F4109761F012960C938D
:1038E000129713961C933296CF01DF91CF911F91BF
:1038F0000F91089500936F0410937004F4CF211575
:10390000310551F04217530738F0A901DB019A0144
:10391000BD01DF01F801C1CFEF01F9CF9093700431
:1039200080936F04CDCFFE01E20FF31F819391933B
:103930002250310939832883D7CF20916D043091EB
:103940006E04232B41F42091010330910203309344
:103950006E0420936D042091FF0230910003211525
:10396000310541F42DB73EB7409103035091040354
:10397000241B350BE0916D04F0916E04E217F30700
:10398000A0F42E1B3F0B2817390778F0AC014E5FCF
:103990005F4F2417350748F04E0F5F1F50936E049A
:1039A00040936D04819391939FCFF0E0E0E09CCF32
:1039B000CF93DF930097E9F0FC01329713821282D4
:1039C000A0916F04B0917004ED0130E020E01097F9
:1039D000A1F420813181820F931F20916D043091D9
:1039E0006E042817390709F061C0F0936E04E09364
:1039F0006D04DF91CF910895EA01CE17DF07E8F556
:103A00004A815B819E0141155105B1F7E901FB83B4
:103A1000EA8349915991C40FD51FEC17FD0761F452
:103A2000808191810296840F951FE9019983888393
:103A3000828193819B838A83F0E0E0E012968D91EE
:103A40009C9113970097B9F52D913C911197CD0159
:103A50000296820F931F20916D0430916E042817F7
:103A6000390739F6309751F51092700410926F04AF
:103A7000B0936E04A0936D04BCCFD383C283408106
:103A80005181840F951FC817D90761F44E5F5F4FAE
:103A900088819981480F591F518340838A819B8176
:103AA000938382832115310509F0B0CFF093700420
:103AB000E0936F049ECFFD01DC01C0CF1382128220
:103AC000D7CF81E090E0F8940C94661DF894FFCF76
:103AD000036705670501000000000000000000000A
:103AE00000000000000000000000000000000000D6
:103AF00000000000000000000000000000C0E0F036
:103B0000F8FCFCFEFFFCE0000000000000000000EC
:103B100000000000000000000000000000000000A5
:103B20000000000000000000000000000000000095
:103B3000000000000000000000000000F8F8F8F8A5
:103B4000F8F8F8F8F8F8F8F8F0F0E0E0C080C0FC19
:103B5000FFFFFFFF7F3F7FFFFFFFFFFF0000000031
:103B60000000000000000000000000000000000055
:103B70000000000000000000000000000000000045
:103B80000000000000000000000000000000000035
:103B9000000F1F3F7FFFFFFFFFFFFFFFFFE7C7C7CC
:103BA000878F9F9FFFFFFFC1C0E0FCFFFFFFFFFF6C
:103BB000FCFCFCFCFEFEFEFCFCF8F8F0E0C0C000E3
:103BC00000000000000000000000000000000000F5
:103BD00000000000000000000000000000000000E5
:103BE000000000000000000080C0E0F1FBFFFFFFCC
:103BF000FFFF7F1F0F0F87E7FFFFFF1F1F3FF9F832
:103C0000F8F8F8F8F8FDFFFFFFFFFFFFFFFFFF7F69
:103C10003F0F07010000000000000000000000004E
:103C20000000000000000000000000000000000094
:103C300000000000000000000000F0FEFFFFFFFF9A
:103C4000FFFFFFFFFFFFFE7E3F3F0F1FFFFFFFFC59
:103C5000F0E0F1FFFFFFFFFFFCF0010101010101B6
:103C60000101000000000000000000000000000052
:103C70000000000000000000000000000000000044
:103C8000000000000000000000000000000003032E
:103C9000030303030303010101010000000000000E
:103CA00000030F1F3F7F7FFFFFFFFF7F7F1F03008A
:103CB0000000000000000000000000000000000004
:103CC00000000000000000000000000000000000F4
:103CD000007104800000FF0100010000FFFF0000F0
:103CE000010001FF00000000000806680595055569
:103CF00006C605A405B80500000000200968057A7D
:103D00000C790C7506E604C50B9D0BB90BAD0BCCFD
:103D10000BE604E606C30E640B2B0BE60AC90A5138
:103D20000AF2096E616E00696E66006F7666004485
:103D3000454242554720424547494E202121210016
:0C3D40000D0A0030002E0056006D4100FE
:00000001FF
