:100000000C94E2020C9458140C9431140C940A03CE
:100010000C940A030C940A030C940A030C940A032C
:100020000C940A030C940A030C940A030C940A031C
:100030000C940A030C940A030C940A030C940A030C
:100040000C94E7130C940A030C94A5140C947F14DD
:100050000C940A030C940A030C940A030C940A03EC
:100060000C940A030C940A0300000000003E5B4F4E
:100070005B3E3E6B4F6B3E1C3E7C3E1C183C7E3C08
:10008000181C577D571C1C5E7F5E1C00183C180016
:10009000FFE7C3E7FF0018241800FFE7DBE7FF30A6
:1000A000483A060E2629792926407F050507407F14
:1000B00005253F5A3CE73C5A7F3E1C1C08081C1C87
:1000C0003E7F14227F22145F5F005F5F06097F017D
:1000D0007F006689956A606060606094A2FFA29468
:1000E00008047E040810207E201008082A1C080836
:1000F0001C2A08081E101010100C1E0C1E0C303884
:100100003E3830060E3E0E06000000000000005F84
:1001100000000007000700147F147F14242A7F2AA0
:100120001223130864623649562050000807030062
:10013000001C2241000041221C002A1C7F1C2A08AE
:10014000083E080800807030000808080808000011
:1001500060600020100804023E5149453E00427F85
:10016000400072494949462141494D331814127FD4
:100170001027454545393C4A494931412111090774
:100180003649494936464949291E000014000000F5
:1001900040340000000814224114141414140041C7
:1001A00022140802015909063E415D594E7C121184
:1001B000127C7F494949363E414141227F414141BC
:1001C0003E7F494949417F090909013E4141517337
:1001D0007F0808087F00417F41002040413F017FA8
:1001E000081422417F404040407F021C027F7F0470
:1001F00008107F3E4141413E7F090909063E4151B9
:10020000215E7F09192946264949493203017F01A8
:10021000033F4040403F1F2040201F3F4038403FA9
:10022000631408146303047804036159494D4300BF
:100230007F4141410204081020004141417F0402F6
:10024000010204404040404000030708002054548D
:1002500078407F284444383844444428384444286B
:100260007F385454541800087E090218A4A49C78BE
:100270007F0804047800447D40002040403D007F1A
:100280001028440000417F40007C047804787C08FA
:100290000404783844444438FC18242418182424CE
:1002A00018FC7C08040408485454542404043F44B3
:1002B000243C4040207C1C2040201C3C4030403CE2
:1002C00044281028444C9090907C4464544C440042
:1002D00008364100000077000000413608000201A6
:1002E0000204023C2623263C1EA1A161123A404092
:1002F000207A38545455592155557941225454780F
:1003000042215554784020545579400C1E527212A7
:100310003955555559395454545939555454580030
:1003200000457C410002457D420001457C407D1234
:1003300011127DF0282528F07C5455450020545496
:100340007C547C0A097F4932494949323A44444441
:100350003A324A4848303A4141217A3A424020787C
:10036000009DA0A07D3D4242423D3D4040403D3C7D
:1003700024FF2424487E4943662B2FFC2F2BFF09A2
:1003800029F620C0887E0903205454794100004496
:100390007D413048484A32384040227A007A0A0A81
:1003A000727D0D19317D2629292F282629292926F4
:1003B00030484D4020380808080808080808382F39
:1003C00010C8ACBA2F102834FA00007B00000814C3
:1003D0002A142222142A14085500550055AA55AA99
:1003E00055AAFF55FF55FF000000FF00101010FF39
:1003F00000141414FF001010FF00FF1010F010F094
:10040000141414FC001414F700FF0000FF00FF1484
:1004100014F404FC141417101F10101F101F1414D0
:10042000141F00101010F0000000001F101010101A
:100430001F10101010F010000000FF10101010100E
:1004400010101010FF10000000FF140000FF00FF4C
:1004500000001F10170000FC04F4141417101714E8
:1004600014F404F40000FF00F7141414141414140A
:10047000F700F7141414171410101F101F1414147D
:10048000F4141010F010F000001F101F0000001FE7
:1004900014000000FC140000F010F01010FF10FF1A
:1004A000141414FF141010101F00000000F010FFAF
:1004B000FFFFFFFFF0F0F0F0F0FFFFFF0000000093
:1004C00000FFFF0F0F0F0F0F3844443844FC4A4A17
:1004D0004A347E02020606027E027E0263554941CC
:1004E000633844443C04407E201E2006027E020203
:1004F00099A5E7A5991C2A492A1C4C7201724C3017
:100500004A4D4D303048784830BC625A463D3E49ED
:100510004949007E0101017E2A2A2A2A2A44445F91
:10052000444440514A444040444A51400000FF0185
:1005300003E080FF000008086B6B08361236243693
:10054000060F090F060000181800000010100030F8
:1005500040FF0101001F01011E00191D1712003C80
:100560003C3C3C000000000000000000240027008C
:100570002A0000000000250028002B0000000000D9
:1005800023002600290004040404040404040202D5
:100590000202020203030303030301020408102002
:1005A000408001020408102001020408102000000D
:1005B0000008000201000003040700000000000022
:1005C0000000D71411241FBECFEFD8E0DEBFCDBF8F
:1005D00014E0A0E0B1E0EEE1F6E402C005900D9277
:1005E000AA30B107D9F725E0AAE0B4E001C01D9216
:1005F000A730B207E1F712E0C2EED2E004C02197C3
:10060000FE010E94801FC13ED107C9F70E947515E7
:100610000C940D230C940000FC0120812EBD0DB420
:1006200007FEFDCF2EB5FC01208308950895833089
:1006300081F028F4813099F08230A9F00895873054
:10064000A9F08830C9F08430B1F4809180008F7DAA
:1006500003C0809180008F7780938000089584B5D7
:100660008F7784BD089584B58F7DFBCF8091B000D6
:100670008F778093B00008958091B0008F7DF9CF7F
:10068000CF93DF93282F30E0F901E255FA4F8491A0
:10069000F901E656FA4FD491F901EA57FA4FC4919D
:1006A000CC23A1F081110E941703EC2FF0E0EE0F94
:1006B000FF1FE458FA4FA591B491EC91ED2381E02E
:1006C00090E009F480E0DF91CF91089580E090E020
:1006D000FACF1F93CF93DF93282F30E0F901E25533
:1006E000FA4F8491F901E656FA4FD491F901EA578D
:1006F000FA4FC491CC23A9F0162F81110E94170341
:10070000EC2FF0E0EE0FFF1FEE58FA4FA591B491D9
:100710008FB7F894EC91111108C0D095DE23DC93CB
:100720008FBFDF91CF911F910895DE2BF8CFCF932C
:10073000DF9390E0FC01E656FA4F24918A579A4FD6
:10074000FC0184918823C9F090E0880F991FFC0177
:10075000E859FA4FA591B491FC01EE58FA4FC591B2
:10076000D49161110DC09FB7F8948C91209582238C
:100770008C938881282328839FBFDF91CF91089590
:10078000623051F49FB7F8943C91822F8095832377
:100790008C93E8812E2BEFCF8FB7F894EC912E2B12
:1007A0002C938FBFEACF8E3008F08E508770806414
:1007B00080937C0080917A00806480937A0080919D
:1007C0007A0086FDFCCF80917800909179000895A1
:1007D0008230910538F0880F991F880F991F05976F
:1007E0000197F1F708959F92AF92BF92CF92DF9257
:1007F000EF92FF920F931F93CF93DF93EC016B0166
:100800008885998511E0892B09F010E8F601A08010
:100810008A2D8123992493948111912C2C813D81DF
:100820004E815F8160E271EA87E090E00E94421FA2
:10083000022FB12CE22EF12C002319F0C7010E94E7
:10084000E8038A85877F09F04FC08D858F3F89F047
:100850009A2D912381E009F480E0891551F0EF850C
:10086000F8898F899923D1F19081892B80839924EC
:100870009394E989FA898081998D892B808300235B
:1008800019F0C7010E94E8038E858F3F39F0EB898C
:10089000FC898081988D892309F0B12AE989FA8938
:1008A0009081898D8095892380838E858F3F11F07B
:1008B000F601B08288859985892B09F044C0110F13
:1008C0001111BACFDF91CF911F910F91FF90EF904F
:1008D000DF90CF90BF90AF909F90089590818095CA
:1008E00089238083912CC5CFE989FA898081998DEC
:1008F000892B8083002319F0C7010E94E8038D85AE
:100900008F3F49F0EF85F8898F899A2D9123B9F0AF
:100910009081892B8083E989FA899081898D8095DE
:10092000892380838E858F3F09F4BFCFEB89FC89B3
:100930008081988D892309F4B8CFB12AB6CF9081F0
:1009400080958923E7CF1695BBCF3FB7F894809168
:100950002F0490913004A0913104B091320426B557
:10096000A89B05C02F3F19F00196A11DB11D3FBFE7
:10097000BA2FA92F982F8827BC01CD01620F711DB6
:10098000811D911D42E0660F771F881F991F4A95B0
:10099000D1F708958F929F92AF92BF92CF92DF923C
:1009A000EF92FF924B015C010E94A5046B017C0158
:1009B0000E94A5046C197D098E099F09683E734049
:1009C00081059105A8F321E0821A9108A108B108D8
:1009D00088EEC80E83E0D81EE11CF11C811491043E
:1009E000A104B10429F7FF90EF90DF90CF90BF9062
:1009F000AF909F908F9008952FB7F89460912B043B
:100A000070912C0480912D0490912E042FBF089595
:100A10000F931F93CF93DF93C0910001CC0FCC0FA6
:100A2000C093000182E00E944003892B19F0C2604C
:100A3000C093000183E00E944003892B29F080913C
:100A40000001816080930001E0910001EF70F0E00F
:100A5000E75EFC4F808190910A04890F80930A041D
:100A6000843094F10E94A5040091FF0410910005C8
:100A70002091010530910205601B710B820B930BD5
:100A8000C1E0D0E0603F79448240910510F4CAE0B3
:100A9000D0E00E94A5046093FF047093000580934A
:100AA00001059093020580911404909115048C0F18
:100AB0009D1F909315048093140410920A04DF91F3
:100AC000CF911F910F9108958D3FCCF70E94A504FF
:100AD0000091FB041091FC042091FD043091FE0470
:100AE000601B710B820B930BCFEFDFEF603F7944FC
:100AF0008240910510F4C6EFDFEF0E94A5046093D9
:100B0000FB047093FC048093FD049093FE04CBCF10
:100B10000895DC01ED91FC910190F081E02D0994A4
:100B2000AF92BF92CF92DF92EF92FF920F931F93FB
:100B3000CF93DF936C017B018B01040F151FEB0139
:100B40005E01AE18BF08C017D10759F06991D601F0
:100B5000ED91FC910190F081E02DC6010995892B62
:100B600079F7C501DF91CF911F910F91FF90EF9021
:100B7000DF90CF90BF90AF900895FC01538D448DCE
:100B8000252F30E0842F90E0821B930B541710F038
:100B9000CF96089501970895FC01918D828D981745
:100BA00061F0A28DAE0FBF2FB11D5D968C91928D1D
:100BB0009F5F9F73928F90E008958FEF9FEF08954E
:100BC000FC01918D828D981731F0828DE80FF11D17
:100BD000858D90E008958FEF9FEF0895FC01918D32
:100BE000228D892F90E0805C9F4F821B91098F732B
:100BF0009927089586E394E00E94EE0521E0892B71
:100C000009F420E0822F089580E090E0892B29F0FC
:100C10000E94FA0581110C9400000895FC01A48D36
:100C2000A80FB92FB11DA35ABF4F2C91848D90E00E
:100C300001968F739927848FA689B7892C93A089F1
:100C4000B1898C91837080648C93938D848D98137B
:100C500006C00288F389E02D80818F7D808308950E
:100C6000EF92FF920F931F93CF93DF93EC0181E0FC
:100C7000888F9B8D8C8D98131AC0E889F9898081A3
:100C800085FF15C09FB7F894EE89FF896083E889D6
:100C9000F98980818370806480839FBF81E090E0C8
:100CA000DF91CF911F910F91FF90EF900895F62E55
:100CB0000B8D10E00F5F1F4F0F731127E02E8C8DEF
:100CC0008E110CC00FB607FCFACFE889F989808134
:100CD00085FFF5CFCE010E940E06F1CFEB8DEC0F14
:100CE000FD2FF11DE35AFF4FF0829FB7F8940B8F51
:100CF000EA89FB8980818062CFCFCF93DF93EC01BB
:100D0000888D8823B9F0AA89BB89E889F9898C91F3
:100D100085FD03C0808186FD0DC00FB607FCF7CFAF
:100D20008C9185FFF2CF808185FFEDCFCE010E94AF
:100D30000E06E9CFDF91CF910895FC0177FD55C0F4
:100D400080859185681779070CF04FC057FD4DC01D
:100D500082859385481759070CF047C086898230F1
:100D600009F444C0833009F44EC0813031F48FE27D
:100D700090E0861B970BBA01AC01842FA62F93A19C
:100D8000691708F4962F93A394A19A1708F49A2F41
:100D900094A395A1891708F4982F95A396A1981765
:100DA00008F4982F96A3CA0157FD0796E3E095959E
:100DB0008795EA95E1F7A4E5A89FF001A99FF00DBA
:100DC0001124E60FF71FE55EFE4FCA0168E070E0F0
:100DD0000E942E1F41E050E001C0440F8A95EAF7BF
:100DE0008081232BB9F0842B8083089583E590E0E4
:100DF000DC01A61BB70BBD018FE290E0DC01A41B58
:100E0000B50BAD01BACF83E590E0841B950BAB0128
:100E1000BC01B3CF40958423E7CF0895FC016370F4
:100E2000668B8481958126813781613039F063300A
:100E300029F091878087338722870895318720871B
:100E40009387828708952F923F924F925F926F927D
:100E50007F928F929F92AF92BF92CF92DF92EF924A
:100E6000FF920F931F93CF93DF93CDB7DEB76A97AF
:100E70000FB6F894DEBF0FBECDBF9A8F898F7A83ED
:100E800069834A01D22E18870F833701BC2CDC01FD
:100E900059962D913C915A972115310509F015C1AC
:100EA00018968D919C911997681779070CF0D7C106
:100EB0001A968D919C91481759070CF0D0C14C2C73
:100EC000512CB6E0CB9E600D711D11247C876B8781
:100ED000161617060CF0C3C1EA2DF0E0FA87E98771
:100EE00093E0EE0FFF1F9A95E1F7F88BEF87CF01A4
:100EF000840F951F181619060CF0B1C1A98DBA8D73
:100F000058968C91811104C0BFEABD1508F4D394A2
:100F1000A98DBA8DED91FC9111970284F385E02D96
:100F2000CD010995B5E0DB9EC0011124E981FA816C
:100F3000FC83EB83312C212C9C0128593F4F388FA7
:100F40002F8B4A2D50E05E8B4D8BEF89F88DE20D93
:100F5000F31D44919E828D82D12CC12C69817A81AE
:100F6000620D731D7A8B698B842F90E09C8B8B8B29
:100F7000E98DFA8DA081B18140FF82C0F1E0BF12FE
:100F80006FC0AF126DC01C96ED91FC912F8138851A
:100F9000A4014C0D5D1D69897A89898D9A8D099509
:100FA000EB89FC89F595E7954E2F5FEFC51AD50AB9
:100FB0006D817E818D899E89680F791F7E836D8307
:100FC00098E0C916D10481F6AFEF2A1A3A0AEB81EC
:100FD000FC81E40DF51DFC83EB83F5E02F16310455
:100FE00009F0B3CF2F81388526153705B9F0A98DC3
:100FF000BA8DED91FC91B1E0BB1257C0AB1255C058
:1010000069817A816B5F7F4F0088F189E02D8301D0
:1010100028E030E0A401898D9A8D0995A98DBA8DBB
:10102000ED91FC9111970688F789E02DCD016A9624
:101030000FB6F894DEBF0FBECDBFDF91CF911F91E9
:101040000F91FF90EF90DF90CF90BF90AF909F9067
:101050008F907F906F905F904F903F902F9009946A
:101060001E96ED91FC91EF80F88409851A85920116
:101070004D815E816B817C81898D9A8D099590CFA0
:101080002F8138852615370509F48ACF31E0B31250
:1010900007C0A31205C01C96ED91FC91930178CF77
:1010A0001E96ED91FC917301E0CF6B857C856419F0
:1010B00075090684F785E02D73010F851889920163
:1010C000A401898D9A8D0995A9CFF901349694913F
:1010D000329745915491D91AB7E0DB9E400D511DCE
:1010E0001124F901259134913C8B2B8BFA01259029
:1010F0003490FA013296749031963491398B32964D
:1011000064903196449041E04C1518F04A1508F06F
:101110007FC0662D062C000C770B7C836B83842D9F
:10112000042C000C990B9E838D83A98DBA8DED91B3
:10113000FC9111970284F385E02DCD010995512C86
:10114000D12CC12CEA2DF0E0FA87E9872B2D30E075
:101150003C872B87A401440D511D47FC5A95588F9D
:101160004F8B69817A81660D711D67FC7A957E8748
:101170006D877989C71608F051CF2C2D30E04D814D
:101180005E81420F531FA985BA854A9FC0014B9FBC
:10119000900D5A9F900D1124FC01E80DF91DF88B5C
:1011A000EF87852D612C4F89588D420F531F5E8B21
:1011B0004D8B671408F050C044244394480E877048
:1011C00041F4C1010196EB89FC89E20DF31DD49035
:1011D0001C01D7FE19C0A98DBA8DED91FC91662D29
:1011E00070E0B1E0BB1219C0AB1217C02D853E856F
:1011F000620F731F0484F585E02D2F8138854D899A
:101200005E89898D9A8D0995DD0C6394842DD1CFEB
:101210001E821D821C821B8288CF4B815C81640FE1
:10122000751FAB85BC856A9FC0016B9F900D7A9F2F
:10123000900D112469817A81680F791F0684F785E2
:10124000E02DEF80F88409851A859D014F85588926
:10125000898D9A8D0995D8CF570CC3948ACF6A96F9
:101260000FB6F894DEBF0FBECDBFDF91CF911F91B7
:101270000F91FF90EF90DF90CF90BF90AF909F9035
:101280008F907F906F905F904F903F902F90089538
:101290008F929F92AF92CF92EF92FF920F931F93F4
:1012A000CF93DF93EC01262F898D9A8D009709F05B
:1012B00051C06A30D1F41D861C868D8948E0849F18
:1012C000900111248E859F85820F931F9F878E87A3
:1012D00081E090E0DF91CF911F910F91FF90EF900F
:1012E000CF90AF909F908F9008956D3089F3CC8808
:1012F000AD888F898823C1F08C859D8536E0C39E9B
:10130000800D911D1124488559854817590764F4AB
:101310004E855F851D861C8638E0A39EC001112482
:10132000840F951F9F878E87EA88FB880889198913
:101330004E855F856C857D85CE010E9423072C89B3
:101340008C859D8546E0249F800D911D11249D87ED
:101350008C87BECF6A3069F41D861C86FC013896E6
:10136000E4912D898E859F85E29F800D911D11242A
:10137000ADCF6D3009F4ACCFFC01349634916317D6
:1013800008F4A6CF3296E491E61708F4A1CFFC0149
:10139000329685909490462F431B342F47E0349F1C
:1013A000800C911C1124F401329634913196E49111
:1013B0003323A9F1EE2399F1CC88F4013596E49119
:1013C000AD884F89442301F10E2E000CFF0BE30F73
:1013D000F11DCE9EA001CF9E500D11246C857D8500
:1013E000460F571F68857985641775076CF44E851D
:1013F0005F851D861C86FC013896E491AE9E400DEB
:10140000511D11245F874E87EA88FB880889198956
:101410004E855F856C857D85CE010E942307F40192
:101420003496E4912C898C859D85E29F800D911DD9
:1014300011248DCF6F927F928F929F92AF92BF9225
:10144000CF92DF92EF92FF920F931F93CF93DF9390
:10145000EC016B015A0139014801E881F9810284EC
:10146000F385E02D0995E881F9810288F389E02D63
:1014700087019301A501B601CE010995A501480D8B
:10148000591D41505109E881F9810288F389E02D05
:101490009301B601CE010995E881F9810088F189AF
:1014A000E02D9401A501B601CE010995C60CD71C0B
:1014B000B60161507109E881F9810088F189E02D58
:1014C0009401A501CE010995E881F9810688F78983
:1014D000E02DCE01DF91CF911F910F91FF90EF9002
:1014E000DF90CF90BF90AF909F908F907F906F9044
:1014F00009946F927F928F929F92AF92BF92CF92F8
:10150000DF92EF92FF920F931F93CF93DF935C01D3
:10151000EB016A01490138018701DC01ED91FC9181
:101520006217730719F5641675062CF0962D872D32
:101530003A01C92ED82E9601261937092F5F3F4F41
:10154000048CF58DE02DA301BE01C5010995DF9145
:10155000CF911F910F91FF90EF90DF90CF90BF90B0
:10156000AF909F908F907F906F900895461557058C
:1015700091F42617370724F0892D4B01C22FD82F5D
:101580009E01281939092F5F3F4F068CF78DE02DFA
:10159000A601B401DACF0284F385E02D0995D501C7
:1015A000ED91FC910488F589E02D83019401A60159
:1015B000BE01C5010995D501ED91FC910688F78919
:1015C000E02DC501DF91CF911F910F91FF90EF901A
:1015D000DF90CF90BF90AF909F908F907F906F9053
:1015E0000994EF92FF920F931F93DC011A960D91CD
:1015F0001C911B9718962D913C911997ED91FC9198
:1016000000A0F1A1E02D7B0150E040E070E060E03F
:1016100009951F910F91FF90EF9008954F925F925F
:101620006F927F928F929F92AF92BF92CF92DF92F2
:10163000EF92FF920F931F93CF93DF936C012B01D7
:101640005A0139014801DC01ED91FC910284F385D6
:10165000E02D0995E201640C751CD601ED91FC9119
:10166000C615D7055CF40088F189E02D8701940147
:10167000A501BE01C60109952196EFCF0688F7891D
:10168000E02DC601DF91CF911F910F91FF90EF9058
:10169000DF90CF90BF90AF909F908F907F906F9092
:1016A0005F904F9009948F929F92AF92BF92CF928A
:1016B000DF92EF92FF920F931F93CF93DF93EC0192
:1016C0005B014A016901E881F9810284F385E02D1B
:1016D000099595012C0D3D1D21503109E881F981B5
:1016E0000488F589E02D78018401A401B501CE01BB
:1016F0000995E881F9810688F789E02DCE01DF910F
:10170000CF911F910F91FF90EF90DF90CF90BF90FE
:10171000AF909F908F9009948F929F92AF92BF92BB
:10172000CF92DF92EF92FF920F931F93CF93DF93AD
:10173000EC015B014A0169017801E881F9810284C9
:10174000F385E02D0995C80CD91C860101501109BB
:10175000E881F9810488F589E02D9501A401B5019E
:10176000CE010995E881F9810688F789E02DCE013F
:10177000DF91CF911F910F91FF90EF90DF90CF906D
:10178000BF90AF909F908F900994EF92FF920F932C
:101790001F93DC01ED91FC9100A0F1A1E02D0995D2
:1017A0001F910F91FF90EF9008950F931F93DC010D
:1017B000ED91FC91068CF78DE02D09951F910F910D
:1017C00008950F931F93DC01ED91FC91048CF58D2E
:1017D000E02D09951F910F9108952F923F924F92FE
:1017E0005F926F927F928F929F92AF92BF92CF92B1
:1017F000DF92EF92FF920F931F93CF93DF9301E05D
:1018000010E029E030E045E250E066E070E084ED71
:1018100094E00E94E10B54E0652E712C4424439423
:10182000512CF12CE12CC4E0D0E078EF272E3324AA
:101830003A94EDEFCE2EDD24DA948FEFE81AF80A11
:1018400082E0480E511CC40CD51CCE15DF050CF4EB
:101850004EC04E01880C991C8FEF881A980A01E03F
:1018600010E0940149E2A42EB12CAC1ABD0AA501E6
:10187000B7016A5F7F4F84ED94E00E94E10B940111
:10188000A50166E070E06E197F0984ED94E00E9486
:10189000E10BC615D705F9F0B3016A5F7F4F01E090
:1018A00010E0420182E0881A910894018AE2A82E91
:1018B000B12CAE18BF08A50184ED94E00E94E10BA5
:1018C00066E070E0661977099401A50184ED94E063
:1018D0000E94E10B3E01EC16FD0664F4D7FCADCF8F
:1018E000219782E0280E311CC20CD31CA6CFC6154E
:1018F000D70591F6DF91CF911F910F91FF90EF9057
:10190000DF90CF90BF90AF909F908F907F906F901F
:101910005F904F903F902F900895DC01ED91FC91E6
:101920000084F185E02D09942F923F924F925F92AF
:101930006F927F928F929F92AF92BF92CF92DF92DF
:10194000EF92FF920F931F93CF93DF9321E030E04C
:101950004FE250E066E070E084ED94E00E948D0C70
:1019600021E030E043E250E066E070E084ED94E096
:101970000E948D0C21E030E049E250E06CE070E024
:1019800084ED94E00E948D0C21E030E049E250E0CB
:1019900070E060E084ED94E00E948D0C4424439458
:1019A000512C10E000E0C6E0D0E034EF632E772445
:1019B0007A944BEFE42EFF24FA9456E0252E312C36
:1019C0000F5F1F4F82E0480E511CE40CF51C4801CC
:1019D00086E0880E911C21E030E06E0189E2C80E9D
:1019E000D11CA601B40184ED94E00E948D0C51013C
:1019F000A01AB10A21E030E0A601B50184ED94E01F
:101A00000E948D0C21E030E089E2C82ED12CCC1A46
:101A1000DD0AA601B40184ED94E00E948D0C21E062
:101A200030E0A601B50184ED94E00E948D0C6801C0
:101A300089E2C80ED11C21E030E0A6015E0186E0FB
:101A4000A80EB11CB50184ED94E00E948D0C21E03C
:101A500030E0A6016101CC1ADD0AB60184ED94E004
:101A60000E948D0C99E2892E912C801A910A21E016
:101A700030E0A401B50184ED94E00E948D0C21E0DA
:101A800030E0A401B60184ED94E00E948D0C0C17A7
:101A90001D079CF0DF91CF911F910F91FF90EF9068
:101AA000DF90CF90BF90AF909F908F907F906F907E
:101AB0005F904F903F902F900895F7FC81CF219732
:101AC00082E0680E711CE60CF71C7ACF2F923F92D1
:101AD0004F925F926F927F928F929F92AF92BF923E
:101AE000CF92DF92EF92FF920F931F93CF93DF93EA
:101AF00000D000D000D0CDB7DEB73C016A013E83F4
:101B00002D83FC82EB825801A41AB50AB7FE03C0EC
:101B1000B194A194B1088D809E80861A970A97FE91
:101B200003C09194819491088A149B045CF0902FD7
:101B3000812F0D811E819D838E839C2D8D2D6B01A8
:101B4000692F782F0C151D055CF09D818E817E8399
:101B50006D83692F782F902F812F8601C92ED82E63
:101B60001601201A310A2B012D813E81421A530A97
:101B700057FE03C0519441945108710137FE03C0D0
:101B80003FEFE31AF30AF594E7948D819E8186175F
:101B900097075CF5A1E0B0E0BA83A983C016D1062F
:101BA0004CF1D301ED91FC910484F585E02D2B815E
:101BB0003C81A8016D817E818A149B041CF04D81BB
:101BC0005E81B801C3010995E418F508F7FE0AC063
:101BD0002D813E8189819A81280F391F3E832D8373
:101BE000E20CF31C0F5F1F4FD9CF2FEF3FEF3A836B
:101BF0002983D4CF26960FB6F894DEBF0FBECDBF93
:101C0000DF91CF911F910F91FF90EF90DF90CF90D8
:101C1000BF90AF909F908F907F906F905F904F900C
:101C20003F902F900895089590E080E00895CF931D
:101C3000CFB7F89480910B04811127C0E0E9F5E05B
:101C40008491E4EAF5E09491E82FF0E0EE0FFF1FB5
:101C5000E859FA4FA591B491EC91E92321F461E0A0
:101C60008AE00E94690361E08AE00E9497038CB5D4
:101C700080618CBD8CB580648CBD61E08DE00E947C
:101C8000970361E08BE00E94970380910B048F5FC4
:101C900080930B04CFBFCF91089561E0811101C003
:101CA00060E084E00C9469030CB405FC0DC09EBD9B
:101CB00000000DB407FEFDCF9EB58EBD00000DB433
:101CC00007FEFDCF8EB508958EBD00000DB407FE52
:101CD000FDCF8EB59EBD00000DB407FEFDCF9EB5B5
:101CE00008958EBD00000DB407FEFDCF8EB508959A
:101CF0008CBD9DBD0895AF92BF92CF92DF92EF92BF
:101D0000FF920F931F93CF93DF931F92CDB7DEB750
:101D10008C015B016A01DC018D919C911197892BEB
:101D200039F01296ED91FC91808191810E94780E9C
:101D3000F80183858F3F19F060E00E946903750107
:101D4000CA0CDB1CEC14FD04A9F0D7018D917D01B8
:101D50008983F80180819181892B29F0CE01019638
:101D60000E940C03EFCFBE016F5F7F4FC8010E943E
:101D7000F303E8CFD8011B968C918F3F19F061E0F7
:101D80000E94690381E00F90DF91CF911F910F9125
:101D9000FF90EF90DF90CF90BF90AF9008950F939A
:101DA0001F93CF93DF931F92CDB7DEB78C0169836A
:101DB00060E0FC01868D0E94690341E050E0BE01B5
:101DC0006F5F7F4FF801838D948D0E947B0E0F9083
:101DD000DF91CF911F910F910895CF93C82F87FD69
:101DE000CFE7C093F30461E284ED94E00E94CF0E4C
:101DF0006C2F606884ED94E00E94CF0E60E284ED69
:101E000094E0CF910C94CF0ECF938091F10487FD95
:101E100013C061E00E94970360E08091F1040E948A
:101E2000690361E070E080E090E00E94CA0461E034
:101E30008091F1040E946903C091F404C83008F055
:101E4000C7E0C093F40461E284ED94E00E94CF0EF9
:101E50006C2F606184ED94E00E94CF0E60E284ED0F
:101E600094E00E94CF0E8091F3040E94ED0E60E298
:101E700084ED94E00E94CF0E6CE084ED94E0CF916D
:101E80000C94CF0EFF920F931F93CF93DF939091FB
:101E9000F504992339F08091F6048F5F8917E8F5EE
:101EA0008093F604D091F904D695D695D69584E51D
:101EB000D89F800111248091FA0486958695869595
:101EC0008D1780F16D2F606484ED94E00E94CF0E39
:101ED000C091F704F090F8046C2F606884ED94E0F2
:101EE0000E94CF0E61E08091F2040E9469034F2DA1
:101EF00050E06C2F70E0461B570B4F5F5F4F600F39
:101F0000711F655E7E4F8091EF049091F0040E94F6
:101F10007B0EDF5F0C5A1F4FCECF1092F6040E944B
:101F2000040FC0CF60E484ED94E00E94CF0E83E5FF
:101F30008093F7041092F8048FE28093F9041092D2
:101F4000FA04DF91CF911F910F91FF9008951F9395
:101F5000CF93DF93EC01162F60E20E94CF0E6CE06E
:101F600011116DE0CE01DF91CF911F910C94CF0E36
:101F70004F925F926F927F928F929F92AF92BF9299
:101F8000CF92DF92EF92FF920F931F93CF93DF9345
:101F9000F82EEB018A010E94FC044B015C01FF203A
:101FA00009F45BC0F801C080D180E280F380C114E5
:101FB000D104E104F10489F1488059806A807B8072
:101FC000F6E0CF16D104E104F10458F0D301C201C8
:101FD00088539F4FAF4FBF4F88169906AA06BB067E
:101FE000A8F4AEECBFEFA70196010E94671F24EF93
:101FF000420E21E0521E611C711C460E571E681EC7
:10200000791E84149504A604B70438F187EEC81627
:1020100083E0D806E104F10450F4EFEFCE1ADE0AB3
:10202000EE0AFE0AF801C082D182E282F38288823F
:102030009982AA82BB8281E0DF91CF911F910F919B
:10204000FF90EF90DF90CF90BF90AF909F908F90D8
:102050007F906F905F904F90089580E0EDCFCF9389
:10206000C82F0E944003019731F48C2F0E94400337
:1020700021E0019709F020E0822FCF910895CF93BE
:10208000C82F0E944003892B31F48C2F0E944003FB
:1020900021E0892B09F020E0822FCF9108958EE076
:1020A00090E00E943F10882319F081E08093230480
:1020B00080E190E00E943F10882319F081E0809336
:1020C00022048FE090E00E943F10882319F081E005
:1020D000809321040895EBE1F1E088EF91E0DF01C6
:1020E0009C011D9221503040E1F71092F70480913D
:1020F000F804833508F483E58093F8041092F9041A
:102100008091FA048F3208F48FE28093FA041092DF
:10211000E1041092E0041092E3041092E2040895A6
:102120000E940823FB0101900020E9F73197AF01DD
:10213000461B570BDC01ED91FC910280F381E02DF1
:1021400009948F929F92AF92BF92EF92FF920F935A
:102150001F93CF93DF93CDB7DEB7A1970FB6F89457
:10216000DEBF0FBECDBF7C01FA01CB0119A2223028
:1021700008F42AE08E010F5D1F4F822E912CB12CA6
:10218000A12CBF01A50194010E94421FF901CA01BF
:102190006A300CF5605DD8016E938D01232B242BE2
:1021A000252B79F790E080E0109721F0BD01C70161
:1021B0000E949210A1960FB6F894DEBF0FBECDBF5D
:1021C000DF91CF911F910F91FF90EF90BF90AF9053
:1021D0009F908F900895695CDECFCF92DF92EF924F
:1021E000FF920F931F93CF93DF936B01770FEE084E
:1021F000FF08F7FE1BC0EC016DE20E9489058C010F
:1022000044275527BA014C195D096E097F092AE058
:10221000CE010E94A110800F911FDF91CF911F91DD
:102220000F91FF90EF90DF90CF9008952AE0B701D3
:10223000A601DF91CF911F910F91FF90EF90DF905A
:10224000CF900C94A110CF93DF93BC0186E394E070
:102250000E949210EC0167E673E086E394E00E942E
:1022600092108C0F9D1FDF91CF9108956DE471E066
:1022700080E090E00E94CA0460E087E00E94690369
:102280008AE693E00C94231161E087E00E946903E1
:102290006DE471E080E090E00E94CA0480E793E082
:1022A0000C94231160E08AE00E94690385E50E9496
:1022B000710E80E090E20E94540E61E08AE00E947C
:1022C000690361E070E080E090E00E94CA0485E765
:1022D00093E00E94231183E893E00C9423112F9242
:1022E0003F924F925F926F927F928F929F92AF92A6
:1022F000BF92CF92DF92EF92FF921F93CF93DF9323
:10230000EC016A017B01722EAB019601CB01B60193
:102310000E94DE216EE973E0811126C0460157015B
:10232000E894B7F82FEF3FEF4FE75FE7C501B4013F
:102330000E94DE2181110CC02FEF3FEF4FE75FE7D6
:10234000C501B4010E940D2062EA73E0181664F022
:102350002FEF3FEF4FE75FE4C701B6010E946C210A
:102360001816B4F466EA73E0CE01DF91CF911F91A5
:10237000FF90EF90DF90CF90BF90AF909F908F90A5
:102380007F906F905F904F903F902F900C949210A1
:102390002FEF3FEF4FE75FECC701B6010E940D2022
:1023A00087FDE0CF20E030E0A901C701B6010E941F
:1023B0000D20312C212C87FF09C06DE2CE010E9437
:1023C00089051C01F7FAF094F7F8F09410E060E04A
:1023D00070E080E09FE3711641F020E030E040E2E1
:1023E00051E40E9412201F5FF6CFA70196010E94C0
:1023F000A11F2B013C010E948B204B015C012AE0B4
:10240000BC01A401CE010E94A1107C01E20CF31CCE
:102410001123C1F1C501B4010E94BA209B01AC0196
:10242000C301B2010E94A01F4B015C016EE2CE010C
:102430000E948905E80EF91E115020F120E030E0DD
:1024400040E251E4C501B4010E9471212B013C011D
:102450000E948B204B01B12CA12C2AE0B501A401D4
:10246000CE010E94A110E80EF91EC501B4010E9420
:10247000BA209B01AC01C301B2010E94A01F4B0115
:102480005C01DACFC701DF91CF911F91FF90EF90F0
:10249000DF90CF90BF90AF909F908F907F906F9084
:1024A0005F904F903F902F900895CF93DF93AB01B3
:1024B000BC0122E086E394E00E946F11EC0167E624
:1024C00073E086E394E00E9492108C0F9D1FDF91D1
:1024D000CF9108954F925F926F927F928F929F92C9
:1024E000AF92BF92CF92DF92EF92FF924B015C01CD
:1024F00069017A010E945512C701B6010E94551266
:1025000020E030E0A901C501B4010E946C212DEC4E
:102510003CEC4CEC5DE318160CF065C0C501B40151
:102520000E94A01F2B013C012DEC3CEC4CEC5DE328
:10253000C501B4010E94A11F4B015C01A3019201DE
:10254000C701B6010E946C21A501940187FD1BC043
:10255000C701B6010E940D2018160CF49AC0109203
:102560003504109233048AEA93E0FF90EF90DF90F5
:10257000CF90BF90AF909F908F907F906F905F9023
:102580004F900C942311C701B6010E940D2018161C
:102590008CF020E030E0A901C701B6010E946C2157
:1025A000181644F481E0809335041092330489EFC7
:1025B00093E0DBCFA3019201C701B6010E946C2119
:1025C00087FF09C020E030E0A901C701B6010E94E1
:1025D0000D2087FF51C01092350481E080933304B1
:1025E0008FEA93E0C2CFC501B4010E94A01F2B0166
:1025F0003C01AC019B01C701B6010E946C2187FD23
:1026000011C02DEC3CEC4CEC5DE3C501B4010E9423
:10261000A11F9B01AC01C701B6010E940D20181635
:102620000CF09DCFA3019201C701B6010E940D20BD
:1026300018168CF620E030E0A901C701B6010E940F
:102640006C21181644F22DEC3CEC4CEC5DE3C5011A
:10265000B4010E94A11F9B01AC01C701B6010E94F9
:102660006C2187FD09C020E030E0A901C701B60157
:102670000E940D2087FD96CFFF90EF90DF90CF90C6
:10268000BF90AF909F908F907F906F905F904F9092
:102690000895A5019401C701B6010E940D201816E6
:1026A0000CF077CF98CF0C9492100F931F93CF9389
:1026B000DF938C01EB0160911701709118018091FB
:1026C000190190911A0120E03FEF4FE757E40E9473
:1026D000712120E030E040EC51E40E9412200E9481
:1026E0008B206093100470931104809312049093D4
:1026F00013046091090170910A0180910B0190917E
:102700000C0120E030E040E251E40E94122020E081
:1027100030E040E85FE30E94A11F20E030E040E0AD
:102720005FE30E94712120E03FEF4FE757E40E94F2
:1027300071210E948B2060930C0470930D04809390
:102740000E0490930F0460E08AE00E94690385E51F
:102750000E94710EC80190610E94540E61E08AE0EF
:102760000E94690361E070E080E090E00E94CA048A
:1027700060E08AE00E94690381E00E94710E888116
:102780009981AA81BB810E94540E61E08AE00E9477
:10279000690361E070E080E090E00E94CA046FEBA2
:1027A00073E086E394E00E945313609109017091F5
:1027B0000A0180910B0190910C010E94551283E84F
:1027C00093E0DF91CF911F910F910C9423111F92F1
:1027D0000F920FB60F9211242F933F938F939F93D5
:1027E000AF93BF9380912B0490912C04A0912D0462
:1027F000B0912E0430912A0423E0230F2D3758F591
:102800000196A11DB11D20932A0480932B0490935F
:102810002C04A0932D04B0932E0480912F0490914A
:102820003004A0913104B09132040196A11DB11D74
:1028300080932F0490933004A0933104B09332041A
:10284000BF91AF919F918F913F912F910F900FBEAC
:102850000F901F90189526E8230F0296A11DB11D19
:10286000D2CF1F920F920FB60F9211242F933F9346
:102870004F935F936F937F938F939F93AF93BF9388
:10288000EF93FF93E0910301F09104010995FF910B
:10289000EF91BF91AF919F918F917F916F915F91D8
:1028A0004F913F912F910F900FBE0F901F90189551
:1028B0001F920F920FB60F9211242F933F934F93B5
:1028C0005F936F937F938F939F93AF93BF93EF9398
:1028D000FF93E0910101F09102010995FF91EF91C1
:1028E000BF91AF919F918F917F916F915F914F9128
:1028F0003F912F910F900FBE0F901F9018951F9230
:102900000F920FB60F9211242F933F934F935F9323
:102910006F937F938F939F93AF93BF93EF93FF93A7
:1029200086E394E00E940E06FF91EF91BF91AF9174
:102930009F918F917F916F915F914F913F912F91D7
:102940000F900FBE0F901F9018951F920F920FB609
:102950000F9211242F938F939F93EF93FF93E09106
:102960004604F09147048081E0914C04F0914D04BD
:1029700082FD1BC0908180914F048F5F8F732091E7
:102980005004821741F0E0914F04F0E0EA5CFB4F05
:10299000958F80934F04FF91EF919F918F912F918D
:1029A0000F900FBE0F901F9018958081F4CF0F935A
:1029B0001F93CF93DF93E6E3F4E01382128288EE55
:1029C00093E0A0E0B0E084839583A683B7838DE293
:1029D00093E09183808385EC90E09587848784ECF5
:1029E00090E09787868780EC90E0918B808B81ECDC
:1029F00090E0938B828B82EC90E0958B848B86ECBD
:102A000090E0978B868B118E128E138E148E0E94FF
:102A1000A5046093FF0470930005809301059093D3
:102A200002050E94A5046093FB047093FC0480934C
:102A3000FD049093FE04C4EDD4E01B821A8224E5C9
:102A400030E03D832C8380E390E09F838E83398741
:102A500028879B878A871E8A1D861C861F861E865E
:102A600081E08D8B8C8B2FEF3FEF3B8B2A8B398B4B
:102A7000288B8F8B188E1A8E198E8FE393E0998393
:102A800088838CE190E00E94E3218C0185E0F801CD
:102A900083878FEF86878587848783ED94E0918392
:102AA0008083138E82E090E00E94E32120E5FC0108
:102AB00020831182F8019383828380E099E0ADE363
:102AC000B0E084839583A683B78381E090E091870B
:102AD000808712861C8F0B8F86E08E8F84E08D8F0F
:102AE000DF91CF911F910F910895CF93DF93CDB7D1
:102AF000DEB76D970FB6F894DEBF0FBECDBF7894EA
:102B000084B5826084BD84B5816084BD85B58260F2
:102B100085BD85B5816085BD80916E0081608093A3
:102B20006E0010928100809181008260809381000C
:102B3000809181008160809381008091800081601C
:102B4000809380008091B10084608093B100809177
:102B5000B00081608093B00080917A00846080939F
:102B60007A0080917A00826080937A0080917A0066
:102B7000816080937A0080917A00806880937A00E7
:102B80001092C100E0914604F091470482E08083F6
:102B9000E0914204F09143041082E0914404F091EA
:102BA00045048FEC808310924E04E0914A04F0912A
:102BB0004B0486E08083E0914804F09149048081D1
:102BC00080618083E0914804F091490480818860AD
:102BD0008083E0914804F09149048081806880837B
:102BE000E0914804F091490480818F7D80838FECCF
:102BF00093E00E94231180EE93E00E9423110E9433
:102C0000170E81E590E00E94780E61E08AE00E9454
:102C100097030091EF041091F004D8011B968C915A
:102C20008F3F41F061E00E94970361E0F8018385E6
:102C30000E946903D8018D919C91892B09F488C069
:102C40000E94170E81E0F801838F61E08091F20409
:102C50000E9497038091F10487FD03C061E00E9408
:102C6000970384E08093F40488E28093F304109245
:102C7000F5041092F6040E94040F1092F70480915C
:102C8000F804833508F483E58093F8041092F9047E
:102C90008091FA048F3208F48FE28093FA040E9444
:102CA000420F84E60E94ED0E0E946B1062E08EE0FF
:102CB0000E94970362E080E10E94970362E08FE048
:102CC0000E94970361E084E00E94970361E087E03F
:102CD0000E94970365E375E080E090E00E94CA04DB
:102CE00060E084E00E94690362E082E00E94970352
:102CF00062E083E00E94970328E035E03093020110
:102D000020930101809169008C7F8160809369002C
:102D1000E89A309304012093030180916900837F36
:102D2000846080936900E99A809128049091290435
:102D30000097C9F1019709F4B1C480E090E0892BB4
:102D400099F30E94FA05882379F30E940000ECCFE2
:102D500061E0F80184850E949703D8011A968C914E
:102D60001A978B7FE1F460E01C968C910E946903B6
:102D7000D8011D968C918F3F41F061E00E9497032E
:102D800061E0F80185850E946903D8011E968C9147
:102D90008F3F09F457CF60E00E94970353CF61E063
:102DA000F8018485E3CF1D821E821F821886198256
:102DB0001A821B821C82312C212C11E0F1E0FD8B48
:102DC0000E94FC042B013C012091090130910A0171
:102DD00040910B0150910C012E8B3F8B488F598FE6
:102DE000112309F466C180901C0490901D04A090EA
:102DF0001E04B0901F040E946B10809109019091F5
:102E00000A01A0910B01B0910C01898B9A8BAB8BBD
:102E1000BC8B6091090170910A0180910B01909126
:102E20000C0120E030E0A9010E940D2087FF24C0A2
:102E300029893A894B895C895058298B3A8B4B8B6D
:102E40005C8BEE24E394F12C0AE010E024E030E007
:102E50004AE050E070E060E084ED94E00E94790A7E
:102E60000BE010E024E030E04BE050E070E060E088
:102E700084ED94E00E94790A69897A898B899C891A
:102E80000E9484206B018B01072E000C880B990B8C
:102E90000E94BC209B01AC0169897A898B899C893D
:102EA0000E94A01F20E030E048EC52E40E94712113
:102EB000698B7A8B8B8B9C8B83E08093E804809367
:102EC000E90487E090E09093E1048093E00410929D
:102ED000E3041092E2040A30110584F469EE73E011
:102EE00084ED94E00E94531349E150E05093E104D3
:102EF0004093E0041092E3041092E204B60184EDE2
:102F000094E00E94ED1069897A898B899C890E94DE
:102F100084206B0120E030E040E251E469897A8945
:102F20008B899C890E940D2087FFEAC080E390E096
:102F30009093E1048093E0041092E3041092E20481
:102F400069EE73E084ED94E00E94531382E490E014
:102F50009093E1048093E0041092E3041092E20461
:102F6000B60184ED94E00E94ED1082E08093E804C5
:102F70008093E90486E290E09093E1048093E0047A
:102F8000A8E0B0E0B093E304A093E2046BEE73E03A
:102F900084ED94E00E945313E8E4F0E0F093E10440
:102FA000E093E00420E230E03093E3042093E20475
:102FB0006DEE73E084ED94E00E945313809115014F
:102FC00090911601EE24E394F12C07E110E027E242
:102FD00030E047E150E068E170E0019731F021E531
:102FE00030E047E150E062E470E084ED94E00E945C
:102FF000790A81E08093E8048093E90431100E940B
:10300000ED0B0E94940C80913304882309F47BC05B
:10301000332009F478C043E150E05093E104409339
:10302000E00489E190E09093E3048093E2046FEE82
:1030300073E084ED94E00E945313A7E1B0E0B093F5
:10304000E104A093E004E1E2F0E0F093E304E09314
:10305000E20468EB73E084ED94E00E9453138EE188
:1030600090E09093E1048093E004A9E2B0E0B09393
:10307000E304A093E20420E030E040E551E4C50120
:10308000B4010E946C21181654F020E030E040E4B6
:1030900051ECC501B4010E940D2087FF4BC0C50152
:1030A000B4010E94842084ED94E00E94ED100E94FF
:1030B000420F0E944F1000912304002309F442C0E4
:1030C0008EE090E00E942F10182F8823D9F1809174
:1030D0001501909116018130910509F0ABC082E095
:1030E00090E09093160180931501109223041092A2
:1030F0002204109221041D821E821F8218862EC077
:1031000080E390E025CF80913504882309F4A7CF90
:10311000332009F4A4CF27E130E03093E104209379
:10312000E0044DE150E05093E3044093E20468EF83
:1031300073E091CF22E0B501A40184ED94E00E94F8
:103140006F11B5CFAE014B5F5F4FBE016F5F7F4F19
:10315000802F0E94B80F182F81116EC0809121041A
:10316000882321F18FE090E00E942F10082F882300
:10317000E9F0332009F46FC00E94521110921C0430
:1031800010921D0410921E0410921F044092180405
:103190005092190460921A0470921B04312C109200
:1031A00023041092220410922104102F80912204F3
:1031B00081115CC080911604909117042091140431
:1031C000309115048217930709F066C0332009F483
:1031D00003C22091090130910A0140910B015091E5
:1031E0000C016E897F89888D998D0E940D20811137
:1031F00003C0BD89BB2331F06CE074E083E090E252
:103200000E9455138091050190910601A09107013C
:10321000B0910801A3019201281B390B4A0B5B0BEB
:10322000DA01C901883E9340A105B10508F09BC1B0
:103230001D8AD2C1019755CF8D819E81AF81B885FE
:103240000397A105B10529F481E02826822D0E946B
:103250004D0E10E083CF309020043110A0CF81E0DC
:10326000809320040E944411302E99CF80E190E099
:103270000E942F10882309F49DCF81E090E0909365
:103280002904809328040E94521110922204109263
:1032900023041092210451CDC0900901D0900A015D
:1032A000E0900B01F0900C01409114045091150432
:1032B0002091150130911601841795070CF0C5C0B7
:1032C0004091140450911504841795074CF44091D3
:1032D0001404509115040A96841795070CF44EC0F7
:1032E0002130310509F0A4C06091090170910A01F3
:1032F00080910B0190910C0120E030E040E85FE309
:103300000E94A11F6093090170930A0180930B0131
:1033100090930C0120E030E0A901C701B6010E94A2
:103320000D2087FF45C020E030E040E85FEBC7019B
:10333000B6010E946C211816DCF52091090130912C
:103340000A0140910B0150910C01C701B6010E9486
:103350000D2087FF2DC08090090190900A01A09058
:103360000B01B0900C0120E030E040E050ECC701D0
:10337000B6010E947121A501940110C0609109015C
:1033800070910A0180910B0190910C01213031055F
:1033900009F049C020E030E040E251E40E94A11F62
:1033A0006093090170930A0180930B0190930C01C3
:1033B0006091090170910A0180910B0190910C01BB
:1033C00020E030E040E251EC0E940D2087FDC1C0BA
:1033D0006091090170910A0180910B0190910C019B
:1033E00020E030E040E251E40E946C2118160CF419
:1033F000B5C08091090190910A01A0910B01B09193
:103400000C018093090190930A01A0930B01B093E2
:103410000C018091140490911504909317048093EB
:10342000160411E0D3CE2DEC3CEC4CEC5DE3B6CFB2
:103430006091090170910A0180910B0190910C013A
:103440002AE037ED43E25CE3A9CF409114045091A8
:103450001504481759074CF4409114045091150471
:103460000A97481759070CF450C02130310509F06C
:1034700063C06091090170910A0180910B019091E4
:103480000C0120E030E040E85FE30E94A01F609361
:10349000090170930A0180930B0190930C0120E0C5
:1034A00030E0A901C701B6010E946C2118160CF08A
:1034B0007FCF20E030E040E85FE3C701B6010E9423
:1034C0000D2087FF75CF2091090130910A014091AD
:1034D0000B0150910C01C701B6010E946C21181616
:1034E0000CF066CF8090090190900A01A0900B012A
:1034F000B0900C01A7019601C701B6010E94A11F5F
:103500009B01AC01C501B4010FC06091090170912C
:103510000A0180910B0190910C012130310539F4A1
:1035200020E030E040E251E40E94A01F39CF2DECB2
:103530003CEC4CEC5DE3F8CF6091090170910A011D
:1035400080910B0190910C012AE037ED43E25CE39E
:10355000EBCF80E090E0A0E2B1EC53CF80E090E0D0
:10356000A0E2B1E44ECF4092050150920601609274
:1035700007017092080181E10E94D303BC01990FF9
:10358000880B990B0E94BC2020E030E543EC57E407
:103590000E94712120EA3DE547EA58E40E94A11FFC
:1035A0002CE533E443E85AE40E9412209B01AC016D
:1035B00020931C0430931D0440931E0450931F0459
:1035C0006091090170910A0180910B0190910C01A9
:1035D0000E946A121D8A11E0222019F180910D01CA
:1035E00090910E01A0910F01B0911001A3019201E1
:1035F000281B390B4A0B5B0BDA01C90122242394E7
:1036000089389341A105B10560F040920D015092B7
:103610000E0160920F017092100180E00E944D0E29
:10362000212C00912004002321F1311035C080911C
:10363000180490911904A0911A04B0911B04A301DD
:103640009201281B390B4A0B5B0BDA01C901893542
:103650009B41A105B10568F04092180450921904ED
:1036600060921A0470921B04109220040E9436117A
:10367000102F0E94FC0464197509860997096931A5
:1036800071058105910508F09BCB62E070E080E058
:1036900090E00E94CA04EDCF302EEBCF1D861E862F
:1036A0001F86188A19861A861B861C861D821E8212
:1036B0001F82188619821A821B821C82212C198A69
:1036C000312C11E041E04D8B0E94FC044B015C0168
:1036D0008091170190911801A0911901B0911A01E0
:1036E0008E8B9F8BA88FB98F112309F41DC1209158
:1036F00024043091250440912604509127042A8FF8
:103700003B8F4C8F5D8F60911701709118018091F4
:10371000190190911A010E9484206B018B01409045
:103720001701509018016090190170901A01072E2E
:10373000000C880B990B0E94BC209B01AC01C301BB
:10374000B2010E94A01F20E030E048EC52E40E9449
:1037500071212B013C010E946B1083E08093E804EF
:103760008093E90487E090E09093E1048093E00483
:103770001092E3041092E2040A30110584F469EE19
:1037800073E084ED94E00E94531389E190E09093FC
:10379000E1048093E0041092E3041092E204B60185
:1037A00084ED94E00E94ED10C301B2010E948420D8
:1037B0006B0120E030E040E151E4C301B2010E941E
:1037C0000D2018160CF4D2C080E390E09093E10431
:1037D0008093E0041092E3041092E20469EE73E037
:1037E00084ED94E00E94531382E490E09093E1040E
:1037F0008093E0041092E3041092E204B60184ED99
:1038000094E00E94ED1082E08093E8048093E90444
:1038100046E250E05093E1044093E00488E090E0F9
:103820009093E3048093E2046BEE73E084ED94E004
:103830000E945313ACE3B0E0B093E104A093E00422
:10384000E0E2F0E0F093E304E093E2046FEF73E072
:1038500084ED94E00E94531380911501909116011C
:10386000EE24E394F12C07E110E027E230E047E199
:1038700050E068E170E0019731F021E530E047E188
:1038800050E062E470E084ED94E00E94790A81E007
:103890008093E8048093E90480913304882309F439
:1038A00068C0332009F465C023E130E03093E104BF
:1038B0002093E00489E190E09093E3048093E20494
:1038C0006FEE73E084ED94E00E94531347E150E003
:1038D0005093E1044093E00481E290E09093E3048C
:1038E0008093E20468EB73E084ED94E00E9453134C
:1038F000EEE1F0E0F093E104E093E00429E230E04F
:103900003093E3042093E20422E04A8D5B8D6C8DBA
:103910007D8D84ED94E00E946F1131100E94ED0BBB
:103920000E94940C0E94420F0E944F1000912304A9
:103930000023B1F18EE090E00E942F10182F882311
:1039400079F180911501909116018130910509F06E
:10395000E7C082E090E090931601809315011092E9
:103960002304109222041092210426C080E390E0E8
:103970003DCF80913504882309F4BACF332009F470
:10398000B7CF87E190E09093E1048093E004ADE14C
:10399000B0E0B093E304A093E20462E074E0A4CF4B
:1039A000AE01435F5F4FBE01675F7F4F802F0E9474
:1039B000B80F182F8111B6C0F0902104F110C3C0C8
:1039C000AE014B5F5F4FBE016F5F7F4F8F2D0E9437
:1039D000B80F082F8111EBC080912204811101C121
:1039E00080911604909117042091140430911504CD
:1039F0008217930709F005C1332081F12091170147
:103A0000309118014091190150911A016E897F89F6
:103A1000888D998D0E940D20811103C04D8944230A
:103A200031F060E174E087E090E20E9455138091EC
:103A3000110190911201A0911301B0911401A501FF
:103A40009401281B390B4A0B5B0BDA01C901883E34
:103A50009340A105B10508F0B2C11D8A2110C9C16A
:103A60005989552311F180910D0190910E01A0917A
:103A70000F01B0911001A5019401281B390B4A0BCD
:103A80005B0BDA01C90189389341A105B10508F43E
:103A9000E0C180920D0190920E01A0920F01B092B0
:103AA000100180E00E944D0E198A0091200400232D
:103AB00021F13110D1C18091180490911904A09185
:103AC0001A04B0911B04A5019401281B390B4A0B61
:103AD0005B0BDA01C90189359B41A105B10568F08D
:103AE0008092180490921904A0921A04B0921B04B8
:103AF000109220040E943611102F0E94FC046819B5
:103B000079098A099B09693171058105910508F0D8
:103B1000DBCD62E070E080E090E00E94CA04EDCF6F
:103B2000019719CF8D859E85AF85B8890397A1052B
:103B3000B10539F481E039893827398B832F0E9408
:103B40004D0E10E039CF8FE090E00E942F10082F2B
:103B5000882309F435CF211014C0311014C03090DF
:103B60002004311006C081E0809320040E9444119B
:103B7000302E109223041092220410922104102F50
:103B80002BCF3110ECCF0E94521110921C041092D6
:103B90001D0410921E0410921F048092180490922B
:103BA0001904A0921A04B0921B04312CE2CF8D8527
:103BB0009E85AF85B8890297A105B10509F00CCFA4
:103BC00081E02826622D70E086E394E00E94ED10EB
:103BD00067E673E086E394E00E949210102F312C88
:103BE000FBCE80E190E00E942F10882309F4F8CEEC
:103BF00010922904109228040E945211109222045B
:103C00009CC84091140450911504209115013091E5
:103C10001601841795070CF086C04091140450914A
:103C200015048417950744F4409114045091150429
:103C30000A96841795078CF02130310509F066C08B
:103C400060911701709118018091190190911A01EA
:103C500020E030E040E85FE310C060911701709110
:103C600018018091190190911A012130310509F054
:103C700048C020E030E040E251E40E94A11F609380
:103C80001701709318018093190190931A016091A4
:103C90001701709118018091190190911A0120E08B
:103CA00030E0A9010E940D2087FD80C060911701BE
:103CB000709118018091190190911A0120E030E073
:103CC00040EC51E40E946C2118160CF473C08091F2
:103CD000170190911801A0911901B0911A018093D8
:103CE000170190931801A0931901B0931A018091C4
:103CF000140490911504909317048093160411E016
:103D00007BCE2DEC3CEC4CEC5DE3B7CF6091170122
:103D1000709118018091190190911A012AE037EDF4
:103D200043E25CE3AACF4091140450911504481774
:103D3000590744F440911404509115040A97481708
:103D4000590784F02130310521F5609117017091F8
:103D500018018091190190911A0120E030E040E8AB
:103D60005FE30FC0609117017091180180911901F4
:103D700090911A012130310539F420E030E040E221
:103D800051E40E94A01F7BCF2DEC3CEC4CEC5DE39A
:103D9000F8CF6091170170911801809119019091ED
:103DA0001A012AE037ED43E25CE3EBCF80E090E0DC
:103DB000DC0195CF80E090E0A0ECB1E490CF809260
:103DC000110190921201A0921301B092140182E1AC
:103DD0000E94D303BC01990F880B990B0E94BC2051
:103DE0006093240470932504809326049093270401
:103DF0001D8A20E030E44CE156E460912404709187
:103E0000250480912604909127040E9471212CE9B9
:103E100034E145E95AE40E94A01F20E636EE44EC66
:103E200058E40E9412209B01AC012093240430939B
:103E30002504409326045093270460911701709144
:103E400018018091190190911A010E946A1211E0E3
:103E500007CE41E0498B29CE302E4FCE97FB072E5F
:103E600016F4009407D077FD09D00E946C1F07FC60
:103E700005D03EF4909581959F4F0895709561957A
:103E80007F4F0895A1E21A2EAA1BBB1BFD010DC096
:103E9000AA1FBB1FEE1FFF1FA217B307E407F507FA
:103EA00020F0A21BB30BE40BF50B661F771F881FD6
:103EB000991F1A9469F760957095809590959B016C
:103EC000AC01BD01CF010895B7FF0C94861F0E947D
:103ED000861F821B930B0895AA1BBB1B51E107C0D1
:103EE000AA1FBB1FA617B70710F0A61BB70B881F8A
:103EF000991F5A95A9F780959095BC01CD01089519
:103F0000EE0FFF1F0590F491E02D09940E94911F80
:103F1000A59F900DB49F900DA49F800D911D11241D
:103F20000895A29FB001B39FC001A39F700D811D92
:103F30001124911DB29F700D811D1124911D0895B2
:103F40005058BB27AA270E94B81F0C9432210E9408
:103F5000242138F00E942B2120F039F49F3F19F4DE
:103F600026F40C9421210EF4E095E7FB0C941B2120
:103F7000E92F0E94432158F3BA1762077307840799
:103F8000950720F079F4A6F50C9465210EF4E095E0
:103F90000B2EBA2FA02D0B01B90190010C01CA0103
:103FA000A0011124FF27591B99F0593F50F4503EAE
:103FB00068F11A16F040A22F232F342F4427585FA0
:103FC000F3CF469537952795A795F0405395C9F7B8
:103FD0007EF41F16BA0B620B730B840BBAF0915070
:103FE000A1F0FF0FBB1F661F771F881FC2F70EC00F
:103FF000BA0F621F731F841F48F4879577956795E2
:10400000B795F7959E3F08F0B0CF9395880F08F0CD
:104010009927EE0F9795879508950E94F72008F449
:1040200081E008950E9426200C9432210E942B21C9
:1040300058F00E94242140F029F45F3F29F00C94AD
:104040001B2151110C9466210C9421210E944321C3
:1040500068F39923B1F3552391F3951B550BBB27B7
:10406000AA2762177307840738F09F5F5F4F220FFC
:10407000331F441FAA1FA9F335D00E2E3AF0E0E8F3
:1040800032D091505040E695001CCAF72BD0FE2F3D
:1040900029D0660F771F881FBB1F261737074807D1
:1040A000AB07B0E809F0BB0B802DBF01FF27935889
:1040B0005F4F3AF09E3F510578F00C941B210C9411
:1040C00066215F3FE4F3983ED4F386957795679534
:1040D000B795F7959F5FC9F7880F911D96958795BE
:1040E00097F90895E1E0660F771F881FBB1F6217DD
:1040F00073078407BA0720F0621B730B840BBA0B9B
:10410000EE1F88F7E09508950E948B206894B11106
:104110000C94662108950E944B2188F09F5798F0D7
:10412000B92F9927B751B0F0E1F0660F771F881FBC
:10413000991F1AF0BA95C9F714C0B13091F00E94D6
:104140006521B1E008950C946521672F782F8827A9
:10415000B85F39F0B93FCCF3869577956795B395FD
:10416000D9F73EF490958095709561957F4F8F4F6C
:104170009F4F0895E89409C097FB3EF49095809571
:10418000709561957F4F8F4F9F4F9923A9F0F92F1D
:1041900096E9BB279395F695879577956795B7959B
:1041A000F111F8CFFAF4BB0F11F460FF1BC06F5F81
:1041B0007F4F8F4F9F4F16C0882311F096E911C093
:1041C000772321F09EE8872F762F05C0662371F0B4
:1041D00096E8862F70E060E02AF09A95660F771FC8
:1041E000881FDAF7880F9695879597F90895990FA4
:1041F0000008550FAA0BE0E8FEEF16161706E807B1
:10420000F907C0F012161306E407F50798F0621BD1
:10421000730B840B950B39F40A2661F0232B242BA6
:10422000252B21F408950A2609F4A140A6958FEFC5
:10423000811D811D089597F99F6780E870E060E017
:1042400008959FEF80EC089500240A94161617062F
:1042500018060906089500240A9412161306140677
:1042600005060895092E0394000C11F4882352F0DA
:10427000BB0F40F4BF2B11F460FF04C06F5F7F4F92
:104280008F4F9F4F089557FD9058440F551F59F079
:104290005F3F71F04795880F97FB991F61F09F3F33
:1042A00079F087950895121613061406551FF2CF5C
:1042B0004695F1DF08C0161617061806991FF1CFAC
:1042C00086957105610508940895E894BB276627D3
:1042D0007727CB0197F908950E94F72008F48FEF14
:1042E00008950E9484210C9432210E94242138F0E8
:1042F0000E942B2120F0952311F00C941B210C948B
:10430000212111240C9466210E94432170F3959F72
:10431000C1F3950F50E0551F629FF001729FBB27BC
:10432000F00DB11D639FAA27F00DB11DAA1F649F58
:104330006627B00DA11D661F829F2227B00DA11D0B
:10434000621F739FB00DA11D621F839FA00D611D91
:10435000221F749F3327A00D611D231F849F600DB2
:10436000211D822F762F6A2F11249F5750409AF0DB
:10437000F1F088234AF0EE0FFF1FBB1F661F771F67
:10438000881F91505040A9F79E3F510580F00C9432
:104390001B210C9466215F3FE4F3983ED4F386958D
:1043A00077956795B795F795E7959F5FC1F7FE2BD2
:1043B000880F911D9695879597F908950E94F7208B
:1043C000880B990B08950F931F93CF93DF9382303F
:1043D000910510F482E090E0E0910505F09106056A
:1043E00030E020E0B0E0A0E0309799F421153105ED
:1043F00009F44AC0281B390B24303105D8F58A81CD
:104400009B816115710589F1FB0193838283FE0114
:1044100011C0408151810281138148175907E0F092
:104420004817590799F4109761F012960C93129758
:1044300013961C933296CF01DF91CF911F910F916C
:1044400008950093050510930605F4CF2115310555
:1044500051F04217530738F0A901DB019A01BD0161
:10446000DF01F801C1CFEF01F9CF909306058093EA
:104470000505CDCFFE01E20FF31F819391932250EA
:10448000310939832883D7CF209103053091040562
:10449000232B41F42091150330911603309304052A
:1044A0002093030520911303309114032115310546
:1044B00041F42DB73EB74091170350911803241BC8
:1044C000350BE0910305F0910405E217F307A0F422
:1044D0002E1B3F0B2817390778F0AC014E5F5F4F5A
:1044E0002417350748F04E0F5F1F50930405409383
:1044F0000305819391939FCFF0E0E0E09CCFCF93B1
:10450000DF930097E9F0FC01329713821282A091A9
:104510000505B0910605ED0130E020E01097A1F40B
:1045200020813181820F931F209103053091040572
:104530002817390709F061C0F0930405E0930305DB
:10454000DF91CF910895EA01CE17DF07E8F54A81A0
:104550005B819E0141155105B1F7E901FB83EA83B7
:1045600049915991C40FD51FEC17FD0761F4808163
:1045700091810296840F951FE90199838883828136
:1045800093819B838A83F0E0E0E012968D919C9169
:1045900013970097B9F52D913C911197CD01029693
:1045A000820F931F209103053091040528173907C6
:1045B00039F6309751F51092060510920505B09323
:1045C0000405A0930305BCCFD383C28340815181EE
:1045D000840F951FC817D90761F44E5F5F4F88811C
:1045E0009981480F591F518340838A819B8193830E
:1045F00082832115310509F0B0CFF0930605E093D1
:1046000005059ECFFD01DC01C0CF13821282D7CFFA
:0E46100081E090E0F8940C940D23F894FFCF15
:10461E00038805880532000000AE474141190000AD
:10462E00004B0000000100AE47C141000000000039
:10463E00000000000000000000000000000000006C
:10464E00000000000000000000000000000000005C
:10465E0000C0E0F0F8FCFCFEFFFCE00000000000F3
:10466E00000000000000000000000000000000003C
:10467E00000000000000000000000000000000002C
:10468E00000000000000000000000000000000001C
:10469E00F8F8F8F8F8F8F8F8F8F8F8F8F0F0E0E0CC
:1046AE00C080C0FCFFFFFFFF7F3F7FFFFFFFFFFFCC
:1046BE0000000000000000000000000000000000EC
:1046CE0000000000000000000000000000000000DC
:1046DE0000000000000000000000000000000000CC
:1046EE0000000000000F1F3F7FFFFFFFFFFFFFFFD7
:1046FE00FFE7C7C7878F9F9FFFFFFFC1C0E0FCFF8B
:10470E00FFFFFFFFFCFCFCFCFEFEFEFCFCF8F8F0DD
:10471E00E0C0C0000000000000000000000000002B
:10472E00000000000000000000000000000000007B
:10473E0000000000000000000000000080C0E0F15A
:10474E00FBFFFFFFFFFF7F1F0F0F87E7FFFFFF1F1F
:10475E001F3FF9F8F8F8F8F8F8FDFFFFFFFFFFFF2D
:10476E00FFFFFF7F3F0F0701000000000000000069
:10477E00000000000000000000000000000000002B
:10478E000000000000000000000000000000F0FE2D
:10479E00FFFFFFFFFFFFFFFFFFFFFE7E3F3F0F1FED
:1047AE00FFFFFFFCF0E0F1FFFFFFFFFFFCF0010158
:1047BE0001010101010100000000000000000000E5
:1047CE0000000000000000000000000000000000DB
:1047DE0000000000000000000000000000000000CB
:1047EE00000003030303030303030101010100009F
:1047FE000000000000030F1F3F7F7FFFFFFFFF7FC2
:10480E007F1F0300000000000000000000000000F9
:10481E00000000000000000000000000000000008A
:10482E0000000000000705800000FF0100010000ED
:10483E00FFFF0000010001FF0000000000300690A5
:10484E0005BD057D06EE05CC05E00500000000481F
:10485E00099005140E130E9D0616038D0CC50BE163
:10486E000BD50B660D16030E07A70F8C0B530B0EF5
:10487E000BF10A790A1A0A0D0A0050204F4646001B
:10488E0050204F4E004F55542044495341424C4501
:10489E004421002D2D2D2D2D2D2D2D2D2D2D2D2D5C
:1048AE002D2D2D2D2D2D2D2D2D2D2D2D2D006E61E2
:1048BE006E00696E66006F76660046494E4500458D
:1048CE00585445524E414C20534F55524345007655
:1048DE006F6C61746167652076616C75653A004432
:1048EE00454242554720424547494E20212121004D
:1048FE0059454545454545540030002E0056004566
:10490E00585445524E414C00204C4F57205A006D82
:0A491E00410048494748205A0000B4
:00000001FF
