:100000000C94E2020C949B110C9474110C940A034E
:100010000C940A030C940A030C940A030C940A032C
:100020000C940A030C940A030C940A030C940A031C
:100030000C940A030C940A030C940A030C940A030C
:100040000C942A110C940A030C94E8110C94C2111C
:100050000C940A030C940A030C940A030C940A03EC
:100060000C940A030C940A0300000000003E5B4F4E
:100070005B3E3E6B4F6B3E1C3E7C3E1C183C7E3C08
:10008000181C577D571C1C5E7F5E1C00183C180016
:10009000FFE7C3E7FF0018241800FFE7DBE7FF30A6
:1000A000483A060E2629792926407F050507407F14
:1000B00005253F5A3CE73C5A7F3E1C1C08081C1C87
:1000C0003E7F14227F22145F5F005F5F06097F017D
:1000D0007F006689956A606060606094A2FFA29468
:1000E00008047E040810207E201008082A1C080836
:1000F0001C2A08081E101010100C1E0C1E0C303884
:100100003E3830060E3E0E06000000000000005F84
:1001100000000007000700147F147F14242A7F2AA0
:100120001223130864623649562050000807030062
:10013000001C2241000041221C002A1C7F1C2A08AE
:10014000083E080800807030000808080808000011
:1001500060600020100804023E5149453E00427F85
:10016000400072494949462141494D331814127FD4
:100170001027454545393C4A494931412111090774
:100180003649494936464949291E000014000000F5
:1001900040340000000814224114141414140041C7
:1001A00022140802015909063E415D594E7C121184
:1001B000127C7F494949363E414141227F414141BC
:1001C0003E7F494949417F090909013E4141517337
:1001D0007F0808087F00417F41002040413F017FA8
:1001E000081422417F404040407F021C027F7F0470
:1001F00008107F3E4141413E7F090909063E4151B9
:10020000215E7F09192946264949493203017F01A8
:10021000033F4040403F1F2040201F3F4038403FA9
:10022000631408146303047804036159494D4300BF
:100230007F4141410204081020004141417F0402F6
:10024000010204404040404000030708002054548D
:1002500078407F284444383844444428384444286B
:100260007F385454541800087E090218A4A49C78BE
:100270007F0804047800447D40002040403D007F1A
:100280001028440000417F40007C047804787C08FA
:100290000404783844444438FC18242418182424CE
:1002A00018FC7C08040408485454542404043F44B3
:1002B000243C4040207C1C2040201C3C4030403CE2
:1002C00044281028444C9090907C4464544C440042
:1002D00008364100000077000000413608000201A6
:1002E0000204023C2623263C1EA1A161123A404092
:1002F000207A38545455592155557941225454780F
:1003000042215554784020545579400C1E527212A7
:100310003955555559395454545939555454580030
:1003200000457C410002457D420001457C407D1234
:1003300011127DF0282528F07C5455450020545496
:100340007C547C0A097F4932494949323A44444441
:100350003A324A4848303A4141217A3A424020787C
:10036000009DA0A07D3D4242423D3D4040403D3C7D
:1003700024FF2424487E4943662B2FFC2F2BFF09A2
:1003800029F620C0887E0903205454794100004496
:100390007D413048484A32384040227A007A0A0A81
:1003A000727D0D19317D2629292F282629292926F4
:1003B00030484D4020380808080808080808382F39
:1003C00010C8ACBA2F102834FA00007B00000814C3
:1003D0002A142222142A14085500550055AA55AA99
:1003E00055AAFF55FF55FF000000FF00101010FF39
:1003F00000141414FF001010FF00FF1010F010F094
:10040000141414FC001414F700FF0000FF00FF1484
:1004100014F404FC141417101F10101F101F1414D0
:10042000141F00101010F0000000001F101010101A
:100430001F10101010F010000000FF10101010100E
:1004400010101010FF10000000FF140000FF00FF4C
:1004500000001F10170000FC04F4141417101714E8
:1004600014F404F40000FF00F7141414141414140A
:10047000F700F7141414171410101F101F1414147D
:10048000F4141010F010F000001F101F0000001FE7
:1004900014000000FC140000F010F01010FF10FF1A
:1004A000141414FF141010101F00000000F010FFAF
:1004B000FFFFFFFFF0F0F0F0F0FFFFFF0000000093
:1004C00000FFFF0F0F0F0F0F3844443844FC4A4A17
:1004D0004A347E02020606027E027E0263554941CC
:1004E000633844443C04407E201E2006027E020203
:1004F00099A5E7A5991C2A492A1C4C7201724C3017
:100500004A4D4D303048784830BC625A463D3E49ED
:100510004949007E0101017E2A2A2A2A2A44445F91
:10052000444440514A444040444A51400000FF0185
:1005300003E080FF000008086B6B08361236243693
:10054000060F090F060000181800000010100030F8
:1005500040FF0101001F01011E00191D1712003C80
:100560003C3C3C000000000000000000240027008C
:100570002A0000000000250028002B0000000000D9
:1005800023002600290004040404040404040202D5
:100590000202020203030303030301020408102002
:1005A000408001020408102001020408102000000D
:1005B0000008000201000003040700000000000022
:1005C00000001A1211241FBECFEFD8E0DEBFCDBF4E
:1005D00013E0A0E0B1E0EEEEFAE302C005900D9268
:1005E000AA37B107D9F724E0AAE7B3E001C01D920A
:1005F000AF36B207E1F712E0C2EED2E004C02197B5
:10060000FE010E94071AC13ED107C9F70E94B81225
:100610000C94751D0C940000FC0120812EBD0DB4BE
:1006200007FEFDCF2EB5FC01208308950895833089
:1006300081F028F4813099F08230A9F00895873054
:10064000A9F08830C9F08430B1F4809180008F7DAA
:1006500003C0809180008F7780938000089584B5D7
:100660008F7784BD089584B58F7DFBCF8091B000D6
:100670008F778093B00008958091B0008F7DF9CF7F
:10068000CF93DF93282F30E0F901E255FA4F8491A0
:10069000F901E656FA4FD491F901EA57FA4FC4919D
:1006A000CC23A1F081110E941703EC2FF0E0EE0F94
:1006B000FF1FE458FA4FA591B491EC91ED2381E02E
:1006C00090E009F480E0DF91CF91089580E090E020
:1006D000FACF1F93CF93DF93282F30E0F901E25533
:1006E000FA4F8491F901E656FA4FD491F901EA578D
:1006F000FA4FC491CC23A9F0162F81110E94170341
:10070000EC2FF0E0EE0FFF1FEE58FA4FA591B491D9
:100710008FB7F894EC91111108C0D095DE23DC93CB
:100720008FBFDF91CF911F910895DE2BF8CFCF932C
:10073000DF9390E0FC01E656FA4F24918A579A4FD6
:10074000FC0184918823C9F090E0880F991FFC0177
:10075000E859FA4FA591B491FC01EE58FA4FC591B2
:10076000D49161110DC09FB7F8948C91209582238C
:100770008C938881282328839FBFDF91CF91089590
:10078000623051F49FB7F8943C91822F8095832377
:100790008C93E8812E2BEFCF8FB7F894EC912E2B12
:1007A0002C938FBFEACF8E50806480937C00809121
:1007B0007A00806480937A0080917A0086FDFCCF75
:1007C000809178009091790008958230910538F0F9
:1007D000880F991F880F991F05970197F1F70895C2
:1007E0009F92AF92BF92CF92DF92EF92FF920F93C0
:1007F0001F93CF93DF93EC016B018885998511E0FE
:10080000892B09F010E8F601A0808A2D8123992414
:1008100093948111912C2C813D814E815F8160E206
:1008200071EA87E090E00E94D119022FB12CE22EEC
:10083000F12C002319F0C7010E94E5038A85877F08
:1008400009F04FC08D858F3F89F09A2D912381E06B
:1008500009F480E0891551F0EF85F8898F89992393
:10086000D1F19081892B808399249394E989FA8925
:100870008081998D892B8083002319F0C7010E9404
:10088000E5038E858F3F39F0EB89FC898081988D57
:10089000892309F0B12AE989FA899081898D8095A7
:1008A000892380838E858F3F11F0F601B082888581
:1008B0009985892B09F044C0110F1111BACFDF912E
:1008C000CF911F910F91FF90EF90DF90CF90BF904D
:1008D000AF909F9008959081809589238083912C7B
:1008E000C5CFE989FA898081998D892B808300237E
:1008F00019F0C7010E94E5038D858F3F49F0EF8510
:10090000F8898F899A2D9123B9F09081892B808362
:10091000E989FA899081898D8095892380838E85E4
:100920008F3F09F4BFCFEB89FC898081988D8923A3
:1009300009F4B8CFB12AB6CF908180958923E7CF4B
:100940001695BBCF3FB7F89480918A0390918B03A3
:10095000A0918C03B0918D0326B5A89B05C02F3FB5
:1009600019F00196A11DB11D3FBFBA2FA92F982FD5
:100970008827BC01CD01620F711D811D911D42E0D0
:10098000660F771F881F991F4A95D1F708958F9298
:100990009F92AF92BF92CF92DF92EF92FF924B0164
:1009A0005C010E94A2046B017C010E94A2046C19EC
:1009B0007D098E099F09683E734081059105A8F362
:1009C00028EEC20E23E0D21EE11CF11C8A94892875
:1009D0008A288B2829F0812C912C54018394E5CF0F
:1009E000FF90EF90DF90CF90BF90AF909F908F904F
:1009F00008950F931F93CF93DF93C0910001CC0F05
:100A0000CC0FC093000182E00E944003892B19F0B3
:100A1000C260C093000183E00E944003892B29F04B
:100A200080910001816080930001E0910001EF70EE
:100A3000F0E0EB5FFC4F808190917A03890F809307
:100A40007A03843094F10E94A2040091670410910B
:100A500068042091690430916A04601B710B820B59
:100A6000930BC1E0D0E0603C764C8D42910510F4D0
:100A7000CAE0D0E00E94A204609367047093680407
:100A80008093690490936A0480917C0390917D0324
:100A90008C0F9D1F90937D0380937C0310927A03AB
:100AA000DF91CF911F910F9108958D3FCCF70E9458
:100AB000A2040091630410916404209165043091B4
:100AC0006604601B710B820B930BCFEFDFEF603C72
:100AD000764C8D42910510F4C6EFDFEF0E94A20420
:100AE0006093630470936404809365049093660438
:100AF000CBCF0895AF92BF92CF92DF92EF92FF9249
:100B00000F931F93CF93DF936C017B018B01040F35
:100B1000151FEB015E01AE18BF08C017D10759F0D1
:100B20006991D601ED91FC910190F081E02DC60113
:100B30000995892B79F7C501DF91CF911F910F910D
:100B4000FF90EF90DF90CF90BF90AF900895FC01A1
:100B5000538D448D252F30E0842F90E0821B930B22
:100B6000541710F0CF96089501970895FC01918DC8
:100B7000828D981761F0A28DAE0FBF2FB11D5D96CB
:100B80008C91928D9F5F9F73928F90E008958FEF6D
:100B90009FEF0895FC01918D828D981731F0828D21
:100BA000E80FF11D858D90E008958FEF9FEF089578
:100BB000FC01918D228D892F90E0805C9F4F821BDC
:100BC00091098F73992708958EE993E00E94D805C3
:100BD00021E0892B09F420E0822F089580E090E045
:100BE000892B29F00E94E40581110C9400000895DE
:100BF000FC01A48DA80FB92FB11DA35ABF4F2C9192
:100C0000848D90E001968F739927848FA689B78988
:100C10002C93A089B1898C91837080648C93938D7F
:100C2000848D981306C00288F389E02D80818F7D22
:100C300080830895EF92FF920F931F93CF93DF93DA
:100C4000EC0181E0888F9B8D8C8D98131AC0E88908
:100C5000F989808185FF15C09FB7F894EE89FF89D7
:100C60006083E889F98980818370806480839FBF75
:100C700081E090E0DF91CF911F910F91FF90EF9075
:100C80000895F62E0B8D10E00F5F1F4F0F73112785
:100C9000E02E8C8D8E110CC00FB607FCFACFE889C0
:100CA000F989808185FFF5CFCE010E94F805F1CF4B
:100CB000EB8DEC0FFD2FF11DE35AFF4FF0829FB734
:100CC000F8940B8FEA89FB8980818062CFCFCF9324
:100CD000DF93EC01888D8823B9F0AA89BB89E88964
:100CE000F9898C9185FD03C0808186FD0DC00FB60A
:100CF00007FCF7CF8C9185FFF2CF808185FFEDCF88
:100D0000CE010E94F805E9CFDF91CF910895FC0153
:100D100077FD55C080859185681779070CF04FC025
:100D200057FD4DC082859385481759070CF047C081
:100D30008689823009F444C0833009F44EC0813082
:100D400031F48FE290E0861B970BBA01AC01842F3F
:100D5000A62F93A1691708F4962F93A394A19A172D
:100D600008F49A2F94A395A1891708F4982F95A3B6
:100D700096A1981708F4982F96A3CA0157FD0796D5
:100D8000E3E095958795EA95E1F7A4E5A89FF00142
:100D9000A99FF00D1124E60FF71FE95FFE4FCA016E
:100DA00068E070E00E94BD1941E050E001C0440FCE
:100DB0008A95EAF78081232BB9F0842B80830895EC
:100DC00083E590E0DC01A61BB70BBD018FE290E04C
:100DD000DC01A41BB50BAD01BACF83E590E0841B09
:100DE000950BAB01BC01B3CF40958423E7CF0895A9
:100DF000FC016370668B8481958126813781613027
:100E000039F0633029F091878087338722870895EE
:100E1000318720879387828708952F923F924F9240
:100E20005F926F927F928F929F92AF92BF92CF927A
:100E3000DF92EF92FF920F931F93CF93DF93CDB783
:100E4000DEB76A970FB6F894DEBF0FBECDBF9A8F9C
:100E5000898F7A8369834A01D22E18870F833701DD
:100E6000BC2CDC0159962D913C915A9721153105E6
:100E700009F015C118968D919C91199768177907FB
:100E80000CF0D7C11A968D919C91481759070CF018
:100E9000D0C14C2C512CB6E0CB9E600D711D11249D
:100EA0007C876B87161617060CF0C3C1EA2DF0E09D
:100EB000FA87E98793E0EE0FFF1F9A95E1F7F88B29
:100EC000EF87CF01840F951F181619060CF0B1C1DA
:100ED000A98DBA8D58968C91811104C0BFEABD15B9
:100EE00008F4D394A98DBA8DED91FC9111970284E9
:100EF000F385E02DCD010995B5E0DB9EC0011124FD
:100F0000E981FA81FC83EB83312C212C9C01285947
:100F10003F4F388F2F8B4A2D50E05E8B4D8BEF89E2
:100F2000F88DE20DF31D44919E828D82D12CC12C4F
:100F300069817A81620D731D7A8B698B842F90E0B1
:100F40009C8B8B8BE98DFA8DA081B18140FF82C093
:100F5000F1E0BF126FC0AF126DC01C96ED91FC9115
:100F60002F813885A4014C0D5D1D69897A89898D91
:100F70009A8D0995EB89FC89F595E7954E2F5FEFE2
:100F8000C51AD50A6D817E818D899E89680F791F6A
:100F90007E836D8398E0C916D10481F6AFEF2A1ADB
:100FA0003A0AEB81FC81E40DF51DFC83EB83F5E04F
:100FB0002F16310409F0B3CF2F8138852615370558
:100FC000B9F0A98DBA8DED91FC91B1E0BB1257C07B
:100FD000AB1255C069817A816B5F7F4F0088F189C0
:100FE000E02D830128E030E0A401898D9A8D0995D8
:100FF000A98DBA8DED91FC9111970688F789E02DA6
:10100000CD016A960FB6F894DEBF0FBECDBFDF915B
:10101000CF911F910F91FF90EF90DF90CF90BF90F5
:10102000AF909F908F907F906F905F904F903F9088
:101030002F9009941E96ED91FC91EF80F88409851C
:101040001A8592014D815E816B817C81898D9A8D9B
:10105000099590CF2F8138852615370509F48ACF59
:1010600031E0B31207C0A31205C01C96ED91FC91AC
:10107000930178CF1E96ED91FC917301E0CF6B85C3
:101080007C85641975090684F785E02D73010F8549
:1010900018899201A401898D9A8D0995A9CFF9012A
:1010A00034969491329745915491D91AB7E0DB9ECA
:1010B000400D511D1124F901259134913C8B2B8B4E
:1010C000FA0125903490FA01329674903196349159
:1010D000398B329664903196449041E04C1518F06B
:1010E0004A1508F07FC0662D062C000C770B7C8318
:1010F0006B83842D042C000C990B9E838D83A98D0A
:10110000BA8DED91FC9111970284F385E02DCD010C
:101110000995512CD12CC12CEA2DF0E0FA87E987F2
:101120002B2D30E03C872B87A401440D511D47FC3B
:101130005A95588F4F8B69817A81660D711D67FCB6
:101140007A957E876D877989C71608F051CF2C2D47
:1011500030E04D815E81420F531FA985BA854A9FB9
:10116000C0014B9F900D5A9F900D1124FC01E80D7A
:10117000F91DF88BEF87852D612C4F89588D420F13
:10118000531F5E8B4D8B671408F050C0442443946A
:10119000480E877041F4C1010196EB89FC89E20D8C
:1011A000F31DD4901C01D7FE19C0A98DBA8DED9105
:1011B000FC91662D70E0B1E0BB1219C0AB1217C0F4
:1011C0002D853E85620F731F0484F585E02D2F81E8
:1011D00038854D895E89898D9A8D0995DD0C6394DA
:1011E000842DD1CF1E821D821C821B8288CF4B8111
:1011F0005C81640F751FAB85BC856A9FC0016B9FC6
:10120000900D7A9F900D112469817A81680F791F62
:101210000684F785E02DEF80F88409851A859D0105
:101220004F855889898D9A8D0995D8CF570CC394CD
:101230008ACF6A960FB6F894DEBF0FBECDBFDF919E
:10124000CF911F910F91FF90EF90DF90CF90BF90C3
:10125000AF909F908F907F906F905F904F903F9056
:101260002F9008958F929F92AF92CF92EF92FF921C
:101270000F931F93CF93DF93EC01262F898D9A8DC7
:10128000009709F051C06A30D1F41D861C868D8903
:1012900048E0849F900111248E859F85820F931FC3
:1012A0009F878E8781E090E0DF91CF911F910F9112
:1012B000FF90EF90CF90AF909F908F9008956D30FA
:1012C00089F3CC88AD888F898823C1F08C859D8572
:1012D00036E0C39E800D911D11244885598548171D
:1012E000590764F44E855F851D861C8638E0A39EF1
:1012F000C0011124840F951F9F878E87EA88FB8881
:10130000088919894E855F856C857D85CE010E948F
:101310000D072C898C859D8546E0249F800D911DAD
:1013200011249D878C87BECF6A3069F41D861C8688
:10133000FC013896E4912D898E859F85E29F800D72
:10134000911D1124ADCF6D3009F4ACCFFC01349662
:101350003491631708F4A6CF3296E491E61708F4A7
:10136000A1CFFC01329685909490462F431B342FD9
:1013700047E0349F800C911C1124F4013296349183
:101380003196E4913323A9F1EE2399F1CC88F4014D
:101390003596E491AD884F89442301F10E2E000C5F
:1013A000FF0BE30FF11DCE9EA001CF9E500D112427
:1013B0006C857D85460F571F68857985641775078D
:1013C0006CF44E855F851D861C86FC013896E49181
:1013D000AE9E400D511D11245F874E87EA88FB8821
:1013E000088919894E855F856C857D85CE010E94AF
:1013F0000D07F4013496E4912C898C859D85E29F3C
:10140000800D911D11248DCF6F927F928F929F92AC
:10141000AF92BF92CF92DF92EF92FF920F931F9302
:10142000CF93DF93EC016B015A0139014801E88148
:10143000F9810284F385E02D0995E881F98102881C
:10144000F389E02D87019301A501B601CE0109952D
:10145000A501480D591D41505109E881F9810288C3
:10146000F389E02D9301B601CE010995E881F98158
:101470000088F189E02D9401A501B601CE010995FE
:10148000C60CD71CB60161507109E881F98100884A
:10149000F189E02D9401A501CE010995E881F9813A
:1014A0000688F789E02DCE01DF91CF911F910F9132
:1014B000FF90EF90DF90CF90BF90AF909F908F9074
:1014C0007F906F9009946F927F928F929F92AF92CC
:1014D000BF92CF92DF92EF92FF920F931F93CF9321
:1014E000DF935C01EB016A01490138018701DC01EE
:1014F000ED91FC916217730719F5641675062CF0CF
:10150000962D872D3A01C92ED82E96012619370916
:101510002F5F3F4F048CF58DE02DA301BE01C50167
:101520000995DF91CF911F910F91FF90EF90DF9080
:10153000CF90BF90AF909F908F907F906F900895C5
:101540004615570591F42617370724F0892D4B01CE
:10155000C22FD82F9E01281939092F5F3F4F068CC3
:10156000F78DE02DA601B401DACF0284F385E02DDA
:101570000995D501ED91FC910488F589E02D830151
:101580009401A601BE01C5010995D501ED91FC911B
:101590000688F789E02DC501DF91CF911F910F914A
:1015A000FF90EF90DF90CF90BF90AF909F908F9083
:1015B0007F906F900994EF92FF920F931F93DC013D
:1015C0001A960D911C911B9718962D913C91199785
:1015D000ED91FC9100A0F1A1E02D7B0150E040E0F5
:1015E00070E060E009951F910F91FF90EF900895D2
:1015F0004F925F926F927F928F929F92AF92BF9223
:10160000CF92DF92EF92FF920F931F93CF93DF93CE
:101610006C012B015A0139014801DC01ED91FC916B
:101620000284F385E02D0995E201640C751CD60156
:10163000ED91FC91C615D7055CF40088F189E02D89
:1016400087019401A501BE01C60109952196EFCF3E
:101650000688F789E02DC601DF91CF911F910F9188
:10166000FF90EF90DF90CF90BF90AF909F908F90C2
:101670007F906F905F904F9009948F929F92AF925E
:10168000BF92CF92DF92EF92FF920F931F93CF936F
:10169000DF93EC015B014A016901E881F981028471
:1016A000F385E02D099595012C0D3D1D2150310943
:1016B000E881F9810488F589E02D78018401A4018D
:1016C000B501CE010995E881F9810688F789E02DF9
:1016D000CE01DF91CF911F910F91FF90EF90DF909E
:1016E000CF90BF90AF909F908F9009948F929F92D0
:1016F000AF92BF92CF92DF92EF92FF920F931F9320
:10170000CF93DF93EC015B014A0169017801E88125
:10171000F9810284F385E02D0995C80CD91C860156
:1017200001501109E881F9810488F589E02D9501BE
:10173000A401B501CE010995E881F9810688F789F0
:10174000E02DCE01DF91CF911F910F91FF90EF908F
:10175000DF90CF90BF90AF909F908F900994EF92C1
:10176000FF920F931F93DC01ED91FC9100A0F1A17A
:10177000E02D09951F910F91FF90EF9008950F9321
:101780001F93DC01ED91FC91068CF78DE02D0995FE
:101790001F910F9108950F931F93DC01ED91FC9120
:1017A000048CF58DE02D09951F910F9108952F92CE
:1017B0003F924F925F926F927F928F929F92AF92E1
:1017C000BF92CF92DF92EF92FF920F931F93CF932E
:1017D000DF9301E010E029E030E045E250E066E010
:1017E00070E08CE394E00E94CB0B54E0652E712CEA
:1017F00044244394512CF12CE12CC4E0D0E078EF48
:10180000272E33243A94EDEFCE2EDD24DA948FEF99
:10181000E81AF80A82E0480E511CC40CD51CCE15FB
:10182000DF050CF44EC04E01880C991C8FEF881A0E
:10183000980A01E010E0940149E2A42EB12CAC1A00
:10184000BD0AA501B7016A5F7F4F8CE394E00E9457
:10185000CB0B9401A50166E070E06E197F098CE363
:1018600094E00E94CB0BC615D705F9F0B3016A5F6F
:101870007F4F01E010E0420182E0881A9108940154
:101880008AE2A82EB12CAE18BF08A5018CE394E023
:101890000E94CB0B66E070E0661977099401A50100
:1018A0008CE394E00E94CB0B3E01EC16FD0664F441
:1018B000D7FCADCF219782E0280E311CC20CD31C7F
:1018C000A6CFC615D70591F6DF91CF911F910F9145
:1018D000FF90EF90DF90CF90BF90AF909F908F9050
:1018E0007F906F905F904F903F902F900895DC0114
:1018F000ED91FC910084F185E02D09942F923F92A7
:101900004F925F926F927F928F929F92AF92BF920F
:10191000CF92DF92EF92FF920F931F93CF93DF93BB
:1019200021E030E04FE250E066E070E08CE394E0CC
:101930000E94770C21E030E043E250E066E070E086
:101940008CE394E00E94770C21E030E049E250E023
:101950006CE070E08CE394E00E94770C21E030E0D2
:1019600049E250E070E060E08CE394E00E94770C84
:1019700044244394512C10E000E0C6E0D0E034EF62
:10198000632E77247A944BEFE42EFF24FA9456E0EA
:10199000252E312C0F5F1F4F82E0480E511CE40CA6
:1019A000F51C480186E0880E911C21E030E06E01B4
:1019B00089E2C80ED11CA601B4018CE394E00E9418
:1019C000770C5101A01AB10A21E030E0A601B5015F
:1019D0008CE394E00E94770C21E030E089E2C82E8D
:1019E000D12CCC1ADD0AA601B4018CE394E00E944C
:1019F000770C21E030E0A601B5018CE394E00E9471
:101A0000770C680189E2C80ED11C21E030E0A60104
:101A10005E0186E0A80EB11CB5018CE394E00E9443
:101A2000770C21E030E0A6016101CC1ADD0AB60195
:101A30008CE394E00E94770C99E2892E912C801A15
:101A4000910A21E030E0A401B5018CE394E00E940A
:101A5000770C21E030E0A401B6018CE394E00E9411
:101A6000770C0C171D079CF0DF91CF911F910F9100
:101A7000FF90EF90DF90CF90BF90AF909F908F90AE
:101A80007F906F905F904F903F902F900895F7FC5C
:101A900081CF219782E0680E711CE60CF71C7ACF8B
:101AA0002F923F924F925F926F927F928F929F926E
:101AB000AF92BF92CF92DF92EF92FF920F931F935C
:101AC000CF93DF9300D000D000D0CDB7DEB73C017C
:101AD0006A013E832D83FC82EB825801A41AB50A69
:101AE000B7FE03C0B194A194B1088D809E80861A80
:101AF000970A97FE03C09194819491088A149B04DD
:101B00005CF0902F812F0D811E819D838E839C2DF3
:101B10008D2D6B01692F782F0C151D055CF09D81B3
:101B20008E817E836D83692F782F902F812F860180
:101B3000C92ED82E1601201A310A2B012D813E8183
:101B4000421A530A57FE03C051944194510871013F
:101B500037FE03C03FEFE31AF30AF594E7948D8153
:101B60009E81861797075CF5A1E0B0E0BA83A98350
:101B7000C016D1064CF1D301ED91FC910484F5859A
:101B8000E02D2B813C81A8016D817E818A149B040C
:101B90001CF04D815E81B801C3010995E418F50878
:101BA000F7FE0AC02D813E8189819A81280F391F55
:101BB0003E832D83E20CF31C0F5F1F4FD9CF2FEF15
:101BC0003FEF3A832983D4CF26960FB6F894DEBF31
:101BD0000FBECDBFDF91CF911F910F91FF90EF907E
:101BE000DF90CF90BF90AF909F908F907F906F903D
:101BF0005F904F903F902F900895089590E080E07F
:101C00000895CF93CFB7F89480917B03811127C0BB
:101C1000E0E9F5E08491E4EAF5E09491E82FF0E062
:101C2000EE0FFF1FE859FA4FA591B491EC91E9230B
:101C300021F461E08AE00E94690361E08AE00E9489
:101C400097038CB580618CBD8CB580648CBD61E0E0
:101C50008DE00E94970361E08BE00E9497038091E2
:101C60007B038F5F80937B03CFBFCF910895CF938A
:101C7000C82F0E944003019731F48C2F0E9440032B
:101C800021E0019709F020E0822FCF910895CF93B2
:101C9000C82F0E944003892B31F48C2F0E944003EF
:101CA00021E0892B09F020E0822FCF91089581E176
:101CB00090E00E94470E882319F081E08093820310
:101CC0008FE090E00E94470E882319F081E0809316
:101CD000800380E190E00E94470E882319F081E0A4
:101CE0008093810308950CB405FC0DC09EBD0000D7
:101CF0000DB407FEFDCF9EB58EBD00000DB407FEEE
:101D0000FDCF8EB508958EBD00000DB407FEFDCF4A
:101D10008EB59EBD00000DB407FEFDCF9EB50895A3
:101D20008EBD00000DB407FEFDCF8EB508958CBDAD
:101D30009DBD0895AF92BF92CF92DF92EF92FF9236
:101D40000F931F93CF93DF931F92CDB7DEB78C0114
:101D50005B016A01DC018D919C911197892B39F00F
:101D60001296ED91FC91808191810E94970EF8016D
:101D700083858F3F19F060E00E9469037501CA0CEA
:101D8000DB1CEC14FD04A9F0D7018D917D01898342
:101D9000F80180819181892B29F0CE0101960E9462
:101DA0000C03EFCFBE016F5F7F4FC8010E94F003AD
:101DB000E8CFD8011B968C918F3F19F061E00E940B
:101DC000690381E00F90DF91CF911F910F91FF90F8
:101DD000EF90DF90CF90BF90AF9008950F931F9337
:101DE000CF93DF931F92CDB7DEB78C01698360E09C
:101DF000FC01868D0E94690341E050E0BE016F5FE7
:101E00007F4FF801838D948D0E949A0E0F90DF9181
:101E1000CF911F910F910895CF93C82F87FDCFE7E2
:101E2000C0935B0461E28CE394E00E94EE0E6C2FA1
:101E300060688CE394E00E94EE0E60E28CE394E034
:101E4000CF910C94EE0ECF938091590487FD13C06F
:101E500061E00E94970360E0809159040E94690349
:101E600061E070E080E090E00E94C70461E0809152
:101E700059040E946903C0915C04C83008F0C7E0AF
:101E8000C0935C0461E28CE394E00E94EE0E6C2F40
:101E900060618CE394E00E94EE0E60E28CE394E0DB
:101EA0000E94EE0E80915B040E940C0F60E28CE3B6
:101EB00094E00E94EE0E6CE08CE394E0CF910C94E1
:101EC000EE0EFF920F931F93CF93DF9390915D04DB
:101ED000992339F080915E048F5F8917E8F580932C
:101EE0005E04D0916104D695D695D69584E5D89FA9
:101EF00080011124809162048695869586958D17C0
:101F000080F16D2F60648CE394E00E94EE0EC0912E
:101F10005F04F09060046C2F60688CE394E00E9492
:101F2000EE0E61E080915A040E9469034F2D50E04B
:101F30006C2F70E0461B570B4F5F5F4F600F711F98
:101F4000695F7E4F80915704909158040E949A0EC9
:101F5000DF5F0C5A1F4FCECF10925E040E94230FFA
:101F6000C0CF60E48CE394E00E94EE0E83E58093A2
:101F70005F04109260048FE2809361041092620407
:101F8000DF91CF911F910F91FF9008951F93CF93F1
:101F9000DF93EC01162F60E20E94EE0E6CE011114F
:101FA0006DE0CE01DF91CF911F910C94EE0EE7E032
:101FB000F1E088EF91E0DF019C011D92215030405B
:101FC000E1F710925F0480916004833508F483E5A3
:101FD0008093600410926104809162048F3208F44F
:101FE0008FE2809362041092490410924804109288
:101FF0004B0410924A0408950E94701DFB01019049
:102000000020E9F73197AF01461B570BDC01ED913A
:10201000FC910280F381E02D09948F929F92AF9200
:10202000BF92EF92FF920F931F93CF93DF93CDB7A1
:10203000DEB7A1970FB6F894DEBF0FBECDBF7C010F
:10204000FA01CB0119A2223008F42AE08E010F5DBB
:102050001F4F822E912CB12CA12CBF01A501940100
:102060000E94D119F901CA016A300CF5605DD801EE
:102070006E938D01232B242B252B79F790E080E0A4
:10208000109721F0BD01C7010E94FE0FA1960FB667
:10209000F894DEBF0FBECDBFDF91CF911F910F919E
:1020A000FF90EF90BF90AF909F908F900895695CE4
:1020B000DECF0F931F93CF93DF93EC018B016091E1
:1020C0009A0370919B0380919C0390919D0320E063
:1020D0003FEF4FE757E40E94DE1B20E030E040EC8A
:1020E00051E40E947F1A0E94F81A6093960370933D
:1020F0009703809398039093990360919203709152
:102100009303809194039091950320E030E040E2A6
:1021100051E40E947F1A20E030E040E85FE30E9433
:102120000E1A20E030E040E05FE30E94DE1B20E07A
:102130003FEF4FE757E40E94DE1B0E94F81A6093BE
:102140008E0370938F038093900390939103D061DB
:1021500060E08AE00E94690385E50E94900ECE014E
:102160000E94730E61E08AE00E94690361E070E002
:1021700080E090E00E94C70460E08AE00E9469036A
:1021800081E00E94900EF80180819181A281B3814B
:102190000E94730E61E08AE00E94690361E070E0D2
:1021A00080E090E00E94C704AE0170E060E020E1B2
:1021B0008EE993E00E940D1063E573E08EE993E0F1
:1021C0000E94FE0FF801408151816281738120E1FC
:1021D0008EE993E00E940D1063E573E08EE993E0D1
:1021E000DF91CF911F910F910C94FE0FCF92DF9250
:1021F000EF92FF92CF93DF936C01990FEE08FF08E7
:10220000F7FE1BC06DE28CE394E00E943209EC0102
:1022100044275527BA014C195D096E097F092AE048
:102220008CE394E00E940D108C0F9D1FDF91CF91E5
:10223000FF90EF90DF90CF9008952AE0B701A601BC
:102240008CE394E0DF91CF91FF90EF90DF90CF90FF
:102250000C940D101F920F920FB60F9211242F9312
:102260003F938F939F93AF93BF93809186039091F9
:102270008703A0918803B09189033091850323E0FF
:10228000230F2D3758F50196A11DB11D209385030D
:102290008093860390938703A0938803B093890368
:1022A00080918A0390918B03A0918C03B0918D0350
:1022B0000196A11DB11D80938A0390938B03A09377
:1022C0008C03B0938D03BF91AF919F918F913F91FC
:1022D0002F910F900FBE0F901F90189526E8230F97
:1022E0000296A11DB11DD2CF1F920F920FB60F9271
:1022F00011242F933F934F935F936F937F938F930B
:102300009F93AF93BF93EF93FF93E0910301F091FD
:1023100004010995FF91EF91BF91AF919F918F912A
:102320007F916F915F914F913F912F910F900FBED1
:102330000F901F9018951F920F920FB60F921124B5
:102340002F933F934F935F936F937F938F939F93BD
:10235000AF93BF93EF93FF93E0910101F0910201DE
:102360000995FF91EF91BF91AF919F918F917F91CF
:102370006F915F914F913F912F910F900FBE0F90F2
:102380001F9018951F920F920FB60F9211242F9342
:102390003F934F935F936F937F938F939F93AF93ED
:1023A000BF93EF93FF938EE993E00E94F805FF91AE
:1023B000EF91BF91AF919F918F917F916F915F91BD
:1023C0004F913F912F910F900FBE0F901F90189536
:1023D0001F920F920FB60F9211242F938F939F93FA
:1023E000EF93FF93E091AE03F091AF038081E09112
:1023F000B403F091B50382FD1BC090818091B703B7
:102400008F5F8F732091B803821741F0E091B7037B
:10241000F0E0E256FC4F958F8093B703FF91EF9168
:102420009F918F912F910F900FBE0F901F90189535
:102430008081F4CF0F931F93CF93DF93EEE9F3E006
:102440001382128288EE93E0A0E0B0E0848395834B
:10245000A683B78389E193E09183808385EC90E044
:102460009587848784EC90E09787868780EC90E05E
:10247000918B808B81EC90E0938B828B82EC90E04F
:10248000958B848B86EC90E0978B868B118E128EC9
:10249000138E148E0E94A2046093670470936804E4
:1024A0008093690490936A040E94A2046093630479
:1024B000709364048093650490936604CCE3D4E045
:1024C0001B821A8224E530E03D832C8380E390E078
:1024D0009F838E83398728879B878A871E8A1D86DC
:1024E0001C861F861E8681E08D8B8C8B2FEF3FEF25
:1024F0003B8B2A8B398B288B8F8B188E1A8E198EDB
:102500008BE293E0998388838CE190E00E944B1CDE
:102510008C0185E0F80183878FEF86878587848724
:102520008BE394E091838083138E82E090E00E949D
:102530004B1C20E5FC0120831182F80193838283E8
:1025400080E099E0ADE3B0E084839583A683B78310
:1025500081E090E09187808712861C8F0B8F86E048
:102560008E8F84E08D8FDF91CF911F910F91089511
:10257000CF93DF9300D000D000D0CDB7DEB77894F2
:1025800084B5826084BD84B5816084BD85B5826078
:1025900085BD85B5816085BD80916E008160809329
:1025A0006E00109281008091810082608093810092
:1025B00080918100816080938100809180008160A2
:1025C000809380008091B10084608093B1008091FD
:1025D000B00081608093B00080917A008460809325
:1025E0007A0080917A00826080937A0080917A00EC
:1025F000816080937A0080917A00806880937A006D
:102600001092C100E091AE03F091AF0382E08083AD
:10261000E091AA03F091AB031082E091AC03F0913A
:10262000AD038FEC80831092B603E091B203F0917A
:10263000B30386E08083E091B003F091B103808121
:1026400080618083E091B003F091B1038081886064
:102650008083E091B003F091B10380818068808332
:10266000E091B003F091B10380818F7D808366E5B6
:1026700073E08EE993E00E94FE0F63E573E08EE95C
:1026800093E00E94FE0F67E673E08EE993E00E94FC
:10269000FE0F63E573E08EE993E00E94FE0F61E0B8
:1026A0008DE00E9497030E94010E81E590E00E9458
:1026B000970E61E08AE00E949703209157043091C1
:1026C00058043A832983F90183858F3F49F061E0FB
:1026D0000E94970361E0E981FA8183850E94690382
:1026E000E981FA8180819181892B09F477C00E9468
:1026F000010E81E0E981FA81838F61E080915A04C3
:102700000E9497038091590487FD03C061E00E94F5
:10271000970384E080935C0488E280935B041092CA
:102720005D0410925E040E94230F10925F0480915A
:102730006004833508F483E580936004109261049B
:10274000809162048F3208F48FE2809362040E94C9
:10275000610F84E60E940C0F0E94D70F62E081E1B6
:102760000E94970362E08FE00E94970362E080E19D
:102770000E94970362E082E00E94970362E083E098
:102780000E94970329EF34E0309302012093010166
:10279000809169008C7F816080936900E89A309312
:1027A00004012093030180916900837F84608093FA
:1027B0006900E99A80918303909184030097C1F1A5
:1027C000019709F475C380E090E0892B99F30E948A
:1027D000E405882379F30E940000ECCF61E0E981F1
:1027E000FA8184850E949703E981FA8182858B7F33
:1027F00060E019F061E0E981FA8184850E94690353
:10280000E981FA8185858F3F49F061E00E94970355
:1028100061E0E981FA8185850E946903E981FA8195
:1028200086858F3F09F465CF60E00E94970361CFF2
:102830001D8211E03324339462E0262E8FB7F89482
:10284000209186033091870340918803509189033A
:1028500029833A834B835C838FBF409092035090CF
:1028600093036090940370909503112309F4F4C0CE
:102870000E94D70F8090920390909303A0909403AE
:10288000B0909503609192037091930380919403AB
:102890009091950320E030E0A9010E947A1A87FF09
:1028A0001FC0B7FAB094B7F8B094EE24E394F12CBB
:1028B0000AE010E024E030E04AE050E070E060E040
:1028C0008CE394E00E94630A0BE010E024E030E027
:1028D0004BE050E070E060E08CE394E00E94630A1B
:1028E000C501B4010E94F11A6B018B01072E000C87
:1028F000880B990B0E94291B9B01AC01C501B401F7
:102900000E940D1A20E030E048EC52E40E94DE1BE9
:102910004B015C0133E030935004309351040A3092
:1029200011050CF0FEC047E050E05093490440937D
:10293000480410924B0410924A0460E773E08CE361
:1029400094E00E94FE0F89E190E090934904809307
:10295000480410924B0410924A04C6010E94F610DB
:10296000C501B4010E94F11A6B0120E030E040E2A1
:1029700051E4C501B4010E947A1A87FFD9C020E34F
:1029800030E0309349042093480410924B04109295
:102990004A0460E773E08CE394E00E94FE0F82E457
:1029A00090E0909349048093480410924B04109255
:1029B0004A04C6010E94F61020925004209251044D
:1029C00086E290E09093490480934804E8E0F0E0C8
:1029D000F0934B04E0934A0462E773E08CE394E0E5
:1029E0000E94FE0F28E430E030934904209348040D
:1029F00040E250E050934B0440934A0464E773E094
:102A00008CE394E00E94FE0F8091050190910601F5
:102A1000EE24E394F12C08E110E027E230E048E1F5
:102A200050E068E170E0019731F021E530E048E1E5
:102A300050E062E470E08CE394E00E94630A51E0AD
:102A400050935004509351048D8181110E94D70BF3
:102A50000E947E0C0E94610F0E94570E809182039B
:102A600081116DC010E080918103882371F080E1B5
:102A700090E00E94370E882341F0FD8121E0F2278B
:102A8000FD8310928103182F382E809180038111CD
:102A900074C080917E0390917F0320917C033091DC
:102AA0007D038217930709F09CC03D813323D1F049
:102AB0002091920330919303409194035091950398
:102AC000C301B2010E947A1A811102C0332031F091
:102AD0006EE873E083E090E20E94591084E10E9466
:102AE000D303312C2FB7F8948091860390918703FC
:102AF000A0918803B09189032FBF29813A814B812E
:102B00005C81821B930BA40BB50B4997A105B10502
:102B100008F094CE62E070E080E090E00E94C7048C
:102B2000E1CFE7E0F0E0F0934904E093480411CFEF
:102B300040E350E0509349044093480436CF81E18C
:102B400090E00E94370E182F882309F48BCF8091D4
:102B50000501909106018130910549F4E2E0F0E031
:102B6000F0930601E0930501109282037CCF019758
:102B70009093060180930501F7CF8FE090E00E94CB
:102B8000370E882309F485CF81E090E09093840389
:102B90008093830360E08AE00E94690385E50E94D8
:102BA000900E83E090E20E94730E61E08AE00E9442
:102BB000690361E070E080E090E00E94C70420E1DA
:102BC00043E050E260E070E08EE993E00E940D1077
:102BD00063E573E08EE993E00E94FE0F109280039C
:102BE000F2CDC0909203D0909303E0909403F090C4
:102BF000950340917C0350917D0320910501309114
:102C00000601841795070CF0C5C040917C035091D4
:102C10007D03841795074CF440917C0350917D030C
:102C20000A96841795070CF44EC02130310509F03F
:102C3000A4C060919203709193038091940390914A
:102C4000950320E030E040E85FE30E940E1A6093B5
:102C5000920370939303809394039093950320E0E1
:102C600030E0A901C701B6010E947A1A87FF45C06A
:102C700020E030E040E85FEBC701B6010E94D91BBD
:102C80001816DCF520919203309193034091940340
:102C900050919503C701B6010E947A1A87FF2DC093
:102CA0008090920390909303A0909403B09095032A
:102CB00020E030E040E050ECC701B6010E94DE1B8E
:102CC000A501940110C060919203709193038091CB
:102CD0009403909195032130310509F049C020E01B
:102CE00030E040E251E40E940E1A60939203709328
:102CF0009303809394039093950360919203709152
:102D00009303809194039091950320E030E040E29A
:102D100051EC0E947A1A87FDC1C0609192037091B4
:102D20009303809194039091950320E030E040E27A
:102D300051E40E94D91B18160CF4B5C0809192037F
:102D400090919303A0919403B09195038093920383
:102D500090939303A0939403B093950380917C0385
:102D600090917D0390937F0380937E0311E09DCE2D
:102D70002DEC3CEC4CEC5DE3B6CF6091920370918E
:102D8000930380919403909195032AE037ED43E2F9
:102D90005CE3A9CF40917C0350917D03481759070C
:102DA0004CF440917C0350917D030A9748175907D2
:102DB0000CF450C02130310509F063C060919203DA
:102DC00070919303809194039091950320E030E0FB
:102DD00040E85FE30E940D1A60939203709393039F
:102DE000809394039093950320E030E0A901C701FC
:102DF000B6010E94D91B18160CF07FCF20E030E0FE
:102E000040E85FE3C701B6010E947A1A87FF75CFD9
:102E10002091920330919303409194035091950334
:102E2000C701B6010E94D91B18160CF066CF80901E
:102E3000920390909303A0909403B0909503A70100
:102E40009601C701B6010E940E1A9B01AC01C50193
:102E5000B4010FC060919203709193038091940329
:102E6000909195032130310539F420E030E040E2C3
:102E700051E40E940D1A39CF2DEC3CEC4CEC5DE393
:102E8000F8CF609192037091930380919403909195
:102E900095032AE037ED43E25CE3EBCF80E090E07E
:102EA000A0E2B1EC53CF80E090E0A0E2B1E44ECFDD
:102EB0001D8211E031E03E8332E0232E332433942F
:102EC0008FB7F8942091860330918703409188034F
:102ED0005091890329833A834B835C838FBF809011
:102EE0009A0390909B03A0909C03B0909D031123A4
:102EF00009F4CCC060919A0370919B0380919C036C
:102F000090919D030E94F11A6B018B0140909A03EE
:102F100050909B0360909C0370909D03072E000CC3
:102F2000880B990B0E94291B9B01AC01C301B201C4
:102F30000E940D1A20E030E048EC52E40E94DE1BB3
:102F40002B013C010E94D70F33E0309350043093A3
:102F500051040A3011050CF0FEC047E050E05093D8
:102F600049044093480410924B0410924A0460E7CD
:102F700073E08CE394E00E94FE0F89E190E090936F
:102F800049048093480410924B0410924A04C601ED
:102F90000E94F610C301B2010E94F11A6B0120E0F9
:102FA00030E040E151E4C301B2010E947A1A1816E0
:102FB0000CF4D8C020E330E0309349042093480457
:102FC00010924B0410924A0460E773E08CE394E0A3
:102FD0000E94FE0F82E490E090934904809348049D
:102FE00010924B0410924A04C6010E94F6102092DF
:102FF00050042092510486E290E09093490480931B
:103000004804E8E0F0E0F0934B04E0934A0462E700
:1030100073E08CE394E00E94FE0F2CE330E03093E9
:1030200049042093480440E250E050934B044093FD
:103030004A0466E773E08CE394E00E94FE0F8091FF
:10304000050190910601EE24E394F12C08E110E0D3
:1030500027E230E048E150E068E170E0019731F0AC
:1030600021E530E048E150E062E470E08CE394E078
:103070000E94630A30925004309251045D815111D4
:103080000E94D70B0E947E0C0E94610F0E94570E77
:103090008091820381116DC010E0809181038823AB
:1030A00069F080E190E00E94370E882339F09D811D
:1030B00093259D8310928103182F8E838091800326
:1030C000811171C080917E0390917F0320917C03D8
:1030D00030917D038217930709F071C0ED81EE23D3
:1030E000D9F020919A0330919B0340919C03509119
:1030F0009D03C501B4010E947A1A811103C0FE81AB
:10310000FF2331F066E973E087E090E20E945910F6
:1031100085E10E94D3031E822FB7F8948091860325
:1031200090918703A0918803B09189032FBF2981D3
:103130003A814B815C81821B930BA40BB50B4997A1
:10314000A105B10508F0BCCE62E070E080E090E03F
:103150000E94C704E1CFE7E0F0E0F0934904E09378
:10316000480411CF40E350E0509349044093480491
:1031700037CF81E190E00E94370E182F882309F4A1
:103180008BCF80910501909106018130910549F422
:1031900082E090E0909306018093050110928203F3
:1031A0007CCF0197F7CF8FE090E00E94370E882305
:1031B00009F488CF10928403109283030FCD4091BD
:1031C0007C0350917D032091050130910601841705
:1031D00095070CF086C040917C0350917D038417C5
:1031E000950744F440917C0350917D030A9684171F
:1031F00095078CF02130310509F066C060919A0383
:1032000070919B0380919C0390919D0320E030E09E
:1032100040E85FE310C060919A0370919B03809136
:103220009C0390919D032130310509F048C020E0B6
:1032300030E040E251E40E940E1A60939A037093CA
:103240009B0380939C0390939D0360919A037091DC
:103250009B0380919C0390919D0320E030E0A901A5
:103260000E947A1A87FD80C060919A0370919B0337
:1032700080919C0390919D0320E030E040EC51E46C
:103280000E94D91B18160CF473C080919A03909178
:103290009B03A0919C03B0919D0380939A0390930C
:1032A0009B03A0939C03B0939D0380917C0390911A
:1032B0007D0390937F0380937E0311E00FCF2DEC6D
:1032C0003CEC4CEC5DE3B7CF60919A0370919B03AB
:1032D00080919C0390919D032AE037ED43E25CE3EB
:1032E000AACF40917C0350917D034817590744F4BD
:1032F00040917C0350917D030A974817590784F049
:103300002130310521F560919A0370919B038091E2
:103310009C0390919D0320E030E040E85FE30FC004
:1033200060919A0370919B0380919C0390919D03FF
:103330002130310539F420E030E040E251E40E94D0
:103340000D1A7BCF2DEC3CEC4CEC5DE3F8CF60919B
:103350009A0370919B0380919C0390919D032AE0B6
:1033600037ED43E25CE3EBCF80E090E0DC0195CF0A
:1033700080E090E0A0ECB1E490CF97FB072E16F42C
:10338000009407D077FD09D00E94F31907FC05D0FF
:103390003EF4909581959F4F0895709561957F4F6C
:1033A0000895A1E21A2EAA1BBB1BFD010DC0AA1F86
:1033B000BB1FEE1FFF1FA217B307E407F50720F09E
:1033C000A21BB30BE40BF50B661F771F881F991F19
:1033D0001A9469F760957095809590959B01AC0162
:1033E000BD01CF010895AA1BBB1B51E107C0AA1F55
:1033F000BB1FA617B70710F0A61BB70B881F991F96
:103400005A95A9F780959095BC01CD010895EE0FCE
:10341000FF1F0590F491E02D09945058BB27AA276F
:103420000E94251A0C949F1B0E94911B38F00E9449
:10343000981B20F039F49F3F19F426F40C948E1B4E
:103440000EF4E095E7FB0C94881BE92F0E94B01B5B
:1034500058F3BA17620773078407950720F079F4C9
:10346000A6F50C94D21B0EF4E0950B2EBA2FA02DCE
:103470000B01B90190010C01CA01A0011124FF2721
:10348000591B99F0593F50F4503E68F11A16F0401C
:10349000A22F232F342F4427585FF3CF469537951B
:1034A0002795A795F0405395C9F77EF41F16BA0BE0
:1034B000620B730B840BBAF09150A1F0FF0FBB1F8E
:1034C000661F771F881FC2F70EC0BA0F621F731FD7
:1034D000841F48F4879577956795B795F7959E3F34
:1034E00008F0B0CF9395880F08F09927EE0F9795C5
:1034F000879508950E94641B08F481E008950E9456
:10350000931A0C949F1B0E94981B58F00E94911BC9
:1035100040F029F45F3F29F00C94881B51110C9462
:10352000D31B0C948E1B0E94B01B68F39923B1F33C
:10353000552391F3951B550BBB27AA2762177307D9
:10354000840738F09F5F5F4F220F331F441FAA1F6D
:10355000A9F335D00E2E3AF0E0E832D09150504029
:10356000E695001CCAF72BD0FE2F29D0660F771FD7
:10357000881FBB1F261737074807AB07B0E809F0BD
:10358000BB0B802DBF01FF2793585F4F3AF09E3F42
:10359000510578F00C94881B0C94D31B5F3FE4F327
:1035A000983ED4F3869577956795B795F7959F5F85
:1035B000C9F7880F911D9695879597F90895E1E0D1
:1035C000660F771F881FBB1F621773078407BA0730
:1035D00020F0621B730B840BBA0BEE1F88F7E0958B
:1035E00008950E94F81A6894B1110C94D31B0895A1
:1035F0000E94B81B88F09F5798F0B92F9927B751B0
:10360000B0F0E1F0660F771F881F991F1AF0BA9586
:10361000C9F714C0B13091F00E94D21BB1E00895F7
:103620000C94D21B672F782F8827B85F39F0B93FE9
:10363000CCF3869577956795B395D9F73EF4909539
:103640008095709561957F4F8F4F9F4F0895E894B7
:1036500009C097FB3EF490958095709561957F4FDA
:103660008F4F9F4F9923A9F0F92F96E9BB27939588
:10367000F695879577956795B795F111F8CFFAF498
:10368000BB0F11F460FF1BC06F5F7F4F8F4F9F4FC9
:1036900016C0882311F096E911C0772321F09EE827
:1036A000872F762F05C0662371F096E8862F70E08D
:1036B00060E02AF09A95660F771F881FDAF7880F67
:1036C0009695879597F90895990F0008550FAA0BBD
:1036D000E0E8FEEF16161706E807F907C0F0121625
:1036E0001306E407F50798F0621B730B840B950B28
:1036F00039F40A2661F0232B242B252B21F408957D
:103700000A2609F4A140A6958FEF811D811D089519
:1037100097F99F6780E870E060E008959FEF80EC84
:10372000089500240A941616170618060906089527
:1037300000240A9412161306140605060895092E8D
:103740000394000C11F4882352F0BB0F40F4BF2BFC
:1037500011F460FF04C06F5F7F4F8F4F9F4F08953C
:1037600057FD9058440F551F59F05F3F71F0479532
:10377000880F97FB991F61F09F3F79F08795089517
:10378000121613061406551FF2CF4695F1DF08C036
:10379000161617061806991FF1CF86957105610553
:1037A00008940895E894BB2766277727CB0197F9FB
:1037B00008950E94641B08F48FEF08950E94F11B86
:1037C0000C949F1B0E94911B38F00E94981B20F0C4
:1037D000952311F00C94881B0C948E1B11240C94CF
:1037E000D31B0E94B01B70F3959FC1F3950F50E05F
:1037F000551F629FF001729FBB27F00DB11D639FA3
:10380000AA27F00DB11DAA1F649F6627B00DA11D48
:10381000661F829F2227B00DA11D621F739FB00DEE
:10382000A11D621F839FA00D611D221F749F33275E
:10383000A00D611D231F849F600D211D822F762FF7
:103840006A2F11249F5750409AF0F1F088234AF0D4
:10385000EE0FFF1FBB1F661F771F881F9150504040
:10386000A9F79E3F510580F00C94881B0C94D31B44
:103870005F3FE4F3983ED4F3869577956795B795C7
:10388000F795E7959F5FC1F7FE2B880F911D9695E1
:10389000879597F908950F931F93CF93DF93823005
:1038A000910510F482E090E0E0916D04F0916E04D7
:1038B00030E020E0B0E0A0E0309799F42115310528
:1038C00009F44AC0281B390B24303105D8F58A8108
:1038D0009B816115710589F1FB0193838283FE0150
:1038E00011C0408151810281138148175907E0F0CE
:1038F0004817590799F4109761F012960C93129794
:1039000013961C933296CF01DF91CF911F910F91A7
:10391000089500936D0410936E04F4CF21153105C2
:1039200051F04217530738F0A901DB019A01BD019C
:10393000DF01F801C1CFEF01F9CF90936E048093BE
:103940006D04CDCFFE01E20FF31F819391932250BE
:10395000310939832883D7CF20916B0430916C04CF
:10396000232B41F4209101033091020330936C0426
:1039700020936B042091FF02309100032115310543
:1039800041F42DB73EB74091030350910403241B2B
:10399000350BE0916B04F0916C04E217F307A0F48F
:1039A0002E1B3F0B2817390778F0AC014E5F5F4F95
:1039B0002417350748F04E0F5F1F50936C04409357
:1039C0006B04819391939FCFF0E0E0E09CCFCF9385
:1039D000DF930097E9F0FC01329713821282A091E5
:1039E0006D04B0916E04ED0130E020E01097A1F479
:1039F00020813181820F931F20916B0430916C04E0
:103A00002817390709F061C0F0936C04E0936B0448
:103A1000DF91CF910895EA01CE17DF07E8F54A81DB
:103A20005B819E0141155105B1F7E901FB83EA83F2
:103A300049915991C40FD51FEC17FD0761F480819E
:103A400091810296840F951FE90199838883828171
:103A500093819B838A83F0E0E0E012968D919C91A4
:103A600013970097B9F52D913C911197CD010296CE
:103A7000820F931F20916B0430916C042817390733
:103A800039F6309751F510926E0410926D04B09390
:103A90006C04A0936B04BCCFD383C283408151815B
:103AA000840F951FC817D90761F44E5F5F4F888157
:103AB0009981480F591F518340838A819B81938349
:103AC00082832115310509F0B0CFF0936E04E093A5
:103AD0006D049ECFFD01DC01C0CF13821282D7CFCF
:0E3AE00081E090E0F8940C94751DF894FFCFEF
:103AEE0003790579050100000000000000000000C8
:103AFE0000000000000000000000000000000000B8
:103B0E0000000000000000000000000000C0E0F017
:103B1E00F8FCFCFEFFFCE0000000000000000000CE
:103B2E000000000000000000000000000000000087
:103B3E000000000000000000000000000000000077
:103B4E00000000000000000000000000F8F8F8F887
:103B5E00F8F8F8F8F8F8F8F8F0F0E0E0C080C0FCFB
:103B6E00FFFFFFFF7F3F7FFFFFFFFFFF0000000013
:103B7E000000000000000000000000000000000037
:103B8E000000000000000000000000000000000027
:103B9E000000000000000000000000000000000017
:103BAE00000F1F3F7FFFFFFFFFFFFFFFFFE7C7C7AE
:103BBE00878F9F9FFFFFFFC1C0E0FCFFFFFFFFFF4E
:103BCE00FCFCFCFCFEFEFEFCFCF8F8F0E0C0C000C5
:103BDE0000000000000000000000000000000000D7
:103BEE0000000000000000000000000000000000C7
:103BFE00000000000000000080C0E0F1FBFFFFFFAE
:103C0E00FFFF7F1F0F0F87E7FFFFFF1F1F3FF9F813
:103C1E00F8F8F8F8F8FDFFFFFFFFFFFFFFFFFF7F4B
:103C2E003F0F070100000000000000000000000030
:103C3E000000000000000000000000000000000076
:103C4E0000000000000000000000F0FEFFFFFFFF7C
:103C5E00FFFFFFFFFFFFFE7E3F3F0F1FFFFFFFFC3B
:103C6E00F0E0F1FFFFFFFFFFFCF001010101010198
:103C7E000101000000000000000000000000000034
:103C8E000000000000000000000000000000000026
:103C9E000000000000000000000000000000030310
:103CAE0003030303030301010101000000000000F0
:103CBE0000030F1F3F7F7FFFFFFFFF7F7F1F03006C
:103CCE0000000000000000000000000000000000E6
:103CDE0000000000000000000000000000000000D6
:103CEE00006F04800000FF0100010000FFFF0000D4
:103CFE00010001FF00000000001A067A05A7056703
:103D0E0006D805B605CA050000000032097A05FE80
:103D1E000DFD0D87061603770CAF0BCB0BBF0B50AB
:103D2E000D1603F806C60F760B3D0BF80ADB0A6379
:103D3E000A040A0D0A0044454242554720424547AF
:103D4E00494E202121210059454545454545540000
:0A3D5E0030002E0056006D410000F9
:00000001FF
