:100000000C94E2020C9431140C940A140C940A031C
:100010000C940A030C940A030C940A030C940A032C
:100020000C940A030C940A030C940A030C940A031C
:100030000C940A030C940A030C940A030C940A030C
:100040000C94C0130C940A030C947E140C94581452
:100050000C940A030C940A030C940A030C940A03EC
:100060000C940A030C940A0300000000003E5B4F4E
:100070005B3E3E6B4F6B3E1C3E7C3E1C183C7E3C08
:10008000181C577D571C1C5E7F5E1C00183C180016
:10009000FFE7C3E7FF0018241800FFE7DBE7FF30A6
:1000A000483A060E2629792926407F050507407F14
:1000B00005253F5A3CE73C5A7F3E1C1C08081C1C87
:1000C0003E7F14227F22145F5F005F5F06097F017D
:1000D0007F006689956A606060606094A2FFA29468
:1000E00008047E040810207E201008082A1C080836
:1000F0001C2A08081E101010100C1E0C1E0C303884
:100100003E3830060E3E0E06000000000000005F84
:1001100000000007000700147F147F14242A7F2AA0
:100120001223130864623649562050000807030062
:10013000001C2241000041221C002A1C7F1C2A08AE
:10014000083E080800807030000808080808000011
:1001500060600020100804023E5149453E00427F85
:10016000400072494949462141494D331814127FD4
:100170001027454545393C4A494931412111090774
:100180003649494936464949291E000014000000F5
:1001900040340000000814224114141414140041C7
:1001A00022140802015909063E415D594E7C121184
:1001B000127C7F494949363E414141227F414141BC
:1001C0003E7F494949417F090909013E4141517337
:1001D0007F0808087F00417F41002040413F017FA8
:1001E000081422417F404040407F021C027F7F0470
:1001F00008107F3E4141413E7F090909063E4151B9
:10020000215E7F09192946264949493203017F01A8
:10021000033F4040403F1F2040201F3F4038403FA9
:10022000631408146303047804036159494D4300BF
:100230007F4141410204081020004141417F0402F6
:10024000010204404040404000030708002054548D
:1002500078407F284444383844444428384444286B
:100260007F385454541800087E090218A4A49C78BE
:100270007F0804047800447D40002040403D007F1A
:100280001028440000417F40007C047804787C08FA
:100290000404783844444438FC18242418182424CE
:1002A00018FC7C08040408485454542404043F44B3
:1002B000243C4040207C1C2040201C3C4030403CE2
:1002C00044281028444C9090907C4464544C440042
:1002D00008364100000077000000413608000201A6
:1002E0000204023C2623263C1EA1A161123A404092
:1002F000207A38545455592155557941225454780F
:1003000042215554784020545579400C1E527212A7
:100310003955555559395454545939555454580030
:1003200000457C410002457D420001457C407D1234
:1003300011127DF0282528F07C5455450020545496
:100340007C547C0A097F4932494949323A44444441
:100350003A324A4848303A4141217A3A424020787C
:10036000009DA0A07D3D4242423D3D4040403D3C7D
:1003700024FF2424487E4943662B2FFC2F2BFF09A2
:1003800029F620C0887E0903205454794100004496
:100390007D413048484A32384040227A007A0A0A81
:1003A000727D0D19317D2629292F282629292926F4
:1003B00030484D4020380808080808080808382F39
:1003C00010C8ACBA2F102834FA00007B00000814C3
:1003D0002A142222142A14085500550055AA55AA99
:1003E00055AAFF55FF55FF000000FF00101010FF39
:1003F00000141414FF001010FF00FF1010F010F094
:10040000141414FC001414F700FF0000FF00FF1484
:1004100014F404FC141417101F10101F101F1414D0
:10042000141F00101010F0000000001F101010101A
:100430001F10101010F010000000FF10101010100E
:1004400010101010FF10000000FF140000FF00FF4C
:1004500000001F10170000FC04F4141417101714E8
:1004600014F404F40000FF00F7141414141414140A
:10047000F700F7141414171410101F101F1414147D
:10048000F4141010F010F000001F101F0000001FE7
:1004900014000000FC140000F010F01010FF10FF1A
:1004A000141414FF141010101F00000000F010FFAF
:1004B000FFFFFFFFF0F0F0F0F0FFFFFF0000000093
:1004C00000FFFF0F0F0F0F0F3844443844FC4A4A17
:1004D0004A347E02020606027E027E0263554941CC
:1004E000633844443C04407E201E2006027E020203
:1004F00099A5E7A5991C2A492A1C4C7201724C3017
:100500004A4D4D303048784830BC625A463D3E49ED
:100510004949007E0101017E2A2A2A2A2A44445F91
:10052000444440514A444040444A51400000FF0185
:1005300003E080FF000008086B6B08361236243693
:10054000060F090F060000181800000010100030F8
:1005500040FF0101001F01011E00191D1712003C80
:100560003C3C3C000000000000000000240027008C
:100570002A0000000000250028002B0000000000D9
:1005800023002600290004040404040404040202D5
:100590000202020203030303030301020408102002
:1005A000408001020408102001020408102000000D
:1005B0000008000201000003040700000000000022
:1005C0000000B01411241FBECFEFD8E0DEBFCDBFB6
:1005D00013E0A0E0B1E0EAE1F5E402C005900D927D
:1005E000A43EB107D9F724E0A4EEB3E001C01D9208
:1005F000AA3EB207E1F712E0C2EED2E004C02197B2
:10060000FE010E94FE1EC13ED107C9F70E944E1591
:100610000C948B220C940000FC0120812EBD0DB4A3
:1006200007FEFDCF2EB5FC01208308950895833089
:1006300081F028F4813099F08230A9F00895873054
:10064000A9F08830C9F08430B1F4809180008F7DAA
:1006500003C0809180008F7780938000089584B5D7
:100660008F7784BD089584B58F7DFBCF8091B000D6
:100670008F778093B00008958091B0008F7DF9CF7F
:10068000CF93DF93282F30E0F901E255FA4F8491A0
:10069000F901E656FA4FD491F901EA57FA4FC4919D
:1006A000CC23A1F081110E941703EC2FF0E0EE0F94
:1006B000FF1FE458FA4FA591B491EC91ED2381E02E
:1006C00090E009F480E0DF91CF91089580E090E020
:1006D000FACF1F93CF93DF93282F30E0F901E25533
:1006E000FA4F8491F901E656FA4FD491F901EA578D
:1006F000FA4FC491CC23A9F0162F81110E94170341
:10070000EC2FF0E0EE0FFF1FEE58FA4FA591B491D9
:100710008FB7F894EC91111108C0D095DE23DC93CB
:100720008FBFDF91CF911F910895DE2BF8CFCF932C
:10073000DF9390E0FC01E656FA4F24918A579A4FD6
:10074000FC0184918823C9F090E0880F991FFC0177
:10075000E859FA4FA591B491FC01EE58FA4FC591B2
:10076000D49161110DC09FB7F8948C91209582238C
:100770008C938881282328839FBFDF91CF91089590
:10078000623051F49FB7F8943C91822F8095832377
:100790008C93E8812E2BEFCF8FB7F894EC912E2B12
:1007A0002C938FBFEACF8E3008F08E508770806414
:1007B00080937C0080917A00806480937A0080919D
:1007C0007A0086FDFCCF80917800909179000895A1
:1007D0008230910538F0880F991F880F991F05976F
:1007E0000197F1F708959F92AF92BF92CF92DF9257
:1007F000EF92FF920F931F93CF93DF93EC016B0166
:100800008885998511E0892B09F010E8F601A08010
:100810008A2D8123992493948111912C2C813D81DF
:100820004E815F8160E271EA87E090E00E94C01E25
:10083000022FB12CE22EF12C002319F0C7010E94E7
:10084000E8038A85877F09F04FC08D858F3F89F047
:100850009A2D912381E009F480E0891551F0EF850C
:10086000F8898F899923D1F19081892B80839924EC
:100870009394E989FA898081998D892B808300235B
:1008800019F0C7010E94E8038E858F3F39F0EB898C
:10089000FC898081988D892309F0B12AE989FA8938
:1008A0009081898D8095892380838E858F3F11F07B
:1008B000F601B08288859985892B09F044C0110F13
:1008C0001111BACFDF91CF911F910F91FF90EF904F
:1008D000DF90CF90BF90AF909F90089590818095CA
:1008E00089238083912CC5CFE989FA898081998DEC
:1008F000892B8083002319F0C7010E94E8038D85AE
:100900008F3F49F0EF85F8898F899A2D9123B9F0AF
:100910009081892B8083E989FA899081898D8095DE
:10092000892380838E858F3F09F4BFCFEB89FC89B3
:100930008081988D892309F4B8CFB12AB6CF9081F0
:1009400080958923E7CF1695BBCF3FB7F894809168
:10095000120490911304A0911404B091150426B5CB
:10096000A89B05C02F3F19F00196A11DB11D3FBFE7
:10097000BA2FA92F982F8827BC01CD01620F711DB6
:10098000811D911D42E0660F771F881F991F4A95B0
:10099000D1F708958F929F92AF92BF92CF92DF923C
:1009A000EF92FF924B015C010E94A5046B017C0158
:1009B0000E94A5046C197D098E099F09683E734049
:1009C00081059105A8F321E0821A9108A108B108D8
:1009D00088EEC80E83E0D81EE11CF11C811491043E
:1009E000A104B10429F7FF90EF90DF90CF90BF9062
:1009F000AF909F908F9008952FB7F89460910E0458
:100A000070910F0480911004909111042FBF0895EC
:100A10000F931F93CF93DF93C0910001CC0FCC0FA6
:100A2000C093000182E00E944003892B19F0C2604C
:100A3000C093000183E00E944003892B29F080913C
:100A40000001816080930001E0910001EF70F0E00F
:100A5000EF5EFC4F80819091E403890F8093E40363
:100A6000843094F10E94A5040091E2041091E30403
:100A70002091E4043091E504601B710B820B930B11
:100A8000C1E0D0E0603F79448240910510F4CAE0B3
:100A9000D0E00E94A5046093E2047093E304809385
:100AA000E4049093E5048091F6039091F7038C0F92
:100AB0009D1F9093F7038093F6031092E403DF9158
:100AC000CF911F910F9108958D3FCCF70E94A504FF
:100AD0000091DE041091DF042091E0043091E104E4
:100AE000601B710B820B930BCFEFDFEF603F7944FC
:100AF0008240910510F4C6EFDFEF0E94A5046093D9
:100B0000DE047093DF048093E0049093E104CBCF84
:100B10000895AF92BF92CF92DF92EF92FF920F9320
:100B20001F93CF93DF936C017B018B01040F151F83
:100B3000EB015E01AE18BF08C017D10759F06991EB
:100B4000D601ED91FC910190F081E02DC60109954F
:100B5000892B79F7C501DF91CF911F910F91FF90FC
:100B6000EF90DF90CF90BF90AF900895FC01538D30
:100B7000448D252F30E0842F90E0821B930B541777
:100B800010F0CF96089501970895FC01918D828D04
:100B9000981761F0A28DAE0FBF2FB11D5D968C919D
:100BA000928D9F5F9F73928F90E008958FEF9FEFDC
:100BB0000895FC01918D828D981731F0828DE80F98
:100BC000F11D858D90E008958FEF9FEF0895FC0152
:100BD000918D228D892F90E0805C9F4F821B91091F
:100BE0008F739927089589E194E00E94E70521E039
:100BF000892B09F420E0822F089580E090E0892B72
:100C000029F00E94F30581110C9400000895FC0165
:100C1000A48DA80FB92FB11DA35ABF4F2C91848D5D
:100C200090E001968F739927848FA689B7892C93BA
:100C3000A089B1898C91837080648C93938D848D0D
:100C4000981306C00288F389E02D80818F7D808310
:100C50000895EF92FF920F931F93CF93DF93EC01D0
:100C600081E0888F9B8D8C8D98131AC0E889F98953
:100C7000808185FF15C09FB7F894EE89FF89608356
:100C8000E889F98980818370806480839FBF81E0D7
:100C900090E0DF91CF911F910F91FF90EF90089519
:100CA000F62E0B8D10E00F5F1F4F0F731127E02EF4
:100CB0008C8D8E110CC00FB607FCFACFE889F9892C
:100CC000808185FFF5CFCE010E940706F1CFEB8D25
:100CD000EC0FFD2FF11DE35AFF4FF0829FB7F89400
:100CE0000B8FEA89FB8980818062CFCFCF93DF931E
:100CF000EC01888D8823B9F0AA89BB89E889F98934
:100D00008C9185FD03C0808186FD0DC00FB607FC68
:100D1000F7CF8C9185FFF2CF808185FFEDCFCE019B
:100D20000E940706E9CFDF91CF910895FC0177FD7E
:100D300055C080859185681779070CF04FC057FD25
:100D40004DC082859385481759070CF047C08689A6
:100D5000823009F444C0833009F44EC0813031F44C
:100D60008FE290E0861B970BBA01AC01842FA62F6F
:100D700093A1691708F4962F93A394A19A1708F4E6
:100D80009A2F94A395A1891708F4982F95A396A15B
:100D9000981708F4982F96A3CA0157FD0796E3E029
:100DA00095958795EA95E1F7A4E5A89FF001A99F9D
:100DB000F00D1124E60FF71FED5EFE4FCA0168E04B
:100DC00070E00E94AC1E41E050E001C0440F8A95E3
:100DD000EAF78081232BB9F0842B8083089583E583
:100DE00090E0DC01A61BB70BBD018FE290E0DC01B7
:100DF000A41BB50BAD01BACF83E590E0841B950B26
:100E0000AB01BC01B3CF40958423E7CF0895FC012B
:100E10006370668B8481958126813781613039F0DA
:100E2000633029F09187808733872287089531873F
:100E300020879387828708952F923F924F925F92E7
:100E40006F927F928F929F92AF92BF92CF92DF92DA
:100E5000EF92FF920F931F93CF93DF93CDB7DEB73F
:100E60006A970FB6F894DEBF0FBECDBF9A8F898FF9
:100E70007A8369834A01D22E18870F833701BC2CED
:100E8000DC0159962D913C915A972115310509F0B5
:100E900015C118968D919C911997681779070CF0D8
:100EA000D7C11A968D919C91481759070CF0D0C163
:100EB0004C2C512CB6E0CB9E600D711D11247C870B
:100EC0006B87161617060CF0C3C1EA2DF0E0FA87FF
:100ED000E98793E0EE0FFF1F9A95E1F7F88BEF8714
:100EE000CF01840F951F181619060CF0B1C1A98DFA
:100EF000BA8D58968C91811104C0BFEABD1508F4D3
:100F0000D394A98DBA8DED91FC9111970284F3854C
:100F1000E02DCD010995B5E0DB9EC0011124E981EA
:100F2000FA81FC83EB83312C212C9C0128593F4F03
:100F3000388F2F8B4A2D50E05E8B4D8BEF89F88DCB
:100F4000E20DF31D44919E828D82D12CC12C6981CA
:100F50007A81620D731D7A8B698B842F90E09C8B54
:100F60008B8BE98DFA8DA081B18140FF82C0F1E0C9
:100F7000BF126FC0AF126DC01C96ED91FC912F8116
:100F80003885A4014C0D5D1D69897A89898D9A8DFA
:100F90000995EB89FC89F595E7954E2F5FEFC51A0A
:100FA000D50A6D817E818D899E89680F791F7E8328
:100FB0006D8398E0C916D10481F6AFEF2A1A3A0A78
:100FC000EB81FC81E40DF51DFC83EB83F5E02F162E
:100FD000310409F0B3CF2F81388526153705B9F0D4
:100FE000A98DBA8DED91FC91B1E0BB1257C0AB1247
:100FF00055C069817A816B5F7F4F0088F189E02D50
:10100000830128E030E0A401898D9A8D0995A98D8E
:10101000BA8DED91FC9111970688F789E02DCD01ED
:101020006A960FB6F894DEBF0FBECDBFDF91CF91A9
:101030001F910F91FF90EF90DF90CF90BF90AF90F6
:101040009F908F907F906F905F904F903F902F90E8
:1010500009941E96ED91FC91EF80F88409851A851C
:1010600092014D815E816B817C81898D9A8D09957C
:1010700090CF2F8138852615370509F48ACF31E0C6
:10108000B31207C0A31205C01C96ED91FC91930109
:1010900078CF1E96ED91FC917301E0CF6B857C8536
:1010A000641975090684F785E02D73010F85188989
:1010B0009201A401898D9A8D0995A9CFF9013496E1
:1010C0009491329745915491D91AB7E0DB9E400D27
:1010D000511D1124F901259134913C8B2B8BFA0180
:1010E00025903490FA013296749031963491398B70
:1010F000329664903196449041E04C1518F04A15B0
:1011000008F07FC0662D062C000C770B7C836B8368
:10111000842D042C000C990B9E838D83A98DBA8D90
:10112000ED91FC9111970284F385E02DCD01099595
:10113000512CD12CC12CEA2DF0E0FA87E9872B2D18
:1011400030E03C872B87A401440D511D47FC5A9584
:10115000588F4F8B69817A81660D711D67FC7A9576
:101160007E876D877989C71608F051CF2C2D30E026
:101170004D815E81420F531FA985BA854A9FC001E8
:101180004B9F900D5A9F900D1124FC01E80DF91D05
:10119000F88BEF87852D612C4F89588D420F531F97
:1011A0005E8B4D8B671408F050C044244394480E66
:1011B000877041F4C1010196EB89FC89E20DF31DB2
:1011C000D4901C01D7FE19C0A98DBA8DED91FC9168
:1011D000662D70E0B1E0BB1219C0AB1217C02D85AF
:1011E0003E85620F731F0484F585E02D2F813885BD
:1011F0004D895E89898D9A8D0995DD0C6394842DC6
:10120000D1CF1E821D821C821B8288CF4B815C81C4
:10121000640F751FAB85BC856A9FC0016B9F900DE5
:101220007A9F900D112469817A81680F791F068455
:10123000F785E02DEF80F88409851A859D014F859B
:101240005889898D9A8D0995D8CF570CC3948ACF28
:101250006A960FB6F894DEBF0FBECDBFDF91CF9177
:101260001F910F91FF90EF90DF90CF90BF90AF90C4
:101270009F908F907F906F905F904F903F902F90B6
:1012800008958F929F92AF92CF92EF92FF920F9319
:101290001F93CF93DF93EC01262F898D9A8D0097B2
:1012A00009F051C06A30D1F41D861C868D8948E052
:1012B000849F900111248E859F85820F931F9F87A5
:1012C0008E8781E090E0DF91CF911F910F91FF9089
:1012D000EF90CF90AF909F908F9008956D3089F3ED
:1012E000CC88AD888F898823C1F08C859D8536E0B8
:1012F000C39E800D911D11244885598548175907B3
:1013000064F44E855F851D861C8638E0A39EC0016F
:101310001124840F951F9F878E87EA88FB88088990
:1013200019894E855F856C857D85CE010E941C07DD
:101330002C898C859D8546E0249F800D911D11246C
:101340009D878C87BECF6A3069F41D861C86FC01A0
:101350003896E4912D898E859F85E29F800D911DA1
:101360001124ADCF6D3009F4ACCFFC01349634912B
:10137000631708F4A6CF3296E491E61708F4A1CFDC
:10138000FC01329685909490462F431B342F47E002
:10139000349F800C911C1124F401329634913196C3
:1013A000E4913323A9F1EE2399F1CC88F401359629
:1013B000E491AD884F89442301F10E2E000CFF0B00
:1013C000E30FF11DCE9EA001CF9E500D11246C8520
:1013D0007D85460F571F68857985641775076CF4FE
:1013E0004E855F851D861C86FC013896E491AE9E75
:1013F000400D511D11245F874E87EA88FB880889BC
:1014000019894E855F856C857D85CE010E941C07FC
:10141000F4013496E4912C898C859D85E29F800DA2
:10142000911D11248DCF6F927F928F929F92AF92D8
:10143000BF92CF92DF92EF92FF920F931F93CF93C1
:10144000DF93EC016B015A0139014801E881F98110
:101450000284F385E02D0995E881F9810288F389FA
:10146000E02D87019301A501B601CE010995A501E3
:10147000480D591D41505109E881F9810288F389CD
:10148000E02D9301B601CE010995E881F98100882C
:10149000F189E02D9401A501B601CE010995C60C94
:1014A000D71CB60161507109E881F9810088F18982
:1014B000E02D9401A501CE010995E881F981068806
:1014C000F789E02DCE01DF91CF911F910F91FF9011
:1014D000EF90DF90CF90BF90AF909F908F907F90D4
:1014E0006F9009946F927F928F929F92AF92BF926A
:1014F000CF92DF92EF92FF920F931F93CF93DF93E0
:101500005C01EB016A01490138018701DC01ED91C1
:10151000FC916217730719F5641675062CF0962D69
:10152000872D3A01C92ED82E9601261937092F5F2B
:101530003F4F048CF58DE02DA301BE01C501099537
:10154000DF91CF911F910F91FF90EF90DF90CF909F
:10155000BF90AF909F908F907F906F9008954615A9
:10156000570591F42617370724F0892D4B01C22F18
:10157000D82F9E01281939092F5F3F4F068CF78D10
:10158000E02DA601B401DACF0284F385E02D0995A0
:10159000D501ED91FC910488F589E02D830194013A
:1015A000A601BE01C5010995D501ED91FC91068802
:1015B000F789E02DC501DF91CF911F910F91FF9029
:1015C000EF90DF90CF90BF90AF909F908F907F90E3
:1015D0006F900994EF92FF920F931F93DC011A967C
:1015E0000D911C911B9718962D913C911997ED9197
:1015F000FC9100A0F1A1E02D7B0150E040E070E003
:1016000060E009951F910F91FF90EF9008954F9220
:101610005F926F927F928F929F92AF92BF92CF9282
:10162000DF92EF92FF920F931F93CF93DF936C01A2
:101630002B015A0139014801DC01ED91FC91028432
:10164000F385E02D0995E201640C751CD601ED913E
:10165000FC91C615D7055CF40088F189E02D87015F
:101660009401A501BE01C60109952196EFCF068818
:10167000F789E02DC601DF91CF911F910F91FF9067
:10168000EF90DF90CF90BF90AF909F908F907F9022
:101690006F905F904F9009948F929F92AF92BF92FC
:1016A000CF92DF92EF92FF920F931F93CF93DF932E
:1016B000EC015B014A016901E881F9810284F3854B
:1016C000E02D099595012C0D3D1D21503109E88132
:1016D000F9810488F589E02D78018401A401B50120
:1016E000CE010995E881F9810688F789E02DCE01C0
:1016F000DF91CF911F910F91FF90EF90DF90CF90EE
:10170000BF90AF909F908F9009948F929F92AF92CD
:10171000BF92CF92DF92EF92FF920F931F93CF93DE
:10172000DF93EC015B014A0169017801E881F981ED
:101730000284F385E02D0995C80CD91C860101505F
:101740001109E881F9810488F589E02D9501A4014A
:10175000B501CE010995E881F9810688F789E02D68
:10176000CE01DF91CF911F910F91FF90EF90DF900D
:10177000CF90BF90AF909F908F900994EF92FF927F
:101780000F931F93DC01ED91FC9100A0F1A1E02DDE
:1017900009951F910F91FF90EF9008950F931F935C
:1017A000DC01ED91FC91068CF78DE02D09951F91E0
:1017B0000F9108950F931F93DC01ED91FC91048C20
:1017C000F58DE02D09951F910F9108952F923F926D
:1017D0004F925F926F927F928F929F92AF92BF9241
:1017E000CF92DF92EF92FF920F931F93CF93DF93ED
:1017F00001E010E029E030E045E250E066E070E012
:1018000087EB94E00E94DA0B54E0652E712C44249F
:101810004394512CF12CE12CC4E0D0E078EF272E3A
:1018200033243A94EDEFCE2EDD24DA948FEFE81ACC
:10183000F80A82E0480E511CC40CD51CCE15DF05F9
:101840000CF44EC04E01880C991C8FEF881A980A30
:1018500001E010E0940149E2A42EB12CAC1ABD0ABB
:10186000A501B7016A5F7F4F87EB94E00E94DA0B16
:101870009401A50166E070E06E197F0987EB94E0A2
:101880000E94DA0BC615D705F9F0B3016A5F7F4FE6
:1018900001E010E0420182E0881A910894018AE296
:1018A000A82EB12CAE18BF08A50187EB94E00E94CA
:1018B000DA0B66E070E0661977099401A50187EB01
:1018C00094E00E94DA0B3E01EC16FD0664F4D7FCAE
:1018D000ADCF219782E0280E311CC20CD31CA6CFBD
:1018E000C615D70591F6DF91CF911F910F91FF900B
:1018F000EF90DF90CF90BF90AF909F908F907F90B0
:101900006F905F904F903F902F900895DC01ED9184
:10191000FC910084F185E02D09942F923F924F9223
:101920005F926F927F928F929F92AF92BF92CF926F
:10193000DF92EF92FF920F931F93CF93DF9321E0FB
:1019400030E04FE250E066E070E087EB94E00E9408
:10195000860C21E030E043E250E066E070E087EB87
:1019600094E00E94860C21E030E049E250E06CE017
:1019700070E087EB94E00E94860C21E030E049E2C1
:1019800050E070E060E087EB94E00E94860C442415
:101990004394512C10E000E0C6E0D0E034EF632E19
:1019A00077247A944BEFE42EFF24FA9456E0252E08
:1019B000312C0F5F1F4F82E0480E511CE40CF51CC8
:1019C000480186E0880E911C21E030E06E0189E23A
:1019D000C80ED11CA601B40187EB94E00E94860CCE
:1019E0005101A01AB10A21E030E0A601B50187EB50
:1019F00094E00E94860C21E030E089E2C82ED12CD0
:101A0000CC1ADD0AA601B40187EB94E00E94860C93
:101A100021E030E0A601B50187EB94E00E94860C3E
:101A2000680189E2C80ED11C21E030E0A6015E0108
:101A300086E0A80EB11CB50187EB94E00E94860CED
:101A400021E030E0A6016101CC1ADD0AB60187EB86
:101A500094E00E94860C99E2892E912C801A910ABA
:101A600021E030E0A401B50187EB94E00E94860CF0
:101A700021E030E0A401B60187EB94E00E94860CDF
:101A80000C171D079CF0DF91CF911F910F91FF90D4
:101A9000EF90DF90CF90BF90AF909F908F907F900E
:101AA0006F905F904F903F902F900895F7FC81CFFB
:101AB000219782E0680E711CE60CF71C7ACF2F92FA
:101AC0003F924F925F926F927F928F929F92AF92CE
:101AD000BF92CF92DF92EF92FF920F931F93CF931B
:101AE000DF9300D000D000D0CDB7DEB73C016A0153
:101AF0003E832D83FC82EB825801A41AB50AB7FEFF
:101B000003C0B194A194B1088D809E80861A970A73
:101B100097FE03C09194819491088A149B045CF011
:101B2000902F812F0D811E819D838E839C2D8D2D65
:101B30006B01692F782F0C151D055CF09D818E813E
:101B40007E836D83692F782F902F812F8601C92E78
:101B5000D82E1601201A310A2B012D813E81421AFE
:101B6000530A57FE03C0519441945108710137FE46
:101B700003C03FEFE31AF30AF594E7948D819E8149
:101B8000861797075CF5A1E0B0E0BA83A983C01679
:101B9000D1064CF1D301ED91FC910484F585E02D43
:101BA0002B813C81A8016D817E818A149B041CF0ED
:101BB0004D815E81B801C3010995E418F508F7FE6F
:101BC0000AC02D813E8189819A81280F391F3E8369
:101BD0002D83E20CF31C0F5F1F4FD9CF2FEF3FEF88
:101BE0003A832983D4CF26960FB6F894DEBF0FBE72
:101BF000CDBFDF91CF911F910F91FF90EF90DF90BC
:101C0000CF90BF90AF909F908F907F906F905F909C
:101C10004F903F902F900895089590E080E00895B0
:101C2000CF93CFB7F8948091E503811127C0E0E905
:101C3000F5E08491E4EAF5E09491E82FF0E0EE0F0E
:101C4000FF1FE859FA4FA591B491EC91E92321F4D3
:101C500061E08AE00E94690361E08AE00E949703E4
:101C60008CB580618CBD8CB580648CBD61E08DE0ED
:101C70000E94970361E08BE00E9497038091E50347
:101C80008F5F8093E503CFBFCF91089561E081110D
:101C900001C060E084E00C9469030CB405FC0DC045
:101CA0009EBD00000DB407FEFDCF9EB58EBD0000A9
:101CB0000DB407FEFDCF8EB508958EBD00000DB4A6
:101CC00007FEFDCF8EB59EBD00000DB407FEFDCF13
:101CD0009EB508958EBD00000DB407FEFDCF8EB5F4
:101CE00008950F931F93CF93DF938C01EB016091C5
:101CF0000704709108048091090490910A0420E07F
:101D00003FEF4FE757E40E94EF2020E030E040EC47
:101D100051E40E94901F0E9409206093F203709387
:101D2000F3038093F4039093F5036091EE037091B5
:101D3000EF038091F0039091F10320E030E040E266
:101D400051E40E94901F20E030E040E85FE30E94F1
:101D50001F1F20E030E040E05FE30E94EF2020E022
:101D60003FEF4FE757E40E94EF200E940920609365
:101D7000E6037093E7038093E8039093E90360E040
:101D80008AE00E94690385E50E946A0EC80190619D
:101D90000E944D0E61E08AE00E94690361E070E0FC
:101DA00080E090E00E94CA0460E08AE00E9469033B
:101DB00081E00E946A0E88819981AA81BB810E947C
:101DC0004D0E61E08AE00E94690361E070E080E00E
:101DD00090E0DF91CF911F910F910C94CA048CBDBC
:101DE0009DBD0895AF92BF92CF92DF92EF92FF9286
:101DF0000F931F93CF93DF931F92CDB7DEB78C0164
:101E00005B016A01DC018D919C911197892B39F05E
:101E10001296ED91FC91808191810E94EF0EF80164
:101E200083858F3F19F060E00E9469037501CA0C39
:101E3000DB1CEC14FD04A9F0D7018D917D01898391
:101E4000F80180819181892B29F0CE0101960E94B1
:101E50000C03EFCFBE016F5F7F4FC8010E94F303F9
:101E6000E8CFD8011B968C918F3F19F061E00E945A
:101E7000690381E00F90DF91CF911F910F91FF9047
:101E8000EF90DF90CF90BF90AF9008950F931F9386
:101E9000CF93DF931F92CDB7DEB78C01698360E0EB
:101EA000FC01868D0E94690341E050E0BE016F5F36
:101EB0007F4FF801838D948D0E94F20E0F90DF9179
:101EC000CF911F910F910895CF93C82F87FDCFE732
:101ED000C093D60461E287EB94E00E94460F6C2F1A
:101EE000606887EB94E00E94460F60E287EB94E025
:101EF000CF910C94460FCF938091D40487FD13C0EB
:101F000061E00E94970360E08091D4040E9469031D
:101F100061E070E080E090E00E94CA0461E080919E
:101F2000D4040E946903C091D704C83008F0C7E008
:101F3000C093D70461E287EB94E00E94460F6C2FB8
:101F4000606187EB94E00E94460F60E287EB94E0CB
:101F50000E94460F8091D6040E94640F60E287EBD6
:101F600094E00E94460F6CE087EB94E0CF910C94D4
:101F7000460FFF920F931F93CF93DF939091D80456
:101F8000992339F08091D9048F5F8917E8F5809300
:101F9000D904D091DC04D695D695D69584E5D89F02
:101FA000800111248091DD048695869586958D1794
:101FB00080F16D2F606487EB94E00E94460FC09122
:101FC000DA04F090DB046C2F606887EB94E00E94E9
:101FD000460F61E08091D5040E9469034F2D50E0C7
:101FE0006C2F70E0461B570B4F5F5F4F600F711FE8
:101FF0006D5E7E4F8091D2049091D3040E94F20EC8
:10200000DF5F0C5A1F4FCECF1092D9040E947B0F76
:10201000C0CF60E487EB94E00E94460F83E5809395
:10202000DA041092DB048FE28093DC041092DD046A
:10203000DF91CF911F910F91FF9008951F93CF9340
:10204000DF93EC01162F60E20E94460F6CE0111145
:102050006DE0CE01DF91CF911F910C94460F4F920E
:102060005F926F927F928F929F92AF92BF92CF9228
:10207000DF92EF92FF920F931F93CF93DF93F82E8F
:10208000EB018A010E94FC044B015C01FF2009F472
:102090005BC0F801C080D180E280F380C114D1041C
:1020A000E104F10489F1488059806A807B80F6E080
:1020B000CF16D104E104F10458F0D301C2018853D2
:1020C0009F4FAF4FBF4F88169906AA06BB06A8F4CC
:1020D000AEECBFEFA70196010E94E51E24EF420E71
:1020E00021E0521E611C711C460E571E681E791E8F
:1020F00084149504A604B70438F187EEC81683E06B
:10210000D806E104F10450F4EFEFCE1ADE0AEE0A2D
:10211000FE0AF801C082D182E282F382888299822B
:10212000AA82BB8281E0DF91CF911F910F91FF9036
:10213000EF90DF90CF90BF90AF909F908F907F9067
:102140006F905F904F90089580E0EDCFCF93C82FB0
:102150000E944003019731F48C2F0E94400321E03C
:10216000019709F020E0822FCF910895CF93C82FD7
:102170000E944003892B31F48C2F0E94400321E000
:10218000892B09F020E0822FCF9108958EE090E016
:102190000E94B610882319F081E08093010480E149
:1021A00090E00E94B610882319F081E08093FA0332
:1021B0008FE090E00E94B610882319F081E08093B0
:1021C000FF030895E3E1F1E088EF91E0DF019C0176
:1021D0001D9221503040E1F71092DA048091DB0427
:1021E000833508F483E58093DB041092DC0480914E
:1021F000DD048F3208F48FE28093DD041092C40472
:102200001092C3041092C6041092C50408950E944F
:102210008622FB0101900020E9F73197AF01461BB0
:10222000570BDC01ED91FC910280F381E02D0994C4
:102230008F929F92AF92BF92EF92FF920F931F9354
:10224000CF93DF93CDB7DEB7A1970FB6F894DEBF7B
:102250000FBECDBF7C01FA01CB0119A2223008F4D8
:102260002AE08E010F5D1F4F822E912CB12CA12CE4
:10227000BF01A50194010E94C01EF901CA016A3084
:102280000CF5605DD8016E938D01232B242B252B3B
:1022900079F790E080E0109721F0BD01C7010E941E
:1022A0000911A1960FB6F894DEBF0FBECDBFDF9126
:1022B000CF911F910F91FF90EF90BF90AF909F90A3
:1022C0008F900895695CDECFCF92DF92EF92FF92FC
:1022D000CF93DF936C01092E000CEE08FF0897FFE7
:1022E0001BC06DE287EB94E00E944109EC0144279A
:1022F0005527BA014C195D096E097F092AE087EB61
:1023000094E00E9418118C0F9D1FDF91CF91FF90D8
:10231000EF90DF90CF9008952AE0B701A60187EBF8
:1023200094E0DF91CF91FF90EF90DF90CF900C94ED
:102330001811CF93DF93BC0189E194E00E94091149
:10234000EC016FE573E089E194E00E9409118C0FC4
:102350009D1FDF91CF9108956DE471E080E090E0E2
:102360000E94CA0460E087E00E94690382E693E06D
:102370000C94991161E087E00E9469036DE471E0BB
:1023800080E090E00E94CA0488E693E00C949911E2
:1023900060E08AE00E94690385E50E946A0E80E0A1
:1023A00090E20E944D0E61E08AE00E94690361E0C4
:1023B00070E080E090E00E94CA048DE693E00E9405
:1023C00099118BE793E00C949911BC0187EB94E091
:1023D0000C9409112F923F924F925F926F927F92CD
:1023E0008F929F92AF92BF92CF92DF92EF92FF9225
:1023F0001F93CF93DF93EC016A017B01722EAB0137
:102400009601CB01B6010E945C2166E973E081115F
:1024100026C046015701E894B7F82FEF3FEF4FE78A
:102420005FE7C501B4010E945C2181110CC02FEF50
:102430003FEF4FE75FE7C501B4010E948B1F6AE9D8
:1024400073E0181664F02FEF3FEF4FE75FE4C7012A
:10245000B6010E94EA201816B4F46EE973E0CE01CA
:10246000DF91CF911F91FF90EF90DF90CF90BF90C1
:10247000AF909F908F907F906F905F904F903F9024
:102480002F900C9409112FEF3FEF4FE75FECC7013E
:10249000B6010E948B1F87FDE0CF20E030E0A9014C
:1024A000C701B6010E948B1F312C212C87FF0DC064
:1024B000E881F9810190F081E02D6DE2CE0109956E
:1024C0001C01F7FAF094F7F8F09410E060E070E087
:1024D00080E09FE3711641F020E030E040E251E4FB
:1024E0000E94901F1F5FF6CFA70196010E941F1F39
:1024F0002B013C010E9409204B015C012AE0BC0138
:10250000A401CE010E9418117C01E20CF31C1123DE
:10251000E1F1C501B4010E9438209B01AC01C30167
:10252000B2010E941E1F4B015C01E881F9810190FC
:10253000F081E02D6EE2CE010995E80EF91E1150F2
:1025400020F120E030E040E251E4C501B4010E94F6
:10255000EF202B013C010E9409204B01B12CA12C42
:102560002AE0B501A401CE010E941811E80EF91E5F
:10257000C501B4010E9438209B01AC01C301B20126
:102580000E941E1F4B015C01DACFC701DF91CF9182
:102590001F91FF90EF90DF90CF90BF90AF909F90F2
:1025A0008F907F906F905F904F903F902F90089505
:1025B0004F925F926F927F928F929F92AF92BF9253
:1025C000CF92DF92EF92FF924B015C0169017A0199
:1025D00022E0BC01A40189E194E00E94EA116FE5C8
:1025E00073E089E194E00E94091122E0B701A6019D
:1025F00089E194E00E94EA116FE573E089E194E0DB
:102600000E94091120E030E0A901C501B4010E9437
:10261000EA202DEC3CEC4CEC5DE318160CF05CC0B1
:10262000C501B4010E941E1F2B013C012DEC3CECA6
:102630004CEC5DE3C501B4010E941F1F4B015C011E
:10264000A3019201C701B6010E94EA20A5019401ED
:1026500087FD18C0C701B6010E948B1F18160CF425
:1026600085C01092180410921604FF90EF90DF902E
:10267000CF90BF90AF909F908F907F906F905F9022
:102680004F900895C701B6010E948B1F18166CF079
:1026900020E030E0A901C701B6010E94EA20181627
:1026A00024F481E080931804DECFA3019201C701D6
:1026B000B6010E94EA2087FF09C020E030E0A901AE
:1026C000C701B6010E948B1F87FFCFCF109218045D
:1026D00081E080931604C9CFC501B4010E941E1F7A
:1026E0002B013C01AC019B01C701B6010E94EA200D
:1026F00087FD11C02DEC3CEC4CEC5DE3C501B40151
:102700000E941F1F9B01AC01C701B6010E948B1FD5
:1027100018160CF0A6CFA3019201C701B6010E94C2
:102720008B1F18169CF620E030E0A901C701B60106
:102730000E94EA20181654F22DEC3CEC4CEC5DE3C0
:10274000C501B4010E941F1F9B01AC01C701B60166
:102750000E94EA2087FD89CF20E030E0A901C7016F
:10276000B6010E948B1F87FF80CF9BCFA5019401EC
:10277000C701B6010E948B1F18160CF089CFA6CF97
:102780001F920F920FB60F9211242F933F938F93A6
:102790009F93AF93BF9380910E0490910F04A091EB
:1027A0001004B091110430910D0423E0230F2D3754
:1027B00058F50196A11DB11D20930D0480930E04C0
:1027C00090930F04A0931004B0931104809112040D
:1027D00090911304A0911404B09115040196A11DC9
:1027E000B11D8093120490931304A0931404B0932A
:1027F0001504BF91AF919F918F913F912F910F90B1
:102800000FBE0F901F90189526E8230F0296A11D6A
:10281000B11DD2CF1F920F920FB60F9211242F939A
:102820003F934F935F936F937F938F939F93AF9358
:10283000BF93EF93FF93E0910301F0910401099599
:10284000FF91EF91BF91AF919F918F917F916F9188
:102850005F914F913F912F910F900FBE0F901F905E
:1028600018951F920F920FB60F9211242F933F933A
:102870004F935F936F937F938F939F93AF93BF9388
:10288000EF93FF93E0910101F09102010995FF910F
:10289000EF91BF91AF919F918F917F916F915F91D8
:1028A0004F913F912F910F900FBE0F901F90189551
:1028B0001F920F920FB60F9211242F933F934F93B5
:1028C0005F936F937F938F939F93AF93BF93EF9398
:1028D000FF9389E194E00E940706FF91EF91BF9179
:1028E000AF919F918F917F916F915F914F913F91A8
:1028F0002F910F900FBE0F901F9018951F920F925F
:102900000FB60F9211242F938F939F93EF93FF9302
:10291000E0912904F0912A048081E0912F04F09144
:10292000300482FD1BC09081809132048F5F8F73D1
:1029300020913304821741F0E0913204F0E0E75E29
:10294000FB4F958F80933204FF91EF919F918F9170
:102950002F910F900FBE0F901F9018958081F4CF8C
:102960000F931F93CF93DF93E9E1F4E01382128278
:1029700088EE93E0A0E0B0E084839583A683B783DC
:1029800085E293E09183808385EC90E0958784874E
:1029900084EC90E09787868780EC90E0918B808B29
:1029A00081EC90E0938B828B82EC90E0958B848B12
:1029B00086EC90E0978B868B118E128E138E148E80
:1029C0000E94A5046093E2047093E3048093E404FE
:1029D0009093E5040E94A5046093DE047093DF04E5
:1029E0008093E0049093E104C7EBD4E01B821A8249
:1029F00024E530E03D832C8380E390E09F838E8349
:102A0000398728879B878A871E8A1D861C861F8692
:102A10001E8681E08D8B8C8B2FEF3FEF3B8B2A8BBB
:102A2000398B288B8F8B188E1A8E198E87E393E043
:102A3000998388838CE190E00E9461218C0185E07C
:102A4000F80183878FEF86878587848786EB94E0FC
:102A500091838083138E82E090E00E94612120E5C3
:102A6000FC0120831182F8019383828380E099E046
:102A7000ADE3B0E084839583A683B78381E090E0E3
:102A80009187808712861C8F0B8F86E08E8F84E063
:102A90008D8FDF91CF911F910F910895CF93DF9389
:102AA000CDB7DEB764970FB6F894DEBF0FBECDBFCB
:102AB000789484B5826084BD84B5816084BD85B519
:102AC000826085BD85B5816085BD80916E00816025
:102AD00080936E00109281008091810082608093CB
:102AE00081008091810081608093810080918000CD
:102AF0008160809380008091B10084608093B100F8
:102B00008091B00081608093B00080917A008460F1
:102B100080937A0080917A00826080937A0080911D
:102B20007A00816080937A0080917A008068809337
:102B30007A001092C100E0912904F0912A0482E009
:102B40008083E0912504F09126041082E09127040F
:102B5000F09128048FEC808310923104E0912D04D1
:102B6000F0912E0486E08083E0912B04F0912C04F8
:102B7000808180618083E0912B04F0912C0480811E
:102B800088608083E0912B04F0912C048081806820
:102B90008083E0912B04F0912C0480818F7D8083D1
:102BA00082EA93E00E94991183EB93E00E949911CD
:102BB0000E94100E81E590E00E94EF0E61E08AE035
:102BC0000E9497030091D2041091D304D8011B9660
:102BD0008C918F3F41F061E00E94970361E0F80122
:102BE00083850E946903D8018D919C91892B09F4FA
:102BF0008BC00E94100E81E0F801838F61E080910C
:102C0000D5040E9497038091D40487FD03C061E03E
:102C10000E94970384E08093D70488E28093D604CF
:102C20001092D8041092D9040E947B0F1092DA04FB
:102C30008091DB04833508F483E58093DB041092F4
:102C4000DC048091DD048F3208F48FE28093DD0490
:102C50000E94B90F84E60E94640F0E94E21062E0B5
:102C60008EE00E94970362E080E10E94970362E099
:102C70008FE00E94970361E084E00E94970361E087
:102C800087E00E94970365E375E080E090E00E9492
:102C9000CA0460E084E00E94690362E082E00E946E
:102CA000970362E083E00E94970328E035E03093C9
:102CB000020120930101809169008C7F81608093E3
:102CC0006900E89A30930401209303018091690020
:102CD000837F846080936900E99A54E6252E312C25
:102CE00080910B0490910C040097C9F1019709F4AD
:102CF00098C480E090E0892B99F30E94F305882323
:102D000079F30E940000ECCF61E0F80184850E9415
:102D10009703D8011A968C911A978B7FE1F460E0A3
:102D20001C968C910E946903D8011D968C918F3F4F
:102D300041F061E00E94970361E0F80185850E94FF
:102D40006903D8011E968C918F3F09F454CF60E03F
:102D50000E94970350CF61E0F8018485E3CF1D8284
:102D60001E821F82188619821A821B821C82D12C15
:102D700011E0F1E0FD870E94FC0469877A878B8768
:102D80009C872091EE033091EF034091F003509126
:102D9000F103298B3A8B4B8B5C8B112309F433C1E4
:102DA0008090EA039090EB03A090EC03B090ED03C9
:102DB000C09002040E94E2104090EE035090EF0396
:102DC0006090F0037090F1036091EE037091EF0357
:102DD0008091F0039091F10320E030E0A9010E947E
:102DE0008B1F87FF1FC077FA709477F87094EE24DA
:102DF000E394F12C0AE010E024E030E04AE050E0F7
:102E000070E060E087EB94E00E94720A0BE010E053
:102E100024E030E04BE050E070E060E087EB94E0CD
:102E20000E94720A20E030E048EC52E4C301B20193
:102E30000E94EF2020E030E040E05FE30E941F1F8F
:102E40000E940220CB01B1010E94AC1E7B018C01CB
:102E5000BC01990F880B990B0E943A202B013C0171
:102E600083E08093CB048093CC0487E090E0909340
:102E7000C4048093C3041092C6041092C5043AE0BF
:102E8000E316F10474F48CEB93E00E94E51189E100
:102E900090E09093C4048093C3041092C6041092EF
:102EA000C504C7010E94641120E030E040E251E413
:102EB000C301B2010E948B1F87FFCCC080E390E06A
:102EC0009093C4048093C3041092C6041092C50466
:102ED0008CEB93E00E94E51182E490E09093C404AF
:102EE0008093C3041092C6041092C504C8010E94C6
:102EF000641182E08093CB048093CC0446E250E0DE
:102F00005093C4044093C30488E090E09093C604B7
:102F10008093C5048EEB93E00E94E511A8E4B0E035
:102F2000B093C404A093C304E0E2F0E0F093C604BD
:102F3000E093C50480EC93E00E94E51180911101BB
:102F400090911201EE24E394F12C07E110E027E2C6
:102F500030E047E150E068E170E0019731F021E5B1
:102F600030E047E150E062E470E087EB94E00E94DB
:102F7000720A81E08093CB048093CC04D1100E942C
:102F8000E60B0E948D0C80911604882309F465C01D
:102F9000DD2009F462C023E130E03093C4042093C3
:102FA000C30489E190E09093C6048093C50482EC49
:102FB00093E00E94E51147E150E05093C404409330
:102FC000C30481E290E09093C6048093C5048BEC27
:102FD00093E00E94E511E8E1F0E0F093C404E0938F
:102FE000C30429E230E03093C6042093C504CC200A
:102FF00009F44AC022E0B501A40187EB94E00E94E5
:10300000EA110E94B90F0E94C6100091010400232A
:1030100009F445C08EE090E00E94A610182F882386
:10302000F1F180911101909112018130910509F027
:1030300056C182E090E090931201809311011092AA
:1030400001041092FA031092FF031D821E821F8258
:10305000188631C080E390E041CF80911804882326
:1030600009F4B9CFDD2009F4B6CF87E190E0909361
:10307000C4048093C304ADE1B0E0B093C604A09350
:10308000C50482ED93E0A5CF42E150E05093C40423
:103090004093C30484E693E00E94E511B2CFAE01F1
:1030A0004B5F5F4FBE016F5F7F4F802F0E942F10DD
:1030B000182F811116C18091FF03882301F18FE041
:1030C00090E00E94A610082F8823C9F0DD2009F4A3
:1030D00020C10E94C81189859A85AB85BC858093E3
:1030E000FB039093FC03A093FD03B093FE03D12C4C
:1030F000109201041092FA031092FF03102F809196
:10310000FA03811111C18091F8039091F903209184
:10311000F6033091F7038217930709F01BC1DD20F6
:10312000D1F02091EE033091EF034091F0035091E4
:10313000F10369897A898B899C890E948B1F81118F
:1031400003C09D85992339F066EE73E083E090E239
:103150000E94710E1D868091050190910601A0913B
:103160000701B091080129853A854B855C85281BAC
:10317000390B4A0B5B0BDA01C901883E9340A1056C
:10318000B105E0F189859A85AB85BC858093050101
:1031900090930601A0930701B093080184E10E9477
:1031A000D303BC01990F880B990B0E943A2020E0B1
:1031B00030E543EC57E40E94EF2020EA3DE547EA82
:1031C00058E40E941F1F2CE533E443E85AE40E94B0
:1031D000901F9B01AC012093EA033093EB034093D3
:1031E000EC035093ED036091EE037091EF03809137
:1031F000F0039091F1030E94D81211E08091000435
:10320000882341F18091090190910A01A0910B015D
:10321000B0910C0129853A854B855C85281B390BBB
:103220004A0B5B0BDA01C90189359B41A105B10548
:1032300088F089859A85AB85BC8580930901909338
:103240000A01A0930B01B0930C011092000480E0DE
:103250000E94460E00910204002351F1D11028C0B3
:103260008091FB039091FC03A091FD03B091FE03BC
:1032700029853A854B855C85281B390B4A0B5B0BEE
:10328000DA01C90189359B41A105B10588F089851D
:103290009A85AB85BC858093FB039093FC03A09338
:1032A000FD03B093FE03109202040E94AC11102F94
:1032B0000E94FC0429853A854B855C85621B730B53
:1032C000840B950B633071058105910508F053CD92
:1032D00062E070E080E090E00E94CA04E9CF0197CC
:1032E000AACE8D819E81AF81B8850397A105B105D6
:1032F00051F480910004882341F0109200048091E1
:1033000000040E94460E10E0D6CE81E080930004B7
:10331000F6CFD0900204D110EBCE81E0809302046E
:103320000E94BA11D02EE4CE80E190E00E94A61057
:10333000882309F4E8CE81E090E090930C04809318
:103340000B040E94C8111092FA031092010410920B
:10335000FF03CFCC8090EE039090EF03A090F0039A
:10336000B090F1034091F6035091F70320911101C1
:1033700030911201841795070CF0C5C04091F603F7
:103380005091F703841795074CF44091F603509140
:10339000F7030A96841795070CF44EC021303105C7
:1033A00009F0A4C06091EE037091EF038091F003E7
:1033B0009091F10320E030E040E85FE30E941F1F9E
:1033C0006093EE037093EF038093F0039093F10307
:1033D00020E030E0A901C501B4010E948B1F87FFE6
:1033E00045C020E030E040E85FEBC501B4010E9439
:1033F000EA201816DCF52091EE033091EF0340919E
:10340000F0035091F103C501B4010E948B1F87FFA7
:103410002DC04090EE035090EF036090F003709049
:10342000F10320E030E040E050ECC501B4010E941F
:10343000EF20A301920110C06091EE037091EF03A1
:103440008091F0039091F1032130310509F049C0DA
:1034500020E030E040E251E40E941F1F6093EE0341
:103460007093EF038093F0039093F1036091EE0368
:103470007091EF038091F0039091F10320E030E030
:1034800040E251EC0E948B1F87FDC1C06091EE03AA
:103490007091EF038091F0039091F10320E030E010
:1034A00040E251E40E94EA2018160CF4B5C0809165
:1034B000EE039091EF03A091F003B091F10380939C
:1034C000EE039093EF03A093F003B093F103809188
:1034D000F6039091F7039093F9038093F80311E0BA
:1034E0001ECE2DEC3CEC4CEC5DE3B6CF6091EE03D0
:1034F0007091EF038091F0039091F1032AE037ED92
:1035000043E25CE3A9CF4091F6035091F7034817DB
:1035100059074CF44091F6035091F7030A97481766
:1035200059070CF450C02130310509F063C0609197
:10353000EE037091EF038091F0039091F10320E08E
:1035400030E040E85FE30E941E1F6093EE0370933B
:10355000EF038093F0039093F10320E030E0A901A2
:10356000C501B4010E94EA2018160CF07FCF20E0BC
:1035700030E040E85FE3C501B4010E948B1F87FF84
:1035800075CF2091EE033091EF034091F0035091FD
:10359000F103C501B4010E94EA2018160CF066CFB1
:1035A0004090EE035090EF036090F0037090F103B1
:1035B000A5019401C501B4010E941F1F9B01AC012C
:1035C000C301B2010FC06091EE037091EF038091CF
:1035D000F0039091F1032130310539F420E030E01F
:1035E00040E251E40E941E1F39CF2DEC3CEC4CEC24
:1035F0005DE3F8CF6091EE037091EF038091F003EB
:103600009091F1032AE037ED43E25CE3EBCF80E0F9
:1036100090E0A0E2B1EC53CF80E090E0A0E2B1E412
:103620004ECF1D821E821F82188619821A821B822B
:103630001C82D12C11E031E039870E94FC044B013F
:103640005C018091070490910804A0910904B09155
:103650000A048D879E87AF87B88B112309F409C1AF
:103660002091030430910404409105045091060414
:10367000298B3A8B4B8B5C8BC09002040E94E2102A
:1036800060910704709108048091090490910A04E4
:1036900020E030E048EC52E40E94EF2020E030E0EF
:1036A00040E05FE30E941F1F0E940220CB01B10196
:1036B0000E94AC1E7B018C01BC01990F880B990BF9
:1036C0000E943A202B013C0183E08093CB0480933D
:1036D000CC0487E090E09093C4048093C3041092DC
:1036E000C6041092C5043AE0E316F10474F48CEBBE
:1036F00093E00E94E51189E190E09093C4048093E7
:10370000C3041092C6041092C504C7010E9464113C
:1037100020E030E040E251E4C301B2010E948B1F7F
:1037200087FFCAC080E390E09093C4048093C304F1
:103730001092C6041092C5048CEB93E00E94E51130
:1037400082E490E09093C4048093C3041092C60472
:103750001092C504C8010E94641182E08093CB04DA
:103760008093CC0446E250E05093C4044093C304D9
:1037700088E090E09093C6048093C5048EEB93E0BC
:103780000E94E511ACE3B0E0B093C404A093C3047D
:10379000E0E2F0E0F093C604E093C50489ED93E025
:1037A0000E94E5118091110190911201EE24E394A1
:1037B000F12C07E110E027E230E047E150E068E15A
:1037C00070E0019731F021E530E047E150E062E43C
:1037D00070E087EB94E00E94720A81E08093CB0452
:1037E0008093CC04D1100E94E60B0E948D0C809136
:1037F0001604882309F463C0DD2009F460C023E1C6
:1038000030E03093C4042093C30489E190E09093A6
:10381000C6048093C50482EC93E00E94E51147E161
:1038200050E05093C4044093C30481E290E090932D
:10383000C6048093C5048BEC93E00E94E511E8E197
:10384000F0E0F093C404E093C30429E230E0309345
:10385000C6042093C504CC2009F448C022E049895D
:103860005A896B897C8987EB94E00E94EA110E9457
:10387000B90F0E94C61000910104002309F441C051
:103880008EE090E00E94A610182F8823D1F180913D
:103890001101909112018130910509F047C182E038
:1038A00090E09093120180931101109201041D8207
:1038B0001E821F82188631C080E390E043CF809142
:1038C0001804882309F4BBCFDD2009F4B8CF87E1C1
:1038D00090E09093C4048093C304ADE1B0E0B09352
:1038E000C604A093C5048CED93E0A7CF42E150E05D
:1038F0005093C4044093C30484E693E00E94E5110E
:10390000B6CFAE014B5F5F4FBE016F5F7F4F802F21
:103910000E942F10182F81110BC18091FF03882363
:10392000B1F08FE090E00E94A610082F882379F074
:10393000D11016C1D0900204D11006C081E080934E
:1039400002040E94BA11D02E1092FF03102F809112
:10395000FA03811111C18091F8039091F90320912C
:10396000F6033091F7038217930709F015C1DD20A4
:10397000D1F020910704309108044091090450913E
:103980000A046D857E858F8598890E948B1F811121
:1039900003C05985552339F062EF73E087E090E268
:1039A0000E94710E198680910D0190910E01A091D7
:1039B0000F01B0911001A5019401281B390B4A0B8E
:1039C0005B0BDA01C901883E9340A105B10508F4FB
:1039D0004CC01091020480920D0190920E01A092B1
:1039E0000F01B092100183E10E94D303BC01990F33
:1039F000880B990B0E943A209B01AC012093030491
:103A0000309304044093050450930604112309F4F1
:103A1000A1C16091070470910804809109049091FC
:103A20000A040E94D81220E030E44CE156E4609190
:103A300003047091040480910504909106040E948F
:103A4000EF202CE934E145E95AE40E941E1F20E6EC
:103A500036EE44EC58E40E94901F60930304709388
:103A60000404809305049093060480910004882345
:103A700011F18091090190910A01A0910B01B0917F
:103A80000C01A5019401281B390B4A0B5B0BDA01D1
:103A9000C90189359B41A105B10568F080920901F2
:103AA00090920A01A0920B01B0920C0110920004B6
:103AB00080E00E94460E00910204002321F1D11003
:103AC00022C08091FB039091FC03A091FD03B09173
:103AD000FE03A5019401281B390B4A0B5B0BDA018D
:103AE000C90189359B41A105B10568F08092FB03AE
:103AF0009092FC03A092FD03B092FE031092020488
:103B00000E94AC11102F0E94FC04681979098A09DF
:103B10009B09693171058105910508F08ECD62E040
:103B200070E080E090E00E94CA04EDCF0197B9CE2A
:103B30008D819E81AF81B8850397A105B10551F4B0
:103B400080910004882341F01092000480910004C9
:103B50000E94460E10E0E1CE81E080930004F6CF93
:103B60000E94C8118092FB039092FC03A092FD0377
:103B7000B092FE03D12CE8CE80E190E00E94A61026
:103B8000882309F4E8CE10920C0410920B040E94D2
:103B9000C8111092FA03ADC84091F6035091F70393
:103BA0002091110130911201841795070CF086C005
:103BB0004091F6035091F7038417950744F4409120
:103BC000F6035091F7030A96841795078CF021307D
:103BD000310509F066C06091070470910804809176
:103BE000090490910A0420E030E040E85FE310C04F
:103BF00060910704709108048091090490910A046F
:103C00002130310509F048C020E030E040E251E4C5
:103C10000E941F1F60930704709308048093090497
:103C200090930A046091070470910804809109043C
:103C300090910A0420E030E0A9010E948B1F87FDCB
:103C400080C06091070470910804809109049091EC
:103C50000A0420E030E040EC51E40E94EA2018160B
:103C60000CF473C08091070490910804A09109049A
:103C7000B0910A048093070490930804A093090468
:103C8000B0930A048091F6039091F7039093F9039F
:103C90008093F80311E06BCE2DEC3CEC4CEC5DE333
:103CA000B7CF609107047091080480910904909146
:103CB0000A042AE037ED43E25CE3AACF4091F60321
:103CC0005091F7034817590744F44091F603509177
:103CD000F7030A974817590784F02130310521F579
:103CE00060910704709108048091090490910A047E
:103CF00020E030E040E85FE30FC06091070470917E
:103D000008048091090490910A042130310539F4A6
:103D100020E030E040E251E40E941E1F7BCF2DECFA
:103D20003CEC4CEC5DE3F8CF609107047091080423
:103D30008091090490910A042AE037ED43E25CE3A4
:103D4000EBCF80E090E0DC0195CF80E090E0A0EC4C
:103D5000B1E490CF11E089CE97FB072E16F40094C2
:103D600007D077FD09D00E94EA1E07FC05D03EF47B
:103D7000909581959F4F0895709561957F4F089517
:103D8000A1E21A2EAA1BBB1BFD010DC0AA1FBB1F5F
:103D9000EE1FFF1FA217B307E407F50720F0A21BD1
:103DA000B30BE40BF50B661F771F881F991F1A943E
:103DB00069F760957095809590959B01AC01BD0168
:103DC000CF010895B7FF0C94041F0E94041F821BAB
:103DD000930B0895AA1BBB1B51E107C0AA1FBB1F71
:103DE000A617B70710F0A61BB70B881F991F5A9587
:103DF000A9F780959095BC01CD010895EE0FFF1FA6
:103E00000590F491E02D09940E940F1FA59F900D3D
:103E1000B49F900DA49F800D911D11240895A29F21
:103E2000B001B39FC001A39F700D811D1124911D8E
:103E3000B29F700D811D1124911D08955058BB270C
:103E4000AA270E94361F0C94B0200E94A22038F0AE
:103E50000E94A92020F039F49F3F19F426F40C9415
:103E60009F200EF4E095E7FB0C949920E92F0E9427
:103E7000C12058F3BA17620773078407950720F02B
:103E800079F4A6F50C94E3200EF4E0950B2EBA2FEE
:103E9000A02D0B01B90190010C01CA01A001112450
:103EA000FF27591B99F0593F50F4503E68F11A16FC
:103EB000F040A22F232F342F4427585FF3CF46958D
:103EC00037952795A795F0405395C9F77EF41F16AF
:103ED000BA0B620B730B840BBAF09150A1F0FF0F79
:103EE000BB1F661F771F881FC2F70EC0BA0F621F65
:103EF000731F841F48F4879577956795B795F79555
:103F00009E3F08F0B0CF9395880F08F09927EE0FE9
:103F10009795879508950E94752008F481E008958B
:103F20000E94A41F0C94B0200E94A92058F00E9467
:103F3000A22040F029F45F3F29F00C949920511100
:103F40000C94E4200C949F200E94C12068F39923D4
:103F5000B1F3552391F3951B550BBB27AA27621785
:103F60007307840738F09F5F5F4F220F331F441F92
:103F7000AA1FA9F335D00E2E3AF0E0E832D09150C6
:103F80005040E695001CCAF72BD0FE2F29D0660FB3
:103F9000771F881FBB1F261737074807AB07B0E8F6
:103FA00009F0BB0B802DBF01FF2793585F4F3AF0FC
:103FB0009E3F510578F00C9499200C94E4205F3FCB
:103FC000E4F3983ED4F3869577956795B795F79582
:103FD0009F5FC9F7880F911D9695879597F908956A
:103FE000E1E0660F771F881FBB1F62177307840706
:103FF000BA0720F0621B730B840BBA0BEE1F88F715
:10400000E09508950E9409206894B1110C94E42071
:1040100008950E94C92088F09F5798F0B92F9927DA
:10402000B751B0F0E1F0660F771F881F991F1AF0A3
:10403000BA95C9F714C0B13091F00E94E320B1E005
:1040400008950C94E320672F782F8827B85F39F004
:10405000B93FCCF3869577956795B395D9F73EF43C
:1040600090958095709561957F4F8F4F9F4F0895E4
:10407000E89409C097FB3EF4909580957095619502
:104080007F4F8F4F9F4F9923A9F0F92F96E9BB27B8
:104090009395F695879577956795B795F111F8CF34
:1040A000FAF4BB0F11F460FF1BC06F5F7F4F8F4F9F
:1040B0009F4F16C0882311F096E911C0772321F095
:1040C0009EE8872F762F05C0662371F096E8862F2D
:1040D00070E060E02AF09A95660F771F881FDAF784
:1040E000880F9695879597F90895990F0008550FB1
:1040F000AA0BE0E8FEEF16161706E807F907C0F06E
:1041000012161306E407F50798F0621B730B840B75
:10411000950B39F40A2661F0232B242B252B21F44F
:1041200008950A2609F4A140A6958FEF811D811DEF
:10413000089597F99F6780E870E060E008959FEF29
:1041400080EC089500240A9416161706180609062E
:10415000089500240A9412161306140605060895FD
:10416000092E0394000C11F4882352F0BB0F40F485
:10417000BF2B11F460FF04C06F5F7F4F8F4F9F4FC5
:10418000089557FD9058440F551F59F05F3F71F047
:104190004795880F97FB991F61F09F3F79F08795AE
:1041A0000895121613061406551FF2CF4695F1DF37
:1041B00008C0161617061806991FF1CF86957105C7
:1041C000610508940895E894BB2766277727CB01FB
:1041D00097F908950E94752008F48FEF08950E94C2
:1041E00002210C94B0200E94A22038F00E94A92045
:1041F00020F0952311F00C9499200C949F20112409
:104200000C94E4200E94C12070F3959FC1F3950F98
:1042100050E0551F629FF001729FBB27F00DB11D4A
:10422000639FAA27F00DB11DAA1F649F6627B00DDA
:10423000A11D661F829F2227B00DA11D621F739FC3
:10424000B00DA11D621F839FA00D611D221F749FD1
:104250003327A00D611D231F849F600D211D822F18
:10426000762F6A2F11249F5750409AF0F1F088233F
:104270004AF0EE0FFF1FBB1F661F771F881F91506C
:104280005040A9F79E3F510580F00C9499200C9462
:10429000E4205F3FE4F3983ED4F3869577956795E5
:1042A000B795F795E7959F5FC1F7FE2B880F911D96
:1042B0009695879597F908950E947520880B990B1C
:1042C00008950F931F93CF93DF938230910510F4DD
:1042D00082E090E0E091E804F091E90430E020E031
:1042E000B0E0A0E0309799F42115310509F44AC0F7
:1042F000281B390B24303105D8F58A819B81611543
:10430000710589F1FB0193838283FE0111C0408115
:1043100051810281138148175907E0F04817590766
:1043200099F4109761F012960C93129713961C93C0
:104330003296CF01DF91CF911F910F910895009395
:10434000E8041093E904F4CF2115310551F0421728
:10435000530738F0A901DB019A01BD01DF01F80123
:10436000C1CFEF01F9CF9093E9048093E804CDCF5A
:10437000FE01E20FF31F819391932250310939839B
:104380002883D7CF2091E6043091E704232B41F412
:1043900020910D0330910E033093E7042093E6043F
:1043A00020910B0330910C032115310541F42DB7F9
:1043B0003EB740910F0350911003241B350BE09141
:1043C000E604F091E704E217F307A0F42E1B3F0B7D
:1043D0002817390778F0AC014E5F5F4F2417350777
:1043E00048F04E0F5F1F5093E7044093E60481931B
:1043F00091939FCFF0E0E0E09CCFCF93DF930097C5
:10440000E9F0FC01329713821282A091E804B09186
:10441000E904ED0130E020E01097A1F42081318122
:10442000820F931F2091E6043091E7042817390783
:1044300009F061C0F093E704E093E604DF91CF91C7
:104440000895EA01CE17DF07E8F54A815B819E01F6
:1044500041155105B1F7E901FB83EA83499159916F
:10446000C40FD51FEC17FD0761F48081918102967E
:10447000840F951FE90199838883828193819B83AF
:104480008A83F0E0E0E012968D919C91139700975B
:10449000B9F52D913C911197CD010296820F931F92
:1044A0002091E6043091E7042817390739F6309750
:1044B00051F51092E9041092E804B093E704A09338
:1044C000E604BCCFD383C28340815181840F951F02
:1044D000C817D90761F44E5F5F4F88819981480FF3
:1044E000591F518340838A819B8193838283211545
:1044F000310509F0B0CFF093E904E093E8049ECFD2
:10450000FD01DC01C0CF13821282D7CF81E090E0A1
:0A451000F8940C948B22F894FFCF6E
:10451A00038805880532000000190000004B0000DE
:10452A000001000000000000000000000000000080
:10453A000000000000000000000000000000000071
:10454A00000000000000000000C0E0F0F8FCFCFEE3
:10455A00FFFCE00000000000000000000000000076
:10456A000000000000000000000000000000000041
:10457A000000000000000000000000000000000031
:10458A000000000000000000F8F8F8F8F8F8F8F861
:10459A00F8F8F8F8F0F0E0E0C080C0FCFFFFFFFF99
:1045AA007F3F7FFFFFFFFFFF0000000000000000C9
:1045BA0000000000000000000000000000000000F1
:1045CA0000000000000000000000000000000000E1
:1045DA00000000000000000000000000000F1F3F64
:1045EA007FFFFFFFFFFFFFFFFFE7C7C7878F9F9F81
:1045FA00FFFFFFC1C0E0FCFFFFFFFFFFFCFCFCFC6C
:10460A00FEFEFEFCFCF8F8F0E0C0C000000000006E
:10461A000000000000000000000000000000000090
:10462A000000000000000000000000000000000080
:10463A000000000080C0E0F1FBFFFFFFFFFF7F1FCB
:10464A000F0F87E7FFFFFF1F1F3FF9F8F8F8F8F889
:10465A00F8FDFFFFFFFFFFFFFFFFFF7F3F0F07018F
:10466A000000000000000000000000000000000040
:10467A000000000000000000000000000000000030
:10468A00000000000000F0FEFFFFFFFFFFFFFFFF3A
:10469A00FFFFFE7E3F3F0F1FFFFFFFFCF0E0F1FF31
:1046AA00FFFFFFFFFCF00101010101010101000010
:1046BA0000000000000000000000000000000000F0
:1046CA0000000000000000000000000000000000E0
:1046DA0000000000000000000000030303030303BE
:1046EA0003030101010100000000000000030F1F85
:1046FA003F7F7FFFFFFFFF7F7F1F03000000000057
:10470A00000000000000000000000000000000009F
:10471A0000000000000000000000000000EA048021
:10472A000000FF0100010000FFFF0000010001FF7F
:10473A00000000000029068905B6057606E705C5CA
:10474A0005D90500000000410989050D0E0C0E96D9
:10475A00061603860CBE0BDA0BCE0B5F0D1603078B
:10476A00071E10850B4C0B070BEA0A720A130A0D77
:10477A000A0050204F46460050204F4E004F5554D5
:10478A002044495341424C454421002D2D2D2D2DC5
:10479A002D2D2D2D2D2D2D2D2D2D2D2D2D2D2D2D3F
:1047AA002D2D2D2D2D006E616E00696E66006F76BF
:1047BA00660044454242554720424547494E20211A
:1047CA0021210059454545454545540030002E00F4
:1047DA00560045585445524E414C00534F5552438A
:1047EA004500204C4F57205A006D41004849474820
:0447FA00205A000041
:00000001FF
